:020000040800F2
:10000000B02C00202D020008D5230008CD230008C5
:10001000D123000875070008C1280008000000006F
:10002000000000000000000000000000152500088E
:10003000A107000800000000DF23000817250008C2
:10004000C5280008D7230008470200087D240008BF
:100050004702000847020008A307000847020008FB
:100060004702000847020008470200087907000815
:10007000470200084702000847020008470200083C
:10008000470200084702000847020008470200082C
:10009000470200084702000847020008470200081C
:1000A000470200084702000847020008470200080C
:1000B00021250008470200084D25000847020008D6
:1000C00047020008470200084702000847020008EC
:1000D000470200089D280008470200084702000860
:1000E00047020008470200084702000847020008CC
:1000F0004702000847020008A1250008470200083F
:10010000470200084702000891250008470200083E
:10011000470200084702000847020008470200089B
:10012000470200084702000847020008470200088B
:1001300000F002F800F06BF80AA090E8000C82448E
:100140008344AAF10107DA4501D100F060F8AFF26B
:10015000090EBAE80F0013F0010F18BFFB1A43F0A5
:100160000103184738BD000058BD00000A444FF095
:10017000000C10F8013B13F0070408BF10F8014B06
:100180001D1108BF10F8015B641E05D010F8016B4B
:10019000641E01F8016BF9D113F0080F1EBF10F8AF
:1001A000014BAD1C0C1B09D16D1E58BF01F801CBD2
:1001B000FAD505E014F8016B01F8016B6D1EF9D555
:1001C0009142D6D37047000000230024002500266A
:1001D000103A28BF78C1FBD8520728BF30C148BFAA
:1001E0000B607047642900F09F80752900F09C80A7
:1001F000782900F0D580632900F06882732900F027
:100200006D82002070471FB51FBD10B510BD00F0F6
:1002100083FA1146FFF7F7FF06F0ACFB00F0A1FAF6
:1002200003B4FFF7F2FF03BC02F077FB09488047F5
:1002300009480047FEE7FEE7FEE7FEE7FEE7FEE7C8
:10024000FEE7FEE7FEE7FEE704480549054A064BE0
:10025000704700001F25000831010008B02600206B
:10026000B02C0020B0280020B028002070470000EB
:100270000FB4044910B503AA029800F033FA10BC79
:100280005DF814FB0400002070B504468569006821
:10029000C10601D5302600E02026C00707D070BD7A
:1002A000D4E9012130469047206A401C20626D1E2F
:1002B000F6D570BD70B5044685690078C00707D1D2
:1002C00070BDD4E9012120209047206A401C2062A3
:1002D0006D1EF6D570BD70B50C460546012A05D0D9
:1002E0002878800600D5EA69002302E0012305E0B2
:1002F0005B1C934202D2E05C0028F9D1A869E618A1
:10030000C01AA861286A184428622846FFF7BCFF73
:1003100004E0D5E9012114F8010B9047B442F8D369
:100320002846FFF7C7FF70BD2DE9F04106460024BF
:1003300010687529314616A510D0AFF3008000284B
:1003400002DA404213A507E031688A0701D512A5F9
:1003500002E0490704D511A5012401E0AFF30080B4
:1003600000210A2206F1240709E0B0FBF2FCB0FBF1
:10037000F2F302FB1C00303078541846491C002868
:10038000F3D123462A463046BDE8F04100F023B9B8
:10039000000000002D0000002B00000020000000E5
:1003A00070B504460D4621461068AFF300802188E1
:1003B000090502D50F4A7A4402E00E4A7A440E3209
:1003C000002104F1240305E000F00F060009965D0A
:1003D0005E54491C0028F7D120780023000704D57B
:1003E000702D02D009B1022311322046BDE87040C1
:1003F00000F0F1B856B500002DE9F05F89460446DB
:100400004FF0000ADFF874B1FB44C0F820A020468A
:10041000E1688847002874D0252806D0D4E9012156
:100420009047206A401C2062F1E700265F46204684
:10043000E16888472028054607DB312D05D2781969
:1004400010F8200C08B10643F1E7B00701D526F0FB
:100450000406C4F81CA00027C4F818A02A2D09D04F
:10046000284602F053FA38B304EB8708303DC8F849
:10047000185019E059F8041B204604EB87029161DB
:10048000E1688847012F054618D1E069002820DA85
:1004900026F020061DE0D8F8180000EB800005EBE0
:1004A00040003038C8F818002046E1688847054603
:1004B00002F02CFA0028EED1012F0AD02E2D08D1FF
:1004C0002046E16888477F1C0546022F46F020063B
:1004D000C4DBA069002803DA404246F00106A061AF
:1004E000F00701D026F010066C2D0BD0682D09D036
:1004F0004C2D39D06A2D35D0742D35D07A2D33D08E
:1005000016E038E0E1682F4620468847B8420546A5
:1005100009D16C2F26D04FF48060E1680643204655
:100520008847054604E06C2F1AD04FF480700643CC
:100530000DB3A5F14100192802D8203546F4006614
:100540004A462946204626604E46FFF74BFE80B1BC
:1005500001280BD0F61D26F0070000F1080956E728
:100560004020E4E78020D8E70020D6E706F1040920
:100570004DE7284652E7206ABDE8F09F2CB5000001
:100580004FF0000200B5134694469646203922BF2C
:10059000A0E80C50A0E80C50B1F12001BFF4F7AF77
:1005A000090728BFA0E80C5048BF0CC05DF804EB59
:1005B000890028BF40F8042B08BF704748BF20F8C7
:1005C000022B11F0804F18BF00F8012B70477047C5
:1005D0007047704770472DE9F0470D46994692469F
:1005E000044600F124080168880604D5E06921F07A
:1005F0001001216000E00120A84201DD471B00E05E
:100600000027A1697A1902EB0900081AA061207875
:10061000C00602D42046FFF737FE002608E0D4E9E2
:1006200001211AF806009047206A401C761C2062BF
:100630004E45F4DB2078C0060AD52046FFF724FE9D
:1006400006E0D4E9012130209047206A401C206256
:10065000381EA7F10107F4DC07E0D4E9012118F8FE
:1006600005009047206A401C2062281EA5F1010564
:10067000F3DC2046FFF71EFE2078000602D502209C
:10068000BDE8F0870120FBE701694A1C0261087898
:10069000704700B58FB0CDE90131002105910549C2
:1006A0007944CDE9031011466846FFF7A5FE0FB067
:1006B00000BD0000E5FFFFFF10B5436913B1AFF3C4
:1006C000008001E0FFF707FE012010BD127800F165
:1006D00024010A7000224A700122EDE711684FF0F0
:1006E000FF32E9E7074B70B50D467B44FFF7D1FFBA
:1006F0000446284600F008F810B14FF0FF3070BDF6
:10070000204670BD97240000007B00F080007047F9
:1007100000487047502600207546FFF7F9FFAE46A7
:1007200005006946534620F00700854618B020B5FD
:10073000FFF78AFDBDE820404FF000064FF00007AC
:100740004FF000084FF0000B21F00701AC46ACE879
:10075000C009ACE8C009ACE8C009ACE8C0098D46E6
:10076000704710B50446AFF300802046BDE8104046
:10077000FFF756BD00BFFEE70748006800F0020023
:1007800040B10120054908700348406840F002006C
:100790000149486070470000000002403600002018
:1007A000704710B5012000F06DF910BD70B504461A
:1007B000B3F5804F13D1D1E9000540EA05108D68EB
:1007C00040EA05208D6928438D8940EA054054F8A8
:1007D0002250064E3540284344F8220003E06FF0D3
:1007E000704044F82200002070BD00000000F0CFEF
:1007F00070B50246086852F8200020F001000E682B
:1008000042F826008868082801D1402300E0002330
:10081000486818438E683043CE6830430E693043D1
:100820004E693043CE6930430E6A30434E6A3043DE
:100830008E6A3043CE6A30430E6B40EA0604886904
:100840000443486B0443074D45F4806545F4E025B7
:10085000086852F82000A84320430E6842F826009A
:10086000002070BD7FFB080010B50346D1E90004ED
:1008700040EA04108C6840EA04208C8940EA044471
:10088000088A401E44EA0054087D801E44EA006045
:100890008C692043541C53F8244004F04044204306
:1008A000541C43F82400002010BD38B50446002035
:1008B00000902068009029B902F10800009D2844AA
:1008C000009004E002F11400009D2844009000987C
:1008D0000360002038BD000070B50446002594F880
:1008E0002100022803D00420A0630125C1E0206874
:1008F000006820F00E00216808602068006820F081
:100900000100216808605C492068884252D95A4930
:1009100078392068884201D1012047E0564964397E
:100920002068884201D1102040E0534950392068A6
:10093000884201D1801539E04F493C39206888420E
:1009400001D1801432E04C4928392068884202D114
:100950004FF480302AE0484914392068884202D197
:100960004FF4801022E044492068884201D14004BD
:100970001CE042492068884201D1012016E03F492D
:1009800014312068884201D110200FE03B49283102
:100990002068884201D1801508E038493C31206840
:1009A000884201D1801401E04FF480303349091F9F
:1009B000086051E0304978392068884201D101202F
:1009C00047E02D4964392068884201D1102040E079
:1009D000294950392068884201D1801539E02649DB
:1009E0003C392068884201D1801432E022492839FC
:1009F0002068884202D14FF480302AE01E49143921
:100A00002068884202D14FF4801022E01A49206801
:100A1000884201D140041CE018492068884201D175
:100A2000012016E0154914312068884201D11020B8
:100A30000FE0124928312068884201D1801508E072
:100A40000E493C312068884201D1801401E04FF406
:100A50008030094980394860012084F8210000BFB6
:100A6000002084F8200000BF606B10B12046616B4D
:100A70008847284670BD00008000024008040240FC
:100A80007047000010B5044604480068204020B1BB
:100A9000024804602046FFF7F3FF10BD1404014034
:100AA0002DE9F847024600239C467BE14FF0010800
:100AB00008FA03F4D1F8008008EA0400A0427DD1CE
:100AC000DFF8F4A2D1F80480A8EB0A09D0453AD0A7
:100AD00014DCB8F1030F50D009DCB8F1000F31D0AD
:100AE000B8F1010F1CD0B8F1020F49D120E0B8F1E4
:100AF000110F18D0B8F1120F42D11EE0B9F5881FBE
:100B000025D006DCB9F5803F20D0B9F5801F37D15C
:100B10001AE0B9F5001F18D0B9F5041F30D117E05D
:100B2000D1F80CC02DE0D1F80C8008F1040C28E0BD
:100B3000D1F80C8008F1080C23E0D1F80C8008F102
:100B40000C0C1EE000BF00BF00BF00BF00BF00BF15
:100B5000D1F80880B8F1000F02D14FF0040C0BE07F
:100B6000D1F80880B8F1010F03D14FF0080C1461DF
:100B700002E04FF0080C546103E04FF0000C00E07D
:100B800000BF00BFFF2801D8904601E002F1040831
:100B90004646FF2802D84FEA830803E0A3F108087D
:100BA0004FEA88084746D6F800804FF00F0909FA47
:100BB00007F928EA09080CFA07F900E07AE048EAA0
:100BC0000908C6F80080D1F8048008F08058B8F110
:100BD000805F6FD100BFDFF8E481D8F8188048F05B
:100BE0000108DFF8D891C9F81880C846D8F81880ED
:100BF00008F00108CDF8008000BF00BF4FEAB93807
:100C00004FEA930958F829504FEA83784FEA187948
:100C10004FF00F0808FA09F825EA0805DFF8A08167
:100C2000424502D14FF0000824E0DFF898814245A8
:100C300002D14FF001081DE0DFF88C81424502D15E
:100C40004FF0020816E0DFF88481424502D14FF0F0
:100C500003080FE0DFF87881424502D14FF0040825
:100C600008E0DFF87081424502D14FF0050801E04D
:100C70004FF006084FEA83794FEA197908FA09F824
:100C800048EA0505DFF850814FEA930948F82950F2
:100C9000D1F8048008F48038B8F5803F0BD1DFF834
:100CA0003C81D8F8008048EA0008DFF83091C9F8A4
:100CB00000800AE075E0DFF82481D8F8008028EA97
:100CC0000008DFF81891C9F80080D1F8048008F412
:100CD0000038B8F5003F0ED1DFF8008108F10408B4
:100CE000D8F8008048EA0008DFF8F09009F104091C
:100CF000C9F800800DE0DFF8E48008F10408D8F8B6
:100D0000008028EA0008DFF8D49009F10409C9F846
:100D10000080D1F8048008F48018B8F5801F0ED147
:100D2000DFF8B88008F10808D8F8008048EA000821
:100D3000DFF8A89009F10809C9F800800DE0DFF894
:100D40009C8008F10808D8F8008028EA0008DFF83D
:100D50008C9009F10809C9F80080D1F8048008F4E2
:100D60000018B8F5001F0ED1DFF8708008F10C08EC
:100D7000D8F8008048EA0008DFF8609009F10C0913
:100D8000C9F800800DE0DFF8548008F10C08D8F8AD
:100D9000008028EA0008DFF8449009F10C09C9F83E
:100DA00000805B1CD1F8008028FA03F8B8F1000F2E
:100DB0007FF47CAEBDE8F8870000111000100240FF
:100DC00000080140000C01400010014000140140E7
:100DD00000180140001C01400800014000040140CF
:100DE000024693680B400BB1012000E000207047E1
:100DF00010B5C26821EA020302EA010443EA04438F
:100E0000036110BD0AB1016101E00B040361704789
:100E10000148006870470000100000200348006887
:100E20000349097808440149086070471000002010
:100E30001800002010B50848006840F0100006496E
:100E40000860052000F080F80F2000F007F800F09F
:100E50002BF8002010BD00000020024070B50446B1
:100E60000E4800784FF47A71B1FBF0F00C49096834
:100E7000B1FBF0F5284600F0DBFE08B1012070BDA3
:100E8000102C07D200222146501E00F01EF8054803
:100E9000046001E00120F2E70020F0E718000020E4
:100EA000000000201400002070470146084600287A
:100EB00009DB00F01F0301229A4043099B0003F164
:100EC000E023C3F8002100BF70472DE9F05F8046A2
:100ED0000D461646002701F0FDFC074639462A4616
:100EE000334601F00700C0F1070ABAF1040F02D936
:100EF0004FF0040A01E0C0F1070AD14600F1040AEC
:100F0000BAF1070F02D24FF0000A01E0A0F1030A84
:100F1000D4464FF0010A0AFA09FAAAF1010A0AEACC
:100F2000020A0AFA0CFA4FF0010B0BFA0CFBABF1B8
:100F3000010B0BEA030B4AEA0B042146404601F081
:100F4000D1FCBDE8F09F000000BF00F00702064B97
:100F500019684FF6FF031940044B0B4343EA022183
:100F6000014B196000BF70470CED00E00000FA056E
:100F7000012001490862704700000E4210B50E487A
:100F8000406800F00400042809D10CA0FFF770F9B4
:100F900000BF012291030E48FFF734FF0AE00DA0C5
:100FA000FFF766F900BF00224FF480410848FFF7C1
:100FB00029FF00BF10BD00000070004050564420C3
:100FC0004C6F7720566F6C746167652100000000DC
:100FD0000014014050564420566F6C7461676520C0
:100FE0004F4B210010B50648006800F4803028B14E
:100FF000FFF7C4FF4FF480300149086010BD0000C6
:10100000140401402DE9F04385B0064642A30FCBFE
:1010100001AC0FC444A0006800904FF00008002508
:1010200000270024A146042E36D004DC012E3BD03C
:10103000022E6BD15FE0082E32D0102E66D13B48D5
:101040004468006800F0807000B301A8C4F38341D5
:10105000475C04F4803070B134484068C0F34040CD
:101060001DF8008004F4803040B13148B0FBF8F046
:1010700000FB07F502E02F4807FB00F52B4840680E
:1010800000F48000B0F5800F01D1A94603E06800AC
:101090000321B0FBF1F93AE000F0D2F9814636E0E5
:1010A00000F0CEF9814632E02048046A04F4407032
:1010B000B0F5807F05D104F0020010B14FF4004973
:1010C00018E004F44070B0F5007F07D11748406A7B
:1010D00000F0020010B149F640490BE004F4407002
:1010E000B0F5407F06D11148006800F4003008B127
:1010F0004FF224490BE000F093F90C494968C1F321
:101100008131491C4900B0FBF1F900E000BF00BF8C
:10111000484605B0BDE8F083020304050607080948
:101120000A0B0C0D0E0F10100102000000100240FF
:1011300000127A0000093D00F8B50446002600259B
:10114000207800F0010000286BD000274348C069D8
:1011500000F0805070B900BF4048C06940F0805036
:101160003E49C8610846C06900F08050009000BF49
:1011700000BF01273A48006800F48070B0B93848D1
:10118000006840F4807036490860FFF741FE06466B
:1011900006E0FFF73DFE801B642801D90320F8BD5F
:1011A0002F48006800F480700028F2D02B48006AB5
:1011B00000F440752DB3A08800F44070A84220D000
:1011C0002648006A20F44075012026490860002066
:1011D00008602248056205F0010090B1FFF718FE93
:1011E000064608E0FFF714FE801B41F28831884272
:1011F00001D90320D3E71948006A00F00200002853
:10120000F0D01648006A20F4407061680843134922
:101210000862012F04D10846C06920F08050C861DF
:1012200000BF207800F00200022807D10B48406878
:1012300020F44040A168084308494860207800F045
:101240001000102807D10548406820F4800061692B
:101250000843024948600020A1E700000010024056
:10126000007000404004424270B504460D460CB97F
:10127000012070BD5A48006800F00700A8420ED255
:101280005748006820F00700284355490860084681
:10129000006800F00700A84201D00120E9E72078AB
:1012A00000F0020002281DD1207800F0040004287C
:1012B00005D14C48406840F4E0604A4948602078D5
:1012C00000F00800082805D14648406840F4605006
:1012D000444948604348406820F0F000A168084352
:1012E00040494860207800F0010078B36068012828
:1012F00006D13C48006800F4003090B90120B8E7FE
:101300006068022806D13748006800F0007040B9D4
:101310000120AEE73348006800F0020008B9012060
:10132000A7E73048406820F00300616808432D4972
:101330004860FFF76DFD064609E0FFF769FD801B79
:1013400041F28831884202D9032092E707E025481C
:10135000406800F00C006168B0EB810FEDD12048CF
:10136000006800F00700A8420ED91D48006820F070
:10137000070028431A4908600846006800F0070083
:10138000A84201D0012074E7207800F0040004286E
:1013900007D11448406820F4E060E168084311492F
:1013A0004860207800F00800082808D10D484068FF
:1013B00020F46050216940EAC1000A49486000F009
:1013C0003FF808494968C1F30311074A515CC84016
:1013D0000649086006480068FFF740FD002048E71E
:1013E0000020024000100240788900080000002020
:1013F0001400002001480068704700000000002031
:1014000000B5FFF7F7FF04494968C1F30221034A19
:10141000515CC84000BD00000010024088890008EF
:1014200000B5FFF7E7FF04494968C1F3C221034A49
:10143000515CC84000BD00000010024088890008CF
:10144000F0B585B00FF26C0C9CE8E01001A8A0E8A4
:10145000E0101CA52D680095002100220023002427
:101460000020194D696801F00C05F5B1042D02D07A
:10147000082D19D101E0154819E001ADC1F38346EB
:10148000AC5D01F4803555B10F4D6D68C5F3404535
:101490001DF805200D4D6543B5FBF2F302E00C4D40
:1014A00004FB05F3184602E000BF084800BF00BF78
:1014B00005B0F0BD02030405060708090A0B0C0D70
:1014C0000E0F1010010200000010024000127A00FE
:1014D00000093D00F8B504460CB90120F8BD20789C
:1014E00000F00100002878D0F848406800F00C00B7
:1014F00004280CD0F548406800F00C00082811D1F1
:10150000F248406800F48030B0F5803F0AD1EF48DF
:10151000006800F4003000285FD0606800285CD1CB
:101520000120DBE700BF6068B0F5803F06D1E748E7
:10153000006840F48030E549086028E0606858B9E8
:10154000E248006820F48030E049086008460068FE
:1015500020F4802008601AE06068B0F5A02F0BD15D
:10156000DA48006840F48020D849086008460068DE
:1015700040F4803008600AE0D448006820F48030ED
:10158000D24908600846006820F48020086000BF47
:10159000606888B1FFF73CFC054606E0FFF738FCC1
:1015A000401B642801D9032098E7C848006800F46C
:1015B00000300028F2D010E0FFF72AFC054606E0D4
:1015C000FFF726FC401B642801D9032086E7BF48AB
:1015D000006800F400300028F2D1207800F002000A
:1015E000022857D1B948406800F00C0050B1B74804
:1015F000406800F00C00082818D1B448406800F496
:10160000803098B9B148006800F0020020B120692C
:10161000012801D0012061E7AC48006820F0F80003
:10162000616940EAC100A949086033E02069E8B176
:101630000120A7490860FFF7EBFB054606E0FFF72E
:10164000E7FB401B022801D9032047E79F480068B9
:1016500000F002000028F2D09C48006820F0F8005A
:10166000616940EAC1009949086013E00020984987
:101670000860FFF7CDFB054606E0FFF7C9FB401BFE
:10168000022801D9032029E79048006800F00200F1
:101690000028F2D1207800F0080008282DD1A06998
:1016A000B8B101208B490860FFF7B2FB054606E0A0
:1016B000FFF7AEFB401B022801D903200EE7834849
:1016C000406A00F002000028F2D0012000F088FEFD
:1016D00013E000207F490860FFF79AFB054606E00B
:1016E000FFF796FB401B022801D90320F6E6774856
:1016F000406A00F002000028F2D1207800F00400D7
:10170000042873D100277148C06900F0805070B977
:1017100000BF6E48C06940F080506C49C8610846FF
:10172000C06900F08050009000BF00BF01276A48E8
:10173000006800F48070B0B96748006840F48070B9
:1017400065490860FFF764FB054606E0FFF760FBAC
:10175000401B642801D90320C0E65F48006800F4FC
:1017600080700028F2D000BFE068012806D15748F9
:10177000006A40F001005549086227E0E06858B966
:101780005248006A20F00100504908620846006A89
:1017900020F00400086219E0E06805280BD14B48EE
:1017A000006A40F00400494908620846006A40F0B7
:1017B000010008620AE04548006A20F00100434940
:1017C00008620846006A20F00400086200BFE06872
:1017D000A0B1FFF71DFB054609E0FFF719FB401B11
:1017E00041F28831884202D9032077E622E0374867
:1017F000006A00F002000028EFD012E0FFF708FBBB
:10180000054608E0FFF704FB401B41F2883188429F
:1018100001D9032062E62D48006A00F0020000288A
:10182000F0D1012F05D12948C06920F08050274907
:10183000C86100BFE069C8B32448406800F00C00EC
:10184000082860D0E069022848D1002020490866B5
:10185000FFF7DEFA054606E0FFF7DAFA401B02283A
:1018600001D903203AE61948006800F0007000280A
:10187000F2D1206AB0F5803F07D11448406820F4C7
:101880000030A168084311494860D4E908010843C1
:101890000E49496821F4741108430C49486001203D
:1018A0000B490866FFF7B4FA054607E03DE0FFF78D
:1018B000AFFA401B022801D903200FE60348006855
:1018C00000F000700028F2D02FE00000001002406D
:1018D000000042428004424200700040002014494F
:1018E0000866FFF795FA054606E0FFF791FA401BF8
:1018F000022801D90320F1E50E48006800F00070CD
:101900000028F2D111E0E069012800D1E6E509489C
:10191000466806F48031206A814204D106F47011D1
:10192000606A814201D00120D8E50020D6E50000A0
:10193000000042420010024010B503460022002081
:10194000024A02EB81021468A0B210BD006C004094
:1019500010B503460020034800EB810094B20460F8
:1019600010BD0000006C004070B5044600250CB9A5
:10197000012070BD607C20B900202074204600F05A
:101980005BF802206074204600F0A2F818B1042031
:1019900060740120EDE7204600F036FD18B1042008
:1019A00060740120E5E72068406820F007002168A6
:1019B0004860A06828B11F48006820F001001D4958
:1019C00008601C48001F006820F46070A16808438C
:1019D0001849091F08606068401C08B1656809E083
:1019E0000120FFF70FFB05461DB90420607401209C
:1019F000BFE76D1E2068806820F00F0040EA1540A8
:101A0000216888602068C06865F30F002168C8609D
:101A1000204600F016FD18B1042060740120A8E7EC
:101A20000021E17301216173A17301206074002022
:101A30009FE70000306C004030B591B00546C824E7
:101A40000120214908602148006A40F001001F4937
:101A5000086204E0601E84B2052001F051F82CB148
:101A60001A48006A00F002000028F3D0ACB9082040
:101A7000079001200A9000200E9007A8FFF72AFD8A
:101A8000012001904002029001A8FFF755FB45F2AA
:101A90005101002005F014FB14E004200790012000
:101AA0000A9000200E9007A8FFF714FD0120019076
:101AB0000002029001A8FFF73FFB45F25001002011
:101AC00005F0FEFA11B030BD3C0442420010024065
:101AD00070B5044600250CB9012070BD206840682F
:101AE00020F0080021684860FFF792F9054607E0FA
:101AF000FFF78EF9401BB0F57A7F01D90320ECE7A0
:101B00002068406800F008000028F1D00020E4E7D9
:101B100070B504460E4615461CB1A069B0F5807F2D
:101B200001D1012070BD94F8410028B9002084F84B
:101B30004000204600F020F804F108012068FEF77C
:101B400057FE3146A2682068FEF78EFE2946236BB9
:101B5000D4E90102FEF72AFEA168206850F82100AE
:101B600040F00100A268216841F82200012084F8B9
:101B700041000020D6E7000010B586B0044600BF43
:101B80001E48406940F480701C494861084640691D
:101B900000F48070019000BF00BF00BF084680695C
:101BA00040F0200088610846806900F02000019024
:101BB00000BF00BF00BF0846806940F04000886158
:101BC0000846806900F04000019000BF00BF4CF261
:101BD00003700290022003900120049003200590DE
:101BE00002A90748FEF75CFF4FF68070029002A939
:101BF0000448FEF755FF06B010BD0000001002407B
:101C00000014014000180140042808D14FF0E021E1
:101C1000096941F004014FF0E022116107E04FF043
:101C2000E021096921F004014FF0E02211617047C1
:101C300070B504462546681EB0F1807F01D30120AF
:101C40000FE0681E4FF0E02148610F214FF0FF3098
:101C500000F048FE00204FF0E02188610720086175
:101C6000002070BD7047704710B504460CB90120C4
:101C700010BD94F83D0028B9002084F83C002046AF
:101C800000F025F8022084F83D00211D206800F0B6
:101C90008FFC012084F8460000BF84F83E0001213B
:101CA0003F200155402001554120015500BF00BF94
:101CB000012084F84200432001554420015545206D
:101CC000015500BF012084F83D000020D0E7704797
:101CD000014691F83D00012801D001207047022003
:101CE00081F83D000868C06840F001000B68D860CA
:101CF000164B0868984213D0154B086898420FD0CD
:101D00000868B0F1804F0BD0124B0868984207D09A
:101D1000114B0868984203D0104B086898420CD1C8
:101D20000868806800F00702062A0CD0086800687E
:101D300040F001000B68186005E00868006840F09A
:101D400001000B6818600020C8E70000002C01406B
:101D5000003401400004004000080040000C004036
:101D600010B504460D492068884216D10C48007809
:101D700098B9207F012810D104210A4800F022F9E7
:101D8000801C094908800021064800F01BF9801CCE
:101D90000649088001200249087010BD0034014046
:101DA0001E000020F8030020220000202400002054
:101DB00010B5044620680069C0F34000D8B120681F
:101DC000C068C0F34000B0B16FF002002168086144
:101DD000012020772068806900F0030018B12046B8
:101DE000FFF7BEFF05E0204600F0ADF8204600F00A
:101DF000ABF80020207720680069C0F38000D8B1DC
:101E00002068C068C0F38000B0B16FF004002168A2
:101E10000861022020772068806900F4407018B1C2
:101E20002046FFF79DFF05E0204600F08CF8204695
:101E300000F08AF80020207720680069C0F3C00015
:101E4000D8B12068C068C0F3C000B0B16FF008001E
:101E500021680861042020772068C06900F0030031
:101E600018B12046FFF77CFF05E0204600F06BF834
:101E7000204600F069F80020207720680069C0F350
:101E80000010D8B12068C068C0F30010B0B16FF086
:101E9000100021680861082020772068C06900F4DC
:101EA000407018B12046FFF75BFF05E0204600F0C8
:101EB0004AF8204600F048F80020207720680069A2
:101EC00000F0010058B12068C06800F0010030B196
:101ED0006FF0010021680861204600F037F82068A3
:101EE0000069C0F3C01058B12068C068C0F3C010CA
:101EF00030B16FF08000216808612046FFF7B2FE24
:101F000020680069C0F3801058B12068C068C0F331
:101F1000801030B16FF0400021680861204600F069
:101F20006AF820680069C0F3401058B12068C068A2
:101F3000C0F3401030B16FF02000216808612046E6
:101F4000FFF791FE10BD704770470000194A016805
:101F500091422DD11849097801F0800111BB164931
:101F6000097801F04001E9B11349097801F03F0116
:101F70003F2918D111490968096A21F0A0010F4AC7
:101F8000126811620D490968096A0C4A12681162E7
:101F90000949097841F08001074A11704FF6FF7135
:101FA000074A118004E004490978491C024A11706B
:101FB00070470000000C00401B0000206803002058
:101FC0001C0000200246002031B1042907D0082956
:101FD00008D00C290CD108E01368586B09E013688D
:101FE000986B06E01368D86B03E01368186C00E088
:101FF00000BF00BF70477047704700002DE9F047F1
:102000000446206805682068C668206847694FF064
:102010000008C14605F00F08B8F1000F0AD105F01D
:10202000200038B106F0200020B1204600F038FB37
:10203000BDE8F087B8F1000F71D007F0010018B9C2
:1020400006F4907000286AD005F0010030B106F463
:10205000807018B1E06B40F00100E06305F004000F
:1020600030B107F0010018B1E06B40F00200E0630E
:1020700005F0020030B107F0010018B1E06B40F04C
:102080000400E06305F0080048B106F0200010B934
:1020900007F0010018B1E06B40F00800E063E06B6E
:1020A00068B305F0200028B106F0200010B12046EA
:1020B00000F0F6FA20684069C0F38019E06B00F088
:1020C000080010B9B9F1000F22D0204600F0C8FA7C
:1020D0002068406900F04000B0B12068406920F0FD
:1020E000400021684861606B50B11848616B4863DB
:1020F000606BFEF7F1FB10B1606B416B88470CE041
:102100002046FFF779FF08E02046FFF775FF04E05F
:102110002046FFF771FF0020E06389E7FFE705F045
:10212000800030B106F0800018B1204600F086FB38
:102130007EE705F0400030B106F0400018B12046BF
:1021400000F09EFA74E700BF72E700004D26000819
:1021500010B504460CB9012010BDA06900B100E023
:1021600000BF94F8390028B9002084F838002046D0
:1021700000F028F8242084F839002068C06820F492
:1021800000502168C860204600F0DAFA2068006933
:1021900020F49040216808612068406920F02A00FE
:1021A000216848612068C06840F400502168C86018
:1021B0000020E063202084F8390084F83A000020F1
:1021C000CAE7000010B586B0044628492068884256
:1021D0004AD100BF00BF2648806940F0040024496E
:1021E00088610846806900F00400019000BF00BFCC
:1021F00000BF00BF00BF0846806940F0040088614E
:102200000846806900F00400019000BF00BF00BFD5
:1022100000BF00BF0846806940F4804088610846DE
:10222000806900F48040019000BF00BF00BF4815E6
:10223000029002200390012004900320059002A93F
:102240000C48FEF72DFC4FF48060029000200390B4
:1022500002A90848FEF724FC2520FEF726FE0322EB
:1022600011462520FEF731FE06B010BD00380140B2
:10227000001002400008014010B5034693F83A00F0
:1022800020282FD101B10AB9012010BD00BF93F859
:102290003800012801D10220F7E7012083F8380037
:1022A00000BF99629A85DA850020D863222083F8DE
:1022B0003A0000BF002083F8380000BF1868C068EB
:1022C00040F480701C68E0601868406940F00100CC
:1022D0001C6860611868C06840F020001C68E060FD
:1022E0000020D2E70220D0E71D4A0168914236D192
:1022F0001C49098801F4004189BB1A49098801F485
:10230000804171B1184909780A2903D00021154A82
:10231000118024E01349098841F40041114A1180D9
:102320001DE0114909780D2906D10E49098841F4AB
:1023300080410C4A118012E00B490978094A128841
:10234000C2F30D02094B995406490988491C054AF4
:10235000118011460988C72901DD002111807047CD
:1023600000380140080000200A000020F801002089
:102370007047000010B50446054800F021F800BF82
:102380004FF480410348FEF733FD00BF10BD00004D
:102390000C0300200014014010B50446206840687A
:1023A000C0F3402058B12068806800F0010030B1CF
:1023B0006FF00100216888602046FFF7DBFF10BD49
:1023C00001460A68C86810600020704700BFFEE739
:1023D00000BFFEE7704710B5FEF704FE10BD704762
:1023E00008B508490968C9084FF47A72B1FBF2F1DF
:1023F0004143009100BF00BF00994A1E009200298E
:10240000F9D108BD0000002070B504460025FEF794
:10241000FFFC054607E0FEF7FBFC401BB0F57A7FAA
:1024200001D9032070BD2068406800F0200000281A
:10243000F1D02068406840F010002168486000201A
:10244000F0E770B5044600252068406820F01000D1
:1024500021684860FEF7DCFC054607E0FEF7D8FC83
:10246000401BB0F57A7F01D9032070BD2068406819
:1024700000F020000028F1D00020F6E70EB51B4840
:102480000068406800F0010030B104F039FC6FF0E2
:102490000100164909684860144800684068C0F3A4
:1024A0004000A0B16FF00200104909684860104870
:1024B00080780F4949780E4A1278CDE900210290C0
:1024C0000B48C379827981880AA0FDF7D1FE6FF0AD
:1024D000040006490968486000BF04480068406875
:1024E000C0F340100028F8D00EBD00009005002079
:1024F000A4050020416C61726D2054696D653A2518
:10250000642D25642D25642025643A25643A2564CC
:102510000A000000704710B5FEF780FC10BD704740
:1025200008480068006900F0010020B10648007802
:10253000401C054908706FF00100024909680861F4
:1025400070470000B00300201A00002010B50E48AC
:102550000068C06800F0010078B10C490869804744
:10256000002009490968486200BF642006490968DB
:10257000C86264210448C16000BF6FF001000249D5
:102580000968086110BD0000082600200401002031
:1025900010B50248FFF70CFC10BD000068030020D6
:1025A00010B50248FFF704FC10BD0000F80300203E
:1025B00010B50268204B98420ED0204B98420BD0A9
:1025C000B0F1804F08D01E4B984205D01D4B984269
:1025D00002D01D4B984203D122F070024B681A437F
:1025E000154B98420ED0154B98420BD0B0F1804F4E
:1025F00008D0134B984205D0124B984202D0124B90
:10260000984203D122F44072CB681A4322F080032F
:102610004C6943EA040202608B68C3620B68836200
:10262000054B984202D0054B984201D10B690363D8
:102630000123436110BD0000002C01400034014023
:102640000004004000080040000C004070B5054642
:102650006C6A0020E085E0842046FFF7CDFC70BD69
:102660000168C96821F490710268D1600168496904
:1026700021F0010102685161202180F83A10704771
:1026800010B504462068C06820F040002168C8608A
:10269000202084F839002046FFF76AFE002010BD94
:1026A00070B5044694F83A00222847D1A068B0F5E6
:1026B000805F0CD1206950B90025A66A2068406867
:1026C000C0F308003080A06A801CA06215E0A56AF3
:1026D0000026A068B0F5805F03D0A06828B9206903
:1026E00018B920684068287004E02068406800F04D
:1026F0007F002870A06A401CA062E08D401E80B25E
:10270000E085C8B92068C06820F020002168C86052
:102710002068C06820F480702168C8602068406923
:1027200020F0010021684861202084F83A0020460A
:10273000FFF7DAFD002070BD0020FCE70220FAE779
:1027400070B504462168096921F44051E2681143DB
:10275000226811612269A1681143626941EA020598
:102760002168C96841F20C62914329432268D16013
:102770002168496921F44071A269114322685161BD
:102780002D4A2168914202D1FEF74AFE01E0FEF790
:1027900037FE00EBC00101EB001162689200B1FB53
:1027A000F2F100EBC00202EB001263689B00B2FB87
:1027B000F3F26423B2FBF3F202EBC20303EB021267
:1027C000A1EB8201322202EB01116422B1FBF2F192
:1027D00001F0F00100EBC00202EB001263689B0005
:1027E000B2FBF3F26423B2FBF3F201EB021200EB53
:1027F000C00101EB001163689B00B1FBF3F100EB3A
:10280000C00303EB00136668B600B3FBF6F364265F
:10281000B3FBF6F303EBC30606EB0313A1EB830153
:10282000322303EB01116423B1FBF3F101F00F013B
:1028300011442268916070BD00380140014691F852
:102840003900212828D18868B0F5805F0BD108694C
:1028500048B90A6A1088C0F308000B685860086A13
:10286000801C086205E00B6A581C086218780B6827
:102870005860C88C401E80B2C88458B90868C068C7
:1028800020F080000B68D8600868C06840F0400005
:102890000B68D860002070470220FCE710B506489E
:1028A000FFF7ACFB00BF012204490348FFF7E4FC3B
:1028B0000028F8D110BD0000C00200200A0000204E
:1028C00000BFFEE710B50248FFF766FD10BD00002F
:1028D0000C03002002480068C0F30220704700008B
:1028E0000CED00E010B5002804DB0A07130E054AC2
:1028F000135406E00A07140E034A00F00F031B1FCF
:10290000D45410BD00E400E018ED00E030380A288F
:1029100001D2012070470020704700BF704770B59A
:10292000FF25284600F029F80446552C01D1002047
:1029300070BD5521284600F05BF8FF2000F01DF81F
:102940000446552C01D10020F2E70120F0E710B534
:1029500000F056F910BD70B505460C46164606E067
:1029600028466A1C95B200F008F804F8010B301EE6
:10297000A6F101018EB2F3D170BD70B504460026F8
:1029800000F004FA2112A02202EB4101C8B200F0CB
:10299000C5F900F043FA2546E11704EB116109126D
:1029A000A4EB0121C8B200F0B9F900F037FA00F049
:1029B000EDF9A12000F0B2F900F030FA002000F0AB
:1029C0007DF9064600F00AFA304670BD70B505463E
:1029D0000C46164606E02178284600F009F8681CE7
:1029E00085B2641C301EA6F101018EB2F3D170BD18
:1029F00070B504460E4600F0C9F92112A02202EB80
:102A00004101C8B200F08AF900F008FA2546E11742
:102A100004EB11610912A4EB0121C8B200F07EF9A8
:102A200000F0FCF9304600F079F900F0F7F900F019
:102A3000D5F90A2000F064F870BD00002DE9F047D8
:102A400006468946484605F014FE04460D46002217
:102A50001C4B2046294605F087FC04460D46002203
:102A6000194B2046294605F053FE07464FF06632C3
:102A7000164B05F079FC04460D460022124B204609
:102A8000294605F043FF01D80024114D012E0BD13A
:102A90002046294605F0C0FD07463B460022114668
:102AA0000C48FDF702FF0AE02046294605F0B4FD78
:102AB00007463B46002210210648FDF7F6FEBDE81A
:102AC000F087000000408F400000B04066660A407A
:102AD00000FEAF40B005002010B5044600204FF0C6
:102AE000E0210861FFF790F82046E11704EB5171EF
:102AF000C1F3CF01014A118010BD00000C0000207D
:102B000070B504464FF47A7094FBF0F594FBF0F145
:102B100000FB114603E0074800F00EF86D1E002D83
:102B2000F9D12EB14FF47A7106FB01F000F004F8F0
:102B300070BD000040420F000146114A12884A430E
:102B40004FF0E0235A6100229A611A46126942F05E
:102B500001021A6100BF4FF0E022106900F001028B
:102B60001AB100F48032002AF5D04FF0E022126949
:102B700022F001024FF0E0231A6100229A617047AF
:102B80000C00002000BF054A126802F04002002A33
:102B9000F9D0C2B2014B1B1D1A60704700380140CA
:102BA00010B500BF00224FF400611148FEF72AF96A
:102BB00000BF00F01FF800BF012291020C48FEF791
:102BC00021F900BF00F016F800BF00224FF4806129
:102BD0000748FEF717F900BF00F00CF800BF01220C
:102BE000D1020348FEF70EF900BF00F003F810BD54
:102BF000000C014010B50220FFF79EFF10BD000041
:102C000000B585B000BF00BF1A48806940F00800D9
:102C1000184988610846806900F00800009000BFEC
:102C200000BF00BF00BF00BF0846806940F0080039
:102C300088610846806900F00800009000BF00BF6E
:102C400000BF08150190012002900390032004901A
:102C500001A90948FDF724FF4FF4006001901120FD
:102C6000029001A90448FDF71BFF00F0B7F805B07A
:102C700000BD000000100240000C014010B500BF74
:102C80000122D1020C48FEF7BDF800BFFFF7B2FFEA
:102C900000BF012291020848FEF7B4F800BFFFF719
:102CA000A9FF00BF00224FF480610348FEF7AAF895
:102CB00000BFFFF79FFF10BD000C014070B5054637
:102CC000002400261EE06006040E00BF01229102CF
:102CD0001148FEF797F800BFFFF78CFF4FF4006133
:102CE0000D48FEF77DF808B1601CC4B200BF002299
:102CF0004FF480610848FEF785F800BFFFF77AFFC0
:102D0000701CC6B2082EDEDB15B9FFF7B7FF01E075
:102D1000FFF746FF204670BD000C014070B5044629
:102D2000002526E000BFE00928B10122D1021648A3
:102D3000FEF768F805E000224FF400611248FEF744
:102D400061F800BFFFF756FF00BF012291020E4855
:102D5000FEF758F800BFFFF74DFF00BF00224FF409
:102D600080610948FEF74EF800BF6006040E681C3B
:102D7000C5B2082DD6DB00BF0122D1020248FEF702
:102D800041F800BF70BD0000000C014010B500BF4D
:102D90000122D1021048FEF735F800BF00BF012222
:102DA00091020D48FEF72EF800BFFFF723FF00BF8A
:102DB00000224FF400610848FEF724F800BFFFF737
:102DC00019FF00BF00224FF480610348FEF71AF894
:102DD00000BFFFF70FFF10BD000C014010B500BF92
:102DE00000224FF400610C48FEF70CF800BFFFF71B
:102DF00001FF00BF012291020748FEF703F800BF60
:102E0000FFF7F8FE00BF0122D1020348FDF7FAFFE9
:102E100000BFFFF7EFFE10BD000C014070B50024AD
:102E2000002500BF0122D1021548FDF7EBFF00BFCE
:102E3000FFF7E0FE00BF012291021148FDF7E2FF1B
:102E400000BFFFF7D7FE07E0601CC4B2FA2C03DD19
:102E5000FFF7C4FF012506E04FF400610848FDF7C5
:102E6000BFFF0028F0D100BF00BF00224FF48061F7
:102E70000348FDF7C7FF00BFFFF7BCFE284670BD43
:102E8000000C014010B54FF400510C48FDF7A8FFAD
:102E900090B90A20FFF734FE4FF400510748FDF7C0
:102EA0009FFF48B900BF4FF400510448FDF798FF59
:102EB0000028F8D0012010BD0020FCE700100140E0
:102EC00010B501210B48FDF78BFF80B90A20FFF7F1
:102ED00017FE01210748FDF783FF40B900BF01211C
:102EE0000448FDF77DFF0028F9D0012010BD002027
:102EF000FCE700000018014000B585B000BF2C4879
:102F0000806940F010002A4988610846806900F015
:102F10001000009000BF00BF4FF40050019000204F
:102F200002900120039001A92248FDF7B9FD00BFDE
:102F30001F48806940F040001D498861084680694B
:102F400000F04000009000BF00BF01200190002071
:102F500002900120039001A91748FDF7A1FD00BFD1
:102F60001348806940F0040011498861084680696F
:102F700000F00400009000BF00BF0220019000207C
:102F80000290022003900320049001A90B48FDF752
:102F900087FD012001900020029002200390032071
:102FA000049001A90548FDF77BFD05B000BD0000B8
:102FB00000100240001001400018014000080140CC
:102FC00070B504460026094805884088454300211D
:102FD000084603F083F803F03BFC00BF03E04FF02A
:102FE000D8404480761CAE42F9D370BD80050020E5
:102FF00010B504465C488471002C53D1F0205A4926
:1030000008804FF4A07048800846808845F210512F
:10301000884210D14FF43050534908814FF4285062
:1030200048814FF42C5088814FF4F07008804FF4A1
:103030004870488028E04C48808841F663118842F7
:103040000DD12C20484908812B2048812A208881D5
:103050004FF4F07008804FF44870488014E0424804
:10306000808845F20841884207D122203E490881E4
:10307000202048812120888106E02C203A490881BF
:103080002A2048812B2088813748808845F21031DA
:1030900088425AD14FF4A070334908804FF4F07041
:1030A000488052E04FF4A0702F490880F0204880FB
:1030B0000846808845F21051884210D14FF43050B4
:1030C000294908814FF4285048814FF42C508881B9
:1030D0004FF4487008804FF4F070488028E0224890
:1030E000808841F6631188420DD12C201E49088149
:1030F0002A2048812B2088814FF4487008804FF4A3
:10310000F070488014E01848808845F208418842F1
:1031100007D122201449088121204881202088815C
:1031200006E02C20104908812A2048812B20888124
:103130000D48808845F21031884206D14FF4F07076
:10314000094908804FF4A07048800748808845F2FC
:103150000841884204D11CB1062002F005FE02E0BD
:10316000002002F001FE10BD800500202DE9F0478F
:1031700006460F4690469A46002445460320A0EB9B
:10318000480944E07A1B91B2321990B2524600F0DD
:1031900098F83A1B91B2721990B2524600F091F829
:1031A0003A1991B2721990B2524600F08AF87A191F
:1031B00091B2321990B2524600F083F87A1991B266
:1031C000321B90B2524600F07CF83A1991B2721B51
:1031D00090B2524600F075F87A1B91B2321B90B251
:1031E000524600F06EF83A1B91B2721B90B25246F2
:1031F00000F067F8641CB9F1000F03DAA000801D2D
:10320000814404E0601B80000A3081446D1EAC42A2
:10321000B8DDBDE8F0872DE9FF4F85B081468A46CD
:103220000020039083460798A0EB09050898A0EBBF
:103230000A06CDF80890CDF804A0002D01DD012785
:1032400005E00DB9002702E04FF0FF376D42002E78
:1032500002DD4FF0010806E016B94FF0000802E069
:103260004FF0FF387642B54201DD2C4600E034468F
:10327000002004901EE0019A91B2029A90B2129A34
:1032800000F01FF8039828440390B3440398A04229
:1032900005DD0398001B0390029838440290A34573
:1032A00004DDABEB040B0198404401900498401CF2
:1032B00080B20490611C04988842DCDD09B0BDE84E
:1032C000F08F70B505460E4614463146284602F08A
:1032D00005FF03F0BDFA4FF0D8414C8070BD2DE9D9
:1032E000F84305460E4617469846089C33463A462C
:1032F000314628460094FFF78EFF43462A46314662
:1033000028460094FFF787FF43463A464146284641
:103310000094FFF780FF43463A4631463846009412
:10332000FFF779FFBDE8F88310B5CF2003F086FAE8
:10333000002003F079FAC12003F076FA302003F080
:1033400073FAED2003F07AFA642003F06DFA03209B
:1033500003F06AFA122003F067FA812003F064FA9E
:10336000E82003F06BFA852003F05EFA102003F0EA
:103370005BFA7A2003F058FACB2003F05FFA392089
:1033800003F052FA2C2003F04FFA002003F04CFA1D
:10339000342003F049FA022003F046FAF72003F044
:1033A0004DFA202003F040FAEA2003F047FA00200B
:1033B00003F03AFA002003F037FAC02003F03EFA97
:1033C0001B2003F031FAC12003F038FA012003F08A
:1033D0002BFAC52003F032FA302003F025FA302012
:1033E00003F022FAC72003F029FAB72003F01CFAF1
:1033F000362003F023FA482003F016FA3A2003F0AF
:103400001DFA552003F010FAB12003F017FA00203E
:1034100003F00AFA1A2003F007FAB62003F00EFAB6
:103420000A2003F001FAA22003F0FEF9F22003F0D3
:1034300005FA002003F0F8F9262003F0FFF9012037
:1034400003F0F2F9E02003F0F9F90F2003F0ECF9B2
:103450002A2003F0E9F9282003F0E6F9082003F018
:10346000E3F90E2003F0E0F9082003F0DDF9542021
:1034700003F0DAF9A92003F0D7F9432003F0D4F9D7
:103480000A2003F0D1F90F2003F0CEF9002003F059
:10349000CBF9002003F0C8F9002003F0C5F90020A3
:1034A00003F0C2F9E12003F0C9F9002003F0BCF9F0
:1034B000152003F0B9F9172003F0B6F9072003F03F
:1034C000B3F9112003F0B0F9062003F0ADF92B2079
:1034D00003F0AAF9562003F0A7F93C2003F0A4F961
:1034E000052003F0A1F9102003F09EF90F2003F04E
:1034F0009BF93F2003F098F93F2003F095F90F2046
:1035000003F092F92B2003F099F9002003F08CF9D5
:10351000002003F089F9012003F086F93F2003F031
:1035200083F92A2003F08AF9002003F07DF90020B6
:1035300003F07AF9002003F077F9EF2003F074F933
:10354000112003F07BF97820FFF7DAFA292003F045
:1035500075F910BD10B5ED2003F070F9012003F0EE
:1035600063F9FE2003F060F9EE2003F067F9DE2036
:1035700003F05AF9212003F057F9F12003F05EF926
:10358000012003F051F9DF2003F058F9102003F077
:103590004BF9C42003F052F98F2003F045F9C620FF
:1035A00003F04CF9002003F03FF9E22003F03CF96E
:1035B000E22003F039F9E22003F036F9BF2003F0EE
:1035C0003DF9AA2003F030F9B02003F037F90D20BF
:1035D00003F02AF9002003F027F90D2003F024F965
:1035E000002003F021F9112003F01EF9002003F060
:1035F0001BF9192003F018F9002003F015F9212018
:1036000003F012F9002003F00FF92D2003F00CF95C
:10361000002003F009F93D2003F006F9002003F033
:1036200003F95D2003F000F9002003F0FDF85D20B0
:1036300003F0FAF8002003F0F7F8B12003F0FEF8E9
:10364000802003F0F1F8002003F0EEF88B2003F067
:10365000EBF8002003F0E8F8962003F0E5F80020EE
:1036600003F0E2F8B22003F0E9F8002003F0DCF800
:10367000002003F0D9F8022003F0D6F8002003F070
:10368000D3F8032003F0D0F8002003F0CDF8B320E6
:1036900003F0D4F8002003F0C7F8002003F0C4F8CA
:1036A000002003F0C1F8002003F0BEF8002003F072
:1036B000BBF8002003F0B8F8002003F0B5F80020B4
:1036C00003F0B2F8002003F0AFF8002003F0ACF8EC
:1036D000002003F0A9F8002003F0A6F8002003F072
:1036E000A3F8002003F0A0F8002003F09DF80020CC
:1036F00003F09AF8002003F097F8002003F094F804
:10370000002003F091F8002003F08EF8002003F071
:103710008BF8002003F088F8002003F085F80020E3
:1037200003F082F8B42003F089F88B2003F07CF8D2
:10373000002003F079F8962003F076F8002003F0DB
:1037400073F8A12003F070F8002003F06DF8B520A5
:1037500003F074F8022003F067F8002003F064F827
:10376000032003F061F8002003F05EF8042003F06A
:103770005BF8002003F058F8B62003F05FF8002053
:1037800003F052F8002003F04FF8B72003F056F88A
:10379000002003F049F8002003F046F83F2003F032
:1037A00043F8002003F040F85E2003F03DF80020CD
:1037B00003F03AF8642003F037F8002003F034F8FF
:1037C0008C2003F031F8002003F02EF8AC2003F039
:1037D0002BF8002003F028F8DC2003F025F8002067
:1037E00003F022F8702003F01FF8002003F01CF80B
:1037F000902003F019F8002003F016F8EB2003F0F6
:1038000013F8002003F010F8DC2003F00DF800207E
:1038100003F00AF8B82003F011F8002003F004F8D0
:10382000002003F001F8002002F0FEFF002002F06B
:10383000FBFF002002F0F8FF002002F0F5FF00205F
:1038400002F0F2FF002002F0EFFFBA2002F0F6FFD4
:10385000242002F0E9FF002002F0E6FF002002F041
:10386000E3FF002002F0E0FFC12002F0E7FF20208C
:1038700002F0DAFF002002F0D7FF542002F0D4FF5C
:10388000002002F0D1FFFF2002F0CEFF002002F066
:10389000CBFFC22002F0D2FF0A2002F0C5FF0020B9
:1038A00002F0C2FF042002F0BFFF002002F0BCFFC4
:1038B000C32002F0C3FF3C2002F0B6FF002002F05C
:1038C000B3FF3A2002F0B0FF002002F0ADFF392034
:1038D00002F0AAFF002002F0A7FF372002F0A4FFA9
:1038E000002002F0A1FF3C2002F09EFF002002F029
:1038F0009BFF362002F098FF002002F095FF322057
:1039000002F092FF002002F08FFF2F2002F08CFFC8
:10391000002002F089FF2C2002F086FF002002F038
:1039200083FF292002F080FF002002F07DFF262087
:1039300002F07AFF002002F077FF242002F074FFEB
:10394000002002F071FF242002F06EFF002002F040
:103950006BFF232002F068FF002002F065FF3C208F
:1039600002F062FF002002F05FFF362002F05CFFF1
:10397000002002F059FF322002F056FF002002F032
:1039800053FF2F2002F050FF002002F04DFF2C20AB
:1039900002F04AFF002002F047FF292002F044FF16
:1039A000002002F041FF262002F03EFF002002F03E
:1039B0003BFF242002F038FF002002F035FF2420D6
:1039C00002F032FF002002F02FFF232002F02CFF34
:1039D000002002F029FFC42002F030FF622002F034
:1039E00023FF002002F020FF052002F01DFF002031
:1039F00002F01AFF842002F017FF002002F014FFEB
:103A0000F02002F011FF002002F00EFF182002F05B
:103A10000BFF002002F008FFA42002F005FF0020A9
:103A200002F002FF182002F0FFFE002002F0FCFE70
:103A3000502002F0F9FE002002F0F6FE0C2002F009
:103A4000F3FE002002F0F0FE172002F0EDFE002051
:103A500002F0EAFE952002F0E7FE002002F0E4FE0C
:103A6000F32002F0E1FE002002F0DEFEE62002F08C
:103A7000DBFE002002F0D8FEC52002F0DFFE32207F
:103A800002F0D2FE002002F0CFFE442002F0CCFE75
:103A9000002002F0C9FE652002F0C6FE002002F000
:103AA000C3FE762002F0C0FE002002F0BDFE88209A
:103AB00002F0BAFE002002F0B7FEC62002F0BEFE01
:103AC000202002F0B1FE002002F0AEFE172002F02E
:103AD000ABFE002002F0A8FE012002F0A5FE0020AF
:103AE00002F0A2FEC72002F0A9FE002002F09CFE18
:103AF000002002F099FE002002F096FE002002F065
:103B000093FEC82002F09AFE002002F08DFE0020F5
:103B100002F08AFE002002F087FE002002F084FE00
:103B2000C92002F08BFE002002F07EFE002002F091
:103B30007BFE002002F078FE002002F075FE0020DF
:103B400002F072FE002002F06FFE002002F06CFE18
:103B5000002002F069FE002002F066FE002002F064
:103B600063FE002002F060FE002002F05DFE0020F7
:103B700002F05AFE002002F057FE002002F054FE30
:103B8000002002F051FEE02002F058FE162002F064
:103B90004BFE002002F048FE1C2002F045FE0020F3
:103BA00002F042FE212002F03FFE002002F03CFE27
:103BB000362002F039FE002002F036FE462002F0E8
:103BC00033FE002002F030FE522002F02DFE0020D5
:103BD00002F02AFE642002F027FE002002F024FEFC
:103BE0007A2002F021FE002002F01EFE8B2002F05F
:103BF0001BFE002002F018FE992002F015FE0020A6
:103C000002F012FEA82002F00FFE002002F00CFECF
:103C1000B92002F009FE002002F006FEC42002F0E6
:103C200003FE002002F000FECA2002F0FDFD00208D
:103C300002F0FAFDD22002F0F7FD002002F0F4FDC0
:103C4000D92002F0F1FD002002F0EEFDE02002F0AC
:103C5000EBFD002002F0E8FDF32002F0E5FD00207E
:103C600002F0E2FDE12002F0E9FD162002F0DCFDA9
:103C7000002002F0D9FD1C2002F0D6FD002002F049
:103C8000D3FD222002F0D0FD002002F0CDFD362031
:103C900002F0CAFD002002F0C7FD452002F0C4FD7D
:103CA000002002F0C1FD522002F0BEFD002002F013
:103CB000BBFD642002F0B8FD002002F0B5FD7A20C3
:103CC00002F0B2FD002002F0AFFD8B2002F0ACFD4F
:103CD000002002F0A9FD992002F0A6FD002002F0CC
:103CE000A3FDA82002F0A0FD002002F09DFDB92058
:103CF00002F09AFD002002F097FDC42002F094FD2E
:103D0000002002F091FDCA2002F08EFD002002F09A
:103D10008BFDD22002F088FD002002F085FDD82026
:103D200002F082FD002002F07FFDE02002F07CFD29
:103D3000002002F079FDF32002F076FD002002F071
:103D400073FDE22002F07AFD052002F06DFD0020F7
:103D500002F06AFD0B2002F067FD002002F064FD16
:103D60001B2002F061FD002002F05EFD342002F015
:103D70005BFD002002F058FD442002F055FD0020BC
:103D800002F052FD4F2002F04FFD002002F04CFDEA
:103D9000612002F049FD002002F046FD792002F08A
:103DA00043FD002002F040FD882002F03DFD002090
:103DB00002F03AFD972002F037FD002002F034FDBA
:103DC000A62002F031FD002002F02EFDB72002F007
:103DD0002BFD002002F028FDC22002F025FD00206E
:103DE00002F022FDC72002F01FFD002002F01CFDA2
:103DF000D12002F019FD002002F016FDD62002F0BD
:103E000013FD002002F010FDDD2002F00DFD00206A
:103E100002F00AFDF32002F007FD002002F004FD8D
:103E2000E32002F00BFD052002F0FEFC002002F072
:103E3000FBFC0A2002F0F8FC002002F0F5FC1C203C
:103E400002F0F2FC002002F0EFFC332002F0ECFC68
:103E5000002002F0E9FC442002F0E6FC002002F021
:103E6000E3FC502002F0E0FC002002F0DDFC6220C8
:103E700002F0DAFC002002F0D7FC782002F0D4FC3B
:103E8000002002F0D1FC882002F0CEFC002002F0DD
:103E9000CBFC972002F0C8FC002002F0C5FCA62055
:103EA00002F0C2FC002002F0BFFCB72002F0BCFC14
:103EB000002002F0B9FCC22002F0B6FC002002F0A3
:103EC000B3FCC72002F0B0FC002002F0ADFCD12012
:103ED00002F0AAFC002002F0A7FCD52002F0A4FC0E
:103EE000002002F0A1FCDD2002F09EFC002002F088
:103EF0009BFCF32002F098FC002002F095FCE420EB
:103F000002F09CFC012002F08FFC002002F08CFCEF
:103F1000012002F089FC002002F086FC022002F061
:103F200083FC002002F080FC2A2002F07DFC0020AF
:103F300002F07AFC3C2002F077FC002002F074FCD6
:103F40004B2002F071FC002002F06EFC5D2002F0BC
:103F50006BFC002002F068FC742002F065FC00207D
:103F600002F062FC842002F05FFC002002F05CFCA6
:103F7000932002F059FC002002F056FCA22002F02F
:103F800053FC002002F050FCB32002F04DFC002056
:103F900002F04AFCBE2002F047FC002002F044FC84
:103FA000C42002F041FC002002F03EFCCD2002F0D3
:103FB0003BFC002002F038FCD32002F035FC00204E
:103FC00002F032FCDD2002F02FFC002002F02CFC7D
:103FD000F32002F029FC002002F026FCE52002F08C
:103FE0002DFC002002F020FC002002F01DFC00202F
:103FF00002F01AFC002002F017FC022002F014FC70
:10400000002002F011FC292002F00EFC002002F03A
:104010000BFC3C2002F008FC002002F005FC4B20C9
:1040200002F002FC002002F0FFFB5D2002F0FCFB2E
:10403000002002F0F9FB742002F0F6FB002002F0F1
:10404000F3FB842002F0F0FB002002F0EDFB932054
:1040500002F0EAFB002002F0E7FBA22002F0E4FB02
:10406000002002F0E1FBB32002F0DEFB002002F0B2
:10407000DBFBBE2002F0D8FB002002F0D5FBC42001
:1040800002F0D2FB002002F0CFFBCD2002F0CCFBEF
:10409000002002F0C9FBD32002F0C6FB002002F092
:1040A000C3FBDC2002F0C0FB002002F0BDFBF320CC
:1040B00002F0BAFB002002F0B7FBE62002F0BEFBE4
:1040C000112002F0B1FB002002F0AEFB342002F020
:1040D000ABFB002002F0A8FB562002F0A5FB00205D
:1040E00002F0A2FB762002F09FFB002002F09CFB76
:1040F000772002F099FB002002F096FB662002F088
:1041000093FB002002F090FB882002F08DFB002042
:1041100002F08AFB992002F087FB002002F084FB6A
:10412000BB2002F081FB002002F07EFB992002F010
:104130007BFB002002F078FB662002F075FB00207C
:1041400002F072FB552002F06FFB002002F06CFBC6
:10415000552002F069FB002002F066FB452002F0CA
:1041600063FB002002F060FB432002F05DFB0020B7
:1041700002F05AFB442002F057FB002002F054FBEF
:10418000E72002F05BFB322002F04EFB002002F041
:104190004BFB552002F048FB002002F045FB762047
:1041A00002F042FB002002F03FFB662002F03CFBE5
:1041B000002002F039FB672002F036FB002002F0FD
:1041C00033FB672002F030FB002002F02DFB87203C
:1041D00002F02AFB002002F027FB992002F024FBCA
:1041E000002002F021FBBB2002F01EFB002002F0A9
:1041F0001BFB992002F018FB002002F015FB772032
:1042000002F012FB002002F00FFB442002F00CFB36
:10421000002002F009FB562002F006FB002002F00D
:1042200003FB232002F000FB002002F0FDFA332004
:1042300002F0FAFA002002F0F7FA452002F0F4FA50
:10424000002002F0F1FAE82002F0F8FA002002F073
:10425000EBFA002002F0E8FA992002F0E5FA0020DB
:1042600002F0E2FA872002F0DFFA002002F0DCFA26
:10427000882002F0D9FA002002F0D6FA772002F066
:10428000D3FA002002F0D0FA662002F0CDFA002026
:1042900002F0CAFA882002F0C7FA002002F0C4FA3D
:1042A000AA2002F0C1FA002002F0BEFABB2002F000
:1042B000BBFA002002F0B8FA992002F0B5FA00200B
:1042C00002F0B2FA662002F0AFFA002002F0ACFA77
:1042D000552002F0A9FA002002F0A6FA552002F0BB
:1042E000A3FA002002F0A0FA442002F09DFA002078
:1042F00002F09AFA442002F097FA002002F094FAB1
:10430000552002F091FA002002F08EFAE92002F026
:1043100095FAAA2002F088FA002002F085FA00201F
:1043200002F082FA002002F07FFA002002F086FA02
:10433000AA2002F079FACF2002F080FA002002F0E1
:1043400073FA002002F070FA002002F06DFA0020EB
:1043500002F06AFA002002F067FA002002F064FA24
:10436000002002F061FA002002F05EFA002002F064
:104370005BFA002002F058FA002002F055FA002003
:1043800002F052FA002002F04FFA002002F04CFA3C
:10439000002002F049FA002002F046FA002002F064
:1043A00043FAF02002F04AFA002002F03DFA5020D1
:1043B00002F03AFA002002F037FA002002F034FA54
:1043C000002002F031FAF32002F038FA002002F067
:1043D0002BFAF92002F032FA062002F025FA10201A
:1043E00002F022FA292002F01FFA002002F01CFA43
:1043F0003A2002F023FA552002F016FA112002F0BA
:104400001DFA6420FEF77CFB292002F017FA352004
:1044100002F014FA002002F007FA512002F00EFA1E
:10442000FF2002F001FA532002F008FA2C2002F0DB
:10443000FBF9552002F002FA822002F0F5F92C2057
:1044400002F0FCF910BD10B555214FF4704002F098
:1044500007FAAA214FF2010002F002FA52214FF2AC
:10446000020002F0FDF908214FF2030002F0F8F912
:1044700001214FF2040002F0F3F90D214FF4304016
:1044800002F0EEF90D214BF2010002F0E9F90D21E5
:104490004BF2020002F0E4F934214FF4364002F00E
:1044A000DFF934214BF2016002F0DAF934214BF2EA
:1044B000026002F0D5F90D214FF4314002F0D0F93D
:1044C0000D214BF2011002F0CBF90D214BF202103D
:1044D00002F0C6F934214FF4374002F0C1F934211B
:1044E0004BF2017002F0BCF934214BF2027002F081
:1044F000B7F900214FF4324002F0B2F900214BF23B
:10450000012002F0ADF900214BF2022002F0A8F9DF
:1045100024214FF4384002F0A3F924214BF6010086
:1045200002F09EF924214BF6020002F099F90121D4
:104530004FF43F4002F094F90F214FF4334002F062
:104540008FF90F214BF2013002F08AF90F214BF263
:10455000023002F085F934214FF4394002F080F93D
:1045600034214BF6011002F07BF934214BF6021096
:1045700002F076F908214FF4354002F071F9082174
:104580004BF2015002F06CF908214BF2025002F09C
:1045900067F903214FF4424002F062F924214FF4FD
:1045A0003A4002F05DF924214BF6012002F058F95F
:1045B00024214BF6022002F053F900214FF43C4035
:1045C00002F04EF978214BF6014002F049F9002142
:1045D0004BF6024002F044F900214FF43D4002F056
:1045E0003FF978214BF6015002F03AF900214BF6E1
:1045F000025002F035F900214FF43E4002F030F94C
:1046000064214BF6016002F02BF900214FF4514078
:1046100002F026F933214DF2011002F021F90021B8
:104620004DF2021002F01CF934214DF2031002F099
:1046300017F900214DF2041002F012F93A214DF25F
:10464000051002F00DF900214DF2061002F008F9F4
:104650004A214DF2071002F003F900214DF2081033
:1046600002F0FEF85C214DF2091002F0F9F8002189
:104670004DF20A1002F0F4F881214DF20B1002F015
:10468000EFF800214DF20C1002F0EAF8A6214DF2ED
:104690000D1002F0E5F800214DF20E1002F0E0F8E6
:1046A000E5214DF20F1002F0DBF801214DF2101060
:1046B00002F0D6F813214DF2111002F0D1F80121C9
:1046C0004DF2121002F0CCF854214DF2131002F00A
:1046D000C7F801214DF2141002F0C2F882214DF208
:1046E000151002F0BDF801214DF2161002F0B8F8D5
:1046F000CA214DF2171002F0B3F802214DF2181042
:1047000002F0AEF800214DF2191002F0A9F80221D2
:104710004DF21A1002F0A4F801214DF21B1002F024
:104720009FF802214DF21C1002F09AF834214DF24C
:104730001D1002F095F802214DF21E1002F090F8C3
:1047400067214DF21F1002F08BF802214DF220106C
:1047500002F086F884214DF2211002F081F8022146
:104760004DF2221002F07CF8A4214DF2231002F049
:1047700077F802214DF2241002F072F8B7214DF2C1
:10478000251002F06DF802214DF2261002F068F8B3
:10479000CF214DF2271002F063F802214DF22810CC
:1047A00002F05EF8DE214DF2291002F059F80221E4
:1047B0004DF22A1002F054F8F2214DF22B1002F0C3
:1047C0004FF802214DF22C1002F04AF8FE214DF272
:1047D0002D1002F045F803214DF22E1002F040F8A2
:1047E00010214DF22F1002F03BF803214DF2301052
:1047F00002F036F833214DF2311002F031F8032186
:104800004DF2321002F02CF86D214DF2331002F00F
:1048100027F800214FF4524002F022F833214DF2E4
:10482000012002F01DF800214DF2022002F018F8DC
:1048300034214DF2032002F013F800214DF2042040
:1048400002F00EF83A214DF2052002F009F800219D
:104850004DF2062002F004F84A214DF2072001F043
:10486000FFFF00214DF2082001F0FAFF5C214DF21C
:10487000092001F0F5FF00214DF20A2001F0F0FFC0
:1048800081214DF20B2001F0EBFF00214DF20C20B5
:1048900001F0E6FFA6214DF20D2001F0E1FF00211D
:1048A0004DF20E2001F0DCFFE5214DF20F2001F06A
:1048B000D7FF01214DF2102001F0D2FF13214DF25C
:1048C000112001F0CDFF01214DF2122001F0C8FFAF
:1048D00054214DF2132001F0C3FF01214DF21420A9
:1048E00001F0BEFF82214DF2152001F0B9FF012138
:1048F0004DF2162001F0B4FFCA214DF2172001F04D
:10490000AFFF02214DF2182001F0AAFF00214DF265
:10491000192001F0A5FF02214DF21A2001F0A0FF9D
:1049200001214DF21B2001F09BFF02214DF21C20C2
:1049300001F096FF34214DF21D2001F091FF02217C
:104940004DF21E2001F08CFF67214DF21F2001F077
:1049500087FF02214DF2202001F082FF84214DF2D9
:10496000212001F07DFF02214DF2222001F078FF8D
:10497000A4214DF2232001F073FF02214DF22420E7
:1049800001F06EFFB7214DF2252001F069FF0221F1
:104990004DF2262001F064FFCF214DF2272001F0D7
:1049A0005FFF02214DF2282001F05AFFDE214DF277
:1049B000292001F055FF02214DF22A2001F050FF7D
:1049C000F2214DF22B2001F04BFF02214DF22C2061
:1049D00001F046FFFE214DF22D2001F041FF0321A1
:1049E0004DF22E2001F03CFF10214DF22F2001F05E
:1049F00037FF03214DF2302001F032FF33214DF219
:104A0000312001F02DFF03214DF2322001F028FF6B
:104A10006D214DF2332001F023FF00214FF453406C
:104A200001F01EFF33214DF2013001F019FF00218A
:104A30004DF2023001F014FF34214DF2033001F049
:104A40000FFF00214DF2043001F00AFF3A214DF230
:104A5000053001F005FF00214DF2063001F000FFA6
:104A60004A214DF2073001F0FBFE00214DF20830E3
:104A700001F0F6FE5C214DF2093001F0F1FE00215B
:104A80004DF20A3001F0ECFE81214DF20B3001F0C5
:104A9000E7FE00214DF20C3001F0E2FEA6214DF2BE
:104AA0000D3001F0DDFE00214DF20E3001F0D8FE98
:104AB000E5214DF20F3001F0D3FE01214DF210300F
:104AC00001F0CEFE13214DF2113001F0C9FE01219B
:104AD0004DF2123001F0C4FE54214DF2133001F0BA
:104AE000BFFE01214DF2143001F0BAFE82214DF2D9
:104AF000153001F0B5FE01214DF2163001F0B0FE87
:104B0000CA214DF2173001F0ABFE02214DF21830F0
:104B100001F0A6FE00214DF2193001F0A1FE0221A4
:104B20004DF21A3001F09CFE01214DF21B3001F0D4
:104B300097FE02214DF21C3001F092FE34214DF21D
:104B40001D3001F08DFE02214DF21E3001F088FE75
:104B500067214DF21F3001F083FE02214DF220301B
:104B600001F07EFE84214DF2213001F079FE022118
:104B70004DF2223001F074FEA4214DF2233001F0F9
:104B80006FFE02214DF2243001F06AFEB7214DF292
:104B9000253001F065FE02214DF2263001F060FE65
:104BA000CF214DF2273001F05BFE02214DF228307B
:104BB00001F056FEDE214DF2293001F051FE0221B6
:104BC0004DF22A3001F04CFEF2214DF22B3001F073
:104BD00047FE02214DF22C3001F042FEFE214DF243
:104BE0002D3001F03DFE03214DF22E3001F038FE54
:104BF00010214DF22F3001F033FE03214DF2303001
:104C000001F02EFE33214DF2313001F029FE032157
:104C10004DF2323001F024FE6D214DF2333001F0BF
:104C20001FFE00214FF4544001F01AFE33214DF2D3
:104C3000014001F015FE00214DF2024001F010FE8E
:104C400034214DF2034001F00BFE00214DF20440EF
:104C500001F006FE3A214DF2054001F001FE00216F
:104C60004DF2064001F0FCFD4A214DF2074001F0F3
:104C7000F7FD00214DF2084001F0F2FD5C214DF2FC
:104C8000094001F0EDFD00214DF20A4001F0E8FD80
:104C900081214DF20B4001F0E3FD00214DF20C406B
:104CA00001F0DEFDA6214DF20D4001F0D9FD0021FD
:104CB0004DF20E4001F0D4FDE5214DF20F4001F020
:104CC000CFFD01214DF2104001F0CAFD13214DF23C
:104CD000114001F0C5FD01214DF2124001F0C0FD6F
:104CE00054214DF2134001F0BBFD01214DF214405F
:104CF00001F0B6FD82214DF2154001F0B1FD012118
:104D00004DF2164001F0ACFDCA214DF2174001F002
:104D1000A7FD02214DF2184001F0A2FD00214DF245
:104D2000194001F09DFD02214DF21A4001F098FD5D
:104D300001214DF21B4001F093FD02214DF21C4078
:104D400001F08EFD34214DF21D4001F089FD02215C
:104D50004DF21E4001F084FD67214DF21F4001F02D
:104D60007FFD02214DF2204001F07AFD84214DF2B9
:104D7000214001F075FD02214DF2224001F070FD4D
:104D8000A4214DF2234001F06BFD02214DF224409D
:104D900001F066FDB7214DF2254001F061FD0221D1
:104DA0004DF2264001F05CFDCF214DF2274001F08D
:104DB00057FD02214DF2284001F052FDDE214DF257
:104DC000294001F04DFD02214DF22A4001F048FD3D
:104DD000F2214DF22B4001F043FD02214DF22C4017
:104DE00001F03EFDFE214DF22D4001F039FD032181
:104DF0004DF22E4001F034FD10214DF22F4001F014
:104E00002FFD03214DF2304001F02AFD33214DF2F8
:104E1000314001F025FD03214DF2324001F020FD2B
:104E20006D214DF2334001F01BFD00214FF4554040
:104E300001F016FD33214DF2015001F011FD00216A
:104E40004DF2025001F00CFD34214DF2035001F0FF
:104E500007FD00214DF2045001F002FD3A214DF210
:104E6000055001F0FDFC00214DF2065001F0F8FC68
:104E70004A214DF2075001F0F3FC00214DF2085099
:104E800001F0EEFC5C214DF2095001F0E9FC00213B
:104E90004DF20A5001F0E4FC81214DF20B5001F07B
:104EA000DFFC00214DF20C5001F0DAFCA6214DF29E
:104EB0000D5001F0D5FC00214DF20E5001F0D0FC58
:104EC000E5214DF20F5001F0CBFC01214DF21050C5
:104ED00001F0C6FC13214DF2115001F0C1FC01217B
:104EE0004DF2125001F0BCFC54214DF2135001F070
:104EF000B7FC01214DF2145001F0B2FC82214DF2B9
:104F0000155001F0ADFC01214DF2165001F0A8FC46
:104F1000CA214DF2175001F0A3FC02214DF21850A6
:104F200001F09EFC00214DF2195001F099FC022184
:104F30004DF21A5001F094FC01214DF21B5001F08A
:104F40008FFC02214DF21C5001F08AFC34214DF2FD
:104F50001D5001F085FC02214DF21E5001F080FC35
:104F600067214DF21F5001F07BFC02214DF22050D1
:104F700001F076FC84214DF2215001F071FC0221F8
:104F80004DF2225001F06CFCA4214DF2235001F0AF
:104F900067FC02214DF2245001F062FCB7214DF272
:104FA000255001F05DFC02214DF2265001F058FC25
:104FB000CF214DF2275001F053FC02214DF2285031
:104FC00001F04EFCDE214DF2295001F049FC022196
:104FD0004DF22A5001F044FCF2214DF22B5001F029
:104FE0003FFC02214DF22C5001F03AFCFE214DF223
:104FF0002D5001F035FC03214DF22E5001F030FC14
:1050000010214DF22F5001F02BFC03214DF23050B6
:1050100001F026FC33214DF2315001F021FC032137
:105020004DF2325001F01CFC6D214DF2335001F075
:1050300017FC00214FF4564001F012FC33214DF2D1
:10504000016001F00DFC00214DF2026001F008FC4E
:1050500034214DF2036001F003FC00214DF20460A5
:1050600001F0FEFB3A214DF2056001F0F9FB002151
:105070004DF2066001F0F4FB4A214DF2076001F0A9
:10508000EFFB00214DF2086001F0EAFB5C214DF2DC
:10509000096001F0E5FB00214DF20A6001F0E0FB40
:1050A00081214DF20B6001F0DBFB00214DF20C6021
:1050B00001F0D6FBA6214DF20D6001F0D1FB0021DD
:1050C0004DF20E6001F0CCFBE5214DF20F6001F0D6
:1050D000C7FB01214DF2106001F0C2FB13214DF21C
:1050E000116001F0BDFB01214DF2126001F0B8FB2F
:1050F00054214DF2136001F0B3FB01214DF2146015
:1051000001F0AEFB82214DF2156001F0A9FB0121F7
:105110004DF2166001F0A4FBCA214DF2176001F0B8
:105120009FFB02214DF2186001F09AFB00214DF225
:10513000196001F095FB02214DF21A6001F090FB1D
:1051400001214DF21B6001F08BFB02214DF21C602E
:1051500001F086FB34214DF21D6001F081FB02213C
:105160004DF21E6001F07CFB67214DF21F6001F0E3
:1051700077FB02214DF2206001F072FB84214DF299
:10518000216001F06DFB02214DF2226001F068FB0D
:10519000A4214DF2236001F063FB02214DF2246053
:1051A00001F05EFBB7214DF2256001F059FB0221B1
:1051B0004DF2266001F054FBCF214DF2276001F043
:1051C0004FFB02214DF2286001F04AFBDE214DF237
:1051D000296001F045FB02214DF22A6001F040FBFD
:1051E000F2214DF22B6001F03BFB02214DF22C60CD
:1051F00001F036FBFE214DF22D6001F031FB032161
:105200004DF22E6001F02CFB10214DF22F6001F0C9
:1052100027FB03214DF2306001F022FB33214DF2D8
:10522000316001F01DFB03214DF2326001F018FBEB
:105230006D214DF2336001F013FB55214FF47040A6
:1052400001F00EFBAA214FF2010001F009FB5221EF
:105250004FF2020001F004FB08214FF2030001F0BD
:10526000FFFA00214FF2040001F0FAFACC214FF4CA
:10527000314001F0F5FA00214BF2011001F0F0FA93
:1052800005214FF4364001F0EBFA70214FF437401E
:1052900001F0E6FA70214BF2017001F0E1FA012110
:1052A0004FF4384001F0DCFA03214BF6010001F025
:1052B000D7FA03214BF6020001F0D2FA03214BF694
:1052C000030001F0CDFA02214FF43C4001F0C8FA8E
:1052D00000214BF6014001F0C3FA00214BF60240D9
:1052E00001F0BEFAD0214FF4494001F0B9FA022191
:1052F0004CF6011001F0B4FA50214CF6021001F006
:10530000AFFA50214CF6031001F0AAFA50214CF6E6
:10531000041001F0A5FA00214FF4545001F0A0FA56
:1053200055214FF4685001F09BFA4FF4885001F07A
:1053300085FA7820FDF700FC4FF4245001F07EFA46
:1053400010BD10B541F28F01EC2001F089FA41F255
:105350003421EF2001F084FA4FF48071012001F034
:105360007FFA4FF4E061022001F07AFA41F2300155
:10537000032001F075FA0021042001F071FA40F2D7
:105380000221082001F06CFA0021092001F068FADE
:1053900000210A2001F064FA01210C2001F060FADA
:1053A00000210D2001F05CFA00210F2001F058FAD5
:1053B0000021102001F054FA0721112001F050FAC9
:1053C0000021122001F04CFA0021132001F048FACC
:1053D0000121072001F044FA3220FDF791FB41F250
:1053E0009041102001F03CFA40F22721112001F0F9
:1053F00037FA3220FDF784FB8A21122001F030FABF
:105400003220FDF77DFB4FF4D051132001F028FA34
:105410000621292001F024FA0D212B2001F020FA89
:105420003220FDF76DFB0021202001F019FA002148
:10543000212001F015FA3220FDF762FB40F20771DE
:10544000302001F00DFA4FF40171312001F008FA1B
:105450004FF40171322001F003FA40F2025133207F
:1054600001F0FEF940F20751342001F0F9F94FF450
:105470000171352001F0F4F94FF40171362001F08B
:10548000EFF940F20251372001F0EAF940F202311F
:105490003A2001F0E5F940F202313B2001F0E0F959
:1054A0003220FDF72DFB0021502001F0D9F9EF212A
:1054B000512001F0D5F90021522001F0D1F940F23C
:1054C0003F11532001F0CCF94FF42741602001F047
:1054D000C7F90121612001F0C3F900216A2001F020
:1054E000BFF90021802001F0BBF90021812001F0EB
:1054F000B7F90021822001F0B3F90021832001F0E7
:10550000AFF90021842001F0ABF90021852001F0E2
:10551000A7F91021902001F0A3F94FF4C061922067
:1055200001F09EF940F23311072001F099F910BD06
:1055300010B5E22001F082F91D2001F075F902207A
:1055400001F072F9042001F06FF96420FDF7F4FA1C
:10555000E02001F073F9012001F066F90A20FDF75F
:10556000CFFAE02001F06AF9032001F05DF90C2088
:10557000FDF7C6FA012001F061F90A20FDF7C0FA33
:10558000E62001F05BF92F2001F04EF9FF2001F039
:105590004BF9FF2001F048F9B02001F04FF920202D
:1055A00001F042F9002001F03FF9032001F03CF93D
:1055B00040F21F3001F038F9012001F035F940F2D6
:1055C000DF1001F031F9002001F02EF9B42001F0D4
:1055D00035F9042001F028F940F21F4001F024F9C8
:1055E000002001F021F92E2001F01EF9002001F029
:1055F0001BF9002001F018F9002001F015F9002036
:1056000001F012F9B62001F019F9022001F00CF9AD
:105610004FF4037001F008F9002001F005F917209C
:1056200001F002F9152001F0FFF8002001F0FCF86C
:10563000002001F0F9F8F02001F000F9032001F05A
:10564000F3F8292001F0FAF8D02001F0F7F8002053
:1056500001F0EAF8BE2001F0F1F8052001F0E4F8CD
:10566000FE2001F0E1F8012001F0DEF8002001F059
:10567000DBF8002001F0D8F8002001F0D5F8B820C0
:1056800001F0DCF8032001F0CFF8012001F0CCF8A4
:10569000BA2001F0D3F8012001F0C6F810BD10B512
:1056A000112001F0CBF87820FDF72AFA362001F01E
:1056B000C5F8002001F0B8F83A2001F0BFF8052045
:1056C00001F0B2F8B22001F0B9F80C2001F0ACF80A
:1056D0000C2001F0A9F8002001F0A6F8332001F019
:1056E000A3F8332001F0A0F8B72001F0A7F8352087
:1056F00001F09AF8BB2001F0A1F8322001F094F8F3
:10570000C02001F09BF80C2001F08EF8C22001F0BF
:1057100095F8012001F088F8C32001F08FF81020DF
:1057200001F082F8C42001F089F8202001F07CF813
:10573000C62001F083F80F2001F076F8D02001F0A8
:105740007DF8A42001F070F8A12001F06DF8E020B0
:1057500001F074F8D02001F067F8002001F064F83F
:10576000022001F061F8072001F05EF80A2001F044
:105770005BF8282001F058F8322001F055F8442059
:1057800001F052F8422001F04FF8062001F04CF8E9
:105790000E2001F049F8122001F046F8142001F023
:1057A00043F8172001F040F8E12001F047F8D0203D
:1057B00001F03AF8002001F037F8022001F034F847
:1057C000072001F031F80A2001F02EF8282001F01E
:1057D0002BF8312001F028F8542001F025F847205B
:1057E00001F022F80E2001F01FF81C2001F01CF837
:1057F000172001F019F81B2001F016F81E2001F007
:1058000013F82A2001F01AF8002001F00DF800200A
:1058100001F00AF8002001F007F8EF2001F004F889
:105820002B2001F00BF8002000F0FEFF002000F01C
:10583000FBFF012000F0F8FF3F2000F0F5FF2920DA
:1058400000F0FCFF10BD2DE9F05F05460E4617463F
:105850009846DDF828A04FF0000B781B401C1FFA7B
:1058600080FB344614E02146284600F037FC00F067
:10587000EFFF4FF0000907E04FF0D841A1F802A078
:1058800009F101001FFA80F9D945F5DB601C84B2EB
:105890004445E8DDBDE8F09F00B593B000BF00BF10
:1058A000E948806940F48070E7498861084680696A
:1058B00000F48070009000BF00BF00BF00BF00BFB9
:1058C0000846806940F0200088610846806900F041
:1058D0002000009000BF00BF00BF00BF00BF08460F
:1058E000806940F0200088610846806900F020004F
:1058F000009000BF00BF00BF00BF00BF0846806926
:1059000040F0800088610846806900F080000090C7
:1059100000BF00BF00BF00BF00BF0846806940F065
:10592000040088610846806900F00400009000BF10
:1059300000BF00BF88140F9002201090012011902A
:10594000032012900FA9C148FBF7AAF820200F905E
:105950000FA9BF48FBF7A4F810200F900FA9BC486F
:10596000FBF79EF801200F900FA9BA48FBF798F8B3
:1059700002200F90012010900FA9B748FBF790F874
:105980004FF02040B5490860B5484860062088605F
:105990000021B248C1601021416100218161C161D3
:1059A00041624FF4805181620021C1624FF4804115
:1059B00001630021416381630020089009900F205A
:1059C0000A9000200E900190029002200390002087
:1059D000079001AA08A9A148FCF79AF83220FDF720
:1059E0008FF8002000F02AFF00F055F99D498880CB
:1059F0000846808845F2084188427CD0D32000F0D8
:105A00001DFF00F048F99749888000F044F9954956
:105A1000888000F040F993498880084680884FF6D6
:105A2000FF7101EA00208F49888000F034F98D4928
:105A3000898808438B4988800846808849F241312B
:105A40008842DAD0042000F0F9FE00F024F98549FC
:105A5000888000F020F98349888000F01CF9814992
:105A60008880084680884FF6FF7101EA00207D4952
:105A7000888000F010F97B4989880843794988803B
:105A80000846808848F25251884203D147F2897013
:105A9000744988807348808847F289718842ACD005
:105AA000D42000F0CBFE00F0F6F86E49888000F0BC
:105AB000F2F86C49888000F0EEF86A498880084660
:105AC00080884FF6FF7101EA00206649888000F067
:105AD000E2F86449898808436249888008468088DA
