:020000040800F2
:1000000088ED002055020008254400081D44000822
:100010002144000895190008E95300080000000079
:100020000000000000000000000000003D5000083B
:10003000C1190008000000002F4400083F500008CC
:10004000ED530008274400086F020008CD44000863
:100050006F0200086F020008C31900086F02000851
:100060006F0200086F0200086F020008991900086B
:100070006F0200086F0200086F0200086F0200089C
:100080006F0200086F0200086F0200086F0200088C
:100090006F0200086F0200086F0200086F0200087C
:1000A0006F0200086F0200086F0200086F0200086C
:1000B000495000086F020008755000086F020008E0
:1000C0006F0200086F0200086F0200086F0200084C
:1000D0006F020008C55300086F0200086F02000895
:1000E0006F0200086F0200086F0200086F0200082C
:1000F0006F0200086F020008C95000086F02000874
:100100006F0200086F020008B95000086F02000873
:100110006F0200086F0200086F0200086F020008FB
:100120006F0200086F0200086F0200086F020008EB
:1001300000F002F800F07EF80AA090E8000C82447B
:100140008344AAF10107DA4501D100F073F8AFF258
:10015000090EBAE80F0013F0010F18BFFB1A43F0A5
:100160000103184708D3010028D301000A444FF0C7
:10017000000C10F8013B13F0070408BF10F8014B06
:100180001D1108BF10F8015B641E05D010F8016B4B
:10019000641E01F8016BF9D113F0080F1EBF10F8AF
:1001A000014BAD1C0C1B09D16D1E58BF01F801CBD2
:1001B000FAD505E014F8016B01F8016B6D1EF9D555
:1001C0009142D6D37047000000230024002500266A
:1001D000103A28BF78C1FBD8520728BF30C148BFAA
:1001E0000B607047662913F0FC8503681B0A28BF63
:1001F00041F08001642900F05981752900F0568191
:10020000782900F0CD81E42900F08C81632900F089
:10021000EE86732900F0F386002070471FB500F0CA
:1002200005FF04000020002113F07CF8E0601FBDF2
:1002300010B510BD00F0B8FF1146FFF7EFFF0EF04C
:10024000FBFA00F0D6FF03B4FFF7F2FF03BC05F0A2
:100250000CF900000948804709480047FEE7FEE71F
:10026000FEE7FEE7FEE7FEE7FEE7FEE7FEE7FEE766
:1002700004480549054A064B7047000047500008EE
:100280003101000888E7002088ED002088E900207F
:1002900088E90020704753EA020C00F069802DE9DC
:1002A000F04B4FF00006002B1FBFB3FA83F503FAA3
:1002B00005F424FA05F65E4012BF1643B2FA82F541
:1002C00002FA05F4C5F120051EBF22FA05FC44EA36
:1002D0000C04203556EA044C4FEA144418BF641C41
:1002E0004FF000084FF00009904271EB030C39D336
:1002F000002919BFB1FA81F701FA07F6B0FA80F7C1
:1003000000FA07F6C7F120071EBF20FA07FC46EAED
:100310000C062037B6FBF4FCA7EB0507103F07F0EF
:100320001F0BCBF120060CFA0BFB2CFA06F644BF90
:10033000B3460026202FA4BF5E464FF0000B5BEAB9
:10034000060C08BF4FF0010B19EB0B09ABFB027C4D
:1003500048EB0608C01B06FB02CC0BFB03CC71EB81
:100360000C01C1E70B46024641464846BDE8F08B0A
:1003700013B54FF000004FF00001AFF30080BDE86F
:100380001C40704710B54C1084EA530404D5404219
:10039000C1F1000138BF491E1B4204D55242C3F1CE
:1003A000000338BF5B1EFFF776FF14F0804F04D0C8
:1003B0004042C1F1000138BF491E14F0004F04D083
:1003C0005242C3F1000338BF5B1E10BD0FB4044995
:1003D00010B503AA029800F017FE10BC5DF814FBDC
:1003E000040000200FB41CB5074B06AA7B446946E5
:1003F0000090059800F0D9FD0020694600F0E8FD66
:100400001CBC5DF814FB0000E10B000070B5044655
:1004100085690068C10601D5302600E02026C007A6
:1004200007D070BDD4E9012130469047206A401CB6
:1004300020626D1EF6D570BD70B5044685690078E2
:10044000C00707D170BDD4E9012120209047206A60
:10045000401C20626D1EF6D570BD70B50C46054679
:10046000012A05D02878800600D5EA69002302E039
:10047000012305E05B1C934202D2E05C0028F9D125
:10048000A869E618C01AA861286A18442862284694
:10049000FFF7BCFF04E0D5E9012114F8010B9047F8
:1004A000B442F8D32846FFF7C7FF70BD2DE9F041ED
:1004B0000646002410687529314616A510D0AFF302
:1004C0000080002802DA404213A507E031688A075D
:1004D00001D512A502E0490704D511A5012401E0C8
:1004E000AFF3008000210A2206F1240709E0B0FBE7
:1004F000F2FCB0FBF2F302FB1C00303078541846DB
:10050000491C0028F3D123462A463046BDE8F04175
:1005100000F0DDBA000000002D0000002B000000FC
:10052000200000002DE9F0418046D21D22F0070294
:100530000025D2E90002F52915A614D0011E72F19A
:10054000000106DA0023D0EB030063EB020211A6E0
:1005500008E0D8F800108B0701D50FA602E0490784
:1005600001D50EA601251146002408F1240704E058
:1005700000F068FA30323A55641C50EA0102F7D1B3
:100580002B46324621464046BDE8F04100F09FBA76
:10059000000000002D0000002B00000020000000E3
:1005A00070B504460D4621461068AFF300802188DF
:1005B000090502D50F4A7A4402E00E4A7A440E3207
:1005C000002104F1240305E000F00F060009965D08
:1005D0005E54491C0028F7D120780023000704D579
:1005E000702D02D009B1022311322046BDE87040BF
:1005F00000F06DBA7AB701002DE9F05F8946044634
:100600004FF0000ADFF874B1FB44C0F820A0204688
:10061000E1688847002874D0252806D0D4E9012154
:100620009047206A401C2062F1E700265F46204682
:10063000E16888472028054607DB312D05D2781967
:1006400010F8200C08B10643F1E7B00701D526F0F9
:100650000406C4F81CA00027C4F818A02A2D09D04D
:10066000284604F0FBFE38B304EB8708303DC8F899
:10067000185019E059F8041B204604EB87029161D9
:10068000E1688847012F054618D1E069002820DA83
:1006900026F020061DE0D8F8180000EB800005EBDE
:1006A00040003038C8F818002046E1688847054601
:1006B00004F0D4FE0028EED1012F0AD02E2D08D14F
:1006C0002046E16888477F1C0546022F46F0200639
:1006D000C4DBA069002803DA404246F00106A061AD
:1006E000F00701D026F010066C2D0BD0682D09D034
:1006F0004C2D39D06A2D35D0742D35D07A2D33D08C
:1007000016E038E0E1682F4620468847B8420546A3
:1007100009D16C2F26D04FF48060E1680643204653
:100720008847054604E06C2F1AD04FF480700643CA
:100730000DB3A5F14100192802D8203546F4006612
:100740004A462946204626604E46FFF74BFD80B1BB
:1007500001280BD0F61D26F0070000F1080956E726
:100760004020E4E78020D8E70020D6E706F104091E
:100770004DE7284652E7206ABDE8F09F50B70100D8
:10078000401ECAB210F8011F8A4202D00029F9D1D6
:100790000020704740EA010310B59B070FD1042ADF
:1007A0000DD310C808C9121F9C42F8D020BA19BA3C
:1007B000884201D9012010BD4FF0FF3010BD1AB1A1
:1007C000D30703D0521C07E0002010BD10F8013BF6
:1007D00011F8014B1B1B07D110F8013B11F8014B1D
:1007E0001B1B01D1921EF1D1184610BD10B5431C40
:1007F00002E010F8011B71B18107FAD14FF001320C
:1008000002C88C1A8C4314EAC211F9D0C01A0A0625
:1008100003D0C01E10BDC01A10BD0A0401D0801E36
:1008200010BD0902FCD0401E10BD032A40F23080EA
:1008300010F0030C00F0158011F8013BBCF1020F21
:10084000624498BF11F801CB00F8013B38BF11F8A2
:10085000013BA2F1040298BF00F801CB38BF00F8B9
:10086000013B11F0030300F02580083AC0F0088036
:1008700051F8043B083A51F804CBA0E80810F5E71A
:10088000121D5CBF51F8043B40F8043BAFF30080FD
:10089000D20724BF11F8013B11F801CB48BF11F872
:1008A000012B24BF00F8013B00F801CB48BF00F842
:1008B000012B704710B5203AC0F00B80B1E81850FA
:1008C000203AA0E81850B1E81850A0E81850BFF43A
:1008D000F5AF5FEA027C24BFB1E81850A0E81850D9
:1008E00044BF18C918C0BDE810405FEA827C24BF2D
:1008F00051F8043B40F8043B08BF7047D20728BFBB
:1009000031F8023B48BF11F8012B28BF20F8023B09
:1009100048BF00F8012B704702F0FF0343EA0322AF
:1009200042EA024200F002B84FF000020429C0F08F
:10093000128010F0030C00F01B80CCF1040CBCF111
:10094000020F18BF00F8012BA8BF20F8022BA1EB63
:100950000C0100F00DB85FEAC17C24BF00F8012B48
:1009600000F8012B48BF00F8012B70474FF0000240
:1009700000B5134694469646203922BFA0E80C5095
:10098000A0E80C50B1F12001BFF4F7AF090728BF70
:10099000A0E80C5048BF0CC05DF804EB890028BFEC
:1009A00040F8042B08BF704748BF20F8022B11F015
:1009B000804F18BF00F8012B704700004FF0013C3A
:1009C00050F8042B51F8043B9A4221D1A2EB0C03BE
:1009D000934313EACC1317D150F8042B51F8043B7E
:1009E0009A4215D1A2EB0C03934313EACC130BD11B
:1009F00050F8042B51F8043B9A4209D1A2EB0C03A6
:100A0000934313EACC13DBD04FF00000704700BFD4
:100A1000D01A01BAB1FA81F101F0180122FA01F0FD
:100A2000CB40C1F12001DBB2C0B2C01A2CFA01F3F5
:100A3000D11A914311EAC311E6D17047704770474C
:100A40007047704730B5B0F10A024FEA900E71F16D
:100A500000034EEA817EB0EB0E0061EB91014FEA9C
:100A6000101E4EEA017E10EB0E0041EB11114FEA11
:100A7000102E4EEA016E10EB0E0041EB11214FEAF1
:100A8000104E4EEA014E10EB0E0041EB11414018A2
:100A900041F100014FEAD00040EA41704FEAD10134
:100AA00010EB80054FEA810444EA907444EB0104A2
:100AB0006D1944EB0404521BA3414FF0000348BFDF
:100AC0000A3200D530BD401C41F1000130BD2DE996
:100AD000F0470D4699469246044600F12408016805
:100AE000880604D5E06921F01001216000E00120B2
:100AF000A84201DD471B00E00027A1697A1902EB3B
:100B00000900081AA0612078C00602D42046FFF729
:100B10007DFC002608E0D4E901211AF80600904780
:100B2000206A401C761C20624E45F4DB2078C0060B
:100B30000AD52046FFF76AFC06E0D4E901213020FF
:100B40009047206A401C2062381EA7F10107F4DCA0
:100B500007E0D4E9012118F805009047206A401CFD
:100B60002062281EA5F10105F3DC2046FFF764FC96
:100B70002078000602D50220BDE8F0870120FBE7BF
:100B800070472DE9FF4F0C461E464FF0FF378BB0E4
:100B9000D2E90001DDF860800A908A46C1F30A5567
:100BA00005B93D46002108464FF00000BAF1000F9C
:100BB00000F4400005DA00EB80004FF4400101EA48
:100BC00050004FEA9059B9F1010F00DDB9460A987B
:100BD00050EA4A000ED044F61050A5F2FF354543C6
:100BE0002F14B8F1000F1ED07542291E1EDDC9F169
:100BF00000021CE0B8F1010F4FF0000001D03021DD
:100C000003E0F24305E02154401CB042FBDB3046D8
:100C10000022002121540B99C1F80880C1E900206D
:100C20000FB0BDE8F08FBD1B6D1CDEE74A4600DA51
:100C3000694206A800F03EFA06AB93E8070003AB52
:100C400083E8070050460A9900F0DCFA8DE80700B7
:100C5000A0F500501F3800900398002D0ADD42F2E5
:100C60001F014A460844002303A90390684600F088
:100C700045FD09E0A0F500504A461F38002303A9AE
:100C80000390684600F04FFD8DE807000004000C5B
:100C900003D04FF0FF30410800E01046B8F1000FDC
:100CA00003D00022009215461EE0751E05D4FFF702
:100CB000C9FE303262556D1EF9D5B3460122084394
:100CC00002D000227F1C04E02078302801D10022CD
:100CD0007F1E002A099784D01DE0112D07DAFFF747
:100CE000B1FE303262556D1C50EA0102F5D1084365
:100CF00002D00098C8B10EE00021681E05E0235C18
:100D0000625C63542254401E491C8142F7DBAB46AF
:100D1000A81B401E0990002004F80B000B98099AAC
:100D2000C0F80880C0E9002B7AE711264FF00008D0
:100D300057E72DE9F04F88460446D21D22F00701FF
:100D400091B0D1E90001CDE90A0104F057FB024658
:100D50000B98C00F01D02D2007E02068810701D536
:100D60002B2002E0202101EAC000032A099001D0D3
:100D7000072A05DB03464146204600F05BF90BE1FC
:100D80002078800601D5E06900E00620B8F1650F03
:100D9000814606D0B8F1660F18D0B8F1670F70D150
:100DA00031E00020B9F1110F009001DB112301E0C7
:100DB00009F101030AAA01A90CA8FFF7E2FEDDE987
:100DC0000C70002609F10105834647E001204B46DF
:100DD00000904FF000470AAA01A90CA8FFF7D1FE26
:100DE000DDE90DB00C995D46002610B909F101004E
:100DF0000D18B9EB050003D4C0F1FF3609F1010568
:100E0000A5EB09002BE0B9F1010F01DA4FF0010960
:100E10000020B9F1110F0090484601DD112300E0D8
:100E200003460AAA01A90CA8FFF7ABFEDDE90C7086
:100E30004D4600268346207800070AD4AB4500DAE9
:100E40005D4601A8012D04DD411911F8011C30296E
:100E500007D04F4502DA17F1040F04DA0120824669
:100E60000FE06D1EEEE7002F02DCED1B3E4403E0B9
:100E7000781CA84200DD7D1CB81B00F1010A4FF070
:100E800000472078000703D4AA4501DB4FF0FF3A62
:100E90000021B7F1004F0DF143088DF8431024D025
:100EA00002202B23002F01DA7F422D230A21021E6C
:100EB000A0F1010000DC5FB197FBF1FC97FBF1F2C0
:100EC00001FB1C7C17460CF1300C08F801CDEEE755
:100ED000A8F1010003702188090501D5452100E032
:100EE0006521A0F1010800F8011C09980FA9A1EBE8
:100EF0000807FF1D00B10120411901EBEA70A1694B
:100F00003844081A401EA0612078C00602D420464A
:100F1000FFF77CFA099828B1D4E901219047206AAB
:100F2000401C20622078C00622D52046FFF76EFACA
:100F30001EE0002E04DBB34502DD01A8805D00E069
:100F40003020D4E901219047206A401C2062761CA1
:100F5000AAF101005FEA000A0AD100F067F8C06850
:100F60000168405CD4E901219047206A401C20625E
:100F7000281EA5F10105DCDC07E0D4E9012118F801
:100F8000010B9047206A401C2062381EA7F1010720
:100F9000F3DC2046FFF750FA032011B041E60000D1
:100FA00001694A1C02610878704700B58FB0CDE92D
:100FB00001310021059105497944CDE9031011461D
:100FC0006846FFF719FB0FB000BD0000E5FFFFFF0B
:100FD0000A6802F8010B0A60704710B5436913B143
:100FE000AFF3008001E0FFF738FA012010BD12785E
:100FF00000F124010A7000224A700122EDE7116815
:101000004FF0FF32E9E70000074B70B50D467B4417
:10101000FFF7CBFF0446284600F0BEF810B14FF0B2
:10102000FF3070BD204670BD8B89000000487047BE
:1010300044E700202DE9F0411F46044603260168DD
:10104000072A01F4006004DB08B116A505E016A527
:1010500003E008B115A500E015A521F010002060FF
:10106000A069C01EA0610FB1401EA0612046FFF71D
:10107000CDF94FB1D4E9012138469047206A401C90
:101080002062C01C206206E0206AFAE7D4E9012150
:1010900015F8010B9047761EF8D22046FFF7CCF9E1
:1010A000BDE8F0814E414E006E616E00494E460033
:1010B000696E66002DE9F047814616468AB03548CC
:1010C00078440DC88DE80D0032487844801C03AC8C
:1010D0000DC884E80D0041F69B300844372190FB91
:1010E000F1F290FBF1F5A5F1800501FB12041B3C28
:1010F00002D56442012000E00020DFF898A080467D
:101100000027FA44AAF1BE0A0EE0E0070AD03246F0
:10111000684607EB470101230AEB810100F003FB5E
:101120008DE8070064107F1C002CEED1194F7F441E
:10113000AE3F19E0E80715D007EB04100DF1180ACF
:1011400090E80E008AE80E00C068F04201D19819BC
:1011500008903246012306A903A800F0E4FA03AB85
:1011600083E807006D10641C002DE3D14FF00103EC
:1011700032466946B8F1000F03A802D000F0BEFA6B
:1011800001E000F0D0FAC9E90001C9F808200AB06E
:10119000BDE8F08728AD0100007B00F080007047BB
:1011A0000048704724E700207546FFF7F9FFAE4678
:1011B00005006946534620F00700854618B020B563
:1011C000FFF756F8BDE820404FF000064FF000074B
:1011D0004FF000084FF0000B21F00701AC46ACE8DF
:1011E000C009ACE8C009ACE8C009ACE8C0098D464C
:1011F000704710B50446AFF300802046BDE81040AC
:10120000FFF721B85FEA400C08BF91F0000F4FEAEA
:101210008C234FEAC12243EA51514FEA1C5018BFB8
:1012200000F5F0404FEA300018BF41F000415FEA9E
:101230006C5C00F02980BCF1FF3F08BF40F08040AB
:101240007047130C06BF12044FF0100C4FF0000C47
:10125000130E04BF12020CF1080C130F04BF12018D
:101260000CF1040C930F04BF92000CF1020CD30F8D
:1012700004BF52000CF1010C11464FF00002A0F126
:101280001F00A0EB0C00704711F0004F08BF704723
:1012900031F000413FF4D5AF0B0C06BF09044FF00D
:1012A000100C4FF0000C0B0E04BF09020CF1080CDF
:1012B0000B0F04BF09010CF1040C8B0F04BF890054
:1012C0000CF1020CCB0F04BF49000CF1010CCCF166
:1012D0002003A0EB0C0022FA03F302FA0CF241EA1D
:1012E000030100F10100704720F07F4C80EA030009
:1012F00023F07F47ACEB070303F57C5300F000407D
:1013000003F1FF032DE980494FEA154B09B44FEA79
:10131000144325EA0B4E24EA03480FF2042606EB99
:10132000132749083E785FEA320203FB0667C7F5D8
:10133000000707FB06F64FEA54374FEAD64606F198
:10134000020607FB066CCCF1005C4FEA1C472CEA56
:10135000074C07FB06F40CFB06F504EB15464FEAB9
:10136000961634BF00204FF000404FEAD13706FBFD
:1013700007FC4FEA1C4C0CFB0BF7D21B03FB0CF7D2
:1013800061EB07010CFB0EF7B0EB074072EB174265
:101390000CFB08F734BFA2EB0742B2EB074261EB4C
:1013A00017414FEA0C444FEA910706FB07FC4FEA4E
:1013B0001C4C0CFB0BF7B0EBC74072EB573203FB36
:1013C0000CF734BFA2EBC742B2EBC74261EB573117
:1013D0000CFB0EF7B0EBC70072EB57720CFB08F773
:1013E00034BFA2EBC702B2EBC70261EB5771039F98
:1013F0004FEA816141EA921104EBCC044FEAD13704
:101400004FEA826206FB07FC42EA90124FEA8060D4
:101410004FEA1C4C0CFB0BF7D21B03FB0CF761EBE8
:1014200007010CFB0EF7B0EB074072EB17420CFB09
:1014300008F734BFA2EB0742B2EB074261EB17415A
:101440004FEA8C554FEA910704EB9C2406FB07FCFE
:101450004FEA1C4C0CFB0BF7B0EBC74072EB57325A
:1014600003FB0CF734BFA2EBC742B2EBC74261EB00
:1014700057310CFB0EF7B0EBC70072EB57720CFB49
:1014800008F734BFA2EBC702B2EBC70261EB57719A
:1014900015EB4C254FEA816141EA92114FEA8262D5
:1014A0004FEAD13742EA901206FB07FC44F10004F0
:1014B0004FEA80604FEA1C4C0CFB0BF7D21B03FB7E
:1014C0000CF761EB07010CFB0EF7B0EB074072EB7A
:1014D00017420CFB08F734BFA2EB0742B2EB0742FE
:1014E00061EB174115EB1C154FEA813141EA92413E
:1014F0004FEA823242EA90424FEA80304FEA0C765D
:1015000044F1000448EA03434EEA0B484FF0000E52
:10151000B2EB080C71EB030724BF624639464EEB71
:101520000E0E4FF0000B0018524149414BEB0B0BD4
:10153000B2EB080C71EB03077BF1000B24BF624692
:1015400039464EEB0E0E4FF0000B00185241494148
:101550004BEB0B0BB2EB080C71EB03077BF1000BB1
:1015600024BF624639464EEB0E0E51EA020718BF01
:1015700046F0010616EB0E7655F1000254F100011B
:1015800003D5BDE88901BDE80088BDE88901BDE853
:101590000048B619524141EB0101A3F10103704724
:1015A00080807F7E7D7C7B7A7978777676757473A0
:1015B000727171706F6E6E6D6C6C6B6A6A6968685F
:1015C000676666656464636362616160605F5F5EF5
:1015D0005E5D5D5C5C5B5B5A5A595958585757566B
:1015E00056555555545453535252525151505050D0
:1015F0004F4F4F4E4E4D4D4D4C4C4C4B4B4B4A4A22
:101600004A49494948484847474747464646454565
:10161000454444444443434343424242424141419E
:10162000002B9C4630D477002BD01CB54FEA3707EF
:1016300003B44FF010004FF01001BAF1000F06D0C4
:10164000BCF1000FDCBF40F0080040F008014FF093
:1016500000000FBCBDE810400BF1010BBBF1010F06
:1016600008BF5FEA170722BF12F1010211F1010161
:101670004FF0004143F1000300F0004043EA000056
:101680007047F9D35708D0E746EA064613F1400FF2
:101690004FEA16461FDD13F1200FDFBF16430A463F
:1016A000002120335B42BED0C3F1200746EA064644
:1016B00002FA07F74FEA164646EA0706C3F1200783
:1016C00022FA03F201FA07F721FA03F14FF00003BF
:1016D00042EA0702A7E746EA020646EA06464FEA5A
:1016E000164646EA0106BCBF46EA0646360C4FF0EF
:1016F00000034FF000024FF0000194E72DE9804C09
:101700009A46934670B491E8380007C831EA400C15
:1017100048BF34EA430C03D5FFF7E6FDFFF780FF2F
:10172000F0BCBDE8008C2DE9804C9A46934670B41D
:1017300091E8380007C810F0804F08BF13F0804FC1
:1017400003D100F005F8FFF76BFFF0BCBDE8008C9B
:1017500020F07F4780EA030023F07F4C07EB0C0367
:10176000A3F57C5300F00040A3F1FE0392F0000FBC
:1017700000F0B38095F0000F00F077802DE901496B
:101780004FEA11404FEA144621EA004800FB06FCEC
:1017900024EA064708FB06F607FB08F800FB07F7F4
:1017A00018EB06484CEB164C4FEA124B18EB074867
:1017B0004FEA15464CEB174022EA0B4E0BFB06FC9A
:1017C00025EA06470EFB06F607FB0EFE0BFB07F7A6
:1017D0001EEB064E4CEB164C4FF000061EEB074E70
:1017E0004CEB174B18EB0B0840F1000018EB0E0BFD
:1017F00058EB000840F100008F1A4FF000013CBF89
:10180000C943661B14BFB5EB040C00213CBFC943A0
:10181000F61B4FEA17444EEA8E0E27EA04454FEABC
:101820001C4704FB07622CEA074C05FB07F70CFB7F
:1018300005F604FB0CFC16EB074642EB174216EBD1
:101840000C4642EB1C421BEB060658EB02024141E0
:1018500046EA9E0601D5BDE80189B619524141EB21
:101860000101A3F10103BDE801894FEA14454FEAE4
:10187000114724EA054621EA074C05FB07F406FB5D
:1018800007F70CFB06F105FB0CFC11EB074144EBE1
:1018900017444FEA124711EB0C4144EB1C4422EA77
:1018A000074C05FB07F206FB07F70CFB06F605FBEA
:1018B0000CFC16EB074642EB174216EB0C4642EBCC
:1018C0001C456A1854F1000148BF7047B6195241CF
:1018D00041EB0101A3F10103704795F0000F37D0F0
:1018E0004FEA11424FEA144721EA024624EA074C24
:1018F00002FB07F106FB07F70CFB06F402FB0CFCEE
:1019000014EB074441EB17414FEA154714EB0C4425
:1019100041EB1C4125EA074C02FB07F506FB07F7E4
:101920000CFB06F602FB0CFC16EB074645EB1745D5
:1019300016EB0C4645EB1C42121951F1000148BF51
:101940007047B619524141EB0101A3F10103704701
:101950004FEA14454FEA114724EA054621EA074CAD
:1019600005FB07F106FB07F70CFB06F24FF000063C
:1019700005FB0CFC12EB074241EB174112EB0C424A
:1019800051EB1C4148BF7047921841EB0101A3F194
:101990000103704700BFFEE70748006800F002003F
:1019A00040B10120054908700348406840F002003A
:1019B00001494860704700000000024036000020E6
:1019C000704710B5012000F073F910BD70B50446E2
:1019D000B3F5804F13D1D1E9000540EA05108D68B9
:1019E00040EA05208D6928438D8940EA054054F876
:1019F0002250064E3540284344F8220003E06FF0A1
:101A0000704044F82200002070BD00000000F0CFBC
:101A100070B50246086852F8200020F001000E68F8
:101A200042F826008868082801D1402300E00023FE
:101A3000486818438E683043CE6830430E6930439F
:101A40004E693043CE6930430E6A30434E6A3043AC
:101A50008E6A3043CE6A30430E6B40EA06048869D2
:101A60000443486B0443074D45F4806545F4E02585
:101A7000086852F82000A84320430E6842F8260068
:101A8000002070BD7FFB080010B50346D1E90004BB
:101A900040EA04108C6840EA04208C8940EA04443F
:101AA000088A401E44EA0054087D801E44EA006013
:101AB0008C692043541C53F8244004F040442043D4
:101AC000541C43F82400002010BD38B50446002003
:101AD00000902068009029B902F10800009D284478
:101AE000009004E002F11400009D2844009000984A
:101AF0000360002038BD000070B50446002594F84E
:101B00002100022803D00420A0630125C1E0206841
:101B1000006820F00E00216808602068006820F04E
:101B20000100216808605C492068884252D95A49FE
:101B300078392068884201D1012047E0564964394C
:101B40002068884201D1102040E053495039206874
:101B5000884201D1801539E04F493C3920688842DC
:101B600001D1801432E04C4928392068884202D1E2
:101B70004FF480302AE0484914392068884202D165
:101B80004FF4801022E044492068884201D140048B
:101B90001CE042492068884201D1012016E03F49FB
:101BA00014312068884201D110200FE03B492831D0
:101BB0002068884201D1801508E038493C3120680E
:101BC000884201D1801401E04FF480303349091F6D
:101BD000086051E0304978392068884201D10120FD
:101BE00047E02D4964392068884201D1102040E047
:101BF000294950392068884201D1801539E02649A9
:101C00003C392068884201D1801432E022492839C9
:101C10002068884202D14FF480302AE01E491439EE
:101C20002068884202D14FF4801022E01A492068CF
:101C3000884201D140041CE018492068884201D143
:101C4000012016E0154914312068884201D1102086
:101C50000FE0124928312068884201D1801508E040
:101C60000E493C312068884201D1801401E04FF4D4
:101C70008030094980394860012084F8210000BF84
:101C8000002084F8200000BF606B10B12046616B1B
:101C90008847284670BD00008000024008040240CA
:101CA00010B50446A0B204F0D5FA10BD704700008C
:101CB00010B5044604480068204020B10248046082
:101CC0002046FFF7F3FF10BD140401402DE9F8474B
:101CD000024600239C467BE14FF0010808FA03F41A
:101CE000D1F8008008EA0400A0427DD1DFF8F4A218
:101CF000D1F80480A8EB0A09D0453AD014DCB8F139
:101D0000030F50D009DCB8F1000F31D0B8F1010F4A
:101D10001CD0B8F1020F49D120E0B8F1110F18D052
:101D2000B8F1120F42D11EE0B9F5881F25D006DCAC
:101D3000B9F5803F20D0B9F5801F37D11AE0B9F549
:101D4000001F18D0B9F5041F30D117E0D1F80CC02E
:101D50002DE0D1F80C8008F1040C28E0D1F80C80BB
:101D600008F1080C23E0D1F80C8008F10C0C1EE0FF
:101D700000BF00BF00BF00BF00BF00BFD1F8088098
:101D8000B8F1000F02D14FF0040C0BE0D1F808803D
:101D9000B8F1010F03D14FF0080C146102E04FF0CD
:101DA000080C546103E04FF0000C00E000BF00BFDE
:101DB000FF2801D8904601E002F104084646FF28BA
:101DC00002D84FEA830803E0A3F108084FEA880825
:101DD0004746D6F800804FF00F0909FA07F928EABC
:101DE00009080CFA07F900E07AE048EA0908C6F8A1
:101DF0000080D1F8048008F08058B8F1805F6FD17E
:101E000000BFDFF8E481D8F8188048F00108DFF857
:101E1000D891C9F81880C846D8F8188008F0010889
:101E2000CDF8008000BF00BF4FEAB9384FEA9309F0
:101E300058F829504FEA83784FEA18794FF00F0885
:101E400008FA09F825EA0805DFF8A081424502D121
:101E50004FF0000824E0DFF89881424502D14FF0AE
:101E600001081DE0DFF88C81424502D14FF00208E5
:101E700016E0DFF88481424502D14FF003080FE0FD
:101E8000DFF87881424502D14FF0040808E0DFF81E
:101E90007081424502D14FF0050801E04FF006087D
:101EA0004FEA83794FEA197908FA09F848EA0505F3
:101EB000DFF850814FEA930948F82950D1F804809F
:101EC00008F48038B8F5803F0BD1DFF83C81D8F8B2
:101ED000008048EA0008DFF83091C9F800800AE085
:101EE00075E0DFF82481D8F8008028EA0008DFF8E0
:101EF0001891C9F80080D1F8048008F40038B8F5CA
:101F0000003F0ED1DFF8008108F10408D8F8008006
:101F100048EA0008DFF8F09009F10409C9F80080E8
:101F20000DE0DFF8E48008F10408D8F8008028EA22
:101F30000008DFF8D49009F10409C9F80080D1F84D
:101F4000048008F48018B8F5801F0ED1DFF8B8803F
:101F500008F10808D8F8008048EA0008DFF8A890DF
:101F600009F10809C9F800800DE0DFF89C8008F14C
:101F70000808D8F8008028EA0008DFF88C9009F1FA
:101F80000809C9F80080D1F8048008F40018B8F5F1
:101F9000001F0ED1DFF8708008F10C08D8F800801F
:101FA00048EA0008DFF8609009F10C09C9F80080E0
:101FB0000DE0DFF8548008F10C08D8F8008028EA1A
:101FC0000008DFF8449009F10C09C9F800805B1C97
:101FD000D1F8008028FA03F8B8F1000F7FF47CAE46
:101FE000BDE8F88700001110001002400008014011
:101FF000000C014000100140001401400018014095
:10200000001C0140080001400004014002469368A2
:102010000B400BB1012000E00020704710B5C268F2
:1020200021EA020302EA010443EA0443036110BD0A
:102030000AB1016101E00B040361704701480068C7
:102040007047000010000020034800680349097829
:102050000844014908607047100000201800002063
:1020600010B50848006840F01000064908600520D7
:1020700000F080F80F2000F007F800F02BF80020A7
:1020800010BD00000020024070B504460E480078E4
:102090004FF47A71B1FBF0F00C490968B1FBF0F52F
:1020A000284601F0EDFD08B1012070BD102C07D2CB
:1020B00000222146501E00F01EF80548046001E091
:1020C0000120F2E70020F0E71800002000000020C7
:1020D00014000020704701460846002809DB00F084
:1020E0001F0301229A4043099B0003F1E023C3F838
:1020F000002100BF70472DE9F05F80460D4616466F
:10210000002703F08FF9074639462A46334601F087
:102110000700C0F1070ABAF1040F02D94FF0040A10
:1021200001E0C0F1070AD14600F1040ABAF1070F35
:1021300002D24FF0000A01E0A0F1030AD4464FF0AA
:10214000010A0AFA09FAAAF1010A0AEA020A0AFAD3
:102150000CFA4FF0010B0BFA0CFBABF1010B0BEA85
:10216000030B4AEA0B042146404603F063F9BDE83D
:10217000F09F000000BF00F00702064B19684FF601
:10218000FF031940044B0B4343EA0221014B196042
:1021900000BF70470CED00E00000FA050120014986
:1021A0000862704700000E4210B50E48406800F00B
:1021B0000400042809D10CA0FEF708F900BF012291
:1021C00091030E48FFF734FF0AE00DA0FEF7FEF87A
:1021D00000BF00224FF480410848FFF729FF00BFED
:1021E00010BD000000700040505644204C6F772016
:1021F000566F6C7461676521000000000014014097
:1022000050564420566F6C74616765204F4B210017
:1022100010B50648006800F4803028B1FFF7C4FF0D
:102220004FF480300149086010BD000014040140E3
:102230002DE9F04385B0064642A30FCB01AC0FC495
:1022400044A0006800904FF00008002500270024FB
:10225000A146042E36D004DC012E3BD0022E6BD1D9
:102260005FE0082E32D0102E66D13B4844680068EB
:1022700000F0807000B301A8C4F38341475C04F40C
:10228000803070B134484068C0F340401DF8008091
:1022900004F4803040B13148B0FBF8F000FB07F5A2
:1022A00002E02F4807FB00F52B48406800F480004F
:1022B000B0F5800F01D1A94603E068000321B0FB0F
:1022C000F1F93AE000F0D2F9814636E000F0CEF9BB
:1022D000814632E02048046A04F44070B0F5807F03
:1022E00005D104F0020010B14FF4004918E004F4E5
:1022F0004070B0F5007F07D11748406A00F0020037
:1023000010B149F640490BE004F44070B0F5407F4D
:1023100006D11148006800F4003008B14FF224499A
:102320000BE000F093F90C494968C1F38131491C75
:102330004900B0FBF1F900E000BF00BF484605B01E
:10234000BDE8F08302030405060708090A0B0C0D1B
:102350000E0F1010010200000010024000127A005F
:1023600000093D00F8B5044600260025207800F05D
:10237000010000286BD000274348C06900F080505E
:1023800070B900BF4048C06940F080503E49C86104
:102390000846C06900F08050009000BF00BF0127D0
:1023A0003A48006800F48070B0B93848006840F4DA
:1023B000807036490860FFF741FE064606E0FFF7E9
:1023C0003DFE801B642801D90320F8BD2F4800681A
:1023D00000F480700028F2D02B48006A00F44075A9
:1023E0002DB3A08800F44070A84220D02648006A8F
:1023F00020F440750120264908600020086022482A
:10240000056205F0010090B1FFF718FE064608E0EE
:10241000FFF714FE801B41F28831884201D9032066
:10242000D3E71948006A00F002000028F0D01648EF
:10243000006A20F440706168084313490862012F64
:1024400004D10846C06920F08050C86100BF2078E0
:1024500000F00200022807D10B48406820F44040F9
:10246000A168084308494860207800F0100010284F
:1024700007D10548406820F480006169084302499B
:1024800048600020A1E700000010024000700040FA
:102490004004424270B504460D460CB9012070BD9F
:1024A0005A48006800F00700A8420ED2574800685A
:1024B00020F007002843554908600846006800F0EE
:1024C0000700A84201D00120E9E7207800F00200CF
:1024D00002281DD1207800F00400042805D14C48C2
:1024E000406840F4E0604A494860207800F0080005
:1024F000082805D14648406840F460504449486087
:102500004348406820F0F000A16808434049486013
:10251000207800F0010078B36068012806D13C48BB
:10252000006800F4003090B90120B8E76068022824
:1025300006D13748006800F0007040B90120AEE7CE
:102540003348006800F0020008B90120A7E73048CE
:10255000406820F00300616808432D494860FFF798
:102560006DFD064609E0FFF769FD801B41F28831E9
:10257000884202D9032092E707E02548406800F02E
:102580000C006168B0EB810FEDD12048006800F0CD
:102590000700A8420ED91D48006820F00700284314
:1025A0001A4908600846006800F00700A84201D0F8
:1025B000012074E7207800F00400042807D11448B3
:1025C000406820F4E060E1680843114948602078E1
:1025D00000F00800082808D10D48406820F4605039
:1025E000216940EAC1000A49486000F03FF8084903
:1025F0004968C1F30311074A515CC84006490860A5
:1026000006480068FFF740FD002048E70020024030
:1026100000100240E63D01080000002014000020E8
:1026200001480068704700000000002000B5FFF777
:10263000F7FF04494968C1F30221034A515CC840CD
:1026400000BD000000100240F63D010800B5FFF794
:10265000E7FF04494968C1F3C221034A515CC840FD
:1026600000BD000000100240F63D0108F0B585B045
:102670000FF26C0C9CE8E01001A8A0E8E0101CA58B
:102680002D68009500210022002300240020194D10
:10269000696801F00C05F5B1042D02D0082D19D19F
:1026A00001E0154819E001ADC1F38346AC5D01F4CA
:1026B000803555B10F4D6D68C5F340451DF80520B7
:1026C0000D4D6543B5FBF2F302E00C4D04FB05F341
:1026D000184602E000BF084800BF00BF05B0F0BDCB
:1026E00002030405060708090A0B0C0D0E0F101053
:1026F000010200000010024000127A0000093D00B3
:10270000F8B504460CB90120F8BD207800F00100AE
:10271000002878D0F848406800F00C0004280CD05D
:10272000F548406800F00C00082811D1F2484068D4
:1027300000F48030B0F5803F0AD1EF48006800F423
:10274000003000285FD0606800285CD10120DBE702
:1027500000BF6068B0F5803F06D1E748006840F4EC
:102760008030E549086028E0606858B9E2480068B0
:1027700020F48030E04908600846006820F480209A
:1027800008601AE06068B0F5A02F0BD1DA48006845
:1027900040F48020D84908600846006840F4803042
:1027A00008600AE0D448006820F48030D24908600C
:1027B0000846006820F48020086000BF606888B187
:1027C000FFF73CFC054606E0FFF738FC401B642899
:1027D00001D9032098E7C848006800F400300028B9
:1027E000F2D010E0FFF72AFC054606E0FFF726FCD2
:1027F000401B642801D9032086E7BF48006800F425
:1028000000300028F2D1207800F00200022857D1D1
:10281000B948406800F00C0050B1B748406800F07B
:102820000C00082818D1B448406800F4803098B9EA
:10283000B148006800F0020020B12069012801D0F1
:10284000012061E7AC48006820F0F800616940EAC7
:10285000C100A949086033E02069E8B10120A74917
:102860000860FFF7EBFB054606E0FFF7E7FB401BC0
:10287000022801D9032047E79F48006800F00200C2
:102880000028F2D09C48006820F0F800616940EA16
:10289000C1009949086013E0002098490860FFF7DB
:1028A000CDFB054606E0FFF7C9FB401B022801D916
:1028B000032029E79048006800F002000028F2D1C8
:1028C000207800F0080008282DD1A069B8B10120B7
:1028D0008B490860FFF7B2FB054606E0FFF7AEFB49
:1028E000401B022801D903200EE78348406A00F00C
:1028F00002000028F2D0012001F09AFD13E0002030
:102900007F490860FFF79AFB054606E0FFF796FB54
:10291000401B022801D90320F6E67748406A00F000
:1029200002000028F2D1207800F00400042873D1BE
:1029300000277148C06900F0805070B900BF6E4830
:10294000C06940F080506C49C8610846C06900F019
:102950008050009000BF00BF01276A48006800F463
:102960008070B0B96748006840F4807065490860BD
:10297000FFF764FB054606E0FFF760FB401B642899
:1029800001D90320C0E65F48006800F48070002889
:10299000F2D000BFE068012806D15748006A40F035
:1029A00001005549086227E0E06858B95248006ABA
:1029B00020F00100504908620846006A20F0040037
:1029C000086219E0E06805280BD14B48006A40F026
:1029D0000400494908620846006A40F001000862A4
:1029E0000AE04548006A20F00100434908620846B1
:1029F000006A20F00400086200BFE068A0B1FFF7A1
:102A00001DFB054609E0FFF719FB401B41F2883129
:102A1000884202D9032077E622E03748006A00F0B6
:102A200002000028EFD012E0FFF708FB054608E09F
:102A3000FFF704FB401B41F28831884201D9032093
:102A400062E62D48006A00F002000028F0D1012F54
:102A500005D12948C06920F080502749C86100BFCE
:102A6000E069C8B32448406800F00C00082860D032
:102A7000E069022848D1002020490866FFF7DEFA05
:102A8000054606E0FFF7DAFA401B022801D90320C9
:102A90003AE61948006800F000700028F2D1206A78
:102AA000B0F5803F07D11448406820F40030A16899
:102AB000084311494860D4E9080108430E494968B0
:102AC00021F4741108430C49486001200B49086641
:102AD000FFF7B4FA054607E03DE0FFF7AFFA401B09
:102AE000022801D903200FE60348006800F00070B7
:102AF0000028F2D02FE00000001002400000424207
:102B00008004424200700040002014490866FFF72C
:102B100095FA054606E0FFF791FA401B022801D915
:102B20000320F1E50E48006800F000700028F2D1A3
:102B300011E0E069012800D1E6E50948466806F49D
:102B40008031206A814204D106F47011606A8142AA
:102B500001D00120D8E50020D6E500000000424267
:102B60000010024010B5034600220020024A02EB8A
:102B700081021468A0B210BD006C004010B503467D
:102B80000020034800EB810094B2046010BD0000F7
:102B9000006C004070B5044600250CB9012070BDE2
:102BA000607C20B900202074204600F05BF80220F1
:102BB0006074204600F0A2F818B10420607401206F
:102BC000EDE7204601F048FC18B1042060740120B4
:102BD000E5E72068406820F0070021684860A068A9
:102BE00028B11F48006820F001001D4908601C48FA
:102BF000001F006820F46070A16808431849091F8D
:102C000008606068401C08B1656809E00120FFF7B2
:102C10000FFB05461DB9042060740120BFE76D1E3F
:102C20002068806820F00F0040EA15402168886025
:102C30002068C06865F30F002168C860204601F075
:102C400028FC18B1042060740120A8E70021E1737A
:102C500001216173A1730120607400209FE70000CF
:102C6000306C004030B591B00546C82401202149A0
:102C700008602148006A40F001001F49086204E032
:102C8000601E84B2052003F0E5FA2CB11A48006AF0
:102C900000F002000028F3D0ACB908200790012012
:102CA0000A9000200E9007A8FFF72AFD012001904E
:102CB0004002029001A8FFF755FB45F251010020A8
:102CC0000DF0F6FF14E00420079001200A90002088
:102CD0000E9007A8FFF714FD01200190000202905A
:102CE00001A8FFF73FFB45F2500100200DF0E0FF87
:102CF00011B030BD3C0442420010024070B50446A1
:102D000000250CB9012070BD2068406820F0080043
:102D100021684860FFF792F9054607E0FFF78EF952
:102D2000401BB0F57A7F01D90320ECE720684068AA
:102D300000F008000028F1D00020E4E710B50246BA
:102D4000506E800F0870506EC0F383604870506EF4
:102D5000C0F301608870506E000CC870B2F8640057
:102D6000000A087192F864004871906E000DC880E6
:102D7000906EC0F3034008726820805AC0F3C030E0
:102D800048726820805AC0F3803088726820805A68
:102D9000C0F34030C8726820805AC0F30030087316
:102DA00000204873506C002836D16820805A800576
:102DB000030DD06E43EA90700861D06EC0F3C2601C
:102DC0000875D06EC0F302604875D06EC0F34250F3
:102DD0008875D06EC0F38240C875D06EC0F3C23023
:102DE00008760869401C50650B7E506D03F00703A0
:102DF0009B1C01249C4060435065087A00F00F033F
:102E0000012098409065D2E915035B0A5843D065CC
:102E10004FF40073136621E0506C012813D1682031
:102E2000805C8006830AD06E43EA1040086108691E
:102E3000401C83025365536DD3654FF40073936553
:102E4000936D13660AE02E4813689863906B40F008
:102E500080509063012082F8340010BD6C20805AAD
:102E6000C0F3803001F8190F6C20805AC0F3C610EF
:102E700048706C20805C00F07F008870106FC00F7D
:102E8000C870106FC0F341700871106FC0F382609A
:102E90004871106FC0F383508871106FC0F34050B9
:102EA000C87100200872106FC0F300404872702093
:102EB000805AC0F3C03088727020805AC0F38030CE
:102EC000C8727020805AC0F3403008737020805A56
:102ED000C0F3003048737020805AC0F3812088739B
:102EE0007020805AC0F30120C8737020805CC0F34A
:102EF000460008740120487419390020ADE700002D
:102F0000FF054000F8B504460020009069462046C1
:102F100001F0F8FF054615B1A06B2843A0630098A7
:102F2000C0F343263046F8BD10B504460CB9012065
:102F300010BD94F8340020B900202077204600F01E
:102F400053F8032084F83400204600F00BF808B151
:102F50000120EDE70020A0632063012084F8340005
:102F60000020E5E770B58AB0044600200490059083
:102F70000690079008907620099007A807C88DE86A
:102F80000700206804A90EC901F011FB064616B11E
:102F900001200AB070BD002012490860206801F0CD
:102FA00020FB01200F49A039C1F8A000204601F004
:102FB00043FF05463DB1012084F83400A06B28434F
:102FC000A0630120E5E7204601F0B4FE05463DB1CF
:102FD000012084F83400A06B2843A0630120D8E7C7
:102FE0000020D6E7A000304210B586B004464F4915
:102FF000206888427ED100BF4D48406940F480601F
:103000004B4948610846406900F48060019000BF68
:1030100000BF00BF00BF0846806940F01000886113
:103020000846806900F01000019000BF00BF00BF9B
:1030300000BF00BF0846806940F010008861084664
:10304000806900F01000019000BF00BF00BF00BF0A
:1030500000BF0846806940F010008861084680691A
:1030600000F01000019000BF00BF00BF00BF00BF14
:103070000846806940F0100088610846806900F0C9
:103080001000019000BF00BF00BF00BF00BF084696
:10309000806940F0100088610846806900F01000E7
:1030A000019000BF00BF00BF00BF00BF084680699D
:1030B00040F0200088610846806900F020000190FF
:1030C00000BF00BF00BF88150290022003900120BE
:1030D00004900320059002A91648FEF7F7FD4FF46F
:1030E0000070029002A91348FEF7F0FD4FF48060D3
:1030F000029000E018E002A90E48FEF7E7FD4FF449
:103100000060029002A90B48FEF7E0FD4FF48050EA
:10311000029002A90748FEF7D9FD0420029002A9F7
:103120000548FEF7D3FD00BF06B010BD008001408A
:103130000010024000100140001401402DE9FF4F33
:1031400089B004468B469946DDF858A0FEF776FF15
:1031500002900B9800905D46BBF1000F07D1A06B69
:1031600040F00060A06301200DB0BDE8F08F94F83E
:10317000340001287ED10020A063009800EB0901F3
:10318000E06D814205D9A06B40F00070A063012082
:10319000EAE7032084F8340000202168C862606CEC
:1031A000012802D00098400200904FF4007120687E
:1031B00001F078FA8046B8F1000F0AD08E482168F5
:1031C0008863A06B40EA0800A063012084F8340003
:1031D000CAE74FF0FF3003904FEA49200490902057
:1031E000059002200690002007900120089003A976
:1031F000206801F0B7F9B9F1010F07D90220206367
:103200002068009901F09AFA804606E001202063C8
:103210002068009901F0AEFA8046B8F1000F0DD099
:10322000754821688863A06B40EA0800A06301200C
:1032300084F8340000202063012095E7049E3AE0E2
:103240002068406B00F40040F0B1EEB10020019026
:1032500017E0206801F0CEF907462F706D1C761E2E
:10326000380A28706D1C761E380C28706D1C761E6E
:10327000380E00E0BAE028706D1C761E0198401CE4
:10328000019001980828E4D3FEF7D8FE0299401A6D
:10329000504502D2BAF1000F0DD15748216888631A
:1032A000A06B40F00040A063012084F834000020AF
:1032B0002063032058E72068406B40F22A31084021
:1032C0000028BDD02068406B00F48070D0B1B9F107
:1032D000010F17D9606C032814D0206801F0EEFAB2
:1032E0008046B8F1000F0DD0434821688863A06B79
:1032F00040EA0800A063012084F834000020206325
:10330000012031E72068406B00F0080068B13A48BE
:1033100021688863A06B40F00800A063012084F856
:1033200034000020206301201EE72068406B00F07D
:10333000020068B1304821688863A06B40F0020049
:10334000A063012084F834000020206301200BE7F3
:103350002068406B00F0200068B12748216888632E
:10336000A06B40F02000A063012084F8340000200E
:1033700020630120F8E629E0206801F03BF90746C8
:103380002F706D1C761E380A28706D1C761E380C46
:1033900028706D1C761E380E28706D1C761EFEF788
:1033A0004DFE0299401A504502D2BAF1000F0DD1DC
:1033B000114821688863A06B40F00040A0630120A1
:1033C00084F83400002020630120CDE62068406BA3
:1033D00000F4001008B1002ECED140F23A5021681E
:1033E0008863012084F834000020BDE6A06B40F023
:1033F0000050A0630120B7E6FF0540002DE9F04F23
:1034000089B00446894693469846FEF717FE029017
:10341000DA464E46B9F1000F07D1A06B40F00060CC
:10342000A063012009B0BDE8F08F94F834000128B2
:103430007ED10020A0630AEB0801E06D814205D92E
:10344000A06B40F00070A0630120EBE7032084F83C
:10345000340000202168C862606C012801D04FEA66
:103460004A2A4FF40071206801F01CF905464DB15D
:10347000764821688863A06B2843A063012084F804
:103480003400CFE74FF0FF3003904FEA482004901C
:10349000902005900020069007900120089003A935
:1034A000206801F05FF8B8F1010F07D920202063F0
:1034B0005146206801F020FA054606E010202063FE
:1034C0005146206801F034FA054665B15F4821682D
:1034D0008863A06B2843A063012084F83400002097
:1034E000206301209EE7049F43E02068406B00F4C6
:1034F000804040B33FB30020019021E0307800903D
:10350000761C7F1E3078009941EA00200090761CDE
:103510007F1E3078009941EA00400090761C7F1EA3
:103520003078009941EA00600090761C7F1E00E030
:1035300085E06946206801F075F80198401C01900B
:1035400001980828DAD3FEF779FD0299411A1298FA
:10355000814201D2129860B93C4821688863A06B0F
:103560002843A063012084F8340000202063032056
:1035700058E72068406B40F21A3108400028B4D068
:103580002068406B00F48070B8B1B8F1010F14D915
:10359000606C032811D0206801F090F9054665B1F0
:1035A0002A4821688863A06B2843A063012084F81F
:1035B000340000202063012034E72068406B00F0D5
:1035C000080068B1214821688863A06B40F00800BA
:1035D000A063012084F8340000202063012021E74B
:1035E0002068406B00F0020068B1184821688863C9
:1035F000A06B40F00200A063012084F8340000209A
:10360000206301200EE72068406B00F0100068B1D5
:103610000E4821688863A06B40F01000A063012071
:1036200084F83400002020630120FBE640F23A5089
:1036300021688863012084F834000020F2E6A06B42
:1036400040F00050A0630120ECE60000FF054000C0
:1036500010B504460CB9012010BD606A38B9606825
:10366000B0F5827F00D105E00021E16102E0002198
:1036700021616161A06AB0F5005F00D100BF94F8DC
:10368000510028B9002084F85000204600F04AF884
:10369000022084F851002068006820F04000216872
:1036A0000860A08800F48270218901F40441084375
:1036B000A18901F400610843217C01F00201084363
:1036C000217D01F001010843218B01F400710843C1
:1036D000217F01F0380108432021095D01F08001BC
:1036E0000843218D01F4005108432168086004213A
:1036F000A06901EA104021684860A06AB0F5005F47
:1037000003D1A08D80B2216808612068C06920F4CF
:1037100000602168C86100206065012084F85100C4
:10372000002099E710B586B004464D4920688842CC
:1037300049D100BF00BF4B48806940F008004949AB
:1037400088610846806900F00800019000BF00BF52
:1037500000BF00BF00BF0846806940F008008861D4
:103760000846806900F00800019000BF00BF00BF5C
:1037700000BF00BF0846806940F008008861084625
:10378000806900F00800019000BF00BF00BF4FF447
:103790000050029002200390012004900320059025
:1037A00002A93148FEF792FA4FF48040029002A934
:1037B0002D48FEF78BFA4FF40040029002A92A48E8
:1037C000FEF784FA49E029492068884245D100BFC4
:1037D00000BF2448806940F00400224988610846FF
:1037E000806900F00400019000BF00BF00BF00BF6F
:1037F00000BF0846806940F004008861084680697F
:1038000000F00400019000BF00BF00BF00BF00BF78
:103810000846806940F0040088610846806900F02D
:103820000400019000BF00BF00BF202002900220D2
:103830000390012004900320059002A90C48FEF794
:1038400045FA4020029002A90948FEF73FFA80207D
:10385000029002A90648FEF739FA06B010BD000032
:103860000038004000100240000C014000300140D0
:10387000000801402DE9FF5F0446884691461D4639
:103880000E9E012002900020019000BF94F850008D
:10389000012803D1022004B0BDE8F09F012084F884
:1038A000500000BFFEF7CAFB074694F851B06068AD
:1038B0000390AA46BBF1010F0BD00398B0F5827FAD
:1038C00004D1A06810B9BBF1040F02D0022001900E
:1038D0003DE1B8F1000F03D0B9F1000F00D015B9E8
:1038E0000120019033E194F85100042802D0052012
:1038F00084F8510000206065C4F83890E587A587FA
:10390000C4F83080E586A58620646064A06AB0F5BE
:10391000005F0DD100BF2068006820F400502168CE
:1039200008602068006840F400502168086000BF0B
:103930002068006800F04000402805D0206800683A
:1039400040F0400021680860E068B0F5006F56D193
:10395000606810B1BAF1010F09D1206B00882168AD
:10396000C860206B801C2063E08E401EE0863FE034
:103970002068806800F0020002281CD1E08ED0B1DF
:103980000298012817D1206B00882168C860206B3D
:10399000801C2063E08E401EE08600200290E08EB6
:1039A00048B9A06AB0F5005F05D12068006840F40E
:1039B0008050216808602068806800F0010068B1CC
:1039C000E08F58B12068C068A16B0880A06B801C94
:1039D000A063E08F401EE08701200290FEF72EFBDF
:1039E000C01BB04204D3701C10B103200190AEE0A4
:1039F000E08E0028BCD1E08F0028B9D156E0606885
:103A000010B1BAF1010F09D1206B00782168087359
:103A1000206B401C2063E08E401EE08640E0206862
:103A2000806800F0020002281CD1E08ED0B102981C
:103A3000012817D1206B007821680873206B401C87
:103A40002063E08E401EE08600200290E08E48B9A0
:103A5000A06AB0F5005F05D12068006840F480508E
:103A6000216808602068806800F0010068B1E08F7C
:103A700058B12068C068A16B0870A06B401CA0639F
:103A8000E08F401EE08701200290FEF7D7FAC01BAE
:103A9000B04201D3701C00B916B90320019056E062
:103AA000E08E0028BBD1E08F0028B8D1A06AB0F525
:103AB000005F10D13346012211462046009701F0E5
:103AC00051FA30B1606D40F0020060650320019052
:103AD0003DE02068C06820688068C0F30010E8B14D
:103AE000204601F03BFA012814D1606D40F002003D
:103AF000606500BF2068006820F4005021680860FD
:103B00002068006840F400502168086000BF012070
:103B1000019003E04FF6EF70216888603A46314625
:103B2000204601F007FA20B10120019020206065B5
:103B30000DE0A06850B900BF002000902068C06868
:103B4000009020688068009000BF00BF00BF012087
:103B500084F8510000BF002084F8500000BF019895
:103B600099E670B504460E4615461CB1A069B0F53D
:103B7000807F01D1012070BD94F8410028B9002058
:103B800084F84000204600F01FF804F10801206886
:103B9000FDF73EFF3146A2682068FDF775FF294614
:103BA000236BD4E90102FDF711FFA168206850F8EA
:103BB000210040F00100A268216841F822000120A4
:103BC00084F841000020D6E710B586B0044600BF57
:103BD0001E48406940F480701C49486108464069AD
:103BE00000F48070019000BF00BF00BF08468069EC
:103BF00040F0200088610846806900F020000190B4
:103C000000BF00BF00BF0846806940F040008861E7
:103C10000846806900F04000019000BF00BF4CF2F0
:103C2000037002900220039001200490032005906D
:103C300002A90748FEF74AF84FF68070029002A9E1
:103C40000448FEF743F806B010BD00000010024023
:103C50000014014000180140042808D14FF0E02171
:103C6000096941F004014FF0E022116107E04FF0D3
:103C7000E021096921F004014FF0E0221161704751
:103C800070B504462546681EB0F1807F01D301203F
:103C90000FE0681E4FF0E02148610F214FF0FF3028
:103CA00001F0C8FB00204FF0E02188610720086187
:103CB000002070BD7047704710B504460CB9012054
:103CC00010BD94F83D0028B9002084F83C0020463F
:103CD00000F025F8022084F83D00211D206801F045
:103CE000FBF9012084F8460000BF84F83E00012162
:103CF0003F200155402001554120015500BF00BF24
:103D0000012084F8420043200155442001554520FC
:103D1000015500BF012084F83D000020D0E7704726
:103D2000014691F83D00012801D001207047022092
:103D300081F83D000868C06840F001000B68D86059
:103D4000164B0868984213D0154B086898420FD05C
:103D50000868B0F1804F0BD0124B0868984207D02A
:103D6000114B0868984203D0104B086898420CD158
:103D70000868806800F00702062A0CD0086800680E
:103D800040F001000B68186005E00868006840F02A
:103D900001000B6818600020C8E70000002C0140FB
:103DA000003401400004004000080040000C0040C6
:103DB00010B504460D492068884216D10C48007899
:103DC00098B9207F012810D104210A4800F022F977
:103DD000801C094908800021064800F01BF9801C5E
:103DE0000649088001200249087010BD00340140D6
:103DF0001E000020A4050020220000202400002036
:103E000010B5044620680069C0F34000D8B12068AE
:103E1000C068C0F34000B0B16FF0020021680861D3
:103E2000012020772068806900F0030018B1204647
:103E3000FFF7BEFF05E0204600F0ADF8204600F099
:103E4000ABF80020207720680069C0F38000D8B16B
:103E50002068C068C0F38000B0B16FF00400216832
:103E60000861022020772068806900F4407018B152
:103E70002046FFF79DFF05E0204600F08CF8204625
:103E800000F08AF80020207720680069C0F3C000A5
:103E9000D8B12068C068C0F3C000B0B16FF00800AE
:103EA00021680861042020772068C06900F00300C1
:103EB00018B12046FFF77CFF05E0204600F06BF8C4
:103EC000204600F069F80020207720680069C0F3E0
:103ED0000010D8B12068C068C0F30010B0B16FF016
:103EE000100021680861082020772068C06900F46C
:103EF000407018B12046FFF75BFF05E0204600F058
:103F00004AF8204600F048F8002020772068006931
:103F100000F0010058B12068C06800F0010030B125
:103F20006FF0010021680861204600F037F8206832
:103F30000069C0F3C01058B12068C068C0F3C01059
:103F400030B16FF08000216808612046FFF7B2FEB3
:103F500020680069C0F3801058B12068C068C0F3C1
:103F6000801030B16FF0400021680861204600F0F9
:103F70006AF820680069C0F3401058B12068C06832
:103F8000C0F3401030B16FF0200021680861204676
:103F9000FFF791FE10BD704770470000194A016895
:103FA00091422DD11849097801F0800111BB1649C1
:103FB000097801F04001E9B11349097801F03F01A6
:103FC0003F2918D111490968096A21F0A0010F4A57
:103FD000126811620D490968096A0C4A1268116277
:103FE0000949097841F08001074A11704FF6FF71C5
:103FF000074A118004E004490978491C024A1170FB
:1040000070470000000C00401B0000201405002039
:104010001C0000200246002031B1042907D00829E5
:1040200008D00C290CD108E01368586B09E013681C
:10403000986B06E01368D86B03E01368186C00E017
:1040400000BF00BF70477047704700002DE9F04780
:104050000446206805682068C668206847694FF0F4
:104060000008C14605F00F08B8F1000F0AD105F0AD
:10407000200038B106F0200020B1204601F0A4F85D
:10408000BDE8F087B8F1000F71D007F0010018B952
:1040900006F4907000286AD005F0010030B106F4F3
:1040A000807018B1E06B40F00100E06305F004009F
:1040B00030B107F0010018B1E06B40F00200E0639E
:1040C00005F0020030B107F0010018B1E06B40F0DC
:1040D0000400E06305F0080048B106F0200010B9C4
:1040E00007F0010018B1E06B40F00800E063E06BFE
:1040F00068B305F0200028B106F0200010B120467A
:1041000001F062F820684069C0F38019E06B00F0AC
:10411000080010B9B9F1000F22D0204601F034F8A0
:104120002068406900F04000B0B12068406920F08C
:10413000400021684861606B50B11848616B48636A
:10414000606BFDF7D9FC10B1606B416B88470CE0E8
:104150002046FFF779FF08E02046FFF775FF04E0EF
:104160002046FFF771FF0020E06389E7FFE705F0D5
:10417000800030B106F0800018B1204601F0F2F85E
:104180007EE705F0400030B106F0400018B120464F
:1041900001F00AF874E700BF72E7000075510008EB
:1041A00010B504460CB9012010BDA06900B100E0B3
:1041B00000BF94F8390028B9002084F83800204660
:1041C00000F028F8242084F839002068C06820F422
:1041D00000502168C860204601F046F82068006958
:1041E00020F49040216808612068406920F02A008E
:1041F000216848612068C06840F400502168C860A8
:104200000020E063202084F8390084F83A00002080
:10421000CAE7000010B586B00446284920688842E5
:104220004AD100BF00BF2648806940F004002449FD
:1042300088610846806900F00400019000BF00BF5B
:1042400000BF00BF00BF0846806940F004008861DD
:104250000846806900F00400019000BF00BF00BF65
:1042600000BF00BF0846806940F48040886108466E
:10427000806900F48040019000BF00BF00BF481576
:10428000029002200390012004900320059002A9CF
:104290000C48FDF71BFD4FF4806002900020039056
:1042A00002A90848FDF712FD2520FDF714FF03229F
:1042B00011462520FDF71FFF06B010BD0038014054
:1042C000001002400008014010B5034693F83A0080
:1042D00020282FD101B10AB9012010BD00BF93F8E9
:1042E0003800012801D10220F7E7012083F83800C7
:1042F00000BF99629A85DA850020D863222083F86E
:104300003A0000BF002083F8380000BF1868C0687A
:1043100040F480701C68E0601868406940F001005B
:104320001C6860611868C06840F020001C68E0608C
:104330000020D2E70220D0E71D4A0168914236D121
:104340001C49098801F4004189BB1A49098801F414
:10435000804171B1184909780A2903D00021154A12
:10436000118024E01349098841F40041114A118069
:104370001DE0114909780D2906D10E49098841F43B
:1043800080410C4A118012E00B490978094A1288D1
:10439000C2F30D02094B995406490988491C054A84
:1043A000118011460988C72901DD0021118070475D
:1043B00000380140080000200A000020A40300206B
:1043C0007047000010B50446054800F021F800BF12
:1043D0004FF480410348FDF721FE00BF10BD0000EF
:1043E000B80400200014014010B50446206840685D
:1043F000C0F3402058B12068806800F0010030B15F
:104400006FF00100216888602046FFF7DBFF10BDD8
:1044100001460A68C86810600020704700BFFEE7C8
:1044200000BFFEE7704710B5FDF7F2FE10BD704704
:1044300008B508490968C9084FF47A72B1FBF2F16E
:104440004143009100BF00BF00994A1E009200291D
:10445000F9D108BD0000002070B504460025FDF725
:10446000EDFD054607E0FDF7E9FD401BB0F57A7F5D
:1044700001D9032070BD2068406800F020000028AA
:10448000F1D02068406840F01000216848600020AA
:10449000F0E770B5044600252068406820F0100061
:1044A00021684860FDF7CAFD054607E0FDF7C6FD37
:1044B000401BB0F57A7F01D9032070BD20684068A9
:1044C00000F020000028F1D00020F6E70EB51B48D0
:1044D0000068406800F0010030B10CF009FA6FF09C
:1044E0000100164909684860144800684068C0F334
:1044F0004000A0B16FF00200104909684860104800
:1045000080780F4949780E4A1278CDE9002102904F
:104510000B48C379827981880AA0FBF757FF6FF0B7
:10452000040006490968486000BF04480068406804
:10453000C0F340100028F8D00EBD00003C0700205A
:1045400050070020416C61726D2054696D653A25F9
:10455000642D25642D25642025643A25643A25645C
:104560000A00000010B5024600230868506248683F
:104570009062D1E9020420430C6920434C69204336
:104580000343D06A20F0F7001843D062002010BD2A
:1045900001460869C0B270470146086800F0030090
:1045A0007047024602F114004318186870470FB4B0
:1045B00010B504460021DDE903021043059A1043BB
:1045C000069A1043079A1043089A10430143606803
:1045D00047F6FF62904308436060002010BC5DF81E
:1045E00014FB10B50446032020600220FDF758FBA1
:1045F000002010BD0146D1F88000704710B502467A
:10460000002308689060D1E901042043CC6820436E
:104610000C6920430343D0686FF30B001843D0604C
:10462000002010BD02460868C2F8800000207047D4
:1046300070B586B005460C460194372002904020A4
:104640000390002004904FF48060059001A9284653
:10465000FFF7D4FF41F288323721284600F0A4F951
:104660000646304606B070BD70B586B005460C46AD
:104670000B48204301902920029040200390002005
:1046800004904FF48060059001A92846FFF7B6FF1B
:10469000284600F091FA0646304606B070BD00008C
:1046A0000000108070B586B005460C4601941020BD
:1046B000029040200390002004904FF48060059009
:1046C00001A92846FFF79AFF41F2883210212846B7
:1046D00000F06AF90646304606B070BD30B585B0C8
:1046E0000446002000900190029003904FF48060F7
:1046F000049069462046FFF781FF204600F034F918
:104700000546284605B030BD30B585B004464FF4A7
:10471000D570009008200190402002900020039066
:104720004FF48060049069462046FFF767FF2046FB
:1047300000F0CAFA0546284605B030BD70B586B00F
:1047400005460C4601941220029040200390002060
:1047500004904FF48060059001A92846FFF74EFFB2
:1047600041F288321221284600F01EF906463046F2
:1047700006B070BD70B586B005460C460194112098
:10478000029040200390002004904FF48060059038
:1047900001A92846FFF732FF41F28832112128464D
:1047A00000F002F90646304606B070BDF0B585B09F
:1047B000064614461D4600940720019040200290B2
:1047C000002003904FF48060049069463046FFF764
:1047D00015FF41F288320721304600F0E5F8074620
:1047E000384605B0F0BD30B585B0044600200090D5
:1047F00002200190C0200290002003904FF48060BE
:10480000049069462046FFF7F9FE204600F0A2F921
:104810000546284605B030BD70B586B005460C4645
:10482000019409200290C0200390002004904FF4CE
:104830008060059001A92846FFF7E0FE284600F0B9
:1048400089F90646304606B070BD70B586B005469B
:104850000C4601940D20029040200390002004900B
:104860004FF48060059001A92846FFF7C7FE41F28A
:1048700088320D21284600F097F80646304606B0EB
:1048800070BD70B586B005460C460020019003202F
:10489000029040200390002004904FF48060059027
:1048A00001A92846FFF7AAFE22460321284600F068
:1048B000AFF90646304606B070BD000030B585B091
:1048C0000446002000900C2001904020029000201F
:1048D00003904FF48060049069462046FFF78EFEF7
:1048E000044A0C21204600F05FF80546284605B032
:1048F00030BD000000E1F50570B586B005460C46F8
:1049000001941920029040200390002004904FF45D
:104910008060059001A92846FFF770FE41F28832B9
:104920001921284600F040F80646304606B070BD12
:1049300070B586B005460C460194182002904020C0
:104940000390002004904FF48060059001A9284650
:10495000FFF754FE41F288321821284600F024F86F
:104960000646304606B070BD01460E480068C008D5
:104970004FF47A73B0FBF3F041F2883300FB03F29B
:1049800000BF101EA2F1010202D14FF0004070479B
:10499000486B00F080000028F3D0C5208863002019
:1049A000F5E70000000000202DE9F04305460F4622
:1049B000904666480068C0084FF47A71B0FBF1F089
:1049C00000FB08F900BFB9F10000A9F1010903D10A
:1049D0004FF00040BDE8F0836E6B06F04500002804
:1049E000F1D006F400600028EDD1686B00F00400FF
:1049F00010B10420A863EDE7686B00F0010010B16E
:104A00000120A863E6E7C520A8632846FFF7C0FD9C
:104A1000B84201D00120DDE700212846FFF7C1FDA3
:104A200004464B48204008B90020D3E704F000407A
:104A3000B0F1004F02D14FF00070CBE704F080409E
:104A4000B0F1804F01D14020C4E704F00050B0F134
:104A5000005F01D18020BDE704F08050B0F1805F9D
:104A600002D14FF48070B5E704F00060B0F1006F40
:104A700002D14FF40070ADE704F08060B0F1806FB8
:104A800002D14FF48060A5E704F08070B0F1807F20
:104A900002D14FF400609DE704F40000B0F5000F70
:104AA00002D14FF4805095E704F48000B0F5800FF8
:104AB00002D14FF400508DE704F40010B0F5001F50
:104AC00002D14FF4804085E704F48010B0F5801FD8
:104AD00002D14FF400407DE704F48020B0F5802F30
:104AE00002D14FF4003075E704F40030B0F5003F18
:104AF00002D14FF480206DE704F48030B0F5803FA0
:104B000002D14FF4002065E704F40040B0F5004FF7
:104B100002D14FF480105DE704F48040B0F5804F7F
:104B200002D14FF4001055E704F40050B0F5005FD7
:104B300002D14FF480004DE704F00800082801D1AD
:104B4000000547E74FF4803044E7000000000020F4
:104B500008E0FFFD10B5014616480068C0084FF494
:104B60007A74B0FBF4F041F2883400FB04F300BF28
:104B7000181EA3F1010302D14FF0004010BD4A6B93
:104B800002F045000028F3D002F400600028EFD1C5
:104B9000486B00F0040010B104208863EEE7486B16
:104BA00000F0010010B101208863E7E7C5208863A9
:104BB0000020E3E70000002010B50146134800681C
:104BC000C0084FF47A74B0FBF4F041F2883400FB73
:104BD00004F300BF181EA3F1010302D14FF00040FF
:104BE00010BD4A6B02F045000028F3D002F40060CB
:104BF0000028EFD1486B00F0040010B10420886356
:104C0000EEE7C52088630020EAE7000000000020EE
:104C10002DE9F04304460F4690462A480068C00834
:104C20004FF47A71B0FBF1F041F2883100FB01F9E9
:104C300000BFB9F10000A9F1010903D14FF0004014
:104C4000BDE8F083666B06F045000028F1D006F45D
:104C500000600028EDD1606B00F0040010B104206A
:104C6000A063EDE7606B00F0010010B10120A063CC
:104C7000E6E72046FFF78CFCB84201D00120DFE7D1
:104C8000C520A06300212046FFF78BFC054605F4F4
:104C9000604020B9280CA8F800000020D0E705F4F7
:104CA0008040B0F5804F02D14FF40050C8E705F4C2
:104CB0000040B0F5004F02D14FF48050C0E74FF4F0
:104CC0008030BDE70000002010B50146184800689C
:104CD000C0084FF47A74B0FBF4F041F2883400FB62
:104CE00004F300BF181EA3F1010302D14FF00040EE
:104CF00010BD4A6B02F045000028F3D002F40060BA
:104D00000028EFD1486B00F0040010B10420886344
:104D1000EEE7486B00F0010010B101208863E7E77F
:104D2000486B00F0400008B1402088630020DFE7B6
:104D30000000002030B58FB00446012003902068A9
:104D4000FFF72AFC18B94FF080600FB030BD606CDF
:104D500003281BD02068FFF746FD05460DB1284605
:104D6000F3E700212068FFF71CFC6067042120683E
:104D7000FFF717FCA06708212068FFF712FCE06727
:104D80000C212068FFF70DFC80210851606C03287E
:104D900007D003A92068FFF774FD05460DB128462A
:104DA000D3E7606C032820D0BDF80C102165502299
:104DB000125B11042068FFF72FFD05460DB1284650
:104DC000C3E700212068FFF7ECFB60660421206840
:104DD000FFF7E7FBA06608212068FFF7E2FBE0662B
:104DE0000C212068FFF7DDFB206704212068FFF716
:104DF000D8FB010DE16404A92046FDF79FFF10B127
:104E00004FF08050A1E75020005B01040A460023C8
:104E10002068FFF7CBFC05460DB1284695E7D4E99D
:104E20000412A069CDE90012029094E80F00FFF788
:104E3000BEFB002089E70000F8B504460020009082
:104E4000002600272068FFF749FC05460DB12846DB
:104E5000F8BD2068FFF758FC054645B10021A16464
:104E60002068FFF73BFC05461DB12846F0E701210D
:104E7000A164A06C012808D100212068FFF7D8FBAD
:104E8000054615B14FF08050E2E71DE00021206893
:104E9000FFF7CEFB05460DB12846D9E71849206833
:104EA000FFF7E2FB054615B14FF08050D0E7002137
:104EB0002068FFF776FB0646012080EAD67080F076
:104EC00001070098401C00904FF6FF71009888423F
:104ED00001D2002FDAD04FF6FF710098884202D33A
:104EE0004FF08070B4E706F08040B0F1804F02D1FF
:104EF0000120606401E0002060640020A8E7000059
:104F0000000010C170B504460D4615B94FF00060A1
:104F100070BD5022125B11042068FFF796FC064614
:104F20000EB13046F4E700212068FFF73AFB286015
:104F30000020EDE7F8B504460D4616462B46002244
:104F400080212046009600F00DF828B1606D40F0F9
:104F5000200060650320F8BD0020FCE70146012029
:104F6000704700002DE9F84F04460D4690461E4656
:104F7000DDF82890FDF762F8A0EB0900371AFDF77D
:104F80005DF882462C480068C0F3CB30784300902F
:104F900045E0701C002842D0FDF750F8A0EB0A0055
:104FA000B84200D2A7BB2068406820F0E00021682A
:104FB00048606068B0F5827F0DD1A068B0F5004F01
:104FC00003D0A068B0F5806F05D12068006820F09C
:104FD000400021680860A06AB0F5005F0DD100BFF5
:104FE0002068006820F4005021680860206800688C
:104FF00040F400502168086000BF012084F851008F
:1050000000BF002084F8500000BF0320BDE8F88FE7
:10501000FFE7009800B900270098401E0090206824
:1050200080682840A84201D1012000E000204045CE
:10503000AFD10020EAE7000000000020704710B563
:10504000FDF702F810BD704708480068006900F0DD
:10505000010020B106480078401C054908706FF037
:105060000100024909680861704700005C050020E2
:105070001A00002010B50E480068C06800F001005A
:1050800078B10C49086980470020094909684862DD
:1050900000BF642006490968C86264210448C160F1
:1050A00000BF6FF0010002490968086110BD0000EF
:1050B000083B00200402002010B50248FEF7A0FEC5
:1050C00010BD00001405002010B50248FEF798FE40
:1050D00010BD0000A405002010B50268204B9842C6
:1050E0000ED0204B98420BD0B0F1804F08D01E4B11
:1050F000984205D01D4B984202D01D4B984203D1D7
:1051000022F070024B681A43154B98420ED0154B93
:1051100098420BD0B0F1804F08D0134B984205D085
:10512000124B984202D0124B984203D122F44072A3
:10513000CB681A4322F080034C6943EA0402026000
:105140008B68C3620B688362054B984202D0054BA3
:10515000984201D10B6903630123436110BD000034
:10516000002C0140003401400004004000080040D1
:10517000000C004070B505466C6A0020E085E084B4
:105180002046FEF761FF70BD0168C96821F4907187
:105190000268D1600168496921F00101026851612A
:1051A000202180F83A10704710B504462068C06886
:1051B00020F040002168C860202084F83900204693
:1051C000FFF7FEF8002010BD70B5044694F83A00D1
:1051D000222847D1A068B0F5805F0CD1206950B972
:1051E0000025A66A20684068C0F308003080A06AE5
:1051F000801CA06215E0A56A0026A068B0F5805F5B
:1052000003D0A06828B9206918B9206840682870C0
:1052100004E02068406800F07F002870A06A401C0D
:10522000A062E08D401E80B2E085C8B92068C068E9
:1052300020F020002168C8602068C06820F48070D9
:105240002168C8602068406920F001002168486139
:10525000202084F83A002046FFF76EF8002070BD49
:105260000020FCE70220FAE770B5044621680969CE
:1052700021F44051E2681143226811612269A1685A
:105280001143626941EA02052168C96841F20C6272
:10529000914329432268D1602168496921F4407112
:1052A000A2691143226851612D4A2168914202D1BD
:1052B000FDF7CCF901E0FDF7B9F900EBC00101EB16
:1052C000001162689200B1FBF2F100EBC00202EB48
:1052D000001263689B00B2FBF3F26423B2FBF3F2AB
:1052E00002EBC20303EB0212A1EB8201322202EBBA
:1052F00001116422B1FBF2F101F0F00100EBC002F8
:1053000002EB001263689B00B2FBF3F26423B2FB72
:10531000F3F201EB021200EBC00101EB0011636834
:105320009B00B1FBF3F100EBC00303EB00136668D5
:10533000B600B3FBF6F36426B3FBF6F303EBC30648
:1053400006EB0313A1EB8301322303EB011164236A
:10535000B1FBF3F101F00F0111442268916070BDBF
:1053600000380140014691F83900212828D1886889
:10537000B0F5805F0BD1086948B90A6A1088C0F39C
:1053800008000B685860086A801C086205E00B6A18
:10539000581C086218780B685860C88C401E80B290
:1053A000C88458B90868C06820F080000B68D860CD
:1053B0000868C06840F040000B68D8600020704763
:1053C0000220FCE710B50648FEF740FE00BF0122B0
:1053D00004490348FEF778FF0028F8D110BD00000B
:1053E0006C0400200A00002000BFFEE710B5024850
:1053F000FEF7FAFF10BD0000B8040020490050EA93
:10540000C12018BF04204A0D18BF40F0010040F22F
:10541000FF72B2EB515F08BF40F00200012808BFE5
:105420000520704702480068C0F302207047000062
:105430000CED00E010B5002804DB0A07130E054A46
:10544000135406E00A07140E034A00F00F031B1F53
:10545000D45410BD00E400E018ED00E030380A2814
:1054600001D2012070470020704700BF704710B57F
:1054700005F0F2F910BD70B505460C46164606E07B
:1054800028466A1C95B200F008F804F8010B301E9B
:10549000A6F101018EB2F3D170BD70B504460026AD
:1054A00005F0A0FA2112A02202EB4101C8B205F0DA
:1054B00061FA05F0DFFA2546E11704EB11610912E4
:1054C000A4EB0121C8B205F055FA05F0D3FA05F0B6
:1054D00089FAA12005F04EFA05F0CCFA002005F07B
:1054E00019FA064605F0A6FA304670BD70B50546B5
:1054F0000C46164606E02178284600F009F8681C9C
:1055000085B2641C301EA6F101018EB2F3D170BDCC
:1055100070B504460E4605F065FA2112A02202EB92
:105520004101C8B205F026FA05F0A4FA2546E117B4
:1055300004EB11610912A4EB0121C8B205F01AFABB
:1055400005F098FA304605F015FA05F093FA05F0E3
:1055500071FA0A2000F07EFE70BD2DE9F047044686
:105560000D4690469946AD1E606B00EB153AC5F3AB
:10557000C80605F0070101208840C7B200BF5146A8
:105580000AF1010A20460AF0BDF910B10120BDE878
:10559000F08700BF00BF04F13C00805D384008B1D7
:1055A000012000E00020484501D10220EFE704F18E
:1055B0003C00805D784004F13C0188550120E0709A
:1055C000A8F10100B0F1000800D1E0E77806000E74
:1055D000071EE0D10127701C0646B0F5007FD9D325
:1055E0000026CCE72DE9F041044688460020E07013
:1055F000401EA063414620460AF084F910B1042001
:10560000BDE8F08104F23A2009F008F807464AF6AE
:105610005520874208D10B222DA104F13C00FBF755
:10562000B9F808B90120EBE794F83C50EB2D03D012
:10563000E92D01D0E82D43D14AF65520874208D103
:10564000082226A104F18E00FBF7A4F808B9002077
:10565000D6E704F1470008F0E1FF06464920055D62
:10566000701E304060BBB6F5007F29DBB6F5007FC9
:1056700026DC2DB3681E284010BB04F14A0008F058
:10568000CDFFE8B14C20005D401E012818D804F180
:105690004D0008F0C3FF98B104F14F0008F0BEFFC1
:1056A000802806DA04F15C0008F07BFFB0F5803F4B
:1056B00006D304F1520008F0B1FF08B100209FE7C3
:1056C0004AF65520874201D1022099E7032097E747
:1056D000EB769045584641542020200046415433F3
:1056E00032202020000000002DE9F84F82461546A8
:1056F0001E46DAF800000090DAF8500000F10409C4
:105700004FF40072002328463146FAF7C4FD0746DD
:105710000098B0F80AC0624600233846FAF7BBFD8D
:10572000834600BF59F8044B14B90020BDE8F88F38
:10573000A34500D204E0ABEB040B09F10409F1E747
:1057400000BFD9F800005844F0E70246891ED0692E
:10575000801E884201D8002070475389106B03FBDC
:105760000100F9E72DE9F04780460C4604F11A00E4
:1057700008F054FF10B10020BDE8F087207800F059
:105780003F00401E00EB800101EBC0054FF0010916
:10579000002621E01849895D081908F03FFF0746F7
:1057A000B9F1000F11D0FF2D0BD8384603F0E0FE01
:1057B000824629466D1C38F8110003F0D9FE824557
:1057C00001D00020D8E7B94605E04FF6FF708742C8
:1057D00001D00020D0E7761C0D2EDBD3207800F01E
:1057E000400038B1B9F1000F04D038F8150008B105
:1057F0000020C1E70120BFE7D06D01082DE9F04787
:1058000006468A463468BAF1000F0AD1D4F81480EB
:10581000B8F1000F02D0E069404516D84FF00108FA
:1058200013E05146304604F0F9FA0746022F02D23F
:105830000120BDE8F087781C08B93846F9E7E0692F
:10584000B84201D93846F4E7D046A06908B900202B
:10585000EFE7207804284ED101224146204603F08C
:105860001CFF05460DB1681C08B92846E1E7012375
:105870001A4629462046FFF770FE8146B9F1020F0D
:1058800001D10120D5E7B9F1010F02D14FF0FF306E
:10589000CFE7BAF1000F02D10220F0710CE0F079ED
:1058A000022809D108F10100854205D0B068A8EBB3
:1058B0000000B0610320F071F079022869D00AF18C
:1058C0000100854207D1F06910B1F069401C00E089
:1058D0000220F0615DE0F06908B90120F0612A461C
:1058E0005146304603F0B7FE8146B9F1000F50D162
:1058F0000120F0614DE00025D04519D108F10105E6
:10590000E069A84200D802252946304604F086FA0C
:105910000746012F01D0781C08B9384689E73FB106
:105920006769022F03D3E069B84200D9B846002561
:10593000E5B9454600BF6D1CE069A84204D80225C0
:10594000454501D9002074E72946304604F066FA3F
:10595000074607B909E0012F01D0781C08B938467D
:1059600067E74545E7D1002063E700BF4FF0FF320E
:10597000294620460AF030FB8146B9F1000F08D1D4
:10598000BAF1000F05D02A46514620460AF024FB02
:105990008146B9F1000F0DD16561D4E90610801E72
:1059A000814202D8A069401EA061207940F0010028
:1059B000207107E0B9F1010F02D14FF0FF3000E094
:1059C00001200546284634E72DE9F34F85B081468E
:1059D000069800680290D9F80000D0F80CA00025C5
:1059E00000BF02A80BF09EFB83460BF1010018B923
:1059F000062007B0BDE8F08FBBF5803F05D34FEA26
:105A00001B4228466D1C2AF810201FFA8BF4202C0C
:105A100003DB2F2C01D05C2C00D111E0802C06DAA6
:105A200021467BA0FAF7ACFE08B10620E1E7FF2D86
:105A300001D30620DDE728466D1C2AF81040D0E788
:105A400000BF202C01DA042611E002E00298401C7D
:105A50000290029800782F28F8D0029800785C28ED
:105A6000F4D0002602980078202800D2042602995B
:105A70000698016008E0681E3AF81040202C02D019
:105A80002E2C00D002E06D1E002DF4D100BF0020AE
:105A90002AF815000DB90620ABE7002700E07F1CAF
:105AA0003AF817002028FAD01FB93AF817002E2824
:105AB00001D146F0030600E06D1E25B1681E3AF8DC
:105AC00010002E28F8D120220B2109F14000FAF70E
:105AD00023FF4FF00008CDF810800820039000BF8E
