:020000040800F2
:10000000F0F4002055020008A754000885510008AC
:10001000A3540008951900085D9600080000000030
:10002000000000000000000000000000156E000845
:10003000C11900080000000093580008176E00085E
:10004000619600088B5800086F02000831590008BB
:100050006F0200086F020008C31900086F02000851
:100060006F0200086F0200086F020008991900086B
:100070006F0200086F0200086F0200086F0200089C
:100080006F0200086F0200086F0200086F0200088C
:10009000A59500086F0200086F0200086F020008B3
:1000A0006F0200086F0200086F0200086F0200086C
:1000B000216E00086F0200084D6E00086F020008F4
:1000C0006F0200086F0200086F0200086F0200084C
:1000D0006F0200089D7100086F0200086F0200089F
:1000E0006F0200086F0200086F0200086F0200082C
:1000F0006F0200086F020008A16E00086F0200087E
:100100006F0200086F020008916E00086F0200087D
:100110006F0200086F0200086F0200086F020008FB
:100120006F0200086F0200086F0200086F020008EB
:1001300000F002F800F07EF80AA090E8000C82447B
:100140008344AAF10107DA4501D100F073F8AFF258
:10015000090EBAE80F0013F0010F18BFFB1A43F0A5
:100160000103184700B3010020B301000A444FF017
:10017000000C10F8013B13F0070408BF10F8014B06
:100180001D1108BF10F8015B641E05D010F8016B4B
:10019000641E01F8016BF9D113F0080F1EBF10F8AF
:1001A000014BAD1C0C1B09D16D1E58BF01F801CBD2
:1001B000FAD505E014F8016B01F8016B6D1EF9D555
:1001C0009142D6D37047000000230024002500266A
:1001D000103A28BF78C1FBD8520728BF30C148BFAA
:1001E0000B607047662917F0BC8203681B0A28BFA2
:1001F00041F08001642900F05B81752900F058818D
:10020000782900F0FA81E42900F08E81632900F05A
:10021000EE86732900F0F386002070471FB500F0CA
:1002200005FF04000020002116F03CFDE0601FBD2A
:1002300010B510BD00F0B8FF1146FFF7EFFF12F048
:1002400003FB00F0D6FF03B4FFF7F2FF03BC09F095
:1002500046FA00000948804709480047FEE7FEE7E4
:10026000FEE7FEE7FEE7FEE7FEE7FEE7FEE7FEE766
:1002700004480549054A064B704700001F6E0008F8
:1002800031010008F0EE0020F0F40020F0F0002032
:10029000F0F00020704753EA020C00F069802DE96D
:1002A000F04B4FF00006002B1FBFB3FA83F503FAA3
:1002B00005F424FA05F65E4012BF1643B2FA82F541
:1002C00002FA05F4C5F120051EBF22FA05FC44EA36
:1002D0000C04203556EA044C4FEA144418BF641C41
:1002E0004FF000084FF00009904271EB030C39D336
:1002F000002919BFB1FA81F701FA07F6B0FA80F7C1
:1003000000FA07F6C7F120071EBF20FA07FC46EAED
:100310000C062037B6FBF4FCA7EB0507103F07F0EF
:100320001F0BCBF120060CFA0BFB2CFA06F644BF90
:10033000B3460026202FA4BF5E464FF0000B5BEAB9
:10034000060C08BF4FF0010B19EB0B09ABFB027C4D
:1003500048EB0608C01B06FB02CC0BFB03CC71EB81
:100360000C01C1E70B46024641464846BDE8F08B0A
:1003700013B54FF000004FF00001AFF30080BDE86F
:100380001C40704710B54C1084EA530404D5404219
:10039000C1F1000138BF491E1B4204D55242C3F1CE
:1003A000000338BF5B1EFFF776FF14F0804F04D0C8
:1003B0004042C1F1000138BF491E14F0004F04D083
:1003C0005242C3F1000338BF5B1E10BD0FB4044995
:1003D00010B503AA029800F017FE10BC5DF814FBDC
:1003E000040000200FB41CB5084B06AA7B446946E4
:1003F0000090059800F0D9FD04460020694600F001
:10040000E7FD20461CBC5DF814FB0000E10B00007A
:1004100070B5044685690068C10601D5302600E044
:100420002026C00707D070BDD4E90121304690478F
:10043000206A401C20626D1EF6D570BD70B5044662
:1004400085690078C00707D170BDD4E9012120205B
:100450009047206A401C20626D1EF6D570BD70B5B5
:100460000C460546012A05D02878800600D5EA69A1
:10047000002302E0012305E05B1C934202D2E05C12
:100480000028F9D1A869E618C01AA861286A18449A
:1004900028622846FFF7BCFF04E0D5E9012114F8E3
:1004A000010B9047B442F8D32846FFF7C7FF70BD51
:1004B0002DE9F0410646002410687529314616A53D
:1004C00010D0AFF30080002802DA404213A507E005
:1004D00031688A0701D512A502E0490704D511A5A4
:1004E000012401E0AFF3008000210A2206F1240775
:1004F00009E0B0FBF2FCB0FBF2F302FB1C00303071
:1005000078541846491C0028F3D123462A46304621
:10051000BDE8F04100F0DBBA000000002D00000053
:100520002B000000200000002DE9F0418046D21D84
:1005300022F007020025D2E90002F52915A614D001
:10054000011E72F1000106DA0023D0EB030063EB19
:10055000020211A608E0D8F800108B0701D50FA6FB
:1005600002E0490701D50EA601251146002408F135
:10057000240704E000F066FA30323A55641C50EA71
:100580000102F7D12B46324621464046BDE8F041F4
:1005900000F09DBA000000002D0000002B000000BC
:1005A00020000000F0B40D460188090502D5214C59
:1005B0007C4402E01F4C7C440E34002100F12406F0
:1005C00008E002F00F071209E75D42EA03721B0917
:1005D0007754491C52EA0307F3D10278002312072B
:1005E00004D5702D06D009B1022311342246F0BC87
:1005F00000F06DBA01231034F8E770B504460D46DB
:1006000021461068AFF30080024629462046BDE827
:1006100070400023C6E7D21D22F00703D3E9002370
:10062000C0E70368126843F0200303600823C36136
:100630000023B7E711A501002DE9F05F89460446C4
:100640004FF0000ADFF874B1FB44C0F820A0204648
:10065000E1688847002874D0252806D0D4E9012114
:100660009047206A401C2062F1E700265F46204642
:10067000E16888472028054607DB312D05D2781927
:1006800010F8200C08B10643F1E7B00701D526F0B9
:100690000406C4F81CA00027C4F818A02A2D09D00D
:1006A000284609F015F838B304EB8708303DC8F840
:1006B000185019E059F8041B204604EB8702916199
:1006C000E1688847012F054618D1E069002820DA43
:1006D00026F020061DE0D8F8180000EB800005EB9E
:1006E00040003038C8F818002046E16888470546C1
:1006F00008F0EEFF0028EED1012F0AD02E2D08D1F0
:100700002046E16888477F1C0546022F46F02006F8
:10071000C4DBA069002803DA404246F00106A0616C
:10072000F00701D026F010066C2D0BD0682D09D0F3
:100730004C2D39D06A2D35D0742D35D07A2D33D04B
:1007400016E038E0E1682F4620468847B842054663
:1007500009D16C2F26D04FF48060E1680643204613
:100760008847054604E06C2F1AD04FF4807006438A
:100770000DB3A5F14100192802D8203546F40066D2
:100780004A462946204626604E46FFF72BFD80B19B
:1007900001280BD0F61D26F0070000F1080956E7E6
:1007A0004020E4E78020D8E70020D6E706F10409DE
:1007B0004DE7284652E7206ABDE8F09FA1A401005A
:1007C000401ECAB210F8011F8A4202D00029F9D196
:1007D0000020704740EA010310B59B070FD1042A9F
:1007E0000DD310C808C9121F9C42F8D020BA19BAFC
:1007F000884201D9012010BD4FF0FF3010BD1AB161
:10080000D30703D0521C07E0002010BD10F8013BB5
:1008100011F8014B1B1B07D110F8013B11F8014BDC
:100820001B1B01D1921EF1D1184610BD032A40F2C4
:10083000308010F0030C00F0158011F8013BBCF182
:10084000020F624498BF11F801CB00F8013B38BF9A
:1008500011F8013BA2F1040298BF00F801CB38BFA8
:1008600000F8013B11F0030300F02580083AC0F0C6
:10087000088051F8043B083A51F804CBA0E808106E
:10088000F5E7121D5CBF51F8043B40F8043BAFF3A1
:100890000080D20724BF11F8013B11F801CB48BFFB
:1008A00011F8012B24BF00F8013B00F801CB48BF31
:1008B00000F8012B704710B5203AC0F00B80B1E86A
:1008C0001850203AA0E81850B1E81850A0E8185085
:1008D000BFF4F5AF5FEA027C24BFB1E81850A0E88E
:1008E000185044BF18C918C0BDE810405FEA827CA8
:1008F00024BF51F8043B40F8043B08BF7047D207BF
:1009000028BF31F8023B48BF11F8012B28BF20F85F
:10091000023B48BF00F8012B704702F0FF0343EA97
:10092000032242EA024200F002B84FF0000204291A
:10093000C0F0128010F0030C00F01B80CCF1040C0E
:10094000BCF1020F18BF00F8012BA8BF20F8022B42
:10095000A1EB0C0100F00DB85FEAC17C24BF00F8E8
:10096000012B00F8012B48BF00F8012B70474FF016
:10097000000200B5134694469646203922BFA0E8EF
:100980000C50A0E80C50B1F12001BFF4F7AF0907FB
:1009900028BFA0E80C5048BF0CC05DF804EB8900EC
:1009A00028BF40F8042B08BF704748BF20F8022B2F
:1009B00011F0804F18BF00F8012B70474FF0013C39
:1009C00050F8042B51F8043B9A4221D1A2EB0C03BE
:1009D000934313EACC1317D150F8042B51F8043B7E
:1009E0009A4215D1A2EB0C03934313EACC130BD11B
:1009F00050F8042B51F8043B9A4209D1A2EB0C03A6
:100A0000934313EACC13DBD04FF00000704700BFD4
:100A1000D01A01BAB1FA81F101F0180122FA01F0FD
:100A2000CB40C1F12001DBB2C0B2C01A2CFA01F3F5
:100A3000D11A914311EAC311E6D17047704770474C
:100A40007047704730B5B0F10A024FEA900E71F16D
:100A500000034EEA817EB0EB0E0061EB91014FEA9C
:100A6000101E4EEA017E10EB0E0041EB11114FEA11
:100A7000102E4EEA016E10EB0E0041EB11214FEAF1
:100A8000104E4EEA014E10EB0E0041EB11414018A2
:100A900041F100014FEAD00040EA41704FEAD10134
:100AA00010EB80054FEA810444EA907444EB0104A2
:100AB0006D1944EB0404521BA3414FF0000348BFDF
:100AC0000A3200D530BD401C41F1000130BD2DE996
:100AD000F0470D4699469246044600F12408016805
:100AE000880604D5E06921F01001216000E00120B2
:100AF000A84201DD471B00E00027A1697A1902EB3B
:100B00000900081AA0612078C00602D42046FFF729
:100B10007FFC002608E0D4E901211AF8060090477E
:100B2000206A401C761C20624E45F4DB2078C0060B
:100B30000AD52046FFF76CFC06E0D4E901213020FD
:100B40009047206A401C2062381EA7F10107F4DCA0
:100B500007E0D4E9012118F805009047206A401CFD
:100B60002062281EA5F10105F3DC2046FFF766FC94
:100B70002078000602D50220BDE8F0870120FBE7BF
:100B800070472DE9FF4F0C461E464FF0FF378BB0E4
:100B9000D2E90001DDF860800A908A46C1F30A5567
:100BA00005B93D46002108464FF00000BAF1000F9C
:100BB00000F4400005DA00EB80004FF4400101EA48
:100BC00050004FEA9059B9F1010F00DDB9460A987B
:100BD00050EA4A000ED044F61050A5F2FF354543C6
:100BE0002F14B8F1000F1ED07542291E1EDDC9F169
:100BF00000021CE0B8F1010F4FF0000001D03021DD
:100C000003E0F24305E02154401CB042FBDB3046D8
:100C10000022002121540B99C1F80880C1E900206D
:100C20000FB0BDE8F08FBD1B6D1CDEE74A4600DA51
:100C3000694206A800F03EFA06AB93E8070003AB52
:100C400083E8070050460A9900F0DCFA8DE80700B7
:100C5000A0F500501F3800900398002D0ADD42F2E5
:100C60001F014A460844002303A90390684600F088
:100C700045FD09E0A0F500504A461F38002303A9AE
:100C80000390684600F04FFD8DE807000004000C5B
:100C900003D04FF0FF30410800E01046B8F1000FDC
:100CA00003D00022009215461EE0751E05D4FFF702
:100CB000C9FE303262556D1EF9D5B3460122084394
:100CC00002D000227F1C04E02078302801D10022CD
:100CD0007F1E002A099784D01DE0112D07DAFFF747
:100CE000B1FE303262556D1C50EA0102F5D1084365
:100CF00002D00098C8B10EE00021681E05E0235C18
:100D0000625C63542254401E491C8142F7DBAB46AF
:100D1000A81B401E0990002004F80B000B98099AAC
:100D2000C0F80880C0E9002B7AE711264FF00008D0
:100D300057E72DE9F04F88460446D21D22F00701FF
:100D400091B0D1E90001CDE90A0108F091FC024619
:100D50000B98C00F01D02D2007E02068810701D536
:100D60002B2002E0202101EAC000032A099001D0D3
:100D7000072A05DB03464146204600F05BF90BE1FC
:100D80002078800601D5E06900E00620B8F1650F03
:100D9000814606D0B8F1660F18D0B8F1670F70D150
:100DA00031E00020B9F1110F009001DB112301E0C7
:100DB00009F101030AAA01A90CA8FFF7E2FEDDE987
:100DC0000C70002609F10105834647E001204B46DF
:100DD00000904FF000470AAA01A90CA8FFF7D1FE26
:100DE000DDE90DB00C995D46002610B909F101004E
:100DF0000D18B9EB050003D4C0F1FF3609F1010568
:100E0000A5EB09002BE0B9F1010F01DA4FF0010960
:100E10000020B9F1110F0090484601DD112300E0D8
:100E200003460AAA01A90CA8FFF7ABFEDDE90C7086
:100E30004D4600268346207800070AD4AB4500DAE9
:100E40005D4601A8012D04DD411911F8011C30296E
:100E500007D04F4502DA17F1040F04DA0120824669
:100E60000FE06D1EEEE7002F02DCED1B3E4403E0B9
:100E7000781CA84200DD7D1CB81B00F1010A4FF070
:100E800000472078000703D4AA4501DB4FF0FF3A62
:100E90000021B7F1004F0DF143088DF8431024D025
:100EA00002202B23002F01DA7F422D230A21021E6C
:100EB000A0F1010000DC5FB197FBF1FC97FBF1F2C0
:100EC00001FB1C7C17460CF1300C08F801CDEEE755
:100ED000A8F1010003702188090501D5452100E032
:100EE0006521A0F1010800F8011C09980FA9A1EBE8
:100EF0000807FF1D00B10120411901EBEA70A1694B
:100F00003844081A401EA0612078C00602D420464A
:100F1000FFF77EFA099828B1D4E901219047206AA9
:100F2000401C20622078C00622D52046FFF770FAC8
:100F30001EE0002E04DBB34502DD01A8805D00E069
:100F40003020D4E901219047206A401C2062761CA1
:100F5000AAF101005FEA000A0AD100F067F8C06850
:100F60000168405CD4E901219047206A401C20625E
:100F7000281EA5F10105DCDC07E0D4E9012118F801
:100F8000010B9047206A401C2062381EA7F1010720
:100F9000F3DC2046FFF752FA032011B041E60000CF
:100FA00001694A1C02610878704700B58FB0CDE92D
:100FB00001310021059105497944CDE9031011461D
:100FC0006846FFF739FB0FB000BD0000E5FFFFFFEB
:100FD0000A6802F8010B0A60704710B5436913B143
:100FE000AFF3008001E0FFF73AFA012010BD12785C
:100FF00000F124010A7000224A700122EDE7116815
:101000004FF0FF32E9E70000074B70B50D467B4417
:10101000FFF7CBFF0446284600F0BEF810B14FF0B2
:10102000FF3070BD204670BDDFCA00000048704729
:10103000B0EE00202DE9F0411F460446032601686A
:10104000072A01F4006004DB08B116A505E016A527
:1010500003E008B115A500E015A521F010002060FF
:10106000A069C01EA0610FB1401EA0612046FFF71D
:10107000CFF94FB1D4E9012138469047206A401C8E
:101080002062C01C206206E0206AFAE7D4E9012150
:1010900015F8010B9047761EF8D22046FFF7CEF9DF
:1010A000BDE8F0814E414E006E616E00494E460033
:1010B000696E66002DE9F047814616468AB03548CC
:1010C00078440DC88DE80D0032487844801C03AC8C
:1010D0000DC884E80D0041F69B300844372190FB91
:1010E000F1F290FBF1F5A5F1800501FB12041B3C28
:1010F00002D56442012000E00020DFF898A080467D
:101100000027FA44AAF1BE0A0EE0E0070AD03246F0
:10111000684607EB470101230AEB810100F003FB5E
:101120008DE8070064107F1C002CEED1194F7F441E
:10113000AE3F19E0E80715D007EB04100DF1180ACF
:1011400090E80E008AE80E00C068F04201D19819BC
:1011500008903246012306A903A800F0E4FA03AB85
:1011600083E807006D10641C002DE3D14FF00103EC
:1011700032466946B8F1000F03A802D000F0BEFA6B
:1011800001E000F0D0FAC9E90001C9F808200AB06E
:10119000BDE8F087B89A0100007B00F0800070473E
:1011A0000048704790EE00207546FFF7F9FFAE4605
:1011B00005006946534620F00700854618B020B563
:1011C000FFF756F8BDE820404FF000064FF000074B
:1011D0004FF000084FF0000B21F00701AC46ACE8DF
:1011E000C009ACE8C009ACE8C009ACE8C0098D464C
:1011F000704710B50446AFF300802046BDE81040AC
:10120000FFF721B85FEA400C08BF91F0000F4FEAEA
:101210008C234FEAC12243EA51514FEA1C5018BFB8
:1012200000F5F0404FEA300018BF41F000415FEA9E
:101230006C5C00F02980BCF1FF3F08BF40F08040AB
:101240007047130C06BF12044FF0100C4FF0000C47
:10125000130E04BF12020CF1080C130F04BF12018D
:101260000CF1040C930F04BF92000CF1020CD30F8D
:1012700004BF52000CF1010C11464FF00002A0F126
:101280001F00A0EB0C00704711F0004F08BF704723
:1012900031F000413FF4D5AF0B0C06BF09044FF00D
:1012A000100C4FF0000C0B0E04BF09020CF1080CDF
:1012B0000B0F04BF09010CF1040C8B0F04BF890054
:1012C0000CF1020CCB0F04BF49000CF1010CCCF166
:1012D0002003A0EB0C0022FA03F302FA0CF241EA1D
:1012E000030100F10100704720F07F4C80EA030009
:1012F00023F07F47ACEB070303F57C5300F000407D
:1013000003F1FF032DE980494FEA154B09B44FEA79
:10131000144325EA0B4E24EA03480FF2042606EB99
:10132000132749083E785FEA320203FB0667C7F5D8
:10133000000707FB06F64FEA54374FEAD64606F198
:10134000020607FB066CCCF1005C4FEA1C472CEA56
:10135000074C07FB06F40CFB06F504EB15464FEAB9
:10136000961634BF00204FF000404FEAD13706FBFD
:1013700007FC4FEA1C4C0CFB0BF7D21B03FB0CF7D2
:1013800061EB07010CFB0EF7B0EB074072EB174265
:101390000CFB08F734BFA2EB0742B2EB074261EB4C
:1013A00017414FEA0C444FEA910706FB07FC4FEA4E
:1013B0001C4C0CFB0BF7B0EBC74072EB573203FB36
:1013C0000CF734BFA2EBC742B2EBC74261EB573117
:1013D0000CFB0EF7B0EBC70072EB57720CFB08F773
:1013E00034BFA2EBC702B2EBC70261EB5771039F98
:1013F0004FEA816141EA921104EBCC044FEAD13704
:101400004FEA826206FB07FC42EA90124FEA8060D4
:101410004FEA1C4C0CFB0BF7D21B03FB0CF761EBE8
:1014200007010CFB0EF7B0EB074072EB17420CFB09
:1014300008F734BFA2EB0742B2EB074261EB17415A
:101440004FEA8C554FEA910704EB9C2406FB07FCFE
:101450004FEA1C4C0CFB0BF7B0EBC74072EB57325A
:1014600003FB0CF734BFA2EBC742B2EBC74261EB00
:1014700057310CFB0EF7B0EBC70072EB57720CFB49
:1014800008F734BFA2EBC702B2EBC70261EB57719A
:1014900015EB4C254FEA816141EA92114FEA8262D5
:1014A0004FEAD13742EA901206FB07FC44F10004F0
:1014B0004FEA80604FEA1C4C0CFB0BF7D21B03FB7E
:1014C0000CF761EB07010CFB0EF7B0EB074072EB7A
:1014D00017420CFB08F734BFA2EB0742B2EB0742FE
:1014E00061EB174115EB1C154FEA813141EA92413E
:1014F0004FEA823242EA90424FEA80304FEA0C765D
:1015000044F1000448EA03434EEA0B484FF0000E52
:10151000B2EB080C71EB030724BF624639464EEB71
:101520000E0E4FF0000B0018524149414BEB0B0BD4
:10153000B2EB080C71EB03077BF1000B24BF624692
:1015400039464EEB0E0E4FF0000B00185241494148
:101550004BEB0B0BB2EB080C71EB03077BF1000BB1
:1015600024BF624639464EEB0E0E51EA020718BF01
:1015700046F0010616EB0E7655F1000254F100011B
:1015800003D5BDE88901BDE80088BDE88901BDE853
:101590000048B619524141EB0101A3F10103704724
:1015A00080807F7E7D7C7B7A7978777676757473A0
:1015B000727171706F6E6E6D6C6C6B6A6A6968685F
:1015C000676666656464636362616160605F5F5EF5
:1015D0005E5D5D5C5C5B5B5A5A595958585757566B
:1015E00056555555545453535252525151505050D0
:1015F0004F4F4F4E4E4D4D4D4C4C4C4B4B4B4A4A22
:101600004A49494948484847474747464646454565
:10161000454444444443434343424242424141419E
:10162000002B9C4630D477002BD01CB54FEA3707EF
:1016300003B44FF010004FF01001BAF1000F06D0C4
:10164000BCF1000FDCBF40F0080040F008014FF093
:1016500000000FBCBDE810400BF1010BBBF1010F06
:1016600008BF5FEA170722BF12F1010211F1010161
:101670004FF0004143F1000300F0004043EA000056
:101680007047F9D35708D0E746EA064613F1400FF2
:101690004FEA16461FDD13F1200FDFBF16430A463F
:1016A000002120335B42BED0C3F1200746EA064644
:1016B00002FA07F74FEA164646EA0706C3F1200783
:1016C00022FA03F201FA07F721FA03F14FF00003BF
:1016D00042EA0702A7E746EA020646EA06464FEA5A
:1016E000164646EA0106BCBF46EA0646360C4FF0EF
:1016F00000034FF000024FF0000194E72DE9804C09
:101700009A46934670B491E8380007C831EA400C15
:1017100048BF34EA430C03D5FFF7E6FDFFF780FF2F
:10172000F0BCBDE8008C2DE9804C9A46934670B41D
:1017300091E8380007C810F0804F08BF13F0804FC1
:1017400003D100F005F8FFF76BFFF0BCBDE8008C9B
:1017500020F07F4780EA030023F07F4C07EB0C0367
:10176000A3F57C5300F00040A3F1FE0392F0000FBC
:1017700000F0B38095F0000F00F077802DE901496B
:101780004FEA11404FEA144621EA004800FB06FCEC
:1017900024EA064708FB06F607FB08F800FB07F7F4
:1017A00018EB06484CEB164C4FEA124B18EB074867
:1017B0004FEA15464CEB174022EA0B4E0BFB06FC9A
:1017C00025EA06470EFB06F607FB0EFE0BFB07F7A6
:1017D0001EEB064E4CEB164C4FF000061EEB074E70
:1017E0004CEB174B18EB0B0840F1000018EB0E0BFD
:1017F00058EB000840F100008F1A4FF000013CBF89
:10180000C943661B14BFB5EB040C00213CBFC943A0
:10181000F61B4FEA17444EEA8E0E27EA04454FEABC
:101820001C4704FB07622CEA074C05FB07F70CFB7F
:1018300005F604FB0CFC16EB074642EB174216EBD1
:101840000C4642EB1C421BEB060658EB02024141E0
:1018500046EA9E0601D5BDE80189B619524141EB21
:101860000101A3F10103BDE801894FEA14454FEAE4
:10187000114724EA054621EA074C05FB07F406FB5D
:1018800007F70CFB06F105FB0CFC11EB074144EBE1
:1018900017444FEA124711EB0C4144EB1C4422EA77
:1018A000074C05FB07F206FB07F70CFB06F605FBEA
:1018B0000CFC16EB074642EB174216EB0C4642EBCC
:1018C0001C456A1854F1000148BF7047B6195241CF
:1018D00041EB0101A3F10103704795F0000F37D0F0
:1018E0004FEA11424FEA144721EA024624EA074C24
:1018F00002FB07F106FB07F70CFB06F402FB0CFCEE
:1019000014EB074441EB17414FEA154714EB0C4425
:1019100041EB1C4125EA074C02FB07F506FB07F7E4
:101920000CFB06F602FB0CFC16EB074645EB1745D5
:1019300016EB0C4645EB1C42121951F1000148BF51
:101940007047B619524141EB0101A3F10103704701
:101950004FEA14454FEA114724EA054621EA074CAD
:1019600005FB07F106FB07F70CFB06F24FF000063C
:1019700005FB0CFC12EB074241EB174112EB0C424A
:1019800051EB1C4148BF7047921841EB0101A3F194
:101990000103704700BFFEE70748006800F002003F
:1019A00040B10120054908700348406840F002003A
:1019B00001494860704700000000024036000020E6
:1019C000704710B5012000F08DF910BD70B50446C8
:1019D000B3F5804F13D1D1E9000540EA05108D68B9
:1019E00040EA05208D6928438D8940EA054054F876
:1019F0002250064E3540284344F8220003E06FF0A1
:101A0000704044F82200002070BD00000000F0CFBC
:101A100070B50246086852F8200020F001000E68F8
:101A200042F826008868082801D1402300E00023FE
:101A3000486818438E683043CE6830430E6930439F
:101A40004E693043CE6930430E6A30434E6A3043AC
:101A50008E6A3043CE6A30430E6B40EA06048869D2
:101A60000443486B0443074D45F4806545F4E02585
:101A7000086852F82000A84320430E6842F8260068
:101A8000002070BD7FFB080010B50346D1E90004BB
:101A900040EA04108C6840EA04208C8940EA04443F
:101AA000088A401E44EA0054087D801E44EA006013
:101AB0008C692043541C53F8244004F040442043D4
:101AC000541C43F82400002010BD000070B50A48E3
:101AD0000468001D0568001D0668344454B10822DE
:101AE0000649204603F050FB0422044910312846E1
:101AF00003F04AFB70BD0000E8F7FF1F060400205A
:101B000038B50446002000902068009029B902F101
:101B10000800009D2844009004E002F11400009D9C
:101B20002844009000980360002038BD70B504463A
:101B3000002594F82100022803D00420A063012589
:101B4000C1E02068006820F00E002168086020686D
:101B5000006820F00100216808605C492068884224
:101B600052D95A4978392068884201D1012047E08A
:101B7000564964392068884201D1102040E0534919
:101B800050392068884201D1801539E04F493C39ED
:101B90002068884201D1801432E04C4928392068FD
:101BA000884202D14FF480302AE048491439206835
:101BB000884202D14FF4801022E0444920688842D4
:101BC00001D140041CE042492068884201D1012033
:101BD00016E03F4914312068884201D110200FE0FF
:101BE0003B4928312068884201D1801508E03849F6
:101BF0003C312068884201D1801401E04FF48030EC
:101C00003349091F086051E030497839206888421B
:101C100001D1012047E02D4964392068884201D173
:101C2000102040E0294950392068884201D18015B0
:101C300039E026493C392068884201D1801432E0DD
:101C4000224928392068884202D14FF480302AE0A6
:101C50001E4914392068884202D14FF4801022E0D6
:101C60001A492068884201D140041CE018492068C4
:101C7000884201D1012016E01549143120688842BC
:101C800001D110200FE0124928312068884201D18B
:101C9000801508E00E493C312068884201D180144B
:101CA00001E04FF48030094980394860012084F810
:101CB000210000BF002084F8200000BF606B10B13D
:101CC0002046616B8847284670BD000080000240B6
:101CD0000804024010B50446A0B208F0F5FB10BDA0
:101CE0007047000010B5044604480068204020B149
:101CF000024804602046FFF7F3FF10BD14040140C2
:101D00002DE9F847024600239C467BE14FF001088D
:101D100008FA03F4D1F8008008EA0400A0427DD15B
:101D2000DFF8F4A2D1F80480A8EB0A09D0453AD034
:101D300014DCB8F1030F50D009DCB8F1000F31D03A
:101D4000B8F1010F1CD0B8F1020F49D120E0B8F171
:101D5000110F18D0B8F1120F42D11EE0B9F5881F4B
:101D600025D006DCB9F5803F20D0B9F5801F37D1EA
:101D70001AE0B9F5001F18D0B9F5041F30D117E0EB
:101D8000D1F80CC02DE0D1F80C8008F1040C28E04B
:101D9000D1F80C8008F1080C23E0D1F80C8008F190
:101DA0000C0C1EE000BF00BF00BF00BF00BF00BFA3
:101DB000D1F80880B8F1000F02D14FF0040C0BE00D
:101DC000D1F80880B8F1010F03D14FF0080C14616D
:101DD00002E04FF0080C546103E04FF0000C00E00B
:101DE00000BF00BFFF2801D8904601E002F10408BF
:101DF0004646FF2802D84FEA830803E0A3F108080B
:101E00004FEA88084746D6F800804FF00F0909FAD4
:101E100007F928EA09080CFA07F900E07AE048EA2D
:101E20000908C6F80080D1F8048008F08058B8F19D
:101E3000805F6FD100BFDFF8E481D8F8188048F0E8
:101E40000108DFF8D891C9F81880C846D8F818807A
:101E500008F00108CDF8008000BF00BF4FEAB93894
:101E60004FEA930958F829504FEA83784FEA1879D6
:101E70004FF00F0808FA09F825EA0805DFF8A081F5
:101E8000424502D14FF0000824E0DFF89881424536
:101E900002D14FF001081DE0DFF88C81424502D1EC
:101EA0004FF0020816E0DFF88481424502D14FF07E
:101EB00003080FE0DFF87881424502D14FF00408B3
:101EC00008E0DFF87081424502D14FF0050801E0DB
:101ED0004FF006084FEA83794FEA197908FA09F8B2
:101EE00048EA0505DFF850814FEA930948F8295080
:101EF000D1F8048008F48038B8F5803F0BD1DFF8C2
:101F00003C81D8F8008048EA0008DFF83091C9F831
:101F100000800AE075E0DFF82481D8F8008028EA24
:101F20000008DFF81891C9F80080D1F8048008F49F
:101F30000038B8F5003F0ED1DFF8008108F1040841
:101F4000D8F8008048EA0008DFF8F09009F10409A9
:101F5000C9F800800DE0DFF8E48008F10408D8F843
:101F6000008028EA0008DFF8D49009F10409C9F8D4
:101F70000080D1F8048008F48018B8F5801F0ED1D5
:101F8000DFF8B88008F10808D8F8008048EA0008AF
:101F9000DFF8A89009F10809C9F800800DE0DFF822
:101FA0009C8008F10808D8F8008028EA0008DFF8CB
:101FB0008C9009F10809C9F80080D1F8048008F470
:101FC0000018B8F5001F0ED1DFF8708008F10C087A
:101FD000D8F8008048EA0008DFF8609009F10C09A1
:101FE000C9F800800DE0DFF8548008F10C08D8F83B
:101FF000008028EA0008DFF8449009F10C09C9F8CC
:1020000000805B1CD1F8008028FA03F8B8F1000FBB
:102010007FF47CAEBDE8F88700001110001002408C
:1020200000080140000C0140001001400014014074
:1020300000180140001C014008000140000401405C
:10204000024693680B400BB1012000E0002070476E
:1020500010B5C26821EA020302EA010443EA04431C
:10206000036110BD0AB1016101E00B040361704717
:102070000148006870470000100000200348006815
:10208000034909780844014908607047100000209E
:102090001800002010B50848006840F010000649FC
:1020A0000860052000F080F80F2000F007F800F02D
:1020B0002BF8002010BD00000020024070B504463F
:1020C0000E4800784FF47A71B1FBF0F00C490968C2
:1020D000B1FBF0F5284602F087FC08B1012070BD85
:1020E000102C07D200222146501E00F01EF8054891
:1020F000046001E00120F2E70020F0E71800002072
:102100000000002014000020704701460846002807
:1021100009DB00F01F0301229A4043099B0003F1F1
:10212000E023C3F8002100BF70472DE9F05F80462F
:102130000D461646002707F0AFFA074639462A46ED
:10214000334601F00700C0F1070ABAF1040F02D9C3
:102150004FF0040A01E0C0F1070AD14600F1040A79
:10216000BAF1070F02D24FF0000A01E0A0F1030A12
:10217000D4464FF0010A0AFA09FAAAF1010A0AEA5A
:10218000020A0AFA0CFA4FF0010B0BFA0CFBABF146
:10219000010B0BEA030B4AEA0B042146404607F009
:1021A00083FABDE8F09F000000BF00F00702064B75
:1021B00019684FF6FF031940044B0B4343EA022111
:1021C000014B196000BF70470CED00E00000FA05FC
:1021D00070B505460C4604F08000802808D104F054
:1021E000070000EB800605F1280000EBC60105E0C2
:1021F00004EB840605F5B47000EBC6011AB90020A3
:102200000873CB8004E0012008730B81180C48810F
:10221000002070BD704770B504460D4605EB850380
:1022200004F1280101EBC3014A692946D4F8E80208
:1022300005F0F1F970BD70B504460D4605EB850358
:1022400004F5B47101EBC3014A692946D4F8E802E8
:1022500005F061FA70BD70B504460E4606F08000C8
:1022600080280AD106F0070000EB800104F1280065
:1022700000EBC1050120687009E006F0070000EBE3
:10228000800104F5B47000EBC1050020687006F011
:102290000700287000BF94F8A802012801D102208D
:1022A00070BD012084F8A80200BF2946206806F00E
:1022B00074FA00BF002084F8A80200BF00BFEFE757
:1022C00070B504460E4606F00F006168884201D9D9
:1022D000012070BD06F0800080280AD106F00700BA
:1022E00000EB800104F1280000EBC10501206870BB
:1022F00009E006F0070000EB800104F5B47000EB84
:10230000C105002068700020A87006F00700287042
:1023100000BF94F8A802012801D10220D9E70120CA
:1023200084F8A80200BF2946206806F092FB00BF8F
:10233000002084F8A80200BF00BFCAE72DE9F041E1
:1023400005460C46174607F48040002850D0286800
:10235000B0F85010207801EBC000801C296801F50E
:10236000806131F81000C0F30906A069B04203D3C0
:10237000A069801BA06101E00020A061A069A8B94C
:1023800000BF22785200296831F812104BF68F7284
:1023900001EA020080F4005040F4004141F0800165
:1023A00023785B002A6822F8131000BF07F0400072
:1023B000A8B100BF00BF22785200296831F812107E
:1023C00048F68F7201EA020040F4004141F0C0017A
:1023D00023785B002A6822F8131000BF00BF002E8C
:1023E00055D0228961693346286807F0E7F84EE046
:1023F0002868B0F85010207801EBC000801D2968D3
:1024000001F5806131F81000C0F30906A069B042FF
:1024100003D3A069801BA06101E00020A061A06936
:10242000A8B900BF22785200296831F812104BF683
:102430008F7201EA020080F4005040F4004141F044
:10244000800123785B002A6822F8131000BF07F090
:102450004000A8B900BF00BF22785200296831F8B7
:10246000121048F68F7201EA020040F4004141F078
:10247000C00123785B002A6822F8131000BF00BF58
:102480002EB1628961693346286807F097F83046B3
:10249000BDE8F0812DE9F04705460C46904608F06E
:1024A000400000287ED02868B0F85010207801EB5A
:1024B000C000801C296801F5806131F81000C0F36C
:1024C0000907A069B84203D9A069C01BA06101E057
:1024D0000020A061A069E8B921782846FFF79BFE9B
:1024E00008F48040002814D000BF00BF22785200BA
:1024F000296831F8121048F68F7201EA020040F4A0
:10250000004141F4814123785B002A6822F81310CE
:1025100000BF5FE108F48040A8B100BF00BF22788F
:102520005200296831F8121048F68F7201EA020051
:1025300040F4004141F4814123785B002A6822F88D
:10254000131000BF00BF94F824000128E1D1606996
:1025500038446061E0693844E0612169206A88425A
:1025600004D32669206A801B20620BE0206A20B910
:102570003E46002084F8240004E0002084F8240073
:10258000266A206200BF6078C8BB00BF2A6829683D
:10259000B1F850100A442178022303EBC10102F57F
:1025A000806300E047E003EB4101084600BF56B9F5
:1025B000038848F2FF3C03EA0C030380038843F4DA
:1025C0000043038019E03E2E0BD800BF710806F0CF
:1025D000010303B1491C4FF6FF7303EA8123038013
:1025E0000BE000BF710906F01F0303B9491E4FF449
:1025F000004343EA8123038000BF00BF13E0FFE7ED
:10260000607801280FD100BF28682A68B2F85020EE
:1026100010442278022303EBC20200F5806303EB2F
:1026200042010E8000BF00BFB3B2228961692868F1
:1026300006F0F3FFCEE02868B0F85010207801EBE8
:10264000C000801D296801F5806131F81000C0F3D9
:102650000907A069B84203D3A069C01BA06101E0CB
:102660000020A061A069E8B921782846FFF7D3FDD2
:1026700008F480400028DDD100BF00BF227852005E
:10268000296831F8121048F68F7201EA020040F40E
:10269000004141F4814123785B002A6822F813103D
:1026A00000BF97E008F48040A8B900BF00BF2278BF
:1026B0005200296831F8121048F68F7201EA0200C0
:1026C00040F4004141F4814123785B002A6822F8FC
:1026D000131000BF00BF94F8240001287AD160696C
:1026E00038446061E0693844E0612169206A8842C9
:1026F00004D32669206A801B20620BE0206A20B97F
:102700003E46002084F8240004E0266A002020626F
:1027100084F8240000BF2A68607890BB00BFD5F819
:1027200000C02968B1F850108C4421784FF0060998
:1027300009EBC1010CF5806909EB4101084600BFB6
:1027400076B9B0F8009048F2FF3A09EA0A09A0F811
:102750000090B0F8009049F40049A0F8009020E003
:102760003E2E0FD800BF710806F00109B9F1000F25
:1027700000D0491C4FF6FF7909EA8129A0F80090A2
:102780000FE010E000BF710906F01F09B9F1000F5A
:1027900000D1491E4FF4004949EA8129A0F8009070
:1027A00000BF00BF0FE0607801280CD12868B0F8A6
:1027B000500002442078062101EBC00002F5806140
:1027C00001EB40031E8000BFB3B2628961692868D3
:1027D00006F023FF00BF22785200296831F812105A
:1027E00048F6BF7201EA020080F0100080F020007D
:1027F00040F4004141F0800123785B002A6822F810
:10280000131000BF0020BDE8F08770B504460D46E8
:1028100000BF94F8A802012801D1022070BD012058
:1028200084F8A80200BF05F08000802805D105F0DB
:102830000701206806F0B3FE02E0206806F0ACFE57
:1028400000BF002084F8A80200BF00BFE6E70246F0
:1028500001F0070000EB800302F5B47000EBC30049
:10286000C06970472DE9F04705460E4690461F4661
:102870004FF0000906F0800080280AD106F007001A
:1028800000EB800105F1280000EBC104012060701D
:1028900009E006F0070000EB800105F5B47000EBDD
:1028A000C1040020607006F007002070C4F810809A
:1028B000E770607808B12078E081022F01D1002014
:1028C000207100BF95F8A802012802D10220BDE8BE
:1028D000F087012085F8A80200BF2146286805F08E
:1028E00032FD00BF002085F8A80200BF4846EEE791
:1028F0002DE9F04105460E461746984606F00700BA
:1029000000EB800105F5B47000EBC1046761C4F809
:1029100018800020E061607006F00700207006F06B
:10292000070020B92146286806F02EF903E0214669
:10293000286806F029F90020BDE8F08170B504464A
:102940000D4605F007006168884201D9012070BD7D
:1029500005F0800080280AD105F0070000EB800117
:1029600004F1280000EBC1060120707007E005EBC0
:10297000850104F5B47000EBC106002070700120E1
:10298000B07005F00700307000BF94F8A80201286D
:1029900001D10220DBE7012084F8A80200BF314604
:1029A000206806F0C3F805F0070020B904F52C7183
:1029B000206806F04BF800BF002084F8A80200BF92
:1029C00000BFC4E72DE9F04105460E4690461F467C
:1029D00006F0070000EB800105F1280000EBC104C0
:1029E000C4F81480A761012084F824002762002025
:1029F000E0610120607006F00700207006F007001B
:102A000020B92146286806F0BFF803E0214628686F
:102A100006F0BAF80020BDE8F0817FB504462068D2
:102A200006F0C8FD00F40040B0F5004F02D120468A
:102A300002F03AFD206806F0BDFD00F48060B0F5BC
:102A4000806F0FD12068B0F844004FF6FF31084086
:102A50002168A1F84400204600F0BAF90021204680
:102A600000F0EFF9206806F0A5FD00F48040B0F515
:102A7000804F08D12068B0F844004BF6FF71084041
:102A80002168A1F84400206806F094FD00F400508D
:102A9000B0F5005F08D12068B0F844004DF6FF7132
:102AA00008402168A1F84400206806F083FD00F486
:102AB0008050B0F5805F1DD12068B0F840004FF61F
:102AC000FB7108402168A1F840002068B0F8400080
:102AD0004FF6F77108402168A1F84000204600F049
:102AE00095F92068B0F844004EF6FF71084021685F
:102AF000A1F84400206806F05DFD00F40060B0F528
:102B0000006F55D1002507E06900206830F81100FA
:102B10002DF81500681CC5B2082DF5D32068B0F853
:102B2000400040F001002168A1F840002068B0F8A2
:102B300040004FF6FE7108402168A1F8400000BF38
:102B40002068B0F8440000F480600028F8D02068C5
:102B5000B0F844004FF6FF3108402168A1F8440066
:102B6000002507E03DF815006A00216821F81200F1
:102B7000681CC5B2082DF5D32068B0F8400040F0BD
:102B800008002168A1F840002068B0F844004FF226
:102B9000FF7108402168A1F844002068B0F84000A7
:102BA00040F004002168A1F84000204600F08CF9B4
:102BB000206806F0FFFC00F40070B0F5007F0BD138
:102BC0002068B0F844004FF6FF5108402168A1F892
:102BD0004400204600F02EF9206806F0EBFC00F4DB
:102BE0008070B0F5807F08D12068B0F844004FF6BF
:102BF000FF6108402168A1F844007FBD30B585B071
:102C0000044614B9012005B030BD94F8A90228B9D2
:102C1000002084F8A802204600F09CF8032084F8E5
:102C2000A902206805F008FF142204F1100168468B
:102C3000FDF741FE94E80F0005F0ABFD20B1022046
:102C400084F8A9020120DEE70021206806F0DBFC01
:102C5000002531E0012105EB850204F1280000EB9D
:102C6000C200417005EB850104F1280000F83150E5
:102C700005EB850100EBC100C581002105EB850254
:102C800004F1280000EBC200C17005EB850204F1DD
:102C9000280000EBC200016105EB850204F1280069
:102CA00000EBC200416105EB850204F1280000EB56
:102CB000C2008161681CC5B26068A842CAD80025FC
:102CC0002AE0002105EB850204F5B47000EBC20098
:102CD000417005EB850104F5B47000F83150002116
:102CE00005EB850200EBC200C17005EB850204F51F
:102CF000B47000EBC200016105EB850204F5B4700D
:102D000000EBC200416105EB850204F5B47000EBF5
:102D1000C2008161681CC5B26068A842D1D8142283
:102D200004F110016846FDF7C6FD94E80F0005F0B8
:102D300078FE20B1022084F8A902012063E7002078
:102D400084F82400012084F8A902206805F066FEBA
:102D5000002058E710B586B0044600BF1A488069C5
:102D600040F00400184988610846806900F00400BA
:102D7000019000BF00BF00BF0846C06940F40000DA
:102D8000C8610846C06900F40000019000BF00BFA0
:102D9000C81402900120039004900320059002A91A
:102DA0000A48FEF7ADFF4FF48050029002A9074891
:102DB000FEF7A6FF032200211420FFF7B6F9142026
:102DC000FFF7A3F906B010BD001002400008014053
:102DD00010B5044606A0FDF7F9FA0121D4F8E8027F
:102DE00004F0C4FDD4F8E80204F076FD10BD000044
:102DF00055534220446576696365204C696272616F
:102E0000727920205B46535D0D0A000010B5044620
:102E100003A0FDF7DBFAD4F8E80204F08BFD10BD47
:102E200044657669636520526573756D65640D0A46
:102E30000000000010B50446D4F8E80204F085FD57
:102E400010BD70B504460D4600BF94F8A8020128D5
:102E500001D1022070BD012084F8A80200BF84F8CF
:102E600024502946206806F0D1FB00BF002084F8DA
:102E7000A80200BF00BFEDE710B5044604F52C71B1
:102E8000D4F8E80204F086FD10BD10B5044600BF7A
:102E900094F8A802012801D1022010BD012084F875
:102EA000A80200BF206806F06EFB01212046FFF754
:102EB000B1F9206805F0AFFD00BF002084F8A8023A
:102EC00000BF00BFE9E7000010B504460020054937
:102ED000087005A0FDF77AFAD4F8E80204F0A3FD23
:102EE00010BD0000CE03002044657669636520496B
:102EF0006E2073757370656E64206D6F64652E0D42
:102F00000A000000012001490862704700000E42DB
:102F100010B50E48406800F00400042809D10CA048
:102F2000FDF754FA00BF012291030E48FFF79AF80B
:102F30000AE00DA0FDF74AFA00BF00224FF48041DD
:102F40000848FFF78FF800BF10BD00000070004078
:102F5000505644204C6F7720566F6C746167652122
:102F6000000000000014014050564420566F6C745D
:102F7000616765204F4B210010B50648006800F4DA
:102F8000803028B1FFF7C4FF4FF48030014908605A
:102F900010BD0000140401402DE9F04385B0064641
:102FA00042A30FCB01AC0FC444A0006800904FF0C7
:102FB0000008002500270024A146042E36D004DC9A
:102FC000012E3BD0022E6BD15FE0082E32D0102EA6
:102FD00066D13B484468006800F0807000B301A8E7
:102FE000C4F38341475C04F4803070B134484068D6
:102FF000C0F340401DF8008004F4803040B13148F7
:10300000B0FBF8F000FB07F502E02F4807FB00F5E6
:103010002B48406800F48000B0F5800F01D1A9462C
:1030200003E068000321B0FBF1F93AE000F0D2F9C7
:10303000814636E000F0CEF9814632E02048046A4D
:1030400004F44070B0F5807F05D104F0020010B1A7
:103050004FF4004918E004F44070B0F5007F07D148
:103060001748406A00F0020010B149F640490BE0F1
:1030700004F44070B0F5407F06D11148006800F4B8
:10308000003008B14FF224490BE000F093F90C49ED
:103090004968C1F38131491C4900B0FBF1F900E0F6
:1030A00000BF00BF484605B0BDE8F0830203040539
:1030B000060708090A0B0C0D0E0F10100102000084
:1030C0000010024000127A0000093D00F8B50446E5
:1030D00000260025207800F0010000286BD0002792
:1030E0004348C06900F0805070B900BF4048C069D3
:1030F00040F080503E49C8610846C06900F08050E9
:10310000009000BF00BF01273A48006800F48070BB
:10311000B0B93848006840F4807036490860FEF75E
:10312000A7FF064606E0FEF7A3FF801B642801D92F
:103130000320F8BD2F48006800F480700028F2D00A
:103140002B48006A00F440752DB3A08800F440704D
:10315000A84220D02648006A20F440750120264964
:103160000860002008602248056205F0010090B167
:10317000FEF77EFF064608E0FEF77AFF801B41F26D
:103180008831884201D90320D3E71948006A00F04A
:1031900002000028F0D01648006A20F440706168F0
:1031A000084313490862012F04D10846C06920F082
:1031B0008050C86100BF207800F00200022807D1CB
:1031C0000B48406820F44040A16808430849486023
:1031D000207800F01000102807D10548406820F43E
:1031E000800061690843024948600020A1E70000AF
:1031F00000100240007000404004424270B5044696
:103200000D460CB9012070BD5A48006800F0070057
:10321000A8420ED25748006820F0070028435549BD
:1032200008600846006800F00700A84201D00120AD
:10323000E9E7207800F0020002281DD1207800F094
:103240000400042805D14C48406840F4E0604A4935
:103250004860207800F00800082805D146484068FA
:1032600040F46050444948604348406820F0F00012
:10327000A168084340494860207800F0010078B315
:103280006068012806D13C48006800F4003090B91D
:103290000120B8E76068022806D13748006800F0CE
:1032A000007040B90120AEE73348006800F002002A
:1032B00008B90120A7E73048406820F003006168A2
:1032C00008432D494860FEF7D3FE064609E0FEF7A5
:1032D000CFFE801B41F28831884202D9032092E759
:1032E00007E02548406800F00C006168B0EB810FF2
:1032F000EDD12048006800F00700A8420ED91D4813
:10330000006820F0070028431A4908600846006852
:1033100000F00700A84201D0012074E7207800F0F7
:103320000400042807D11448406820F4E060E168F4
:10333000084311494860207800F00800082808D1A7
:103340000D48406820F46050216940EAC1000A49F4
:10335000486000F03FF808494968C1F30311074A83
:10336000515CC8400649086006480068FEF7A6FEA2
:10337000002048E700200240001002406677010864
:103380000000002014000020014800687047000081
:103390000000002000B5FFF7F7FF04494968C1F3BA
:1033A0000221034A515CC84000BD000000100240E9
:1033B0007677010800B5FFF7E7FF04494968C1F3D4
:1033C000C221034A515CC84000BD00000010024009
:1033D00076770108F0B585B00FF26C0C9CE8E01030
:1033E00001A8A0E8E0101CA52D680095002100228E
:1033F000002300240020194D696801F00C05F5B187
:10340000042D02D0082D19D101E0154819E001ADB5
:10341000C1F38346AC5D01F4803555B10F4D6D6845
:10342000C5F340451DF805200D4D6543B5FBF2F38E
:1034300002E00C4D04FB05F3184602E000BF08480B
:1034400000BF00BF05B0F0BD020304050607080970
:103450000A0B0C0D0E0F10100102000000100240AC
:1034600000127A0000093D00F8B504460CB90120AD
:10347000F8BD207800F00100002878D0F8484068B6
:1034800000F00C0004280CD0F548406800F00C0057
:10349000082811D1F248406800F48030B0F5803F30
:1034A0000AD1EF48006800F4003000285FD060685F
:1034B00000285CD10120DBE700BF6068B0F5803FE9
:1034C00006D1E748006840F48030E549086028E00C
:1034D000606858B9E248006820F48030E04908602C
:1034E0000846006820F4802008601AE06068B0F5A3
:1034F000A02F0BD1DA48006840F48020D84908603A
:103500000846006840F4803008600AE0D44800684B
:1035100020F48030D24908600846006820F48020FA
:10352000086000BF606888B1FEF7A2FD054606E0AE
:10353000FEF79EFD401B642801D9032098E7C84888
:10354000006800F400300028F2D010E0FEF790FD93
:10355000054606E0FEF78CFD401B642801D90320D8
:1035600086E7BF48006800F400300028F2D12078D8
:1035700000F00200022857D1B948406800F00C0062
:1035800050B1B748406800F00C00082818D1B44882
:10359000406800F4803098B9B148006800F002003B
:1035A00020B12069012801D0012061E7AC48006802
:1035B00020F0F800616940EAC100A949086033E0E1
:1035C0002069E8B10120A7490860FEF751FD0546D2
:1035D00006E0FEF74DFD401B022801D9032047E716
:1035E0009F48006800F002000028F2D09C48006864
:1035F00020F0F800616940EAC1009949086013E0D1
:10360000002098490860FEF733FD054606E0FEF706
:103610002FFD401B022801D9032029E790480068AC
:1036200000F002000028F2D1207800F008000828FD
:103630002DD1A069B8B101208B490860FEF718FDB3
:10364000054606E0FEF714FD401B022801D90320C1
:103650000EE78348406A00F002000028F2D0012003
:1036600002F018F913E000207F490860FEF700FD22
:10367000054606E0FEF7FCFC401B022801D90320AA
:10368000F6E67748406A00F002000028F2D1207880
:1036900000F00400042873D100277148C06900F0CD
:1036A000805070B900BF6E48C06940F080506C49CE
:1036B000C8610846C06900F08050009000BF00BF9C
:1036C00001276A48006800F48070B0B96748006854
:1036D00040F4807065490860FEF7CAFC054606E0C4
:1036E000FEF7C6FC401B642801D90320C0E65F48F2
:1036F000006800F480700028F2D000BFE068012864
:1037000006D15748006A40F001005549086227E099
:10371000E06858B95248006A20F001005049086238
:103720000846006A20F00400086219E0E0680528F5
:103730000BD14B48006A40F0040049490862084632
:10374000006A40F0010008620AE04548006A20F083
:103750000100434908620846006A20F0040008623C
:1037600000BFE068A0B1FEF783FC054609E0FEF764
:103770007FFC401B41F28831884202D9032077E662
:1037800022E03748006A00F002000028EFD012E083
:10379000FEF76EFC054608E0FEF76AFC401B41F2AE
:1037A0008831884201D9032062E62D48006A00F082
:1037B00002000028F0D1012F05D12948C06920F06E
:1037C00080502749C86100BFE069C8B324484068F9
:1037D00000F00C00082860D0E069022848D10020E1
:1037E00020490866FEF744FC054606E0FEF740FC6B
:1037F000401B022801D903203AE61948006800F06E
:1038000000700028F2D1206AB0F5803F07D114483B
:10381000406820F40030A168084311494860D4E9A9
:10382000080108430E49496821F4741108430C4902
:10383000486001200B490866FEF71AFC054607E0C0
:103840003DE0FEF715FC401B022801D903200FE6DE
:103850000348006800F000700028F2D02FE000005C
:1038600000100240000042428004424200700040CA
:10387000002014490866FEF7FBFB054606E0FEF74C
:10388000F7FB401B022801D90320F1E50E48006830
:1038900000F000700028F2D111E0E069012800D1A9
:1038A000E6E50948466806F48031206A814204D181
:1038B00006F47011606A814201D00120D8E5002031
:1038C000D6E50000000042420010024010B5034659
:1038D00000220020024A02EB81021468A0B210BD4F
:1038E000006C004010B503460020034800EB810047
:1038F00094B2046010BD0000006C004070B5044636
:1039000000250CB9012070BD607C20B90020207416
:10391000204600F05BF802206074204600F0A2F818
:1039200018B1042060740120EDE7204601F0C6FFC5
:1039300018B1042060740120E5E72068406820F099
:10394000070021684860A06828B11F48006820F07F
:1039500001001D4908601C48001F006820F46070C9
:10396000A16808431849091F08606068401C08B135
:10397000656809E00120FFF70FFB05461DB904202B
:1039800060740120BFE76D1E2068806820F00F0082
:1039900040EA1540216888602068C06865F30F0020
:1039A0002168C860204601F0A6FF18B104206074A9
:1039B0000120A8E70021E17301216173A1730120B7
:1039C000607400209FE70000306C004030B591B07B
:1039D0000546C8240120214908602148006A40F0BA
:1039E00001001F49086204E0601E84B2052006F051
:1039F0006BFD2CB11A48006A00F002000028F3D0D9
:103A0000ACB90820079001200A9000200E9007A86A
:103A1000FFF72AFD012001904002029001A8FFF764
:103A200055FB45F25101002010F036FF14E0042050
:103A3000079001200A9000200E9007A8FFF714FDC0
:103A4000012001900002029001A8FFF73FFB45F220
:103A50005001002010F020FF11B030BD3C04424264
:103A60000010024070B5044600250CB9012070BD5D
:103A70002068406820F0080021684860FEF7F8FAE6
:103A8000054607E0FEF7F4FA401BB0F57A7F01D94E
:103A90000320ECE72068406800F008000028F1D01F
:103AA0000020E4E710B50246506E800F0870506E9B
:103AB000C0F383604870506EC0F301608870506E30
:103AC000000CC870B2F86400000A087192F8640033
:103AD0004871906E000DC880906EC0F3034008726C
:103AE0006820805AC0F3C03048726820805AC0F302
:103AF000803088726820805AC0F34030C8726820D5
:103B0000805AC0F30030087300204873506C0028BE
:103B100036D16820805A8005030DD06E43EA90703C
:103B20000861D06EC0F3C2600875D06EC0F3026049
:103B30004875D06EC0F342508875D06EC0F3824095
:103B4000C875D06EC0F3C23008760869401C506555
:103B50000B7E506D03F007039B1C01249C406043C7
:103B60005065087A00F00F03012098409065D2E973
:103B700015035B0A5843D0654FF40073136621E0C8
:103B8000506C012813D16820805C8006830AD06EB7
:103B900043EA104008610869401C83025365536D75
:103BA000D3654FF400739365936D13660AE02E4856
:103BB00013689863906B40F080509063012082F806
:103BC000340010BD6C20805AC0F3803001F8190F0A
:103BD0006C20805AC0F3C61048706C20805C00F0E6
:103BE0007F008870106FC00FC870106FC0F34170F5
:103BF0000871106FC0F382604871106FC0F383507A
:103C00008871106FC0F34050C87100200872106FA7
:103C1000C0F3004048727020805AC0F3C0308872F0
:103C20007020805AC0F38030C8727020805AC0F370
:103C3000403008737020805AC0F300304873702001
:103C4000805AC0F3812088737020805AC0F301200D
:103C5000C8737020805CC0F346000874012048746B
:103C600019390020ADE70000FF054000F8B5044613
:103C7000002000906946204602F05CFF054615B121
:103C8000A06B2843A0630098C0F343263046F8BDDC
:103C900010B504460CB9012010BD94F8340020B9C9
:103CA00000202077204600F053F8032084F83400E9
:103CB000204600F00BF808B10120EDE70020A063DA
:103CC0002063012084F834000020E5E770B58AB055
:103CD00004460020049005900690079008907620F6
:103CE000099007A807C88DE80700206804A90EC935
:103CF00002F075FA064616B101200AB070BD002028
:103D000012490860206802F084FA01200F49A039A6
:103D1000C1F8A000204602F0A7FE05463DB10120F3
:103D200084F83400A06B2843A0630120E5E7204617
:103D300002F018FE05463DB1012084F83400A06B66
:103D40002843A0630120D8E70020D6E7A000304236
:103D500010B586B004464F49206888427ED100BF26
:103D60004D48406940F480604B49486108464069CD
:103D700000F48060019000BF00BF00BF00BF084694
:103D8000806940F0100088610846806900F01000EA
:103D9000019000BF00BF00BF00BF00BF08468069A0
:103DA00040F0100088610846806900F01000019022
:103DB00000BF00BF00BF00BF00BF0846806940F0E1
:103DC000100088610846806900F01000019000BF73
:103DD00000BF00BF00BF00BF0846806940F0100070
:103DE00088610846806900F01000019000BF00BFA4
:103DF00000BF00BF00BF0846806940F01000886126
:103E00000846806900F01000019000BF00BF00BFAD
:103E100000BF00BF0846806940F020008861084666
:103E2000806900F02000019000BF00BF00BF88152E
:103E3000029002200390012004900320059002A923
:103E40001648FDF75DFF4FF40070029002A9134879
:103E5000FDF756FF4FF48060029000E018E002A9E1
:103E60000E48FDF74DFF4FF40060029002A90B4889
:103E7000FDF746FF4FF48050029002A90748FDF776
:103E80003FFF0420029002A90548FDF739FF00BF5B
:103E900006B010BD0080014000100240001001403B
:103EA000001401402DE9FF4F89B004468B46994626
:103EB000DDF858A0FEF7DCF802900B9800905D4604
:103EC000BBF1000F07D1A06B40F00060A0630120A0
:103ED0000DB0BDE8F08F94F8340001287ED10020A9
:103EE000A063009800EB0901E06D814205D9A06B49
:103EF00040F00070A0630120EAE7032084F834005A
:103F000000202168C862606C012802D0009840023D
:103F100000904FF40071206802F0DCF98046B8F19F
:103F2000000F0AD08E4821688863A06B40EA080021
:103F3000A063012084F83400CAE74FF0FF300390FB
:103F40004FEA49200490902005900220069000201E
:103F500007900120089003A9206802F01BF9B9F12D
:103F6000010F07D9022020632068009902F0FEF9B2
:103F7000804606E0012020632068009902F012FAD2
:103F80008046B8F1000F0DD0754821688863A06B9A
:103F900040EA0800A063012084F834000020206378
:103FA000012095E7049E3AE02068406B00F4004051
:103FB000F0B1EEB10020019017E0206802F032F974
:103FC00007462F706D1C761E380A28706D1C761EF1
:103FD000380C28706D1C761E380E00E0BAE0287090
:103FE0006D1C761E0198401C019001980828E4D3AE
:103FF000FEF73EF80299401A504502D2BAF1000F7E
:104000000DD1574821688863A06B40F00040A06341
:10401000012084F8340000202063032058E7206842
:10402000406B40F22A3108400028BDD02068406B28
:1040300000F48070D0B1B9F1010F17D9606C03287A
:1040400014D0206802F052FA8046B8F1000F0DD06B
:10405000434821688863A06B40EA0800A063012000
:1040600084F8340000202063012031E72068406B91
:1040700000F0080068B13A4821688863A06B40F0FE
:104080000800A063012084F8340000202063012090
:104090001EE72068406B00F0020068B130482168DC
:1040A0008863A06B40F00200A063012084F8340014
:1040B0000020206301200BE72068406B00F0200007
:1040C00068B1274821688863A06B40F02000A06396
:1040D000012084F83400002020630120F8E629E064
:1040E000206802F09FF807462F706D1C761E380A74
:1040F00028706D1C761E380C28706D1C761E380ECC
:1041000028706D1C761EFDF7B3FF0299401A5045CA
:1041100002D2BAF1000F0DD1114821688863A06B5B
:1041200040F00040A063012084F8340000202063A8
:104130000120CDE62068406B00F4001008B1002E8D
:10414000CED140F23A5021688863012084F83400CF
:104150000020BDE6A06B40F00050A0630120B7E650
:10416000FF0540002DE9F04F89B00446894693468B
:104170009846FDF77DFF0290DA464E46B9F1000FF2
:1041800007D1A06B40F00060A063012009B0BDE83A
:10419000F08F94F8340001287ED10020A0630AEB50
:1041A0000801E06D814205D9A06B40F00070A0636A
:1041B0000120EBE7032084F8340000202168C86266
:1041C000606C012801D04FEA4A2A4FF40071206840
:1041D00002F080F805464DB1764821688863A06BEF
:1041E0002843A063012084F83400CFE74FF0FF306C
:1041F00003904FEA482004909020059000200690FC
:1042000007900120089003A9206801F0C3FFB8F1CE
:10421000010F07D9202020635146206802F084F95D
:10422000054606E0102020635146206802F098F908
:10423000054665B15F4821688863A06B2843A06389
:10424000012084F834000020206301209EE7049FB1
:1042500043E02068406B00F4804040B33FB300204F
:10426000019021E030780090761C7F1E3078009914
:1042700041EA00200090761C7F1E3078009941EAC8
:1042800000400090761C7F1E3078009941EA006063
:104290000090761C7F1E00E085E06946206801F0F2
:1042A000D9FF0198401C019001980828DAD3FDF746
:1042B000DFFE0299411A1298814201D2129860B928
:1042C0003C4821688863A06B2843A063012084F8E0
:1042D000340000202063032058E72068406B40F240
:1042E0001A3108400028B4D02068406B00F4807078
:1042F000B8B1B8F1010F14D9606C032811D020684F
:1043000002F0F4F8054665B12A4821688863A06B7D
:104310002843A063012084F834000020206301209A
:1043200034E72068406B00F0080068B1214821683C
:104330008863A06B40F00800A063012084F834007B
:1043400000202063012021E72068406B00F002007C
:1043500068B1184821688863A06B40F00200A06330
:10436000012084F834000020206301200EE720683B
:10437000406B00F0100068B10E4821688863A06BA4
:1043800040F01000A063012084F834000020206376
:104390000120FBE640F23A5021688863012084F84E
:1043A00034000020F2E6A06B40F00050A063012032
:1043B000ECE60000FF05400010B504460CB90120F2
:1043C00010BD606A38B96068B0F5827F00D105E041
:1043D0000021E16102E0002121616161A06AB0F584
:1043E000005F00D100BF94F8510028B9002084F884
:1043F0005000204600F04AF8022084F8510020685E
:10440000006820F0400021680860A08800F48270F5
:10441000218901F404410843A18901F400610843A2
:10442000217C01F002010843217D01F001010843D4
:10443000218B01F400710843217F01F0380108430A
:104440002021095D01F080010843218D01F4005114
:104450000843216808600421A06901EA104021682E
:104460004860A06AB0F5005F03D1A08D80B22168DA
:1044700008612068C06920F400602168C8610020DC
:104480006065012084F85100002099E710B586B0DE
:1044900004464D492068884249D100BF00BF4B48BF
:1044A000806940F00800494988610846806900F049
:1044B0000800019000BF00BF00BF00BF00BF08465A
:1044C000806940F0080088610846806900F00800B3
:1044D000019000BF00BF00BF00BF00BF0846806959
:1044E00040F0080088610846806900F008000190EB
:1044F00000BF00BF00BF4FF40050029002200390A5
:10450000012004900320059002A93148FDF7F8FB33
:104510004FF48040029002A92D48FDF7F1FB4FF4C3
:104520000040029002A92A48FDF7EAFB49E0294928
:104530002068884245D100BF00BF2448806940F010
:104540000400224988610846806900F00400019057
:1045500000BF00BF00BF00BF00BF0846806940F039
:10456000040088610846806900F00400019000BFE3
:1045700000BF00BF00BF00BF0846806940F00400D4
:1045800088610846806900F00400019000BF00BF08
:1045900000BF2020029002200390012004900320FD
:1045A000059002A90C48FDF7ABFB4020029002A940
:1045B0000948FDF7A5FB8020029002A90648FDF7F7
:1045C0009FFB06B010BD0000003800400010024004
:1045D000000C014000300140000801402DE9FF5F60
:1045E0000446884691461D460E9E012002900020FA
:1045F000019000BF94F85000012803D1022004B0BC
:10460000BDE8F09F012084F8500000BFFDF730FDA9
:10461000074694F851B060680390AA46BBF1010FB9
:104620000BD00398B0F5827F04D1A06810B9BBF11C
:10463000040F02D0022001903DE1B8F1000F03D039
:10464000B9F1000F00D015B90120019033E194F8C1
:104650005100042802D0052084F851000020606534
:10466000C4F83890E587A587C4F83080E586A5862C
:1046700020646064A06AB0F5005F0DD100BF2068BF
:10468000006820F40050216808602068006840F449
:1046900000502168086000BF2068006800F04000FA
:1046A000402805D02068006840F04000216808607C
:1046B000E068B0F5006F56D1606810B1BAF1010F33
:1046C00009D1206B00882168C860206B801C2063A2
:1046D000E08E401EE0863FE02068806800F0020027
:1046E00002281CD1E08ED0B10298012817D1206B8E
:1046F00000882168C860206B801C2063E08E401E0B
:10470000E08600200290E08E48B9A06AB0F5005F14
:1047100005D12068006840F4805021680860206856
:10472000806800F0010068B1E08F58B12068C0686F
:10473000A16B0880A06B801CA063E08F401EE08707
:1047400001200290FDF794FCC01BB04204D3701C02
:1047500010B103200190AEE0E08E0028BCD1E08FC4
:104760000028B9D156E0606810B1BAF1010F09D143
:10477000206B007821680873206B401C2063E08E5A
:10478000401EE08640E02068806800F002000228B9
:104790001CD1E08ED0B10298012817D1206B00788F
:1047A00021680873206B401C2063E08E401EE08669
:1047B00000200290E08E48B9A06AB0F5005F05D1F4
:1047C0002068006840F48050216808602068806894
:1047D00000F0010068B1E08F58B12068C068A16B9B
:1047E0000870A06B401CA063E08F401EE087012092
:1047F0000290FDF73DFCC01BB04201D3701C00B914
:1048000016B90320019056E0E08E0028BBD1E08F5E
:104810000028B8D1A06AB0F5005F10D1334601225C
:1048200011462046009702F0B5F930B1606D40F0B6
:1048300002006065032001903DE02068C0682068A8
:104840008068C0F30010E8B1204602F09FF901280B
:1048500014D1606D40F00200606500BF2068006800
:1048600020F40050216808602068006840F400507F
:104870002168086000BF0120019003E04FF6EF704F
:10488000216888603A463146204602F06BF920B133
:1048900001200190202060650DE0A06850B900BFA4
:1048A000002000902068C068009020688068009018
:1048B00000BF00BF00BF012084F8510000BF0020EE
:1048C00084F8500000BF019899E670B504460E4682
:1048D00015461CB1A069B0F5807F01D1012070BDE3
:1048E00094F8410028B9002084F84000204600F0E8
:1048F0001FF804F108012068FDF78AF83146A26824
:104900002068FDF7C1F82946236BD4E90102FDF7C1
:104910005DF8A168206850F8210040F00100A2680D
:10492000216841F82200012084F841000020D6E7E8
:1049300010B586B0044600BF1E48406940F4807040
:104940001C4948610846406900F48070019000BF2E
:1049500000BF00BF0846806940F02000886108461B
:10496000806900F02000019000BF00BF00BF084632
:10497000806940F0400088610846806900F040008E
:10498000019000BF00BF4CF2037002900220039020
:10499000012004900320059002A90748FDF7B0F913
:1049A0004FF68070029002A90448FDF7A9F906B0FD
:1049B00010BD00000010024000140140001801402A
:1049C000042808D14FF0E021096941F004014FF0BB
:1049D000E022116107E04FF0E021096921F00401B4
:1049E0004FF0E0221161704770B504462546681EFD
:1049F000B0F1807F01D301200FE0681E4FF0E0216D
:104A000048610F214FF0FF3004F04EFE00204FF0C0
:104A1000E021886107200861002070BD7047704761
:104A200010B504460CB9012010BD94F83D0028B91A
:104A3000002084F83C00204600F025F8022084F88D
:104A40003D00211D206802F033FA012084F8460061
:104A500000BF84F83E0001213F2001554020015550
:104A60004120015500BF00BF012084F842004320CF
:104A70000155442001554520015500BF012084F80F
:104A80003D000020D0E77047014691F83D00012825
:104A900001D001207047022081F83D000868C068FD
:104AA00040F001000B68D860164B0868984213D09C
:104AB000154B086898420FD00868B0F1804F0BD0B2
:104AC000124B0868984207D0114B0868984203D0EF
:104AD000104B086898420CD10868806800F0070203
:104AE000062A0CD00868006840F001000B681860C6
:104AF00005E00868006840F001000B6818600020BD
:104B0000C8E70000002C01400034014000040040D0
:104B100000080040000C004010B504460D49206814
:104B2000884216D10C48007898B9207F012810D10E
:104B300004210A4800F022F9801C0949088000215C
:104B4000064800F01BF9801C064908800120024934
:104B5000087010BD003401401E0000203009002004
:104B6000220000202400002010B5044620680069BF
:104B7000C0F34000D8B12068C068C0F34000B0B1B5
:104B80006FF00200216808610120207720688069A9
:104B900000F0030018B12046FFF7BEFF05E02046F5
:104BA00000F0ADF8204600F0ABF800202077206838
:104BB0000069C0F38000D8B12068C068C0F38000ED
:104BC000B0B16FF0040021680861022020772068EE
:104BD000806900F4407018B12046FFF79DFF05E0A2
:104BE000204600F08CF8204600F08AF8002020775C
:104BF00020680069C0F3C000D8B12068C068C0F365
:104C0000C000B0B16FF0080021680861042020776F
:104C10002068C06900F0030018B12046FFF77CFF50
:104C200005E0204600F06BF8204600F069F800200F
:104C3000207720680069C0F30010D8B12068C068F0
:104C4000C0F30010B0B16FF01000216808610820B7
:104C500020772068C06900F4407018B12046FFF743
:104C60005BFF05E0204600F04AF8204600F048F8D7
:104C7000002020772068006900F0010058B120680A
:104C8000C06800F0010030B16FF0010021680861D8
:104C9000204600F037F820680069C0F3C01058B112
:104CA0002068C068C0F3C01030B16FF08000216888
:104CB00008612046FFF7B2FE20680069C0F380104B
:104CC00058B12068C068C0F3801030B16FF0400068
:104CD00021680861204600F06AF820680069C0F386
:104CE000401058B12068C068C0F3401030B16FF078
:104CF0002000216808612046FFF791FE10BD704733
:104D000070470000194A016891422DD1184909786D
:104D100001F0800111BB1649097801F04001E9B1A9
:104D20001349097801F03F013F2918D11149096859
:104D3000096A21F0A0010F4A126811620D49096841
:104D4000096A0C4A126811620949097841F0800128
:104D5000074A11704FF6FF71074A118004E00449B9
:104D60000978491C024A117070470000000C00408D
:104D70001B000020A00800201C000020024600208C
:104D800031B1042907D0082908D00C290CD108E03A
:104D90001368586B09E01368986B06E01368D86BCA
:104DA00003E01368186C00E000BF00BF7047704755
:104DB000704700002DE9F047044620680568206828
:104DC000C668206847694FF00008C14605F00F0823
:104DD000B8F1000F0AD105F0200038B106F020002C
:104DE00020B1204602F0DCF8BDE8F087B8F1000FF2
:104DF00071D007F0010018B906F4907000286AD04D
:104E000005F0010030B106F4807018B1E06B40F09D
:104E10000100E06305F0040030B107F0010018B1B3
:104E2000E06B40F00200E06305F0020030B107F0F3
:104E3000010018B1E06B40F00400E06305F00800E9
:104E400048B106F0200010B907F0010018B1E06B7E
:104E500040F00800E063E06B68B305F0200028B183
:104E600006F0200010B1204602F09AF82068406950
:104E7000C0F38019E06B00F0080010B9B9F1000F21
:104E800022D0204602F06CF82068406900F0400013
:104E9000B0B12068406920F0400021684861606B33
:104EA00050B11848616B4863606BFCF73FFE10B16E
:104EB000606B416B88470CE02046FFF779FF08E004
:104EC0002046FFF775FF04E02046FFF771FF002042
:104ED000E06389E7FFE705F0800030B106F080006D
:104EE00018B1204602F02AF97EE705F0400030B103
:104EF00006F0400018B1204602F042F874E700BF07
:104F000072E700004D6F000810B504460CB901208F
:104F100010BDA06900B100E000BF94F8390028B9C5
:104F2000002084F83800204600F028F8242084F877
:104F300039002068C06820F400502168C86020460D
:104F400002F07EF82068006920F490402168086132
:104F50002068406920F02A00216848612068C06804
:104F600040F400502168C8600020E063202084F8ED
:104F7000390084F83A000020CAE7000010B586B076
:104F800004462849206888424AD100BF00BF26480D
:104F9000806940F00400244988610846806900F077
:104FA0000400019000BF00BF00BF00BF00BF084663
:104FB000806940F0040088610846806900F00400C0
:104FC000019000BF00BF00BF00BF00BF084680695E
:104FD00040F4804088610846806900F48040019078
:104FE00000BF00BF00BF48150290022003900120BF
:104FF00004900320059002A90C48FCF781FE4FF4B1
:10500000806002900020039002A90848FCF778FE17
:105010002520FDF77AF8032211462520FDF785F8B3
:1050200006B010BD003801400010024000080140E9
:1050300010B5034693F83A0020282FD101B10AB9E0
:10504000012010BD00BF93F83800012801D10220D3
:10505000F7E7012083F8380000BF99629A85DA8566
:105060000020D863222083F83A0000BF002083F894
:10507000380000BF1868C06840F480701C68E060A9
:105080001868406940F001001C6860611868C068D9
:1050900040F020001C68E0600020D2E70220D0E74A
:1050A0001D4A0168914236D11C49098801F400412A
:1050B00089BB1A49098801F4804171B118490978FE
:1050C0000A2903D00021154A118024E013490988D8
:1050D00041F40041114A11801DE0114909780D2960
:1050E00006D10E49098841F480410C4A118012E032
:1050F0000B490978094A1288C2F30D02094B9954E9
:1051000006490988491C054A118011460988C729A2
:1051100001DD0021118070470038014008000020A7
:105120000A000020300700207047000010B5044638
:10513000054800F021F800BF4FF480410348FCF718
:1051400087FF00BF10BD000044080020001401408C
:1051500010B5044620684068C0F3402058B120686C
:10516000806800F0010030B16FF0010021688860B4
:105170002046FFF7DBFF10BD01460A68C8681060D3
:105180000020704700BFFEE730B50B46002100BF8E
:1051900016E00A24B4EB107F05D9302404EB107418
:1051A00003F8114005E0412404EB10740A3C03F8B5
:1051B0001140000100254C00641C1D554C1CE1B23F
:1051C0009142E6DB30BD70B50546D5F8B84240F6F1
:1051D0001800005D48B940F61400005928B1607A03
:1051E00018B90121284602F00CFC8121284602F062
:1051F00008FC607A022806D11F2304F60C02012164
:10520000284602F059FB70BD70B50546D5F8B84286
:105210004FF4016001594FF40360015140F614004E
:10522000015940F6340001510121284602F0D0FA1C
:105230001F2812D12B49D4F80C0888420DD140F612
:105240001900005D012808D840F61A00005D20B161
:1052500040F61A00005D10280DD940F61900015DD6
:1052600020230522284600F093FE02206072284683
:10527000FFF7A9FF33E040F61900015D04F61B02B9
:10528000284600F019FC00280BDA207A052804D102
:105290000121284600F0C0F821E02846FFF793FFDF
:1052A0001DE0207A022819D0207A012816D0207A11
:1052B000032813D0608930B1628904F10C012846BB
:1052C00000F0C8F80BE0608920B90021284600F002
:1052D000A3F804E02846FFF776FF00E070BD00BFAA
:1052E000FCE700005553424370B506460D46D6F81C
:1052F000B842607A022806D18121304602F081FB53
:10530000002060720CE005F08000802807D1607AF0
:10531000012804D00121304600F07EF800E070BD85
:1053200000BFFCE770B505460E46D5F8B842207AB6
:10533000022804D0032812D0042815D10EE040F62C
:105340001900015D04F61B02284600F0B5FB002899
:1053500003DA0121284600F05FF806E000BF0021D3
:10536000284600F059F800E000BF00BF70BD70B5DE
:1053700005460E46D5F8B842207A10B1012813D15F
:1053800003E02846FFF740FF0FE040F61900015DFB
:1053900004F61B02284600F08FFB002803DA0121E7
:1053A000284600F039F800E000BF00BF70BDD0F81B
:1053B000B81200220A72704770B50546D5F8B84297
:1053C00000202072607284F85D0884F85C08D5F8CB
:1053D000BC020168002088470121284602F0EEF94E
:1053E0008121284602F0EAF91F2304F60C0201216C
:1053F000284602F061FA70BD70B50546D5F8B8428E
:1054000000202072012060721F2304F60C0201218B
:10541000284602F051FA70BD70B505460E46D5F823
:10542000B8420B48C4F82C0840F638000655002056
:1054300020720D2304F62C028121284602F0FDFA89
:105440001F2304F60C020121284602F035FA70BD34
:10545000555342532DE9F04106460F461546D6F8FE
:10546000B84240F614000059A84203D240F6140096
:10547000005900E028461FFA80F840F63400005931
:10548000411B40F6340001510021001D015504204C
:10549000207243463A468121304602F0CEFABDE8FA
:1054A000F08100BFFEE770472DE9F0470546E2E1D5
:1054B0002868B0F844A00AF00F06002E7ED10AF04A
:1054C0001000B0BB00BF2968098848F60F7201EAD6
:1054D000020040F400412A68118000BF05F1280451
:1054E0002868B0F85010207801EBC000801C2968B3
:1054F00001F5806131F81000C0F30900E061E16955
:1055000060690844606100212846FCF784FE95F834
:1055100024000028CBD0A0690028C8D195F8240029
:1055200040F080002968A1F84C00002085F8240094
:10553000A1E1FFE705F5B4742868B0F8008008F42D
:10554000006030B32868B0F85010207801EBC0003C
:10555000801D296801F5806131F81000C0F3090051
:10556000E061A18B8BB2E28805F52C71286804F00C
:1055700025F800BF2968098840F68F7201EA020009
:1055800040F080012A68118000BF2846FDF774FCB6
:1055900071E108F40040002889D000BF296809881B
:1055A00040F68F7201EA020040F080012A68118003
:1055B00000BF2868B0F85010207800E069E001EBE7
:1055C000C000801D296801F5806131F81000C0F32A
:1055D0000900E061E06990B1606980B1B4F81CC075
:1055E0001FFA8CF3E2886169286803F0E7FFE1693C
:1055F00060690844606100212846FCF71CFE00BF7A
:105600002A682968B1F850100A4402F20C41084691
:1056100000BF236953B9038848F2FF3C03EA0C0337
:105620000380038843F4004303801EE023693E2B7C
:105630000DD800BF23695908237C03F0010303B18F
:10564000491C4FF6FF7303EA812303800DE000BF7E
:1056500023695909237C03F01F0303B9491E4FF442
:10566000004343EA8123038000BF00BF00BF00BFA7
:10567000296809884BF68F7201EA020080F4805095
:1056800080F4005040F4004141F080012A6811800C
:10569000F1E07100286830F8118008F4004000281B
:1056A0007ED000BF7200296831F8121040F68F7268
:1056B00001EA020040F0800173002A6822F813100A
:1056C00000BF06EB860105F5B47000EBC104207B3A
:1056D000B0B92868B0F85010207801EBC000801DE8
:1056E000296801F5806131F81000C0F30907002F27
:1056F0005BD0E28861693B46286803F05FFF54E0B5
:10570000E078022806D1424621462846FCF716FEDC
:1057100007464AE000BF00BF22785200296831F8EE
:10572000121048F68F7201EA020040F4004141F085
:10573000C00123785B002A6822F8131000BF00BF65
:1057400021784900286830F8110000F48040A8B1A1
:105750002868B0F85010207801EBC000801C296840
:1057600001F5806131F81000C0F30907EFB122891B
:1057700061693B46286803F021FF16E02868B0F80D
:105780005010207801EBC000801D296801F5806170
:1057900031F81000C0F309073FB16289616900E088
:1057A00017E03B46286803F009FFE0693844E061F0
:1057B000606938446061A06910B12069B84204D9B9
:1057C00021782846FCF737FD03E02146286803F0DE
:1057D000DBF908F08000A0B306EB860105F1280094
:1057E00000EBC10400BF7200296831F8121048F6BE
:1057F0000F7201EA020040F4004173002A6822F8A7
:10580000131000BFE078022805D1E07802282DD1DE
:1058100008F4807050BB2868B0F85010207801EB75
:10582000C000801C296801F5806131F81000C0F3C8
:105830000909A069484505D9A069A0EB0900A06144
:1058400002E018E00020A061A06920B92178284674
:10585000FCF7E1FC0FE0606948446061E06948449E
:10586000E0612146286803F08FF904E042462146B2
:105870002846FCF70FFE2868B0F8440000F400400A
:1058800000287FF415AEBDE8F08710B5FDF774FB76
:1058900010BD704708B508490968C9084FF47A7205
:1058A000B1FBF2F14143009100BF00BF00994A1ED5
:1058B00000920029F9D108BD0000002070B504460F
:1058C0000025FCF7D5FB054607E0FCF7D1FB401BA4
:1058D000B0F57A7F01D9032070BD2068406800F0E0
:1058E00020000028F1D02068406840F010002168B6
:1058F00048600020F0E770B5044600252068406845
:1059000020F0100021684860FCF7B2FB054607E074
:10591000FCF7AEFB401BB0F57A7F01D9032070BDC8
:105920002068406800F020000028F1D00020F6E751
:105930000EB51B480068406800F0010030B10EF061
:10594000CBFD6FF0010016490968486014480068F3
:105950004068C0F34000A0B16FF002001049096830
:105960004860104880780F4949780E4A1278CDE98E
:10597000002102900B48C379827981880AA0FAF746
:1059800025FD6FF0040006490968486000BF04481F
:1059900000684068C0F340100028F8D00EBD000039
:1059A000C80A0020DC0A0020416C61726D20546935
:1059B0006D653A25642D25642D25642025643A25DE
:1059C000643A25640A0000002DE9F04104460F46C0
:1059D00015461E46D4F8B882A819D8F8601888422F
:1059E00009D9212305223946204600F0D1FA4FF08B
:1059F000FF30BDE8F0810020FBE70000F0B5044671
:105A00000E46D4F8B832507800F0010060B107219A
:105A1000598106E0481E81B21048475C03F10C0032
:105A200047540029F6D116E0D4F8BC02C06906EB51
:105A3000C60700EB87052879411D1079884200DCF4
:105A40001179598105E0481E81B26F5C03F10C00A9
:105A500047540029F7D10020F0BD000066AA0108D4
:105A600070B503460C4615460821D3F8B82251817B
:105A700006E0481E81B20448465C02F10C00465420
:105A80000029F6D1002070BD75AA010870B5034643
:105A90000C461546D3F8B8220821518106E0481E6D
:105AA00081B20448465C02F10C0046540029F6D14C
:105AB000002070BD6DAA010870B505460E4614465B
:105AC0002078232845D00DDC1A2836D005DCB0B16B
:105AD00003281AD012285AD11DE01B2821D01E28D5
