:020000040800F2
:10000000002D002045020008493200084132000856
:1000100045320008E91500083537000800000000E7
:10002000000000000000000000000000893300080C
:100030001516000800000000533200088B3300083A
:10004000393700084B3200085F020008F13200081F
:100050005F0200085F020008171600085F02000830
:100060005F0200085F0200085F020008ED1500084B
:100070005F0200085F0200085F0200085F020008DC
:100080005F0200085F0200085F0200085F020008CC
:100090005F0200085F0200085F0200085F020008BC
:1000A0005F0200085F0200085F0200085F020008AC
:1000B000953300085F020008C13300085F020008A2
:1000C0005F0200085F0200085F0200085F0200088C
:1000D0005F020008113700085F0200085F02000895
:1000E0005F0200085F0200085F0200085F0200086C
:1000F0005F0200085F020008153400085F02000874
:100100005F0200085F020008053400085F02000873
:100110005F0200085F0200085F0200085F0200083B
:100120005F0200085F0200085F0200085F0200082B
:1001300000F002F800F076F80AA090E8000C824483
:100140008344AAF10107DA4501D100F06BF8AFF260
:10015000090EBAE80F0013F0010F18BFFB1A43F0A5
:1001600001031847C8EA0000E8EA00000A444FF01B
:10017000000C10F8013B13F0070408BF10F8014B06
:100180001D1108BF10F8015B641E05D010F8016B4B
:10019000641E01F8016BF9D113F0080F1EBF10F8AF
:1001A000014BAD1C0C1B09D16D1E58BF01F801CBD2
:1001B000FAD505E014F8016B01F8016B6D1EF9D555
:1001C0009142D6D37047000000230024002500266A
:1001D000103A28BF78C1FBD8520728BF30C148BFAA
:1001E0000B60704766290BF0EA81642900F0BC803F
:1001F000752900F0B980782900F0F280632900F0B9
:10020000DA84732900F0DF84002070471FB500F006
:10021000F1FC0400002000210AF072FCE0601FBD28
:1002200010B510BD00F0EAFD1146FFF7EFFF08F032
:10023000FFF900F008FE03B4FFF7F2FF03BC03F080
:10024000BAFA00000948804709480047FEE7FEE780
:10025000FEE7FEE7FEE7FEE7FEE7FEE7FEE7FEE776
:1002600004480549054A064B7047000093330008CF
:100270003101000800270020002D00200029002067
:1002800000290020704700000FB4044910B503AAEC
:10029000029800F09DFC10BC5DF814FB04000020E7
:1002A0000FB41CB5074B06AA7B446946009005981D
:1002B00000F05FFC0020694600F06EFC1CBC5DF89D
:1002C00014FB0000ED08000070B504468569006865
:1002D000C10601D5302600E02026C00707D070BD3A
:1002E000D4E9012130469047206A401C20626D1EEF
:1002F000F6D570BD70B5044685690078C00707D192
:1003000070BDD4E9012120209047206A401C206262
:100310006D1EF6D570BD70B50C460546012A05D098
:100320002878800600D5EA69002302E0012305E071
:100330005B1C934202D2E05C0028F9D1A869E61860
:10034000C01AA861286A184428622846FFF7BCFF33
:1003500004E0D5E9012114F8010B9047B442F8D329
:100360002846FFF7C7FF70BD2DE9F041064600247F
:1003700010687529314616A510D0AFF3008000280B
:1003800002DA404213A507E031688A0701D512A5B9
:1003900002E0490704D511A5012401E0AFF3008074
:1003A00000210A2206F1240709E0B0FBF2FCB0FBB1
:1003B000F2F302FB1C00303078541846491C002828
:1003C000F3D123462A463046BDE8F04100F064B937
:1003D000000000002D0000002B00000020000000A5
:1003E00070B504460D4621461068AFF300802188A1
:1003F000090502D50F4A7A4402E00E4A7A440E32C9
:10040000002104F1240305E000F00F060009965DC9
:100410005E54491C0028F7D120780023000704D53A
:10042000702D02D009B1022311322046BDE8704080
:1004300000F032B998E100002DE9F05F89460446EA
:100440004FF0000ADFF874B1FB44C0F820A020464A
:10045000E1688847002874D0252806D0D4E9012116
:100460009047206A401C2062F1E700265F46204644
:10047000E16888472028054607DB312D05D2781929
:1004800010F8200C08B10643F1E7B00701D526F0BB
:100490000406C4F81CA00027C4F818A02A2D09D00F
:1004A000284603F081F938B304EB8708303DC8F8DB
:1004B000185019E059F8041B204604EB870291619B
:1004C000E1688847012F054618D1E069002820DA45
:1004D00026F020061DE0D8F8180000EB800005EBA0
:1004E00040003038C8F818002046E16888470546C3
:1004F00003F05AF90028EED1012F0AD02E2D08D191
:100500002046E16888477F1C0546022F46F02006FA
:10051000C4DBA069002803DA404246F00106A0616E
:10052000F00701D026F010066C2D0BD0682D09D0F5
:100530004C2D39D06A2D35D0742D35D07A2D33D04D
:1005400016E038E0E1682F4620468847B842054665
:1005500009D16C2F26D04FF48060E1680643204615
:100560008847054604E06C2F1AD04FF4807006438C
:100570000DB3A5F14100192802D8203546F40066D4
:100580004A462946204626604E46FFF72BFE80B19C
:1005900001280BD0F61D26F0070000F1080956E7E8
:1005A0004020E4E78020D8E70020D6E706F10409E0
:1005B0004DE7284652E7206ABDE8F09F6EE1000053
:1005C0004FF0000200B5134694469646203922BFEC
:1005D000A0E80C50A0E80C50B1F12001BFF4F7AF37
:1005E000090728BFA0E80C5048BF0CC05DF804EB19
:1005F000890028BF40F8042B08BF704748BF20F887
:10060000022B11F0804F18BF00F8012B704700003B
:100610004FF0013C50F8042B51F8043B9A4221D191
:10062000A2EB0C03934313EACC1317D150F8042B1D
:1006300051F8043B9A4215D1A2EB0C03934313EA01
:10064000CC130BD150F8042B51F8043B9A4209D13A
:10065000A2EB0C03934313EACC13DBD04FF0000062
:10066000704700BFD01A01BAB1FA81F101F0180148
:1006700022FA01F0CB40C1F12001DBB2C0B2C01AB6
:100680002CFA01F3D11A914311EAC311E6D1704754
:1006900070477047704770472DE9F0470D469946FF
:1006A0009246044600F124080168880604D5E069F2
:1006B00021F01001216000E00120A84201DD471B6C
:1006C00000E00027A1697A1902EB0900081AA0616D
:1006D0002078C00602D42046FFF7F6FD002608E089
:1006E000D4E901211AF806009047206A401C761CC4
:1006F00020624E45F4DB2078C0060AD52046FFF77D
:10070000E3FD06E0D4E9012130209047206A401C37
:100710002062381EA7F10107F4DC07E0D4E90121CB
:1007200018F805009047206A401C2062281EA5F199
:100730000105F3DC2046FFF7DDFD2078000602D539
:100740000220BDE8F0870120FBE770472DE9FF4F4D
:100750000C461E464FF0FF378BB0D2E90001DDF8A2
:1007600060800A908A46C1F30A5505B93D460021CA
:1007700008464FF00000BAF1000F00F4400005DA1F
:1007800000EB80004FF4400101EA50004FEA90591D
:10079000B9F1010F00DDB9460A9850EA4A000ED0BF
:1007A00044F61050A5F2FF3545432F14B8F1000F61
:1007B0001ED07542291E1EDDC9F100021CE0B8F1F1
:1007C000010F4FF0000001D0302103E0F24305E0BB
:1007D0002154401CB042FBDB304600220021215452
:1007E0000B99C1F80880C1E900200FB0BDE8F08F77
:1007F000BD1B6D1CDEE74A4600DA694206A800F020
:1008000083FA06AB93E8070003AB83E80700504682
:100810000A9900F021FB8DE80700A0F500501F3871
:1008200000900398002D0ADD42F21F014A46084459
:10083000002303A90390684600F08AFD09E0A0F5B3
:1008400000504A461F38002303A90390684600F071
:1008500094FD8DE807000004000C03D04FF0FF303A
:10086000410800E01046B8F1000F03D000220092CA
:1008700015461EE0751E05D400F0C0F930326255F1
:100880006D1EF9D5B3460122084302D000227F1C19
:1008900004E02078302801D100227F1E002A099729
:1008A00084D01DE0112D07DA00F0A8F9303262552E
:1008B0006D1C50EA0102F5D1084302D00098C8B17E
:1008C0000EE00021681E05E0235C625C6354225444
:1008D000401E491C8142F7DBAB46A81B401E099015
:1008E000002004F80B000B98099AC0F80880C0E9B2
:1008F000002B7AE711264FF0000857E72DE9F04F5B
:1009000088460446D21D22F0070191B0D1E90001CA
:10091000CDE90A0102F018FF02460B98C00F01D082
:100920002D2007E02068810701D52B2002E020213F
:1009300001EAC000032A099001D0072A05DB03461B
:100940004146204600F0A0F90BE12078800601D551
:10095000E06900E00620B8F1650F814606D0B8F1E5
:10096000660F18D0B8F1670F70D131E00020B9F1EF
:10097000110F009001DB112301E009F101030AAA24
:1009800001A90CA8FFF7E2FEDDE90C70002609F1D1
:100990000105834647E001204B4600904FF0004799
:1009A0000AAA01A90CA8FFF7D1FEDDE90DB00C9948
:1009B0005D46002610B909F101000D18B9EB0500DC
:1009C00003D4C0F1FF3609F10105A5EB09002BE0C6
:1009D000B9F1010F01DA4FF001090020B9F1110F4F
:1009E0000090484601DD112300E003460AAA01A950
:1009F0000CA8FFF7ABFEDDE90C704D4600268346E0
:100A0000207800070AD4AB4500DA5D4601A8012D25
:100A100004DD411911F8011C302907D04F4502DAD5
:100A200017F1040F04DA012082460FE06D1EEEE795
:100A3000002F02DCED1B3E4403E0781CA84200DDE1
:100A40007D1CB81B00F1010A4FF000472078000719
:100A500003D4AA4501DB4FF0FF3A0021B7F1004F64
:100A60000DF143088DF8431024D002202B23002FD2
:100A700001DA7F422D230A21021EA0F1010000DCD1
:100A80005FB197FBF1FC97FBF1F201FB1C7C174671
:100A90000CF1300C08F801CDEEE7A8F1010003706D
:100AA0002188090501D5452100E06521A0F1010853
:100AB00000F8011C09980FA9A1EB0807FF1D00B160
:100AC0000120411901EBEA70A1693844081A401E5F
:100AD000A0612078C00602D42046FFF7F5FB0998F4
:100AE00028B1D4E901219047206A401C2062207877
:100AF000C00622D52046FFF7E7FB1EE0002E04DBF0
:100B0000B34502DD01A8805D00E03020D4E9012179
:100B10009047206A401C2062761CAAF101005FEA1F
:100B2000000A0AD100F066F8C0680168405CD4E9A8
:100B300001219047206A401C2062281EA5F1010572
:100B4000DCDC07E0D4E9012118F8010B9047206AAA
:100B5000401C2062381EA7F10107F3DC2046FFF796
:100B6000C9FB032011B041E601694A1C0261087803
:100B7000704700B58FB0CDE90131002105910549DD
:100B80007944CDE9031011466846FFF755FC0FB0D4
:100B900000BD0000E5FFFFFF0A6802F8010B0A60D4
:100BA000704710B5436913B1AFF3008001E0FFF760
:100BB000B2FB012010BD127800F124010A7000225E
:100BC0004A700122EDE711684FF0FF32E9E70000BB
:100BD000074B70B50D467B44FFF7CBFF0446284614
:100BE00000F004F910B14FF0FF3070BD204670BD29
:100BF0004B32000000487047BC26002030B5B0F1F1
:100C00000A024FEA900E71F100034EEA817EB0EBCA
:100C10000E0061EB91014FEA101E4EEA017E10EBCF
:100C20000E0041EB11114FEA102E4EEA016E10EB4F
:100C30000E0041EB11214FEA104E4EEA014E10EB2F
:100C40000E0041EB1141401841F100014FEAD00084
:100C500040EA41704FEAD10110EB80054FEA810470
:100C600044EA907444EB01046D1944EB0404521BF4
:100C7000A3414FF0000348BF0A3200D530BD401CED
:100C800041F1000130BD00002DE9F0411F4604464E
:100C900003260168072A01F4006004DB08B116A5E9
:100CA00005E016A503E008B115A500E015A521F0A3
:100CB00010002060A069C01EA0610FB1401EA0619D
:100CC0002046FFF701FB4FB1D4E901213846904798
:100CD000206A401C2062C01C206206E0206AFAE7FD
:100CE000D4E9012115F8010B9047761EF8D2204671
:100CF000FFF700FBBDE8F0814E414E006E616E00D3
:100D0000494E4600696E66002DE9F0478146164659
:100D10008AB0354878440DC88DE80D0032487844D3
:100D2000801C03AC0DC884E80D0041F69B300844DC
:100D3000372190FBF1F290FBF1F5A5F1800501FB65
:100D400012041B3C02D56442012000E00020DFF8C1
:100D500098A080460027FA44AAF1BE0A0EE0E007F8
:100D60000AD03246684607EB470101230AEB8101AE
:100D700000F003FB8DE8070064107F1C002CEED10F
:100D8000194F7F44AE3F19E0E80715D007EB041078
:100D90000DF1180A90E80E008AE80E00C068F042D3
:100DA00001D1981908903246012306A903A800F042
:100DB000E4FA03AB83E807006D10641C002DE3D157
:100DC0004FF0010332466946B8F1000F03A802D084
:100DD00000F0BEFA01E000F0D0FAC9E90001C9F85C
:100DE00008200AB0BDE8F08730D90000007B00F091
:100DF00080007047004870479C2600207546FFF72A
:100E0000F9FFAE4605006946534620F007008546C7
:100E100018B020B5FFF724FABDE820404FF00006D7
:100E20004FF000074FF000084FF0000B21F00701D2
:100E3000AC46ACE8C009ACE8C009ACE8C009ACE815
:100E4000C0098D46704710B50446AFF300802046B8
:100E5000BDE81040FFF7EFB95FEA400C08BF91F022
:100E6000000F4FEA8C234FEAC12243EA51514FEA67
:100E70001C5018BF00F5F0404FEA300018BF41F099
:100E800000415FEA6C5C00F02980BCF1FF3F08BFC5
:100E900040F080407047130C06BF12044FF0100C56
:100EA0004FF0000C130E04BF12020CF1080C130FCC
:100EB00004BF12010CF1040C930F04BF92000CF15B
:100EC000020CD30F04BF52000CF1010C11464FF07D
:100ED0000002A0F11F00A0EB0C00704711F0004FC2
:100EE00008BF704731F000413FF4D5AF0B0C06BF8F
:100EF00009044FF0100C4FF0000C0B0E04BF090258
:100F00000CF1080C0B0F04BF09010CF1040C8B0F42
:100F100004BF89000CF1020CCB0F04BF49000CF197
:100F2000010CCCF12003A0EB0C0022FA03F302FA2F
:100F30000CF241EA030100F10100704720F07F4C00
:100F400080EA030023F07F47ACEB070303F57C53F3
:100F500000F0004003F1FF032DE980494FEA154BF3
:100F600009B44FEA144325EA0B4E24EA03480FF272
:100F7000042606EB132749083E785FEA320203FB9A
:100F80000667C7F5000707FB06F64FEA54374FEA36
:100F9000D64606F1020607FB066CCCF1005C4FEA70
:100FA0001C472CEA074C07FB06F40CFB06F504EB88
:100FB00015464FEA961634BF00204FF000404FEA26
:100FC000D13706FB07FC4FEA1C4C0CFB0BF7D21B7E
:100FD00003FB0CF761EB07010CFB0EF7B0EB0740CE
:100FE00072EB17420CFB08F734BFA2EB0742B2EBDF
:100FF000074261EB17414FEA0C444FEA910706FBA9
:1010000007FC4FEA1C4C0CFB0BF7B0EBC74072EB34
:10101000573203FB0CF734BFA2EBC742B2EBC74217
:1010200061EB57310CFB0EF7B0EBC70072EB577258
:101030000CFB08F734BFA2EBC702B2EBC70261EBAF
:101040005771039F4FEA816141EA921104EBCC048E
:101050004FEAD1374FEA826206FB07FC42EA901260
:101060004FEA80604FEA1C4C0CFB0BF7D21B03FBD2
:101070000CF761EB07010CFB0EF7B0EB074072EBCE
:1010800017420CFB08F734BFA2EB0742B2EB074252
:1010900061EB17414FEA8C554FEA910704EB9C2412
:1010A00006FB07FC4FEA1C4C0CFB0BF7B0EBC740F0
:1010B00072EB573203FB0CF734BFA2EBC742B2EB23
:1010C000C74261EB57310CFB0EF7B0EBC70072EB78
:1010D00057720CFB08F734BFA2EBC702B2EBC70292
:1010E00061EB577115EB4C254FEA816141EA921192
:1010F0004FEA82624FEAD13742EA901206FB07FCC0
:1011000044F100044FEA80604FEA1C4C0CFB0BF7E3
:10111000D21B03FB0CF761EB07010CFB0EF7B0EBE6
:10112000074072EB17420CFB08F734BFA2EB0742F3
:10113000B2EB074261EB174115EB1C154FEA813109
:1011400041EA92414FEA823242EA90424FEA8030CD
:101150004FEA0C7644F1000448EA03434EEA0B4898
:101160004FF0000EB2EB080C71EB030724BF624690
:1011700039464EEB0E0E4FF0000B0018524149411C
:101180004BEB0B0BB2EB080C71EB03077BF1000B85
:1011900024BF624639464EEB0E0E4FF0000B00188E
:1011A000524149414BEB0B0BB2EB080C71EB0307BF
:1011B0007BF1000B24BF624639464EEB0E0E51EA1E
:1011C000020718BF46F0010616EB0E7655F1000235
:1011D00054F1000103D5BDE88901BDE80088BDE8F0
:1011E0008901BDE80048B619524141EB0101A3F164
:1011F0000103704780807F7E7D7C7B7A797877766B
:1012000076757473727171706F6E6E6D6C6C6B6AE3
:101210006A69686867666665646463636261616081
:10122000605F5F5E5E5D5D5C5C5B5B5A5A595958FE
:101230005857575656555555545453535252525168
:10124000515050504F4F4F4E4E4D4D4D4C4C4C4BBE
:101250004B4B4A4A4A494949484848474747474605
:101260004646454545444444444343434342424241
:1012700042414141002B9C4630D477002BD01CB515
:101280004FEA370703B44FF010004FF01001BAF1E6
:10129000000F06D0BCF1000FDCBF40F0080040F0AA
:1012A00008014FF000000FBCBDE810400BF1010B2E
:1012B000BBF1010F08BF5FEA170722BF12F101025D
:1012C00011F101014FF0004143F1000300F0004033
:1012D00043EA00007047F9D35708D0E746EA0646CC
:1012E00013F1400F4FEA16461FDD13F1200FDFBF49
:1012F00016430A46002120335B42BED0C3F12007CB
:1013000046EA064602FA07F74FEA164646EA070695
:10131000C3F1200722FA03F201FA07F721FA03F1D9
:101320004FF0000342EA0702A7E746EA020646EA50
:1013300006464FEA164646EA0106BCBF46EA06469E
:10134000360C4FF000034FF000024FF0000194E71D
:101350002DE9804C9A46934670B491E8380007C84E
:1013600031EA400C48BF34EA430C03D5FFF7E6FDF1
:10137000FFF780FFF0BCBDE8008C2DE9804C9A4659
:10138000934670B491E8380007C810F0804F08BF4A
:1013900013F0804F03D100F005F8FFF76BFFF0BCAE
:1013A000BDE8008C20F07F4780EA030023F07F4CEB
:1013B00007EB0C03A3F57C5300F00040A3F1FE0300
:1013C00092F0000F00F0B38095F0000F00F07780EE
:1013D0002DE901494FEA11404FEA144621EA00483D
:1013E00000FB06FC24EA064708FB06F607FB08F8A4
:1013F00000FB07F718EB06484CEB164C4FEA124B74
:1014000018EB07484FEA15464CEB174022EA0B4E03
:101410000BFB06FC25EA06470EFB06F607FB0EFE55
:101420000BFB07F71EEB064E4CEB164C4FF000067D
:101430001EEB074E4CEB174B18EB0B0840F100006E
:1014400018EB0E0B58EB000840F100008F1A4FF01C
:1014500000013CBFC943661B14BFB5EB040C00215F
:101460003CBFC943F61B4FEA17444EEA8E0E27EAEB
:1014700004454FEA1C4704FB07622CEA074C05FBB6
:1014800007F70CFB05F604FB0CFC16EB074642EBDA
:10149000174216EB0C4642EB1C421BEB060658EBC0
:1014A0000202414146EA9E0601D5BDE80189B6190E
:1014B000524141EB0101A3F10103BDE801894FEA6B
:1014C00014454FEA114724EA054621EA074C05FB7B
:1014D00007F406FB07F70CFB06F105FB0CFC11EB10
:1014E000074144EB17444FEA124711EB0C4144EB20
:1014F0001C4422EA074C05FB07F206FB07F70CFB2E
:1015000006F605FB0CFC16EB074642EB174216EB02
:101510000C4642EB1C456A1854F1000148BF704765
:10152000B619524141EB0101A3F10103704795F057
:10153000000F37D04FEA11424FEA144721EA024622
:1015400024EA074C02FB07F106FB07F70CFB06F445
:1015500002FB0CFC14EB074441EB17414FEA154723
:1015600014EB0C4441EB1C4125EA074C02FB07F548
:1015700006FB07F70CFB06F602FB0CFC16EB074616
:1015800045EB174516EB0C4645EB1C42121951F181
:10159000000148BF7047B619524141EB0101A3F168
:1015A000010370474FEA14454FEA114724EA054604
:1015B00021EA074C05FB07F106FB07F70CFB06F2D7
:1015C0004FF0000605FB0CFC12EB074241EB174104
:1015D00012EB0C4251EB1C4148BF7047921841EB93
:1015E0000101A3F10103704700BFFEE7074800684F
:1015F00000F0020040B1012005490870034840682E
:1016000040F00200014948607047000000000240BD
:1016100036000020704710B5012000F06DF910BDB4
:1016200070B50446B3F5804F13D1D1E9000540EA07
:1016300005108D6840EA05208D6928438D8940EAB0
:10164000054054F82250064E3540284344F8220005
:1016500003E06FF0704044F82200002070BD0000ED
:101660000000F0CF70B50246086852F8200020F064
:1016700001000E6842F826008868082801D140233E
:1016800000E00023486818438E683043CE6830433A
:101690000E6930434E693043CE6930430E6A3043A1
:1016A0004E6A30438E6A3043CE6A30430E6B40EA56
:1016B000060488690443486B0443074D45F480657C
:1016C00045F4E025086852F82000A84320430E683E
:1016D00042F82600002070BD7FFB080010B50346CD
:1016E000D1E9000440EA04108C6840EA04208C89A7
:1016F00040EA0444088A401E44EA0054087D801EE3
:1017000044EA00608C692043541C53F8244004F0E0
:1017100040442043541C43F82400002010BD38B539
:101720000446002000902068009029B902F10800CA
:10173000009D2844009004E002F11400009D28441C
:10174000009000980360002038BD000070B504468A
:10175000002594F82100022803D00420A06301256D
:10176000C1E02068006820F00E0021680860206851
:10177000006820F00100216808605C492068884208
:1017800052D95A4978392068884201D1012047E06E
:10179000564964392068884201D1102040E05349FD
:1017A00050392068884201D1801539E04F493C39D1
:1017B0002068884201D1801432E04C4928392068E1
:1017C000884202D14FF480302AE048491439206819
:1017D000884202D14FF4801022E0444920688842B8
:1017E00001D140041CE042492068884201D1012017
:1017F00016E03F4914312068884201D110200FE0E3
:101800003B4928312068884201D1801508E03849D9
:101810003C312068884201D1801401E04FF48030CF
:101820003349091F086051E03049783920688842FF
:1018300001D1012047E02D4964392068884201D157
:10184000102040E0294950392068884201D1801594
:1018500039E026493C392068884201D1801432E0C1
:10186000224928392068884202D14FF480302AE08A
:101870001E4914392068884202D14FF4801022E0BA
:101880001A492068884201D140041CE018492068A8
:10189000884201D1012016E01549143120688842A0
:1018A00001D110200FE0124928312068884201D16F
:1018B000801508E00E493C312068884201D180142F
:1018C00001E04FF48030094980394860012084F8F4
:1018D000210000BF002084F8200000BF606B10B121
:1018E0002046616B8847284670BD0000800002409A
:1018F000080402407047000010B504460448006820
:10190000204020B1024804602046FFF7F3FF10BDDD
:10191000140401402DE9F847024600239C467BE170
:101920004FF0010808FA03F4D1F8008008EA040037
:10193000A0427DD1DFF8F4A2D1F80480A8EB0A0917
:10194000D0453AD014DCB8F1030F50D009DCB8F11F
:10195000000F31D0B8F1010F1CD0B8F1020F49D1FE
:1019600020E0B8F1110F18D0B8F1120F42D11EE0EB
:10197000B9F5881F25D006DCB9F5803F20D0B9F530
:10198000801F37D11AE0B9F5001F18D0B9F5041F30
:1019900030D117E0D1F80CC02DE0D1F80C8008F15F
:1019A000040C28E0D1F80C8008F1080C23E0D1F8F1
:1019B0000C8008F10C0C1EE000BF00BF00BF00BF90
:1019C00000BF00BFD1F80880B8F1000F02D14FF07E
:1019D000040C0BE0D1F80880B8F1010F03D14FF0EF
:1019E000080C146102E04FF0080C546103E04FF062
:1019F000000C00E000BF00BFFF2801D8904601E0C6
:101A000002F104084646FF2802D84FEA830803E0A3
:101A1000A3F108084FEA88084746D6F800804FF03F
:101A20000F0909FA07F928EA09080CFA07F900E092
:101A30007AE048EA0908C6F80080D1F8048008F086
:101A40008058B8F1805F6FD100BFDFF8E481D8F82B
:101A5000188048F00108DFF8D891C9F81880C84606
:101A6000D8F8188008F00108CDF8008000BF00BF4A
:101A70004FEAB9384FEA930958F829504FEA83786A
:101A80004FEA18794FF00F0808FA09F825EA080517
:101A9000DFF8A081424502D14FF0000824E0DFF8D2
:101AA0009881424502D14FF001081DE0DFF88C819A
:101AB000424502D14FF0020816E0DFF8848142452A
:101AC00002D14FF003080FE0DFF87881424502D1E0
:101AD0004FF0040808E0DFF87081424502D14FF072
:101AE000050801E04FF006084FEA83794FEA1979BB
:101AF00008FA09F848EA0505DFF850814FEA93092A
:101B000048F82950D1F8048008F48038B8F5803FAF
:101B10000BD1DFF83C81D8F8008048EA0008DFF8F4
:101B20003091C9F800800AE075E0DFF82481D8F828
:101B3000008028EA0008DFF81891C9F80080D1F881
:101B4000048008F40038B8F5003F0ED1DFF80081BA
:101B500008F10408D8F8008048EA0008DFF8F0909F
:101B600009F10409C9F800800DE0DFF8E48008F10C
:101B70000408D8F8008028EA0008DFF8D49009F1BA
:101B80000409C9F80080D1F8048008F48018B8F579
:101B9000801F0ED1DFF8B88008F10808D8F800805F
:101BA00048EA0008DFF8A89009F10809C9F80080A0
:101BB0000DE0DFF89C8008F10808D8F8008028EADA
:101BC0000008DFF88C9009F10809C9F80080D1F805
:101BD000048008F40018B8F5001F0ED1DFF87080FB
:101BE00008F10C08D8F8008048EA0008DFF8609097
:101BF00009F10C09C9F800800DE0DFF8548008F104
:101C00000C08D8F8008028EA0008DFF8449009F1B1
:101C10000C09C9F800805B1CD1F8008028FA03F891
:101C2000B8F1000F7FF47CAEBDE8F887000011101A
:101C30000010024000080140000C0140001001406B
:101C40000014014000180140001C01400800014040
:101C500000040140024693680B400BB1012000E0F4
:101C60000020704710B5C26821EA020302EA0104AD
:101C700043EA0443036110BD0AB1016101E00B04B2
:101C800003617047014800687047000010000020A1
:101C9000034800680349097808440149086070470F
:101CA000100000201800002010B50848006840F01F
:101CB000100006490860052000F080F80F2000F0B1
:101CC00007F800F02BF8002010BD000000200240B3
:101CD00070B504460E4800784FF47A71B1FBF0F00D
:101CE0000C490968B1FBF0F5284600F0DBFE08B1AD
:101CF000012070BD102C07D200222146501E00F09A
:101D00001EF80548046001E00120F2E70020F0E73A
:101D10001800002000000020140000207047014639
:101D20000846002809DB00F01F0301229A404309FE
:101D30009B0003F1E023C3F8002100BF70472DE9A9
:101D4000F05F80460D461646002701F011FD07465C
:101D500039462A46334601F00700C0F1070ABAF1B6
:101D6000040F02D94FF0040A01E0C0F1070AD1467E
:101D700000F1040ABAF1070F02D24FF0000A01E0A5
:101D8000A0F1030AD4464FF0010A0AFA09FAAAF1AF
:101D9000010A0AEA020A0AFA0CFA4FF0010B0BFADE
:101DA0000CFBABF1010B0BEA030B4AEA0B042146D7
:101DB000404601F0E5FCBDE8F09F000000BF00F0E8
:101DC0000702064B19684FF6FF031940044B0B43FB
:101DD00043EA0221014B196000BF70470CED00E09F
:101DE0000000FA05012001490862704700000E4218
:101DF00010B50E48406800F00400042809D10CA07A
:101E0000FEF742FA00BF012291030E48FFF734FFAC
:101E10000AE00DA0FEF738FA00BF00224FF480411F
:101E20000848FFF729FF00BF10BD00000070004008
:101E3000505644204C6F7720566F6C746167652153
:101E4000000000000014014050564420566F6C748E
:101E5000616765204F4B210010B50648006800F40B
:101E6000803028B1FFF7C4FF4FF48030014908608B
:101E700010BD0000140401402DE9F04385B0064672
:101E800042A30FCB01AC0FC444A0006800904FF0F8
:101E90000008002500270024A146042E36D004DCCB
:101EA000012E3BD0022E6BD15FE0082E32D0102ED7
:101EB00066D13B484468006800F0807000B301A818
:101EC000C4F38341475C04F4803070B13448406807
:101ED000C0F340401DF8008004F4803040B1314828
:101EE000B0FBF8F000FB07F502E02F4807FB00F518
:101EF0002B48406800F48000B0F5800F01D1A9465E
:101F000003E068000321B0FBF1F93AE000F0D2F9F8
:101F1000814636E000F0CEF9814632E02048046A7E
:101F200004F44070B0F5807F05D104F0020010B1D8
:101F30004FF4004918E004F44070B0F5007F07D179
:101F40001748406A00F0020010B149F640490BE022
:101F500004F44070B0F5407F06D11148006800F4E9
:101F6000003008B14FF224490BE000F093F90C491E
:101F70004968C1F38131491C4900B0FBF1F900E027
:101F800000BF00BF484605B0BDE8F083020304056A
:101F9000060708090A0B0C0D0E0F101001020000B5
:101FA0000010024000127A0000093D00F8B5044616
:101FB00000260025207800F0010000286BD00027C3
:101FC0004348C06900F0805070B900BF4048C06904
:101FD00040F080503E49C8610846C06900F080501A
:101FE000009000BF00BF01273A48006800F48070ED
:101FF000B0B93848006840F4807036490860FFF78F
:1020000041FE064606E0FFF73DFE801B642801D92D
:102010000320F8BD2F48006800F480700028F2D03B
:102020002B48006A00F440752DB3A08800F440707E
:10203000A84220D02648006A20F440750120264995
:102040000860002008602248056205F0010090B198
:10205000FFF718FE064608E0FFF714FE801B41F26A
:102060008831884201D90320D3E71948006A00F07B
:1020700002000028F0D01648006A20F44070616821
:10208000084313490862012F04D10846C06920F0B3
:102090008050C86100BF207800F00200022807D1FC
:1020A0000B48406820F44040A16808430849486054
:1020B000207800F01000102807D10548406820F46F
:1020C000800061690843024948600020A1E70000E0
:1020D00000100240007000404004424270B50446C7
:1020E0000D460CB9012070BD5A48006800F0070089
:1020F000A8420ED25748006820F0070028435549EF
:1021000008600846006800F00700A84201D00120DE
:10211000E9E7207800F0020002281DD1207800F0C5
:102120000400042805D14C48406840F4E0604A4966
:102130004860207800F00800082805D1464840682B
:1021400040F46050444948604348406820F0F00043
:10215000A168084340494860207800F0010078B346
:102160006068012806D13C48006800F4003090B94E
:102170000120B8E76068022806D13748006800F0FF
:10218000007040B90120AEE73348006800F002005B
:1021900008B90120A7E73048406820F003006168D3
:1021A00008432D494860FFF76DFD064609E0FFF73B
:1021B00069FD801B41F28831884202D9032092E7F1
:1021C00007E02548406800F00C006168B0EB810F23
:1021D000EDD12048006800F00700A8420ED91D4844
:1021E000006820F0070028431A4908600846006884
:1021F00000F00700A84201D0012074E7207800F029
:102200000400042807D11448406820F4E060E16825
:10221000084311494860207800F00800082808D1D8
:102220000D48406820F46050216940EAC1000A4925
:10223000486000F03FF808494968C1F30311074AB4
:10224000515CC8400649086006480068FFF740FD39
:10225000002048E70020024000100240C2B50008FC
:1022600000000020140000200148006870470000B2
:102270000000002000B5FFF7F7FF04494968C1F3EB
:102280000221034A515CC84000BD0000001002401A
:10229000D2B5000800B5FFF7E7FF04494968C1F36C
:1022A000C221034A515CC84000BD0000001002403A
:1022B000D2B50008F0B585B00FF26C0C9CE8E010C8
:1022C00001A8A0E8E0101CA52D68009500210022BF
:1022D000002300240020194D696801F00C05F5B1B8
:1022E000042D02D0082D19D101E0154819E001ADE7
:1022F000C1F38346AC5D01F4803555B10F4D6D6877
:10230000C5F340451DF805200D4D6543B5FBF2F3BF
:1023100002E00C4D04FB05F3184602E000BF08483C
:1023200000BF00BF05B0F0BD0203040506070809A1
:102330000A0B0C0D0E0F10100102000000100240DD
:1023400000127A0000093D00F8B504460CB90120DE
:10235000F8BD207800F00100002878D0F8484068E7
:1023600000F00C0004280CD0F548406800F00C0088
:10237000082811D1F248406800F48030B0F5803F61
:102380000AD1EF48006800F4003000285FD0606890
:1023900000285CD10120DBE700BF6068B0F5803F1A
:1023A00006D1E748006840F48030E549086028E03D
:1023B000606858B9E248006820F48030E04908605D
:1023C0000846006820F4802008601AE06068B0F5D4
:1023D000A02F0BD1DA48006840F48020D84908606B
:1023E0000846006840F4803008600AE0D44800687D
:1023F00020F48030D24908600846006820F480202C
:10240000086000BF606888B1FFF73CFC054606E045
:10241000FFF738FC401B642801D9032098E7C8481F
:10242000006800F400300028F2D010E0FFF72AFC2A
:10243000054606E0FFF726FC401B642801D903206F
:1024400086E7BF48006800F400300028F2D1207809
:1024500000F00200022857D1B948406800F00C0093
:1024600050B1B748406800F00C00082818D1B448B3
:10247000406800F4803098B9B148006800F002006C
:1024800020B12069012801D0012061E7AC48006833
:1024900020F0F800616940EAC100A949086033E012
:1024A0002069E8B10120A7490860FFF7EBFB05466A
:1024B00006E0FFF7E7FB401B022801D9032047E7AE
:1024C0009F48006800F002000028F2D09C48006895
:1024D00020F0F800616940EAC1009949086013E002
:1024E000002098490860FFF7CDFB054606E0FFF79E
:1024F000C9FB401B022801D9032029E79048006846
:1025000000F002000028F2D1207800F0080008282E
:102510002DD1A069B8B101208B490860FFF7B2FB4B
:10252000054606E0FFF7AEFB401B022801D9032059
:102530000EE78348406A00F002000028F2D0012034
:1025400000F088FE13E000207F490860FFF79AFB47
:10255000054606E0FFF796FB401B022801D9032041
:10256000F6E67748406A00F002000028F2D12078B1
:1025700000F00400042873D100277148C06900F0FE
:10258000805070B900BF6E48C06940F080506C49FF
:10259000C8610846C06900F08050009000BF00BFCD
:1025A00001276A48006800F48070B0B96748006885
:1025B00040F4807065490860FFF764FB054606E05B
:1025C000FFF760FB401B642801D90320C0E65F4889
:1025D000006800F480700028F2D000BFE068012895
:1025E00006D15748006A40F001005549086227E0CB
:1025F000E06858B95248006A20F00100504908626A
:102600000846006A20F00400086219E0E068052826
:102610000BD14B48006A40F0040049490862084663
:10262000006A40F0010008620AE04548006A20F0B4
:102630000100434908620846006A20F0040008626D
:1026400000BFE068A0B1FFF71DFB054609E0FFF7FA
:1026500019FB401B41F28831884202D9032077E6FA
:1026600022E03748006A00F002000028EFD012E0B4
:10267000FFF708FB054608E0FFF704FB401B41F2AB
:102680008831884201D9032062E62D48006A00F0B3
:1026900002000028F0D1012F05D12948C06920F09F
:1026A00080502749C86100BFE069C8B3244840682A
:1026B00000F00C00082860D0E069022848D1002012
:1026C00020490866FFF7DEFA054606E0FFF7DAFA6A
:1026D000401B022801D903203AE61948006800F09F
:1026E00000700028F2D1206AB0F5803F07D114486D
:1026F000406820F40030A168084311494860D4E9DB
:10270000080108430E49496821F4741108430C4933
:10271000486001200B490866FFF7B4FA054607E058
:102720003DE0FFF7AFFA401B022801D903200FE676
:102730000348006800F000700028F2D02FE000008D
:1027400000100240000042428004424200700040FB
:10275000002014490866FFF795FA054606E0FFF7E2
:1027600091FA401B022801D90320F1E50E480068C8
:1027700000F000700028F2D111E0E069012800D1DA
:10278000E6E50948466806F48031206A814204D1B2
:1027900006F47011606A814201D00120D8E5002062
:1027A000D6E50000000042420010024010B503468A
:1027B00000220020024A02EB81021468A0B210BD80
:1027C000006C004010B503460020034800EB810078
:1027D00094B2046010BD0000006C004070B5044667
:1027E00000250CB9012070BD607C20B90020207448
:1027F000204600F05BF802206074204600F0A2F84A
:1028000018B1042060740120EDE7204600F036FD89
:1028100018B1042060740120E5E72068406820F0CA
:10282000070021684860A06828B11F48006820F0B0
:1028300001001D4908601C48001F006820F46070FA
:10284000A16808431849091F08606068401C08B166
:10285000656809E00120FFF70FFB05461DB904205C
:1028600060740120BFE76D1E2068806820F00F00B3
:1028700040EA1540216888602068C06865F30F0051
:102880002168C860204600F016FD18B1042060746D
:102890000120A8E70021E17301216173A1730120E8
:1028A000607400209FE70000306C004030B591B0AC
:1028B0000546C8240120214908602148006A40F0EB
:1028C00001001F49086204E0601E84B2052001F087
:1028D00067FA2CB11A48006A00F002000028F3D011
:1028E000ACB90820079001200A9000200E9007A89C
:1028F000FFF72AFD012001904002029001A8FFF796
:1029000055FB45F25101002006F05AF914E004206D
:10291000079001200A9000200E9007A8FFF714FDF1
:10292000012001900002029001A8FFF73FFB45F251
:102930005001002006F044F911B030BD3C04424281
:102940000010024070B5044600250CB9012070BD8E
:102950002068406820F0080021684860FFF792F97D
:10296000054607E0FFF78EF9401BB0F57A7F01D9E5
:102970000320ECE72068406800F008000028F1D050
:102980000020E4E770B504460E4615461CB1A06968
:10299000B0F5807F01D1012070BD94F8410028B9C5
:1029A000002084F84000204600F020F804F10801DF
:1029B0002068FEF757FE3146A2682068FEF78EFEBB
:1029C0002946236BD4E90102FEF72AFEA16820689C
:1029D00050F8210040F00100A268216841F822006F
:1029E000012084F841000020D6E7000010B586B031
:1029F000044600BF1E48406940F480701C4948618D
:102A00000846406900F48070019000BF00BF00BF1D
:102A10000846806940F0200088610846806900F01F
:102A20002000019000BF00BF00BF0846806940F051
:102A3000400088610846806900F04000019000BFB6
:102A400000BF4CF20370029002200390012004901A
:102A50000320059002A90748FEF75CFF4FF680703F
:102A6000029002A90448FEF755FF06B010BD000011
:102A7000001002400014014000180140042808D151
:102A80004FF0E021096941F004014FF0E0221161AB
:102A900007E04FF0E021096921F004014FF0E02246
:102AA0001161704770B504462546681EB0F1807FFD
:102AB00001D301200FE0681E4FF0E02148610F2193
:102AC0004FF0FF3000F05CFE00204FF0E021886105
:102AD00007200861002070BD7047704710B504469C
:102AE0000CB9012010BD94F83D0028B9002084F8ED
:102AF0003C00204600F025F8022084F83D00211D0E
:102B0000206800F08FFC012084F8460000BF84F8A4
:102B10003E0001213F200155402001554120015533
:102B200000BF00BF012084F842004320015544202B
:102B300001554520015500BF012084F83D000020CB
:102B4000D0E77047014691F83D00012801D00120EF
:102B50007047022081F83D000868C06840F001001D
:102B60000B68D860164B0868984213D0154B08685C
:102B700098420FD00868B0F1804F0BD0124B086814
:102B8000984207D0114B0868984203D0104B086850
:102B900098420CD10868806800F00702062A0CD021
:102BA0000868006840F001000B68186005E00868DC
:102BB000006840F001000B6818600020C8E70000C2
:102BC000002C014000340140000400400008004097
:102BD000000C004010B504460D492068884216D10B
:102BE0000C48007898B9207F012810D104210A48A8
:102BF00000F022F9801C094908800021064800F0F5
:102C00001BF9801C0649088001200249087010BD8C
:102C1000003401401E000020440400202200002057
:102C20002400002010B5044620680069C0F340006D
:102C3000D8B12068C068C0F34000B0B16FF00200A6
:102C400021680861012020772068806900F0030076
:102C500018B12046FFF7BEFF05E0204600F0ADF8B2
:102C6000204600F0ABF80020207720680069C0F310
:102C70008000D8B12068C068C0F38000B0B16FF0A8
:102C8000040021680861022020772068806900F430
:102C9000407018B12046FFF79DFF05E0204600F088
:102CA0008CF8204600F08AF8002020772068006920
:102CB000C0F3C000D8B12068C068C0F3C000B0B194
:102CC0006FF0080021680861042020772068C0693F
:102CD00000F0030018B12046FFF77CFF05E0204616
:102CE00000F06BF8204600F069F80020207720689B
:102CF0000069C0F30010D8B12068C068C0F30010AC
:102D0000B0B16FF0100021680861082020772068BA
:102D1000C06900F4407018B12046FFF75BFF05E082
:102D2000204600F04AF8204600F048F800202077BE
:102D30002068006900F0010058B12068C06800F008
:102D4000010030B16FF0010021680861204600F0F9
:102D500037F820680069C0F3C01058B12068C06817
:102D6000C0F3C01030B16FF08000216808612046C8
:102D7000FFF7B2FE20680069C0F3801058B12068E8
:102D8000C068C0F3801030B16FF040002168086166
:102D9000204600F06AF820680069C0F3401058B17E
:102DA0002068C068C0F3401030B16FF02000216887
:102DB00008612046FFF791FE10BD70477047000084
:102DC000194A016891422DD11849097801F0800112
:102DD00011BB1649097801F04001E9B1134909789E
:102DE00001F03F013F2918D111490968096A21F012
:102DF000A0010F4A126811620D490968096A0C4A5C
:102E0000126811620949097841F08001074A11707E
:102E10004FF6FF71074A118004E004490978491C04
:102E2000024A117070470000000C00401B00002097
:102E3000B40300201C0000200246002031B1042908
:102E400007D0082908D00C290CD108E01368586B6A
:102E500009E01368986B06E01368D86B03E0136809
:102E6000186C00E000BF00BF70477047704700005B
:102E70002DE9F0470446206805682068C668206888
:102E800047694FF00008C14605F00F08B8F1000F80
:102E90000AD105F0200038B106F0200020B120460C
:102EA00000F038FBBDE8F087B8F1000F71D007F0F3
:102EB000010018B906F4907000286AD005F00100EE
:102EC00030B106F4807018B1E06B40F00100E063AF
:102ED00005F0040030B107F0010018B1E06B40F0DC
:102EE0000200E06305F0020030B107F0010018B104
:102EF000E06B40F00400E06305F0080048B106F024
:102F0000200010B907F0010018B1E06B40F0080094
:102F1000E063E06B68B305F0200028B106F0200004
:102F200010B1204600F0F6FA20684069C0F380191D
:102F3000E06B00F0080010B9B9F1000F22D0204674
:102F400000F0C8FA2068406900F04000B0B1206885
:102F5000406920F0400021684861606B50B118481A
:102F6000616B4863606BFEF7F1FB10B1606B416B06
:102F700088470CE02046FFF779FF08E02046FFF77E
:102F800075FF04E02046FFF771FF0020E06389E74A
:102F9000FFE705F0800030B106F0800018B1204650
:102FA00000F086FB7EE705F0400030B106F04000FF
:102FB00018B1204600F09EFA74E700BF72E70000E7
:102FC000C134000810B504460CB9012010BDA06939
:102FD00000B100E000BF94F8390028B9002084F85F
:102FE0003800204600F028F8242084F839002068B2
:102FF000C06820F400502168C860204600F0DAFA6A
:103000002068006920F490402168086120684069C8
:1030100020F02A00216848612068C06840F4005010
:103020002168C8600020E063202084F8390084F81B
:103030003A000020CAE7000010B586B004462849CF
:10304000206888424AD100BF00BF2648806940F00E
:103050000400244988610846806900F0040001905A
:1030600000BF00BF00BF00BF00BF0846806940F03E
:10307000040088610846806900F00400019000BFE8
:1030800000BF00BF00BF00BF0846806940F4804019
:1030900088610846806900F48040019000BF00BF4D
:1030A00000BF4815029002200390012004900320E5
:1030B000059002A90C48FEF72DFC4FF480600290A9
:1030C0000020039002A90848FEF724FC2520FEF703
:1030D00026FE032211462520FEF731FE06B010BD64
:1030E00000380140001002400008014010B50346BE
:1030F00093F83A0020282FD101B10AB9012010BD60
:1031000000BF93F83800012801D10220F7E7012021
:1031100083F8380000BF99629A85DA850020D86369
:10312000222083F83A0000BF002083F8380000BF57
:103130001868C06840F480701C68E06018684069D6
:1031400040F001001C6860611868C06840F0200011
:103150001C68E0600020D2E70220D0E71D4A016829
:10316000914236D11C49098801F4004189BB1A49B2
:10317000098801F4804171B1184909780A2903D0FE
:103180000021154A118024E01349098841F40041C7
:10319000114A11801DE0114909780D2906D10E4907
:1031A000098841F480410C4A118012E00B490978EA
:1031B000094A1288C2F30D02094B9954064909883D
:1031C000491C054A118011460988C72901DD0021E3
:1031D0001180704700380140080000200A000020DC
:1031E000440200207047000010B50446054800F076
:1031F00021F800BF4FF480410348FEF733FD00BFC4
:1032000010BD0000580300200014014010B5044612
:1032100020684068C0F3402058B12068806800F002
:10322000010030B16FF00100216888602046FFF78F
:10323000DBFF10BD01460A68C868106000207047B7
:1032400000BFFEE700BFFEE7704710B5FEF704FEC3
:1032500010BD704708B508490968C9084FF47A726B
:10326000B1FBF2F14143009100BF00BF00994A1E3B
:1032700000920029F9D108BD0000002070B5044675
:103280000025FEF7FFFC054607E0FEF7FBFC401BB0
:10329000B0F57A7F01D9032070BD2068406800F046
:1032A00020000028F1D02068406840F0100021681C
:1032B00048600020F0E770B50446002520684068AB
:1032C00020F0100021684860FEF7DCFC054607E0AE
:1032D000FEF7D8FC401BB0F57A7F01D9032070BD02
:1032E0002068406800F020000028F1D00020F6E7B8
:1032F0000EB51B480068406800F0010030B105F0D1
:103300007FFA6FF0010016490968486014480068A8
:103310004068C0F34000A0B16FF002001049096896
:103320004860104880780F4949780E4A1278CDE9F4
:10333000002102900B48C379827981880AA0FCF7AA
:10334000A3FF6FF0040006490968486000BF044805
:1033500000684068C0F340100028F8D00EBD00009F
:10336000DC050020F0050020416C61726D2054697D
:103370006D653A25642D25642D25642025643A2544
:10338000643A25640A000000704710B5FEF780FC1F
:1033900010BD704708480068006900F0010020B1C6
:1033A00006480078401C054908706FF0010002498A
:1033B0000968086170470000FC0300201A00002023
:1033C00010B50E480068C06800F0010078B10C49E3
:1033D00008698047002009490968486200BF6420E5
:1033E00006490968C86264210448C16000BF6FF0E3
:1033F000010002490968086110BD00005426002040
:103400005001002010B50248FFF70CFC10BD000071
:10341000B403002010B50248FFF704FC10BD000003
:103420004404002010B50268204B98420ED0204B77
:1034300098420BD0B0F1804F08D01E4B984205D077
:103440001D4B984202D01D4B984203D122F07002CE
:103450004B681A43154B98420ED0154B98420BD02F
:10346000B0F1804F08D0134B984205D0124B9842D0
:1034700002D0124B984203D122F44072CB681A4317
:1034800022F080034C6943EA040202608B68C36245
:103490000B688362054B984202D0054B984201D1DC
:1034A0000B6903630123436110BD0000002C014040
:1034B000003401400004004000080040000C0040BF
:1034C00070B505466C6A0020E085E0842046FFF771
:1034D000CDFC70BD0168C96821F490710268D160AB
:1034E0000168496921F0010102685161202180F8D9
:1034F0003A10704710B504462068C06820F04000BC
:103500002168C860202084F839002046FFF76AFE51
:10351000002010BD70B5044694F83A00222847D127
:10352000A068B0F5805F0CD1206950B90025A66A6B
:1035300020684068C0F308003080A06A801CA06248
:1035400015E0A56A0026A068B0F5805F03D0A068EA
:1035500028B9206918B920684068287004E02068FC
:10356000406800F07F002870A06A401CA062E08DD7
:10357000401E80B2E085C8B92068C06820F02000F5
:103580002168C8602068C06820F480702168C86025
:103590002068406920F0010021684861202084F8FB
:1035A0003A002046FFF7DAFD002070BD0020FCE75E
:1035B0000220FAE770B504462168096921F44051F8
:1035C000E2681143226811612269A16811436269AE
:1035D00041EA02052168C96841F20C62914329431E
:1035E0002268D1602168496921F44071A2691143C0
:1035F000226851612D4A2168914202D1FEF74AFEAC
:1036000001E0FEF737FE00EBC00101EB001162683C
:103610009200B1FBF2F100EBC00202EB0012636812
:103620009B00B2FBF3F26423B2FBF3F202EBC203A2
:1036300003EB0212A1EB8201322202EB01116422A0
:10364000B1FBF2F101F0F00100EBC00202EB00125D
:1036500063689B00B2FBF3F26423B2FBF3F201EB6D
:10366000021200EBC00101EB001163689B00B1FB8B
:10367000F3F100EBC00303EB00136668B600B3FB85
:10368000F6F36426B3FBF6F303EBC30606EB031372
:10369000A1EB8301322303EB01116423B1FBF3F1AE
:1036A00001F00F0111442268916070BD00380140A3
:1036B000014691F83900212828D18868B0F5805F4B
:1036C0000BD1086948B90A6A1088C0F308000B6872
:1036D0005860086A801C086205E00B6A581C086282
:1036E00018780B685860C88C401E80B2C88458B9DE
:1036F0000868C06820F080000B68D8600868C0685F
:1037000040F040000B68D860002070470220FCE7C2
:1037100010B50648FFF7ACFB00BF0122044903487F
:10372000FFF7E4FC0028F8D110BD00000C030020D6
:103730000A00002000BFFEE710B50248FFF766FD53
:1037400010BD000058030020490050EAC12018BFF6
:1037500004204A0D18BF40F0010040F2FF72B2EBA6
:10376000515F08BF40F00200012808BF05207047E4
:1037700002480068C0F30220704700000CED00E032
:1037800010B5002804DB0A07130E054A135406E09F
:103790000A07140E034A00F00F031B1FD45410BD78
:1037A00000E400E018ED00E030380A2801D20120E2
:1037B00070470020704700BF704710B500F0A0FFB1
:1037C00010BD70B505460C46164606E028466A1C34
:1037D00095B200F008F804F8010B301EA6F10101C3
:1037E0008EB2F3D170BD70B50446002601F04EF8DC
:1037F0002112A02202EB4101C8B201F00FF801F042
:103800008DF82546E11704EB11610912A4EB0121A3
:10381000C8B201F003F801F081F801F037F8A120F7
:1038200000F0FCFF01F07AF8002000F0C7FF064628
:1038300001F054F8304670BD70B505460C4616468A
:1038400006E02178284600F009F8681C85B2641C5F
:10385000301EA6F101018EB2F3D170BD70B50446E1
:103860000E4601F013F82112A02202EB4101C8B26A
:1038700000F0D4FF01F052F82546E11704EB116186
:103880000912A4EB0121C8B200F0C8FF01F046F80C
:10389000304600F0C3FF01F041F801F01FF80A20A4
:1038A00000F07EFA70BD000010B500BF00224FF49A
:1038B00000711148FEF7E0F900BF00F021F800BFE9
:1038C000012202210D48FEF7D7F900BF00F018F8D9
:1038D00000BF002202210948FEF7CEF900BF00F028
:1038E0000FF800BF012251020348FEF7C5F900BFDF
:1038F00000F006F810BD0000001C0140000C014063
:1039000010B5022000F068FA10BD000000B585B0C7
:1039100000BF00BF1A48806940F00800184988615C
:103920000846806900F00800009000BF00BF00BF9B
:1039300000BF00BF0846806940F0800088610846EB
:10394000806900F08000009000BF00BF00BF02202F
:1039500001900120029003900320049001A90948DE
:10396000FDF7D8FF4FF4007001901120029001A9DB
:103970000548FDF7CFFF00F0BFF805B000BD00001F
:1039800000100240000C0140001C014010B500BFB7
:10399000012251020C48FEF76FF900BFFFF7B0FF9C
:1039A00000BF012202210948FEF766F900BFFFF7B8
:1039B000A7FF00BF002202210448FEF75DF900BF07
:1039C000FFF79EFF10BD0000001C0140000C0140ED
:1039D00070B50546002400261DE06006040E00BFF9
:1039E000012202211148FEF747F900BFFFF788FFC7
:1039F0004FF400710E48FEF72DF908B1601CC4B2F7
:103A000000BF002202210948FEF736F900BFFFF788
:103A100077FF701CC6B2082EDFDB15B9FFF7B6FFC3
:103A200001E0FFF741FF204670BD0000000C01409F
:103A3000001C014070B50446002525E000BFE009E8
:103A400028B1012251021548FEF716F905E00022BF
:103A50004FF400711148FEF70FF900BFFFF750FF58
:103A600000BF012202210E48FEF706F900BFFFF752
:103A700047FF00BF002202210948FEF7FDF800BF02
:103A80006006040E681CC5B2082DD7DB00BF0122FA
:103A900051020248FEF7F0F800BF70BD001C014063
:103AA000000C014010B500BF012251021048FEF782
:103AB000E3F800BF00BF012202210E48FEF7DCF848
:103AC00000BFFFF71DFF00BF00224FF40071084840
:103AD000FEF7D2F800BFFFF713FF00BF002202215C
:103AE0000448FEF7C9F800BFFFF70AFF10BD000049
:103AF000001C0140000C014010B500BF00224FF433
:103B000000710C48FEF7B8F800BFFFF7F9FE00BFE0
:103B1000012202210848FEF7AFF800BFFFF7F0FED0
:103B200000BF012251020348FEF7A6F800BFFFF7CD
:103B3000E7FE10BD001C0140000C014070B50024E0
:103B4000002500BF012251021648FEF795F800BF7C
:103B5000FFF7D6FE00BF012202211348FEF78CF8C2
:103B600000BFFFF7CDFE09E0601CC4B2FA2C03DDF4
:103B7000FFF7C2FF012508E0FFF7C2FE4FF4007116
:103B80000848FEF767F80028EED100BF00BF00220A
:103B900002210548FEF770F800BFFFF7B1FE284686
:103BA00070BD0000001C0140000C01408CB00024DE
:103BB000002505264548808841F21801884200D139
:103BC0000A2682E04248416800208847002468E0D5
:103BD0003F48808E0121A140084000285AD03C482F
:103BE0000C3030F8140039490988884257DA3848CF
:103BF000203030F814003549498888424FDA02A84D
:103C000030F824004FF6FF7188420DD130480C3057
:103C100030F8140002A921F824002D48203030F893
:103C2000140001EB840148802A4830F81400022176
:103C3000274F2037CDE9001037F81430143F37F8FC
:103C4000142002AF07EB8407798802AF37F824000D
:103C500000F0F0FF1E480C3030F8140002A921F8E3
:103C600024001B48203030F8140001EB8401488008
:103C700017480C3030F81410144800881838814266
:103C80000DDD1348203030F81400142807DA04F052
:103C9000B5FC04E04FF6FF7002A921F82400601C77
:103CA000C4B2B44294DB052000F07AF8681CC5B2B7
:103CB000142095FBF0F100FB115030B900BF4FF418
:103CC00000510548FDF7CEFF00BF7BE7CC05002083
:103CD0003800002060E50008001401402DE9F0479D
:103CE00006468946484607F0C9F804460D460022B4
:103CF0001C4B2046294606F025FF04460D460022AF
:103D0000194B2046294607F009F907464FF066325D
:103D1000164B06F017FF04460D460022124B2046B4
:103D2000294607F0F9F901D80024114D012E0BD1D5
:103D30002046294607F05EF807463B46002211461A
:103D40000C48FDF7ECFC0AE02046294607F052F843
:103D500007463B46002210210648FDF7E0FCBDE87F
:103D6000F087000000408F400000B04066660A40C7
:103D700000FEAF40FC05002010B5044600204FF0C7
:103D8000E0210861FEF77AFE2046E11704EB51714D
:103D9000C1F3CF01014A118010BD00000C000020CA
:103DA00070B504464FF47A7094FBF0F594FBF0F193
:103DB00000FB114603E0074800F00EF86D1E002DD1
:103DC000F9D12EB14FF47A7106FB01F000F004F83E
:103DD00070BD000040420F000146114A12884A435C
:103DE0004FF0E0235A6100229A611A46126942F0AC
:103DF00001021A6100BF4FF0E022106900F00102D9
:103E00001AB100F48032002AF5D04FF0E022126996
:103E100022F001024FF0E0231A6100229A617047FC
:103E20000C00002000BF054A126802F04002002A80
:103E3000F9D0C2B2014B1B1D1A6070470038014017
:103E400000B587B000BF00BF4848806940F08000DF
:103E5000464988610846806900F08000019000BFF3
:103E600000BF00BF00BF00BF0846806940F080006F
:103E700088610846806900F08000019000BF00BFA3
:103E800000BFC81403900120049005900320069001
:103E900003A93748FDF73EFD4FF4806003900020F2
:103EA0000490012005900320069003A93048FDF7F7
:103EB00031FDFFF72BFD00BF00224FF400612C48BD
:103EC000FDF7DAFE00BF1420FFF76AFF00BF0122F2
:103ED000D1022748FDF7D0FE00BF3220FFF760FF78
:103EE00000208DF80800012202A900F047F9012204
:103EF00002A9A42000F042F916208DF80800012242
:103F000002A9802000F03AF90C208DF80800012267
:103F100002A9882000F032F9022202A9A12000F0B3
:103F20002FF89DF80800302803D19DF809000328D8
:103F30000DD09DF80900012809D09DF8090002283C
:103F400005D09DF8080070B99DF8090058B99DF892
:103F500009009DF8082000EB022106A0FCF794F967
:103F6000002007B000BD0120FBE700000010024068
:103F7000001C01404354502049443A25780D0A0062
:103F80002DE9F04106460F461546FFF78BFD7020E0
:103F9000FFF750FDFFF7D2FDF0B2FFF74BFDFFF743
:103FA000CDFDFFF77FFD7120FFF744FDFFF7C6FD54
:103FB00000240BE0691EA14201D0012100E0002194
:103FC0000846FFF705FD3855601CC4B2AC42F1DB72
:103FD000FFF792FDBDE8F0812DE9FC410746002086
:103FE00001900024002661480078401C5F49087059
:103FF000084600780A2190FBF1F201FB120018B18B
:104000005A4800780A2867DA012201A90220FFF73E
:10401000B7FF9DF8040000F00F0000285CD09DF869
:10402000040000F00F0006287BDA9DF8040000F081
:104030000F014FF6FF70884085B2E84380B240F42C
:1040400040404B4988860420FFF7AAFE00245AE02E
:104050004748808E0121A1400840E0B3454931F82E
:10406000140004226946FFF78BFF414890F8440092
:1040700000F00100C0B19DF801009DF8001001F0B2
:104080000F0100EB01203A49203121F814009DF87E
:1040900003009DF8021001F00F0100EB01213448EC
:1040A0000C3020F814101EE09DF801009DF800105F
:1040B00001F00F0100EB01202F490988081A81B295
:1040C0002B480C3020F814109DF803009DF80210C6
:1040D00001F00F0101E014E023E000EB012024498E
:1040E000203121F814009DF8000000F0F000802835
:1040F00007D000211E48203020F81410143820F872
:104100001410601CC4B2052CA2DB0126184880895B
:1041100020B91748008C08B90020019000201349ED
:1041200008709DF8040000F01F00A8B91048808EA8
:1041300000F4004030B10E48808E20F400400C495D
:10414000888609E04FF6FF7009498881088408468F
:10415000808E00F46040888604480078F02802DDF4
:104160000A20024908703046BDE8FC81800000202A
:104170003800002074E50008CC0500202DE9F0414E
:1041800005460E4617464FF00008FFF78BFC7020DF
:10419000FFF750FCFFF7D2FCE8B2FFF74BFCFFF74C
:1041A000CDFC00240BE0305DFFF744FCFFF7C6FCBC
:1041B0008046B8F1000F00D003E0601CC4B2BC42DE
:1041C000F1DB00BFFFF798FC4046BDE8F08100003E
:1041D00000B587B000BF00BF4348806940F0800051
:1041E000414988610846806900F08000009000BF66
:1041F00000BF00BF00BF00BF0846806940F08000DC
:1042000088610846806900F08000009000BF00BF10
:1042100000BFC8140390012004900590032006906D
:1042200003A93248FDF776FB4FF48060039000202D
:104230000490012005900320069003A92B48FDF768
:1042400069FBFFF763FB00BF00224FF400612748C2
:10425000FDF712FD00BF0A20FFF7A2FD00BF0122FB
:10426000D1022248FDF708FD00BF0A20FFF798FDA4
:104270004FF4806003900020049005900320069086
:1042800003A91A48FDF746FB6420FFF789FD0422C5
:1042900001A948F2401000F037F800208DF808001E
:1042A00001A913A0FBF7F0FF14A101A8FCF7B0F9D6
:1042B00010B90A201349087002208DF80400012269
:1042C00001A948F2400000F0BDF90A20FFF768FD9F
:1042D00000208DF80400012201A948F2400000F0FE
:1042E000B1F9002007B000BD00100240001C0140E1
:1042F0004354502049443A25730D0A00393237316E
:1043000000000000810000202DE9F04105460F4625
:104310001646FFF7C7FB2820FFF78CFBFFF70EFCC4
:104320002812FFF787FBFFF709FCE8B2FFF782FBD3
:10433000FFF704FCFFF7B6FB2920FFF77BFBFFF735
:10434000FDFB00240BE0711EA14201D0012100E021
:1043500000210846FFF73CFB3855601CC4B2B4424C
:10436000F1DBFFF7C9FBBDE8F081000071B583B058
:10437000002001900026AE480078401CAC4908702F
:10438000084600780A2190FBF1F201FB120018B1F7
:10439000A74800780A287DDA012203A948F24E10C6
:1043A000FFF7B2FF9DF80C0000F0800078B19DF897
:1043B0000C0000F00F009F490978884207DC0020BC
:1043C0000190012201A948F24E1000F03BF99DF83E
:1043D0000C0000F00F0000285CD09DF80C0000F0ED
:1043E0000F0094490978884254DC9DF80C0000F0D5
:1043F0000F014FF6FF70884084B28F48858EE043EE
:1044000080B240F440408C498886084682898948B9
:104410000078401E0C3121F810208748028C854816
:104420000078401E143121F81020002001909AE0FD
:104430008148808E9DF80420012191400840002889
:1044400032D07E499DF8042031F81200042202A9DE
:10445000FFF75AFF7A48808845F2105188423FD1D1
:10446000754890F8440000F00100F0B19DF8080094
:104470009DF8091000EB012081B26F4820309DF8B3
:10448000042020F812109DF80A009DF80B1000EB94
:10449000012000E0A5E0C0F5487081B266480C300C
:1044A0009DF8042020F8121058E09DF808009DF8AF
:1044B000091000EB012081B25F480C309DF8042008
:1044C00020F812109DF80A009DF80B1000EB012057
:1044D00081B2594820309DF8042020F812103DE0A8
:1044E000554890F8440000F00100D0B19DF8080054
:1044F0009DF8091000EB012081B24F480C309DF867
:10450000042020F812109DF80A009DF80B1000EB13
:10451000012081B2484820309DF8042020F8121074
:104520001CE09DF80A009DF80B1000EB01204449A7
:104530000988081A81B240480C309DF8042020F800
:1045400012109DF808009DF8091000EB012081B2BF
:10455000394820309DF8042020F812109DF80400FE
:10456000401CC0B201909DF804003249097888428D
:10457000FFF65EAF012630488089314909888842BC
:1045800005DC2D48008C2E494988884226DD9DF89F
:104590000C0000F00F0001280ADD2748C0892649D9
:1045A00088810846408C088400202149087018E062
:1045B00020480078401E20490C3131F810000C3999
:1045C00088811C480078401E203131F810002039C5
:1045D0000884802003900846858602E00020144964
:1045E00008709DF80C0000F08F00802815D112484B
:1045F000808E00F4004030B10F48808E20F40040DF
:104600000D49888609E04FF6FF700B4988810884C0
:104610000846808E00F46040888605480078F028BF
:1046200002DD0A2002490870304604B070BD000067
:104630008200002081000020380000207EE5000874
:10464000CC0500202DE9F04104460E4617464FF0F8
:104650000008FFF727FA2820FFF7ECF9FFF76EFABA
:104660002012FFF7E7F9FFF769FAE0B2FFF7E2F986
:10467000FFF764FA00250BE0705DFFF7DBF9FFF749
:104680005DFA8046B8F1000F00D003E0681CC5B2A7
:10469000BD42F1DB00BFFFF72FFA4046BDE8F081D5
:1046A00010B500BF00224FF400611148FDF7E4FA95
:1046B00000BF00F01FF800BF012291020C48FDF777
:1046C000DBFA00BF00F016F800BF00224FF4806153
:1046D0000748FDF7D1FA00BF00F00CF800BF012237
:1046E000D1020348FDF7C8FA00BF00F003F810BD7F
:1046F000000C014010B50220FFF76EFB10BD00005A
:1047000000B585B000BF00BF1A48806940F00800BE
:10471000184988610846806900F00800009000BFD1
:1047200000BF00BF00BF00BF0846806940F008001E
:1047300088610846806900F00800009000BF00BF53
:1047400000BF0815019001200290039003200490FF
:1047500001A90948FDF7DEF84FF40060019011202F
:10476000029001A90448FDF7D5F800F0B7F805B0AC
:1047700000BD000000100240000C014010B500BF59
:104780000122D1020C48FDF777FA00BFFFF7B2FF14
:1047900000BF012291020848FDF76EFA00BFFFF743
:1047A000A9FF00BF00224FF480610348FDF764FABF
:1047B00000BFFFF79FFF10BD000C014070B505461C
:1047C000002400261EE06006040E00BF01229102B4
:1047D0001148FDF751FA00BFFFF78CFF4FF400615D
:1047E0000D48FDF737FA08B1601CC4B200BF0022C3
:1047F0004FF480610848FDF73FFA00BFFFF77AFFEA
:10480000701CC6B2082EDEDB15B9FFF7B7FF01E05A
:10481000FFF746FF204670BD000C014070B504460E
:10482000002526E000BFE00928B10122D102164888
:10483000FDF722FA05E000224FF400611248FDF76F
:104840001BFA00BFFFF756FF00BF012291020E487E
:10485000FDF712FA00BFFFF74DFF00BF00224FF433
:1048600080610948FDF708FA00BF6006040E681C65
:10487000C5B2082DD6DB00BF0122D1020248FDF7E8
:10488000FBF900BF70BD0000000C014010B500BF77
:104890000122D1021048FDF7EFF900BF00BF01224D
:1048A00091020D48FDF7E8F900BFFFF723FF00BFB5
:1048B00000224FF400610848FDF7DEF900BFFFF762
:1048C00019FF00BF00224FF480610348FDF7D4F9BF
:1048D00000BFFFF70FFF10BD000C014010B500BF77
:1048E00000224FF400610C48FDF7C6F900BFFFF746
:1048F00001FF00BF012291020748FDF7BDF900BF8B
:10490000FFF7F8FE00BF0122D1020348FDF7B4F91A
:1049100000BFFFF7EFFE10BD000C014070B5002492
:10492000002500BF0122D1021548FDF7A5F900BFFF
:10493000FFF7E0FE00BF012291021148FDF79CF94C
:1049400000BFFFF7D7FE07E0601CC4B2FA2C03DDFE
:10495000FFF7C4FF012506E04FF400610848FDF7AA
:1049600079F90028F0D100BF00BF00224FF4806128
:104970000348FDF781F900BFFFF7BCFE284670BD74
:10498000000C014010B54FF400510C48FDF762F9DE
:1049900090B90A20FFF704FA4FF400510748FDF7D9
:1049A00059F948B900BF4FF400510448FDF752F9D6
:1049B0000028F8D0012010BD0020FCE700100140C5
:1049C00000B585B000BF2C48806940F010002A492E
:1049D00088610846806900F01000009000BF00BFA9
:1049E0004FF400500190002002900120039001A993
:1049F0002248FCF78FFF00BF1F48806940F040004D
:104A00001D4988610846806900F04000009000BFA1
:104A100000BF01200190002002900120039001A915
:104A20001748FCF777FF00BF1348806940F0040087
:104A3000114988610846806900F00400009000BFB9
:104A400000BF02200190002002900220039003206A
:104A5000049001A90B48FCF75DFF012001900020A4
:104A60000290022003900320049001A90548FCF75E
:104A700051FF05B000BD00000010024000100140D1
:104A8000001801400008014070B50446002609489E
:104A90000588408845430021084603F063F903F088
:104AA0001BFD00BF03E04FF0D8404480761CAE42AF
:104AB000F9D370BDCC05002010B504465C48847164
:104AC000002C53D1F0205A4908804FF4A070488040
:104AD0000846808845F21051884210D14FF430507A
:104AE000534908814FF4285048814FF42C50888155
:104AF0004FF4F07008804FF44870488028E04C482C
:104B0000808841F6631188420DD12C2048490881E4
:104B10002B2048812A2088814FF4F07008804FF4C0
:104B20004870488014E04248808845F20841884235
:104B300007D122203E4908812020488121208881F8
:104B400006E02C203A4908812A2048812B208881C0
:104B50003748808845F2103188425AD14FF4A0700E
:104B6000334908804FF4F070488052E04FF4A07051
:104B70002F490880F02048800846808845F210516F
:104B8000884210D14FF43050294908814FF4285001
:104B900048814FF42C5088814FF4487008804FF4BE
:104BA000F070488028E02248808841F663118842EE
:104BB0000DD12C201E4908812A2048812B20888174
:104BC0004FF4487008804FF4F070488014E01848A3
:104BD000808845F20841884207D122201449088183
:104BE000212048812020888106E02C20104908815E
:104BF0002A2048812B2088810D48808845F2103179
:104C0000884206D14FF4F070094908804FF4A07033
:104C100048800748808845F20841884204D11CB189
:104C2000062002F0E5FE02E0002002F0E1FE10BDE9
:104C3000CC0500202DE9FF4F85B080468946129FA4
:104C4000002003900290B84507DB0798B84204DBC8
:104C5000B94502DB0898B84202DA09B0BDE8F08F26
:104C60000798A0EB08040898A0EB0905CDF804808C
:104C7000CDF80090002C02DD4FF0010A06E014B9D7
:104C80004FF0000A02E04FF0FF3A6442002D02DDCF
:104C90004FF0010B06E015B94FF0000B02E04FF0AA
:104CA000FF3B6D42AC4201DD264600E02E4600206F
:104CB000049023E0009A91B2019A90B23A46139B75
:104CC00002F0D5FB039820440390029828440290F8
:104CD0000398B04205DD0398801B0390019850446F
:104CE00001900298B04205DD0298801B0290009866
:104CF000584400900498401C80B20490711C0498A1
:104D00008842D7DD00BFA8E72DE9F04706460F46E9
:104D100090469A46002445460320A0EB480944E00B
:104D20007A1B91B2321990B2524600F0B5F83A1B94
:104D300091B2721990B2524600F0AEF83A1991B29F
:104D4000721990B2524600F0A7F87A1991B232194E
:104D500090B2524600F0A0F87A1991B2321B90B28C
:104D6000524600F099F83A1991B2721B90B252462D
:104D700000F092F87A1B91B2321B90B2524600F0CA
:104D80008BF83A1B91B2721B90B2524600F084F835
:104D9000641CB9F1000F03DAA000801D814404E017
:104DA000601B80000A3081446D1EAC42B8DDBDE856
:104DB000F0870000F8B504460D4616461F463EB182
:104DC00009480088A04203DB07484088A84200DA6F
:104DD000F8BDA019401E82B22B46294620460097F6
:104DE00002F01CFB00BFF3E7CC0500202DE9FF4FCC
:104DF00085B081468A460020039083460798A0EB41
:104E000009050898A0EB0A06CDF80890CDF804A093
:104E1000002D01DD012705E00DB9002702E04FF06C
:104E2000FF376D42002E02DD4FF0010806E016B993
:104E30004FF0000802E04FF0FF387642B54201DD46
:104E40002C4600E03446002004901EE0019A91B206
:104E5000029A90B2129A00F01FF803982844039027
:104E6000B3440398A04205DD0398001B0390029809
:104E700038440290A34504DDABEB040B0198404499
:104E800001900498401C80B20490611C04988842F0
:104E9000DCDD09B0BDE8F08F70B505460E4614465E
:104EA0003146284602F05EFF03F016FB4FF0D84172
:104EB0004C8070BD2DE9F84305460E4617469846CE
:104EC000089C33463A46314628460094FFF78EFF49
:104ED00043462A46314628460094FFF787FF43465B
:104EE0003A46414628460094FFF780FF43463A463B
:104EF000314638460094FFF779FFBDE8F88310B5D6
:104F0000CF2003F0DFFA002003F0D2FAC12003F033
:104F1000CFFA302003F0CCFAED2003F0D3FA64206E
:104F200003F0C6FA032003F0C3FA122003F0C0FA1C
:104F3000812003F0BDFAE82003F0C4FA852003F0D5
:104F4000B7FA102003F0B4FA7A2003F0B1FACB20BC
:104F500003F0B8FA392003F0ABFA2C2003F0A8FADA
:104F6000002003F0A5FA342003F0A2FA022003F097
:104F70009FFAF72003F0A6FA202003F099FAEA201E
:104F800003F0A0FA002003F093FA002003F090FA57
:104F9000C02003F097FA1B2003F08AFAC12003F027
:104FA00091FA012003F084FAC52003F08BFA302037
:104FB00003F07EFA302003F07BFAC72003F082FA78
:104FC000B72003F075FA362003F07CFA482003F08E
:104FD0006FFA3A2003F076FA552003F069FAB1200F
:104FE00003F070FA002003F063FA1A2003F060FA6D
:104FF000B62003F067FA0A2003F05AFAA22003F061
:1050000057FAF22003F05EFA002003F051FA26204E
:1050100003F058FA012003F04BFAE02003F052FAB3
:105020000F2003F045FA2A2003F042FA282003F06B
:105030003FFA082003F03CFA0E2003F039FA08206A
:1050400003F036FA542003F033FAA92003F030FAC3
:10505000432003F02DFA0A2003F02AFA0F2003F070
:1050600027FA002003F024FA002003F021FA0020A0
:1050700003F01EFA002003F01BFAE12003F022FAED
:10508000002003F015FA152003F012FA172003F0A0
:105090000FFA072003F00CFA112003F009FA06209A
:1050A00003F006FA2B2003F003FA562003F000FA6F
:1050B0003C2003F0FDF9052003F0FAF9102003F07D
:1050C000F7F90F2003F0F4F93F2003F0F1F93F2046
:1050D00003F0EEF90F2003F0EBF92B2003F0F2F9C7
:1050E000002003F0E5F9002003F0E2F9012003F0CD
:1050F000DFF93F2003F0DCF92A2003F0E3F9002078
:1051000003F0D6F9002003F0D3F9002003F0D0F922
:10511000EF2003F0CDF9112003F0D4F97820FEF749
:105120003FFE292003F0CEF910BD10B5ED2003F0AD
:10513000C9F9012003F0BCF9FE2003F0B9F9EE2013
:1051400003F0C0F9DE2003F0B3F9212003F0B0F939
:10515000F12003F0B7F9012003F0AAF9DF2003F0F2
:10516000B1F9102003F0A4F9C42003F0ABF98F20AB
:1051700003F09EF9C62003F0A5F9002003F098F98A
:10518000E22003F095F9E22003F092F9E22003F027
:105190008FF9BF2003F096F9AA2003F089F9B02017
:1051A00003F090F90D2003F083F9002003F080F95B
:1051B0000D2003F07DF9002003F07AF9112003F0AF
:1051C00077F9002003F074F9192003F071F9002039
:1051D00003F06EF9212003F06BF9002003F068F969
:1051E0002D2003F065F9002003F062F93D2003F063
:1051F0005FF9002003F05CF95D2003F059F900200D
:1052000003F056F95D2003F053F9002003F050F944
:10521000B12003F057F9802003F04AF9002003F091
:1052200047F98B2003F044F9002003F041F9962060
:1052300003F03EF9002003F03BF9B22003F042F9FD
:10524000002003F035F9002003F032F9022003F0CA
:105250002FF9002003F02CF9032003F029F9002096
:1052600003F026F9B32003F02DF9002003F020F914
:10527000002003F01DF9002003F01AF9002003F0CC
:1052800017F9002003F014F9002003F011F90020B1
:1052900003F00EF9002003F00BF9002003F008F9E9
:1052A000002003F005F9002003F002F9002003F0CC
:1052B000FFF8002003F0FCF8002003F0F9F80020CC
:1052C00003F0F6F8002003F0F3F8002003F0F0F804
:1052D000002003F0EDF8002003F0EAF8002003F0CE
:1052E000E7F8002003F0E4F8002003F0E1F80020E4
:1052F00003F0DEF8002003F0DBF8B42003F0E2F85E
:105300008B2003F0D5F8002003F0D2F8962003F0AC
:10531000CFF8002003F0CCF8A12003F0C9F800205A
:1053200003F0C6F8B52003F0CDF8022003F0C0F872
:10533000002003F0BDF8032003F0BAF8002003F0CA
:10534000B7F8042003F0B4F8002003F0B1F8B62059
:1053500003F0B8F8002003F0ABF8002003F0A8F841
:10536000B72003F0AFF8002003F0A2F8002003F00C
:105370009FF83F2003F09CF8002003F099F85E208E
:1053800003F096F8002003F093F8642003F090F8FF
:10539000002003F08DF88C2003F08AF8002003F041
:1053A00087F8AC2003F084F8002003F081F8DC20BB
:1053B00003F07EF8002003F07BF8702003F078F80B
:1053C000002003F075F8902003F072F8002003F03D
:1053D0006FF8EB2003F06CF8002003F069F8DC2094
:1053E00003F066F8002003F063F8B82003F06AF8D1
:1053F000002003F05DF8002003F05AF8002003F0CD
:1054000057F8002003F054F8002003F051F8002072
:1054100003F04EF8002003F04BF8002003F048F8AA
:10542000BA2003F04FF8242003F042F8002003F0E4
:105430003FF8002003F03CF8002003F039F8C120C9
:1054400003F040F8202003F033F8002003F030F898
:10545000542003F02DF8002003F02AF8FF2003F079
:1054600027F8002003F024F8C22003F02BF80A20CC
:1054700003F01EF8002003F01BF8042003F018F8D6
:10548000002003F015F8C32003F01CF83C2003F0C3
:105490000FF8002003F00CF83A2003F009F8002080
:1054A00003F006F8392003F003F8002003F000F8B9
:1054B000372002F0FDFF002002F0FAFF3C2002F04E
:1054C000F7FF002002F0F4FF362002F0F1FF002089
:1054D00002F0EEFF322002F0EBFF002002F0E8FFC6
:1054E0002F2002F0E5FF002002F0E2FF2C2002F066
:1054F000DFFF002002F0DCFF292002F0D9FF0020AE
:1055000002F0D6FF262002F0D3FF002002F0D0FFE9
:10551000242002F0CDFF002002F0CAFF242002F078
:10552000C7FF002002F0C4FF232002F0C1FF0020CB
:1055300002F0BEFF3C2002F0BBFF002002F0B8FFEB
:10554000362002F0B5FF002002F0B2FF322002F058
:10555000AFFF002002F0ACFF2F2002F0A9FF0020D7
:1055600002F0A6FF2C2002F0A3FF002002F0A0FF13
:10557000292002F09DFF002002F09AFF262002F071
:1055800097FF002002F094FF242002F091FF0020FA
:1055900002F08EFF242002F08BFF002002F088FF33
:1055A000232002F085FF002002F082FFC42002F0D9
:1055B00089FF622002F07CFF002002F079FF0520C5
:1055C00002F076FF002002F073FF842002F070FFEB
:1055D000002002F06DFFF02002F06AFF002002F0D0
:1055E00067FF182002F064FF002002F061FFA42092
:1055F00002F05EFF002002F05BFF182002F058FF6F
:10560000002002F055FF502002F052FF002002F06F
:105610004FFF0C2002F04CFF002002F049FF172042
:1056200002F046FF002002F043FF952002F040FF09
:10563000002002F03DFFF32002F03AFF002002F0CC
:1056400037FFE62002F034FF002002F031FFC520D2
:1056500002F038FF322002F02BFF002002F028FF7A
:10566000442002F025FF002002F022FF652002F016
:105670001FFF002002F01CFF762002F019FF00201F
:1056800002F016FF882002F013FF002002F010FF46
:10569000C62002F017FF202002F00AFF002002F0CF
:1056A00007FF172002F004FF002002F001FF012095
:1056B00002F0FEFE002002F0FBFEC72002F002FF17
:1056C000002002F0F5FE002002F0F2FE002002F0C1
:1056D000EFFE002002F0ECFEC82002F0F3FE0020F6
:1056E00002F0E6FE002002F0E3FE002002F0E0FE01
:1056F000002002F0DDFEC92002F0E4FE002002F0EE
:10570000D7FE002002F0D4FE002002F0D1FE0020DF
:1057100002F0CEFE002002F0CBFE002002F0C8FE18
:10572000002002F0C5FE002002F0C2FE002002F0C0
:10573000BFFE002002F0BCFE002002F0B9FE0020F7
:1057400002F0B6FE002002F0B3FE002002F0B0FE30
:10575000002002F0ADFE002002F0AAFEE02002F0E0
:10576000B1FE162002F0A4FE002002F0A1FE1C20D3
:1057700002F09EFE002002F09BFE212002F098FE27
:10578000002002F095FE362002F092FE002002F08A
:105790008FFE462002F08CFE002002F089FE52208F
:1057A00002F086FE002002F083FE642002F080FEFC
:1057B000002002F07DFE7A2002F07AFE002002F046
:1057C00077FE8B2002F074FE002002F071FE99201B
:1057D00002F06EFE002002F06BFEA82002F068FED0
:1057E000002002F065FEB92002F062FE002002F007
:1057F0005FFEC42002F05CFE002002F059FECA20C9
:1058000002F056FE002002F053FED22002F050FEBD
:10581000002002F04DFED92002F04AFE002002F0E6
:1058200047FEE02002F044FE002002F041FEF3209B
:1058300002F03EFE002002F03BFEE12002F042FEBC
:10584000162002F035FE002002F032FE1C2002F08D
:105850002FFE002002F02CFE222002F029FE002064
:1058600002F026FE362002F023FE002002F020FE89
:10587000452002F01DFE002002F01AFE522002F028
:1058800017FE002002F014FE642002F011FE00203A
:1058900002F00EFE7A2002F00BFE002002F008FE5D
:1058A0008B2002F005FE002002F002FE992002F09B
:1058B000FFFD002002F0FCFDA82002F0F9FD002011
:1058C00002F0F6FDB92002F0F3FD002002F0F0FD39
:1058D000C42002F0EDFD002002F0EAFDCA2002F033
:1058E000E7FD002002F0E4FDD22002F0E1FD0020FF
:1058F00002F0DEFDD82002F0DBFD002002F0D8FD32
:10590000E02002F0D5FD002002F0D2FDF32002F0ED
:10591000CFFD002002F0CCFDE22002F0D3FD0520F7
:1059200002F0C6FD002002F0C3FD0B2002F0C0FD16
:10593000002002F0BDFD1B2002F0BAFD002002F0A5
:10594000B7FD342002F0B4FD002002F0B1FD442088
:1059500002F0AEFD002002F0ABFD4F2002F0A8FDEA
:10596000002002F0A5FD612002F0A2FD002002F05F
:105970009FFD792002F09CFD002002F099FD882017
:1059800002F096FD002002F093FD972002F090FDBA
:10599000002002F08DFDA62002F08AFD002002F01A
:1059A00087FDB72002F084FD002002F081FDC220B7
:1059B00002F07EFD002002F07BFDC72002F078FDA2
:1059C000002002F075FDD12002F072FD002002F0EF
:1059D0006FFDD62002F06CFD002002F069FDDD2095
:1059E00002F066FD002002F063FDF32002F060FD8E
:1059F000002002F05DFDE32002F064FD052002F0CE
:105A000057FD002002F054FD0A2002F051FD002055
:105A100002F04EFD1C2002F04BFD002002F048FD7C
:105A2000332002F045FD002002F042FD442002F048
:105A30003FFD002002F03CFD502002F039FD002027
:105A400002F036FD622002F033FD002002F030FD4E
:105A5000782002F02DFD002002F02AFD882002F0BF
:105A600027FD002002F024FD972002F021FD0020F8
:105A700002F01EFDA62002F01BFD002002F018FD22
:105A8000B72002F015FD002002F012FDC22002F046
:105A90000FFD002002F00CFDC72002F009FD0020E0
:105AA00002F006FDD12002F003FD002002F000FD0F
:105AB000D52002F0FDFC002002F0FAFCDD2002F00F
:105AC000F7FC002002F0F4FCF32002F0F1FC0020CF
:105AD00002F0EEFCE42002F0F5FC012002F0E8FC0C
