:020000040800F2
:10000000700C00202D020008A91E0008A11E000887
:10001000A51E000875070008212300080000000045
:10002000000000000000000000000000751F000834
:10003000A107000800000000B31E0008771F000899
:1000400025230008AB1E000847020008DD1E00083B
:100050004702000847020008A307000847020008FB
:100060004702000847020008470200087907000815
:10007000470200084702000847020008470200083C
:10008000470200084702000847020008470200082C
:10009000470200084702000847020008470200081C
:1000A000470200084702000847020008470200080C
:1000B000811F000847020008AD1F00084702000822
:1000C00047020008470200084702000847020008EC
:1000D00047020008FD220008470200084702000806
:1000E00047020008470200084702000847020008CC
:1000F00047020008470200080120000847020008E4
:100100004702000847020008F11F000847020008E4
:10011000470200084702000847020008470200089B
:10012000470200084702000847020008470200088B
:1001300000F002F800F06BF80AA090E8000C82448E
:100140008344AAF10107DA4501D100F060F8AFF26B
:10015000090EBAE80F0013F0010F18BFFB1A43F0A5
:100160000103184748860000688600000A444FF0E3
:10017000000C10F8013B13F0070408BF10F8014B06
:100180001D1108BF10F8015B641E05D010F8016B4B
:10019000641E01F8016BF9D113F0080F1EBF10F8AF
:1001A000014BAD1C0C1B09D16D1E58BF01F801CBD2
:1001B000FAD505E014F8016B01F8016B6D1EF9D555
:1001C0009142D6D37047000000230024002500266A
:1001D000103A28BF78C1FBD8520728BF30C148BFAA
:1001E0000B607047642900F09F80752900F09C80A7
:1001F000782900F0D580632900F06882732900F027
:100200006D82002070471FB51FBD10B510BD00F0F6
:100210007FFA1146FFF7F7FF03F0F0F900F09DFABF
:1002200003B4FFF7F2FF03BC02F0A7F809488047C8
:1002300009480047FEE7FEE7FEE7FEE7FEE7FEE7C8
:10024000FEE7FEE7FEE7FEE704480549054A064BE0
:10025000704700007F1F0008310100087006002071
:10026000700C00207008002070080020704700000B
:100270000FB4044910B503AA029800F033FA10BC79
:100280005DF814FB0400002070B504468569006821
:10029000C10601D5302600E02026C00707D070BD7A
:1002A000D4E9012130469047206A401C20626D1E2F
:1002B000F6D570BD70B5044685690078C00707D1D2
:1002C00070BDD4E9012120209047206A401C2062A3
:1002D0006D1EF6D570BD70B50C460546012A05D0D9
:1002E0002878800600D5EA69002302E0012305E0B2
:1002F0005B1C934202D2E05C0028F9D1A869E618A1
:10030000C01AA861286A184428622846FFF7BCFF73
:1003100004E0D5E9012114F8010B9047B442F8D369
:100320002846FFF7C7FF70BD2DE9F04106460024BF
:1003300010687529314616A510D0AFF3008000284B
:1003400002DA404213A507E031688A0701D512A5F9
:1003500002E0490704D511A5012401E0AFF30080B4
:1003600000210A2206F1240709E0B0FBF2FCB0FBF1
:10037000F2F302FB1C00303078541846491C002868
:10038000F3D123462A463046BDE8F04100F023B9B8
:10039000000000002D0000002B00000020000000E5
:1003A00070B504460D4621461068AFF300802188E1
:1003B000090502D50F4A7A4402E00E4A7A440E3209
:1003C000002104F1240305E000F00F060009965D0A
:1003D0005E54491C0028F7D120780023000704D57B
:1003E000702D02D009B1022311322046BDE87040C1
:1003F00000F0F1B8667E00002DE9F05F8946044602
:100400004FF0000ADFF874B1FB44C0F820A020468A
:10041000E1688847002874D0252806D0D4E9012156
:100420009047206A401C2062F1E700265F46204684
:10043000E16888472028054607DB312D05D2781969
:1004400010F8200C08B10643F1E7B00701D526F0FB
:100450000406C4F81CA00027C4F818A02A2D09D04F
:10046000284601F083FF38B304EB8708303DC8F815
:10047000185019E059F8041B204604EB87029161DB
:10048000E1688847012F054618D1E069002820DA85
:1004900026F020061DE0D8F8180000EB800005EBE0
:1004A00040003038C8F818002046E1688847054603
:1004B00001F05CFF0028EED1012F0AD02E2D08D1CB
:1004C0002046E16888477F1C0546022F46F020063B
:1004D000C4DBA069002803DA404246F00106A061AF
:1004E000F00701D026F010066C2D0BD0682D09D036
:1004F0004C2D39D06A2D35D0742D35D07A2D33D08E
:1005000016E038E0E1682F4620468847B8420546A5
:1005100009D16C2F26D04FF48060E1680643204655
:100520008847054604E06C2F1AD04FF480700643CC
:100530000DB3A5F14100192802D8203546F4006614
:100540004A462946204626604E46FFF74BFE80B1BC
:1005500001280BD0F61D26F0070000F1080956E728
:100560004020E4E78020D8E70020D6E706F1040920
:100570004DE7284652E7206ABDE8F09F3C7E000028
:100580004FF0000200B5134694469646203922BF2C
:10059000A0E80C50A0E80C50B1F12001BFF4F7AF77
:1005A000090728BFA0E80C5048BF0CC05DF804EB59
:1005B000890028BF40F8042B08BF704748BF20F8C7
:1005C000022B11F0804F18BF00F8012B70477047C5
:1005D0007047704770472DE9F0470D46994692469F
:1005E000044600F124080168880604D5E06921F07A
:1005F0001001216000E00120A84201DD471B00E05E
:100600000027A1697A1902EB0900081AA061207875
:10061000C00602D42046FFF737FE002608E0D4E9E2
:1006200001211AF806009047206A401C761C2062BF
:100630004E45F4DB2078C0060AD52046FFF724FE9D
:1006400006E0D4E9012130209047206A401C206256
:10065000381EA7F10107F4DC07E0D4E9012118F8FE
:1006600005009047206A401C2062281EA5F1010564
:10067000F3DC2046FFF71EFE2078000602D502209C
:10068000BDE8F0870120FBE701694A1C0261087898
:10069000704700B58FB0CDE90131002105910549C2
:1006A0007944CDE9031011466846FFF7A5FE0FB067
:1006B00000BD0000E5FFFFFF10B5436913B1AFF3C4
:1006C000008001E0FFF707FE012010BD127800F165
:1006D00024010A7000224A700122EDE711684FF0F0
:1006E000FF32E9E7074B70B50D467B44FFF7D1FFBA
:1006F0000446284600F008F810B14FF0FF3070BDF6
:10070000204670BD8F1E0000007B00F08000704707
:10071000754600F02BF8AE4605006946534620F0BA
:100720000700854618B020B5FFF78EFDBDE82040D4
:100730004FF000064FF000074FF000084FF0000B9D
:1007400021F00701AC46ACE8C009ACE8C009ACE850
:10075000C009ACE8C0098D46704710B50446AFF338
:1007600000802046BDE81040FFF75ABD00487047A2
:100770000C06002000BFFEE70748006800F00200FA
:1007800040B10120054908700348406840F002006C
:100790000149486070470000000002403600002018
:1007A000704710B5012000F079F910BDF0B503468F
:1007B00000BF5879012801D10220F0BD01205871F5
:1007C00000BF022018711868046802F0100640F695
:1007D000FE70B0408443D1E9000640EA060502F00D
:1007E000100005FA00F004431868046018680068F7
:1007F00002F01007C026BE40B0431E683060186883
:10080000006802F01007C026BE40B0431E6830608A
:100810000120187100BF0020587100BF00BFCCE755
:1008200010B504460CB9012010BD207920B9002074
:100830006071204600F008F802202071002020613D
:10084000012020710020EFE7704738B504460020F2
:1008500000902068009029B902F10800009D28440A
:10086000009004E002F11400009D284400900098DC
:100870000360002038BD10B5024600BF5079012842
:1008800001D1022010BD0120507100BF0220107163
:100890001068006801F010040123A3401843136896
:1008A000186061B91068006800F03C003C2816D15F
:1008B0001068406840F00100136858600FE010684D
:1008C000006800F4701301F010043C20A040834243
:1008D00005D11068406840F002001368586001209C
:1008E000107100BF0020507100BF00BFCAE70000B8
:1008F00070B50446002594F82100022803D0042096
:10090000A0630125C1E02068006820F00E00216886
:1009100008602068006820F00100216808605C49D8
:100920002068884252D95A4978392068884201D1D2
:10093000012047E0564964392068884201D11020DF
:1009400040E0534950392068884201D1801539E090
:100950004F493C392068884201D1801432E04C492B
:1009600028392068884202D14FF480302AE0484973
:1009700014392068884202D14FF4801022E04449A3
:100980002068884201D140041CE042492068884226
:1009900001D1012016E03F4914312068884201D17D
:1009A00010200FE03B4928312068884201D1801592
:1009B00008E038493C312068884201D1801401E0C8
:1009C0004FF480303349091F086051E030497839CD
:1009D0002068884201D1012047E02D496439206810
:1009E000884201D1102040E02949503920688842CE
:1009F00001D1801539E026493C392068884201D16F
:100A0000801432E0224928392068884202D14FF40C
:100A100080302AE01E4914392068884202D14FF400
:100A2000801022E01A492068884201D140041CE06D
:100A300018492068884201D1012016E01549143177
:100A40002068884201D110200FE012492831206827
:100A5000884201D1801508E00E493C312068884267
:100A600001D1801401E04FF4803009498039486099
:100A7000012084F8210000BF002084F8200000BF7E
:100A8000606B10B12046616B8847284670BD00003E
:100A900080000240080402407047000010B5044680
:100AA00004480068204020B1024804602046FFF757
:100AB000F3FF10BD140401402DE9F847024600235E
:100AC0009C467BE14FF0010808FA03F4D1F800805E
:100AD00008EA0400A0427DD1DFF8F4A2D1F8048036
:100AE000A8EB0A09D0453AD014DCB8F1030F50D076
:100AF00009DCB8F1000F31D0B8F1010F1CD0B8F10A
:100B0000020F49D120E0B8F1110F18D0B8F1120F3F
:100B100042D11EE0B9F5881F25D006DCB9F5803F2B
:100B200020D0B9F5801F37D11AE0B9F5001F18D0D1
:100B3000B9F5041F30D117E0D1F80CC02DE0D1F881
:100B40000C8008F1040C28E0D1F80C8008F1080CA6
:100B500023E0D1F80C8008F10C0C1EE000BF00BFB0
:100B600000BF00BF00BF00BFD1F80880B8F1000F80
:100B700002D14FF0040C0BE0D1F80880B8F1010F5E
:100B800003D14FF0080C146102E04FF0080C5461DF
:100B900003E04FF0000C00E000BF00BFFF2801D8C9
:100BA000904601E002F104084646FF2802D84FEAC9
:100BB000830803E0A3F108084FEA88084746D6F8FF
:100BC00000804FF00F0909FA07F928EA09080CFA22
:100BD00007F900E07AE048EA0908C6F80080D1F891
:100BE000048008F08058B8F1805F6FD100BFDFF853
:100BF000E481D8F8188048F00108DFF8D891C9F8E6
:100C00001880C846D8F8188008F00108CDF8008090
:100C100000BF00BF4FEAB9384FEA930958F829508E
:100C20004FEA83784FEA18794FF00F0808FA09F86D
:100C300025EA0805DFF8A081424502D14FF00008FF
:100C400024E0DFF89881424502D14FF001081DE011
:100C5000DFF88C81424502D14FF0020816E0DFF840
:100C60008481424502D14FF003080FE0DFF878811C
:100C7000424502D14FF0040808E0DFF87081424598
:100C800002D14FF0050801E04FF006084FEA8379E2
:100C90004FEA197908FA09F848EA0505DFF85081A2
:100CA0004FEA930948F82950D1F8048008F48038B5
:100CB000B8F5803F0BD1DFF83C81D8F8008048EAD6
:100CC0000008DFF83091C9F800800AE075E0DFF82D
:100CD0002481D8F8008028EA0008DFF81891C9F8C4
:100CE0000080D1F8048008F40038B8F5003F0ED138
:100CF000DFF8008108F10408D8F8008048EA00080D
:100D0000DFF8F09009F10409C9F800800DE0DFF880
:100D1000E48008F10408D8F8008028EA0008DFF829
:100D2000D49009F10409C9F80080D1F8048008F4CE
:100D30008018B8F5801F0ED1DFF8B88008F10808D8
:100D4000D8F8008048EA0008DFF8A89009F10809FF
:100D5000C9F800800DE0DFF89C8008F10808D8F899
:100D6000008028EA0008DFF88C9009F10809C9F82A
:100D70000080D1F8048008F40018B8F5001F0ED1E7
:100D8000DFF8708008F10C08D8F8008048EA000805
:100D9000DFF8609009F10C09C9F800800DE0DFF878
:100DA000548008F10C08D8F8008028EA0008DFF821
:100DB000449009F10C09C9F800805B1CD1F800804F
:100DC00028FA03F8B8F1000F7FF47CAEBDE8F8878D
:100DD000000011100010024000080140000C01400A
:100DE000001001400014014000180140001C0140A7
:100DF000080001400004014010B5C26821EA020366
:100E000002EA010443EA0443036110BD0AB101612F
:100E100001E00B040361704701480068704700005F
:100E2000100000200348006803490978084401497C
:100E300008607047100000201800002010B5084816
:100E4000006840F0100006490860052000F080F8B6
:100E50000F2000F007F800F02BF8002010BD000074
:100E60000020024070B504460E4800784FF47A71B5
:100E7000B1FBF0F00C490968B1FBF0F5284600F031
:100E800041FC08B1012070BD102C07D20022214680
:100E9000501E00F01EF80548046001E00120F2E752
:100EA0000020F0E7180000200000002014000020BF
:100EB000704701460846002809DB00F01F030122A5
:100EC0009A4043099B0003F1E023C3F8002100BFCF
:100ED00070472DE9F05F80460D461646002701F069
:100EE00029FA074639462A46334601F00700C0F181
:100EF000070ABAF1040F02D94FF0040A01E0C0F169
:100F0000070AD14600F1040ABAF1070F02D24FF0E6
:100F1000000A01E0A0F1030AD4464FF0010A0AFAE0
:100F200009FAAAF1010A0AEA020A0AFA0CFA4FF0CF
:100F3000010B0BFA0CFBABF1010B0BEA030B4AEABA
:100F40000B042146404601F0FDF9BDE8F09F00008A
:100F500000BF00F00702064B19684FF6FF03194067
:100F6000044B0B4343EA0221014B196000BF704759
:100F70000CED00E00000FA0501200149086270470D
:100F800000000E4210B50E48406800F0040004282E
:100F900009D10CA0FFF76CF900BF012291030E48A4
:100FA000FFF734FF0AE00DA0FFF762F900BF00224F
:100FB0004FF480410848FFF729FF00BF10BD000033
:100FC00000700040505644204C6F7720566F6C7470
:100FD0006167652100000000001401405056442064
:100FE000566F6C74616765204F4B210010B5064841
:100FF000006800F4803028B1FFF7C4FF4FF4803060
:101000000149086010BD00001404014070B5044699
:101010000D460CB9012070BD5A48006800F0070069
:10102000A8420ED25748006820F0070028435549CF
:1010300008600846006800F00700A84201D00120BF
:10104000E9E7207800F0020002281DD1207800F0A6
:101050000400042805D14C48406840F4E0604A4947
:101060004860207800F00800082805D1464840680C
:1010700040F46050444948604348406820F0F00024
:10108000A168084340494860207800F0010078B327
:101090006068012806D13C48006800F4003090B92F
:1010A0000120B8E76068022806D13748006800F0E0
:1010B000007040B90120AEE73348006800F002003C
:1010C00008B90120A7E73048406820F003006168B4
:1010D00008432D494860FFF79FFE064609E0FFF7E9
:1010E0009BFE801B41F28831884202D9032092E79F
:1010F00007E02548406800F00C006168B0EB810F04
:10110000EDD12048006800F00700A8420ED91D4824
:10111000006820F0070028431A4908600846006864
:1011200000F00700A84201D0012074E7207800F009
:101130000400042807D11448406820F4E060E16806
:10114000084311494860207800F00800082808D1B9
:101150000D48406820F46050216940EAC1000A4906
:10116000486000F03FF808494968C1F30311074A95
:10117000515CC8400649086006480068FFF772FEE7
:10118000002048E70020024000100240885200087A
:101190000000002014000020014800687047000093
:1011A0000000002000B5FFF7F7FF04494968C1F3CC
:1011B0000221034A515CC84000BD000000100240FB
:1011C0009852000800B5FFF7E7FF04494968C1F3EA
:1011D000C221034A515CC84000BD0000001002401B
:1011E00098520008F0B585B00FF26C0C9CE8E01046
:1011F00001A8A0E8E0101CA52D68009500210022A0
:10120000002300240020194D696801F00C05F5B198
:10121000042D02D0082D19D101E0154819E001ADC7
:10122000C1F38346AC5D01F4803555B10F4D6D6857
:10123000C5F340451DF805200D4D6543B5FBF2F3A0
:1012400002E00C4D04FB05F3184602E000BF08481D
:1012500000BF00BF05B0F0BD020304050607080982
:101260000A0B0C0D0E0F10100102000000100240BE
:1012700000127A0000093D00F8B504460CB90120BF
:10128000F8BD207800F00100002878D0F8484068C8
:1012900000F00C0004280CD0F548406800F00C0069
:1012A000082811D1F248406800F48030B0F5803F42
:1012B0000AD1EF48006800F4003000285FD0606871
:1012C00000285CD10120DBE700BF6068B0F5803FFB
:1012D00006D1E748006840F48030E549086028E01E
:1012E000606858B9E248006820F48030E04908603E
:1012F0000846006820F4802008601AE06068B0F5B5
:10130000A02F0BD1DA48006840F48020D84908604B
:101310000846006840F4803008600AE0D44800685D
:1013200020F48030D24908600846006820F480200C
:10133000086000BF606888B1FFF76EFD054606E0F3
:10134000FFF76AFD401B642801D9032098E7C848CD
:10135000006800F400300028F2D010E0FFF75CFDD8
:10136000054606E0FFF758FD401B642801D903201D
:1013700086E7BF48006800F400300028F2D12078EA
:1013800000F00200022857D1B948406800F00C0074
:1013900050B1B748406800F00C00082818D1B44894
:1013A000406800F4803098B9B148006800F002004D
:1013B00020B12069012801D0012061E7AC48006814
:1013C00020F0F800616940EAC100A949086033E0F3
:1013D0002069E8B10120A7490860FFF71DFD054617
:1013E00006E0FFF719FD401B022801D9032047E75B
:1013F0009F48006800F002000028F2D09C48006876
:1014000020F0F800616940EAC1009949086013E0E2
:10141000002098490860FFF7FFFC054606E0FFF74B
:10142000FBFC401B022801D9032029E790480068F3
:1014300000F002000028F2D1207800F0080008280F
:101440002DD1A069B8B101208B490860FFF7E4FCF9
:10145000054606E0FFF7E0FC401B022801D9032007
:101460000EE78348406A00F002000028F2D0012015
:1014700000F020FD13E000207F490860FFF7CCFC5E
:10148000054606E0FFF7C8FC401B022801D90320EF
:10149000F6E67748406A00F002000028F2D1207892
:1014A00000F00400042873D100277148C06900F0DF
:1014B000805070B900BF6E48C06940F080506C49E0
:1014C000C8610846C06900F08050009000BF00BFAE
:1014D00001276A48006800F48070B0B96748006866
:1014E00040F4807065490860FFF796FC054606E009
:1014F000FFF792FC401B642801D90320C0E65F4837
:10150000006800F480700028F2D000BFE068012875
:1015100006D15748006A40F001005549086227E0AB
:10152000E06858B95248006A20F00100504908624A
:101530000846006A20F00400086219E0E068052807
:101540000BD14B48006A40F0040049490862084644
:10155000006A40F0010008620AE04548006A20F095
:101560000100434908620846006A20F0040008624E
:1015700000BFE068A0B1FFF74FFC054609E0FFF7A8
:101580004BFC401B41F28831884202D9032077E6A8
:1015900022E03748006A00F002000028EFD012E095
:1015A000FFF73AFC054608E0FFF736FC401B41F226
:1015B0008831884201D9032062E62D48006A00F094
:1015C00002000028F0D1012F05D12948C06920F080
:1015D00080502749C86100BFE069C8B3244840680B
:1015E00000F00C00082860D0E069022848D10020F3
:1015F00020490866FFF710FC054606E0FFF70CFCE3
:10160000401B022801D903203AE61948006800F07F
:1016100000700028F2D1206AB0F5803F07D114484D
:10162000406820F40030A168084311494860D4E9BB
:10163000080108430E49496821F4741108430C4914
:10164000486001200B490866FFF7E6FB054607E006
:101650003DE0FFF7E1FB401B022801D903200FE624
:101660000348006800F000700028F2D02FE000006E
:1016700000100240000042428004424200700040DC
:10168000002014490866FFF7C7FB054606E0FFF790
:10169000C3FB401B022801D90320F1E50E48006876
:1016A00000F000700028F2D111E0E069012800D1BB
:1016B000E6E50948466806F48031206A814204D193
:1016C00006F47011606A814201D00120D8E5002043
:1016D000D6E500000000424200100240042808D174
:1016E0004FF0E021096941F004014FF0E02211615F
:1016F00007E04FF0E021096921F004014FF0E022FA
:101700001161704770B504462546681EB0F1807FB0
:1017100001D301200FE0681E4FF0E02148610F2146
:101720004FF0FF3000F00EFE00204FF0E021886106
:1017300007200861002070BD7047704710B504464F
:101740000CB9012010BD94F83D0028B9002084F8A0
:101750003C00204600F025F8022084F83D00211DC1
:10176000206800F055FC012084F8460000BF84F892
:101770003E0001213F2001554020015541200155E7
:1017800000BF00BF012084F84200432001554420DF
:1017900001554520015500BF012084F83D0000207F
:1017A000D0E77047014691F83D00012801D00120A3
:1017B0007047022081F83D000868C06840F00100D1
:1017C0000B68D860164B0868984213D0154B086810
:1017D00098420FD00868B0F1804F0BD0124B0868C8
:1017E000984207D0114B0868984203D0104B086804
:1017F00098420CD10868806800F00702062A0CD0D5
:101800000868006840F001000B68186005E008688F
:10181000006840F001000B6818600020C8E7000075
:10182000002C01400034014000040040000800404A
:10183000000C004010B504460D492068884216D1BE
:101840000C48007898B9207F012810D104210A485B
:1018500000F022F9801C094908800021064800F0A8
:101860001BF9801C0649088001200249087010BD40
:10187000003401401E000020F80300202200002058
:101880002400002010B5044620680069C0F3400021
:10189000D8B12068C068C0F34000B0B16FF002005A
:1018A00021680861012020772068806900F003002A
:1018B00018B12046FFF7BEFF05E0204600F0ADF866
:1018C000204600F0ABF80020207720680069C0F3C4
:1018D0008000D8B12068C068C0F38000B0B16FF05C
:1018E000040021680861022020772068806900F4E4
:1018F000407018B12046FFF79DFF05E0204600F03C
:101900008CF8204600F08AF80020207720680069D3
:10191000C0F3C000D8B12068C068C0F3C000B0B147
:101920006FF0080021680861042020772068C069F2
:1019300000F0030018B12046FFF77CFF05E02046C9
:1019400000F06BF8204600F069F80020207720684E
:101950000069C0F30010D8B12068C068C0F300105F
:10196000B0B16FF01000216808610820207720686E
:10197000C06900F4407018B12046FFF75BFF05E036
:10198000204600F04AF8204600F048F80020207772
:101990002068006900F0010058B12068C06800F0BC
:1019A000010030B16FF0010021680861204600F0AD
:1019B00037F820680069C0F3C01058B12068C068CB
:1019C000C0F3C01030B16FF080002168086120467C
:1019D000FFF7B2FE20680069C0F3801058B120689C
:1019E000C068C0F3801030B16FF04000216808611A
:1019F000204600F06AF820680069C0F3401058B132
:101A00002068C068C0F3401030B16FF0200021683A
:101A100008612046FFF791FE10BD70477047000037
:101A2000194A016891422DD11849097801F08001C5
:101A300011BB1649097801F04001E9B11349097851
:101A400001F03F013F2918D111490968096A21F0C5
:101A5000A0010F4A126811620D490968096A0C4A0F
:101A6000126811620949097841F08001074A117032
:101A70004FF6FF71074A118004E004490978491CB8
:101A8000024A117070470000000C00401B0000204B
:101A9000680300201C0000200246002031B1042908
:101AA00007D0082908D00C290CD108E01368586B1E
:101AB00009E01368986B06E01368D86B03E01368BD
:101AC000186C00E000BF00BF70477047704700000F
:101AD0002DE9F0470446206805682068C66820683C
:101AE00047694FF00008C14605F00F08B8F1000F34
:101AF0000AD105F0200038B106F0200020B12046C0
:101B000000F0FEFABDE8F087B8F1000F71D007F0E1
:101B1000010018B906F4907000286AD005F00100A1
:101B200030B106F4807018B1E06B40F00100E06362
:101B300005F0040030B107F0010018B1E06B40F08F
:101B40000200E06305F0020030B107F0010018B1B7
:101B5000E06B40F00400E06305F0080048B106F0D7
:101B6000200010B907F0010018B1E06B40F0080048
:101B7000E063E06B68B305F0200028B106F02000B8
:101B800010B1204600F0BCFA20684069C0F380190B
:101B9000E06B00F0080010B9B9F1000F22D0204628
:101BA00000F08EFA2068406900F04000B0B1206873
:101BB000406920F0400021684861606B50B11848CE
:101BC000616B4863606BFEF793FE10B1606B416B15
:101BD00088470CE02046FFF779FF08E02046FFF732
:101BE00075FF04E02046FFF771FF0020E06389E7FE
:101BF000FFE705F0800030B106F0800018B1204604
:101C000000F04CFB7EE705F0400030B106F04000EC
:101C100018B1204600F064FA74E700BF72E70000D4
:101C2000AD20000810B504460CB9012010BDA06914
:101C300000B100E000BF94F8390028B9002084F812
:101C40003800204600F028F8242084F83900206865
:101C5000C06820F400502168C860204600F0A0FA57
:101C60002068006920F4904021680861206840697C
:101C700020F02A00216848612068C06840F40050C4
:101C80002168C8600020E063202084F8390084F8CF
:101C90003A000020CAE7000010B586B00446284983
:101CA000206888424AD100BF00BF2648806940F0C2
:101CB0000400244988610846806900F0040001900E
:101CC00000BF00BF00BF00BF00BF0846806940F0F2
:101CD000040088610846806900F00400019000BF9C
:101CE00000BF00BF00BF00BF0846806940F48040CD
:101CF00088610846806900F48040019000BF00BF01
:101D000000BF481502900220039001200490032098
:101D1000059002A90C48FEF7CFFE4FF480600290B8
:101D20000020039002A90848FEF7C6FE2520FFF711
:101D3000C0F8032211462520FFF7CBF806B010BDEE
:101D400000380140001002400008014010B5034671
:101D500093F83A0020282FD101B10AB9012010BD13
:101D600000BF93F83800012801D10220F7E70120D5
:101D700083F8380000BF99629A85DA850020D8631D
:101D8000222083F83A0000BF002083F8380000BF0B
:101D90001868C06840F480701C68E060186840698A
:101DA00040F001001C6860611868C06840F02000C5
:101DB0001C68E0600020D2E70220D0E71D4A0168DD
:101DC000914236D11C49098801F4004189BB1A4966
:101DD000098801F4804171B1184909780A2903D0B2
:101DE0000021154A118024E01349098841F400417B
:101DF000114A11801DE0114909780D2906D10E49BB
:101E0000098841F480410C4A118012E00B4909789D
:101E1000094A1288C2F30D02094B995406490988F0
:101E2000491C054A118011460988C72901DD002196
:101E30001180704700380140080000200A0000208F
:101E4000F80100207047000010B50446054800F076
:101E500021F800BF4FF480410348FEF7CDFF00BFDB
:101E600010BD00000C0300200014014010B5044612
:101E700020684068C0F3402058B12068806800F0B6
:101E8000010030B16FF00100216888602046FFF743
:101E9000DBFF10BD01460A68C8681060002070476B
:101EA00000BFFEE700BFFEE7704710B5FFF79EF8E2
:101EB00010BD704708B508490968C9084FF47A721F
:101EC000B1FBF2F14143009100BF00BF00994A1EEF
:101ED00000920029F9D108BD000000200EB51B4872
:101EE0000068406800F0010030B101F007FC6FF0BD
:101EF0000100164909684860144800684068C0F34A
:101F00004000A0B16FF00200104909684860104815
:101F100080780F4949780E4A1278CDE90021029065
:101F20000B48C379827981880AA0FEF7A1F96FF086
:101F3000040006490968486000BF0448006840681A
:101F4000C0F340100028F8D00EBD0000900500201E
:101F5000A4050020416C61726D2054696D653A25BD
:101F6000642D25642D25642025643A25643A256472
:101F70000A000000704710B5FEF754FF10BD70470F
:101F800008480068006900F0010020B106480078A8
:101F9000401C054908706FF001000249096808619A
:101FA00070470000B00300201A00002010B50E4852
:101FB0000068C06800F0010078B10C4908698047EA
:101FC000002009490968486200BF64200649096881
:101FD000C86264210448C16000BF6FF0010002497B
:101FE0000968086110BD0000C4050020040100203C
:101FF00010B50248FFF746FC10BD00006803002042
:1020000010B50248FFF73EFC10BD0000F8030020A9
:1020100010B50268204B98420ED0204B98420BD04E
:10202000B0F1804F08D01E4B984205D01D4B98420E
:1020300002D01D4B984203D122F070024B681A4324
:10204000154B98420ED0154B98420BD0B0F1804FF3
:1020500008D0134B984205D0124B984202D0124B35
:10206000984203D122F44072CB681A4322F08003D5
:102070004C6943EA040202608B68C3620B688362A6
:10208000054B984202D0054B984201D10B6903637E
:102090000123436110BD0000002C014000340140C9
:1020A0000004004000080040000C004070B50546E8
:1020B0006C6A0020E085E0842046FFF707FD70BDD4
:1020C0000168C96821F490710268D16001684969AA
:1020D00021F0010102685161202180F83A10704717
:1020E00010B504462068C06820F040002168C86030
:1020F000202084F839002046FFF7A4FE002010BD00
:1021000070B5044694F83A00222847D1A068B0F58B
:10211000805F0CD1206950B90025A66A206840680C
:10212000C0F308003080A06A801CA06215E0A56A98
:102130000026A068B0F5805F03D0A06828B92069A8
:1021400018B920684068287004E02068406800F0F2
:102150007F002870A06A401CA062E08D401E80B203
:10216000E085C8B92068C06820F020002168C860F8
:102170002068C06820F480702168C86020684069C9
:1021800020F0010021684861202084F83A002046B0
:10219000FFF714FE002070BD0020FCE70220FAE7E4
:1021A00070B504462168096921F44051E268114381
:1021B000226811612269A1681143626941EA02053E
:1021C0002168C96841F20C62914329432268D160B9
:1021D0002168496921F44071A26911432268516163
:1021E0002D4A2168914202D1FEF7ECFF01E0FEF793
:1021F000D9FF00EBC00101EB001162689200B1FB56
:10220000F2F100EBC00202EB001263689B00B2FB2C
:10221000F3F26423B2FBF3F202EBC20303EB02120C
:10222000A1EB8201322202EB01116422B1FBF2F137
:1022300001F0F00100EBC00202EB001263689B00AA
:10224000B2FBF3F26423B2FBF3F201EB021200EBF8
:10225000C00101EB001163689B00B1FBF3F100EBDF
:10226000C00303EB00136668B600B3FBF6F3642605
:10227000B3FBF6F303EBC30606EB0313A1EB8301F9
:10228000322303EB01116423B1FBF3F101F00F01E1
:1022900011442268916070BD00380140014691F8F8
:1022A0003900212828D18868B0F5805F0BD10869F2
:1022B00048B90A6A1088C0F308000B685860086AB9
:1022C000801C086205E00B6A581C086218780B68CD
:1022D0005860C88C401E80B2C88458B90868C0686D
:1022E00020F080000B68D8600868C06840F04000AB
:1022F0000B68D860002070470220FCE710B5064844
:10230000FFF7E6FB00BF012204490348FFF71EFD6B
:102310000028F8D110BD0000C00200200A000020F3
:1023200000BFFEE710B50248FFF7A0FD10BD00009A
:102330000C03002002480068C0F302207047000030
:102340000CED00E010B5002804DB0A07130E054A67
:10235000135406E00A07140E034A00F00F031B1F74
:10236000D45410BD00E400E018ED00E030380A2835
:1023700001D2012070470020704700BF7047000065
:1023800010B588B0044600BF2648C06940F0005030
:102390002449C8610846C06900F00050019000BFA0
:1023A00000BF00BF0846806940F00400886108460D
:1023B000806900F00400019000BF00BF012C01D132
:1023C000102000E0202004900320059004A9164866
:1023D000FEF772FB1548164908600846FEF720FA1A
:1023E0000020029002200390012C02D0022C14D174
:1023F00009E0002202A90E48FEF7D8F900210C4896
:10240000FEF739FA0AE0102202A90948FEF7CEF9D0
:1024100010210748FEF72FFA00E000BF00BF08B008
:1024200010BD000000100240000801400074004090
:10243000B00500202DE9F04706468946484602F0DF
:10244000A0FD04460D4600221C4B2046294602F002
:1024500013FC04460D460022194B2046294602F083
:10246000DFFD07464FF06632164B02F005FC0446CE
:102470000D460022124B2046294602F0CFFE01D81D
:102480000024114D012E0BD12046294602F04CFDAF
:1024900007463B46002211460C48FEF7D6F90AE0F3
:1024A0002046294602F040FD07463B460022102107
:1024B0000648FEF7CAF9BDE8F087000000408F40EB
:1024C0000000B04066660A4000FEAF40B005002044
:1024D00010B5044600204FF0E0210861FFF7FEF838
:1024E0002046E11704EB5171C1F3CF01014A11807D
:1024F00010BD00000C00002070B504464FF47A7047
:1025000094FBF0F594FBF0F100FB114603E0074863
:1025100000F00EF86D1E002DF9D12EB14FF47A7136
:1025200006FB01F000F004F870BD000040420F000F
:102530000146114A12884A434FF0E0235A610022B3
:102540009A611A46126942F001021A6100BF4FF007
:10255000E022106900F001021AB100F48032002A72
:10256000F5D04FF0E022126922F001024FF0E02393
:102570001A6100229A6170470C00002000BF054AD2
:10258000126802F04002002AF9D0C2B2014B1B1DB2
:102590001A6070470038014070B5044600260948AB
:1025A0000588408845430021084600F007FC00F0FC
:1025B00095FF00BF03E04FF0D8404480761CAE4248
:1025C000F9D370BD8005002010B504465C488471C5
:1025D000002C53D1F0205A4908804FF4A070488055
:1025E0000846808845F21051884210D14FF430508F
:1025F000534908814FF4285048814FF42C5088816A
:102600004FF4F07008804FF44870488028E04C4840
:10261000808841F6631188420DD12C2048490881F9
:102620002B2048812A2088814FF4F07008804FF4D5
:102630004870488014E04248808845F2084188424A
:1026400007D122203E49088120204881212088810D
:1026500006E02C203A4908812A2048812B208881D5
:102660003748808845F2103188425AD14FF4A07023
:10267000334908804FF4F070488052E04FF4A07066
:102680002F490880F02048800846808845F2105184
:10269000884210D14FF43050294908814FF4285016
:1026A00048814FF42C5088814FF4487008804FF4D3
:1026B000F070488028E02248808841F66311884203
:1026C0000DD12C201E4908812A2048812B20888189
:1026D0004FF4487008804FF4F070488014E01848B8
:1026E000808845F20841884207D122201449088198
:1026F000212048812020888106E02C201049088173
:102700002A2048812B2088810D48808845F210318D
:10271000884206D14FF4F070094908804FF4A07048
:1027200048800748808845F20841884204D11CB19E
:10273000062000F089F902E0002000F085F910BDC4
:10274000800500202DE9F04706460F4690469A4640
:10275000002445460320A0EB480944E07A1B91B2CF
:10276000321990B2524600F098F83A1B91B27219A1
:1027700090B2524600F091F83A1991B2721990B2A3
:10278000524600F08AF87A1991B2321990B2524644
:1027900000F083F87A1991B2321B90B2524600F0E1
:1027A0007CF83A1991B2721B90B2524600F075F85B
:1027B0007A1B91B2321B90B2524600F06EF83A1B6F
:1027C00091B2721B90B2524600F067F8641CB9F1E6
:1027D000000F03DAA000801D814404E0601B80002C
:1027E0000A3081446D1EAC42B8DDBDE8F0872DE9AA
:1027F000FF4F85B081468A460020039083460798A4
:10280000A0EB09050898A0EB0A06CDF80890CDF8D2
:1028100004A0002D01DD012705E00DB9002702E02D
:102820004FF0FF376D42002E02DD4FF0010806E049
:1028300016B94FF0000802E04FF0FF387642B5427B
:1028400001DD2C4600E03446002004901EE0019A91
:1028500091B2029A90B2129A00F01FF8039828449D
:102860000390B3440398A04205DD0398001B039036
:10287000029838440290A34504DDABEB040B0198A9
:10288000404401900498401C80B20490611C04985C
:102890008842DCDD09B0BDE8F08F70B505460E4614
:1028A00014463146284600F089FA00F017FE4FF032
:1028B000D8414C8070BD2DE9F84305460E461746B9
:1028C0009846089C33463A46314628460094FFF71E
:1028D0008EFF43462A46314628460094FFF787FF7D
:1028E00043463A46414628460094FFF780FF434658
:1028F0003A46314638460094FFF779FFBDE8F88341
:102900002DE9F05F05460E4617469846DDF828A0EB
:102910004FF0000B781B401C1FFA80FB344614E07C
:102920002146284600F04AFA00F0D8FD4FF0000991
:1029300007E04FF0D841A1F802A009F101001FFA09
:1029400080F9D945F5DB601C84B24445E8DDBDE87B
:10295000F09F00BF011EA0F10100FBD1704710B530
:102960000246012000E050430B1EA1F10104E1B238
:10297000F9D110BD08B50220FFF7EBFF4FF0D840AA
:1029800040880090BDF8000008BD00002DE9F0412E
:1029900005460E4600240027A0462A480088A84283
:1029A00003DD28484088B04202DC0020BDE8F08109
:1029B0003146284600F002FA2248808845F210513C
:1029C000884204D14FF4385000F07EFD0CE01D48E1
:1029D000808845F20841884203D1222000F074FD2E
:1029E00002E02E2000F070FDFFF7C4FF04461548FA
:1029F000808841F66311884201D12046D6E7FFF76F
:102A0000B9FF04460F48808845F20841884208D142
:102A100004F4FC6004F01F0140EAC12040EAD42025
:102A2000C4E7FFF7A7FF8046E7B24FF6FF7000EA62
:102A30000727E012C002B91240EA411040EAE8203C
:102A4000B4E70000800500202DE9F0470646002489
:102A5000A146B046D5488079012805D1D348808861
:102A600041F66311884208D1D0488079F0B9CF4847
:102A7000808841F66311884218D1082E15D2DFE80C
:102A800006F00406080A0C0E101206260DE00726B2
:102A90000BE0042609E0052607E0012605E00026F4
:102AA00003E0032601E0022600BF00BF082E1CD26F
:102AB000DFE806F00406090C0F12151800BF14E039
:102AC00044F0800411E044F040040EE044F0C004FF
:102AD0000BE044F0200408E044F0600405E044F01A
:102AE000A00402E044F0E00400BF00BF4FF036094C
:102AF000AE48808845F21051884201D14FF45859B0
:102B0000AA48808849F24131884205D0A748808888
:102B100047F28971884201D144F00804A3488088B3
:102B200045F20841884203D02146484600F0DEFCC9
:102B30009E48808845F2084188427CD10025B8F142
:102B4000080F5CD2DFE808F0040E1A252F3A455131
:102B5000002097490870974908709749087045F018
:102B600030054CE00020924908700120914908701E
:102B700000209149087045F0100540E000208C4984
:102B800008708C49087001208B49087045F02005B9
:102B900035E0002086490870012086490870864982
:102BA000087000BF2BE00120814908700020814996
:102BB00008708149087045F0380520E001207C4903
:102BC00008707C49087000207B49087045F0280592
:102BD00015E0012076490870002076490870012030
:102BE0007549087045F0180509E001207049087022
:102BF000704908707049087045F0080500BF00BFB3
:102C000045F480552946032000F070FC68480078A0
:102C1000664988710846807930B9F02008804FF401
:102C2000A07048802BE006E04FF4A0705F49088058
:102C3000F020488023E05D48808841F66311884297
:102C40001DD004F0200068B15848008857494988D1
:102C5000884214DA55480788408854490880084655
:102C600047800CE05148008850494988884206DD79
:102C70004E48078840884D490880084647804B48A1
:102C8000808845F21051884252D14849488900F065
:102C90001BFC002000F00EFC44494989491C88B205
:102CA00000F012FC002000F005FC40494989891C15
:102CB00088B200F009FC3D490988491EC1F30F2084
:102CC00000F0F8FB39494989C91C88B200F0FCFBC7
:102CD00036490978491EC8B200F0ECFB33498889AF
:102CE00000F0F2FB002000F0E5FB30498989491C27
:102CF00088B200F0E9FB002000F0DCFB2B49898959
:102D0000891C88B200F0E0FB28494988491EC1F3BC
:102D10000F2000F0CFFB25498989C91C88B200F03B
:102D2000D3FB22498978491EC8B200F0C3FB3BE0BF
:102D30001E48808845F20841884207D11B484388D5
:102D400002880021084600F0FDF82DE01749488967
:102D500000F0BAFB002000F0ADFB002000F0AAFB61
:102D600012490988491EC1F30F2000F0A3FB0F4947
:102D70000978491EC8B200F09DFB0C49888900F013
:102D8000A3FB002000F096FB002000F093FB074916
:102D90004988491EC1F30F2000F08CFB0349897854
:102DA000491EC8B200F086FBBDE8F0878005002010
:102DB00030000020310000203200002013B56048B0
:102DC000808841F66311884256D15D488079E0B928
:102DD0005B480088401EBDF80010401A80B2009089
:102DE0005749488900F070FB002000F063FB002089
:102DF00000F060FBBDF80010081200F05BFBBDF8AE
:102E00000010C8B200F056FB1AE04D49488900F0A6
:102E10005BFBBDF80010081200F04CFBBDF8001081
:102E2000C8B200F047FB46490988491EC1F30F208C
:102E300000F040FB42490978491EC8B200F03AFB55
:102E40003F49888900F040FBBDF80410081200F0EB
:102E500031FBBDF80410C8B200F02CFB384949889A
:102E6000491EC1F30F2000F025FB35498978491E22
:102E7000C8B200F01FFB61E03148808845F2105174
:102E8000884228D12E49488900F01EFBBDF8001069
:102E9000081200F00FFB2A494989491C88B200F04A
:102EA00013FBBDF80010C8B200F004FB2449888968
:102EB00000F00AFBBDF80410081200F0FBFA2049EC
:102EC0008989491C88B200F0FFFABDF80410C8B225
:102ED00000F0F0FA32E01A48808845F20841884252
:102EE00010D101A9684600F007FB15494889BDF8D3
:102EF000001000F0FBFA12498889BDF8041000F0B8
:102F0000F5FA1BE00E49488900F0DEFABDF8001022
:102F1000081200F0CFFABDF80010C8B200F0CAFAEB
:102F20000749888900F0D0FABDF80410081200F0B3
:102F3000C1FABDF80410C8B200F0BCFA1CBD000014
:102F4000800500202DE9FF4383B014461D46BDF8DF
:102F50000C002044401E80B20290BDF810002844AE
:102F6000401E80B201909048808841F663118842EB
:102F700042D18D48807901283ED08B480088001BC3
:102F8000BDF80C10401A80B20390BDF81000284420
:102F9000401E85B28449488900F096FABDF80C10AD
:102FA000081200F087FABDF80C10C8B200F082FADF
:102FB000BDF80C102144491EC1F30F2000F07AFA2D
:102FC000BDF80C102144491EC8B200F073FA7649CE
:102FD000888900F079FABDF81010081200F06AFA3A
:102FE000BDF81010C8B200F065FA281200F062FABD
:102FF000E8B200F05FFAD3E06B48808845F21051E8
:10300000884254D16849488900F05EFABDF80C1036
:10301000081200F04FFA64494989491C88B200F04F
:1030200053FABDF80C10C8B200F044FA5E49498961
:10303000891C88B200F048FABDF80810081200F0A8
:1030400039FA59494989C91C88B200F03DFABDF8DE
:103050000810C8B200F02EFA5349888900F034FAFB
:10306000BDF81010081200F025FA4F498989491C53
:1030700088B200F029FABDF81010C8B200F01AFAB0
:1030800049498989891C88B200F01EFABDF80410EC
:10309000081200F00FFA44498989C91C88B200F06F
:1030A00013FABDF80410C8B200F004FA78E03E4804
:1030B000808845F20841884242D104A903A800F063
:1030C0001BFA01A902A800F017FABDF80C00BDF820
:1030D0000810884204DDBDF80860BDF80C7003E0FC
:1030E000BDF80C60BDF80870BDF81000BDF8041004
:1030F000884204DDBDF80480BDF8109003E0BDF8FF
:103100001080BDF804903146502000F0EFF93946A8
:10311000512000F0EBF94146522000F0E7F9494612
:10312000532000F0E3F920494889BDF80C1000F065
:10313000DDF91D498889BDF8101000F0D7F92FE09E
:103140001949488900F0C0F9BDF80C10081200F0C8
:10315000B1F9BDF80C10C8B200F0ACF9BDF8081018
:10316000081200F0A7F9BDF80810C8B200F0A2F9E3
:103170000D49888900F0A8F9BDF81010081200F078
:1031800099F9BDF81010C8B200F094F9BDF8041018
:10319000081200F08FF9BDF80410C8B200F08AF9E7
:1031A00007B0BDE8F0830000800500202DE9FC5F3A
:1031B00080460E4615461C46B346002001900090FE
:1031C0002046E31704EB5373DB1021464FEAE47CFF
:1031D00004EB5C7C4FEAEC0CA4EBCC0CBCF1000FD4
:1031E00002D04FF0010C01E04FF0000C6344224686
:1031F00004EBD27C4FEA6C0C03FB0CF3DBB20193C3
:10320000A5F12000C5B20C2C06D0102C0BD0182C28
:103210000ED0202C18D112E005EB45002D4901EB12
:103220008000009012E02C4800EB051000900DE0AB
:1032300005EBC500294901EB8000009006E0284815
:1032400000EB8510009001E0BDE8FC9F00BF002767
:103250003AE0009810F807904FF0000A2EE009F0CD
:10326000800028B1314640460D9AFFF716FB07E073
:103270000C9828B91B48314602684046FFF70DFB01
:103280004FEA49604FEA1069701C86B216484088C0
:10329000B04200DCD8E7A6EB0B00A0420AD15E46A4
:1032A00008F101001FFA80F80F480088404500DC53
:1032B000CAE706E00AF1010000F0FF0ABAF1080FC0
:1032C000CDDB00BF781CC7B201988742C1DB00BFCD
:1032D000BAE70000A052000814570008045D000877
:1032E000606A00082C000020800500202DE9FF4FB7
:1032F00083B0074691461E46DDE9105A0020029031
:1033000000243AE0301B401EC1B20A20FFF727FB21
:10331000B9FBF0F00A21B0FBF1F201FB12080298B0
:10332000B8B9701EA04214DDB8F1000F0FD1002013
:10333000AB4605EBDB71491001FB0471CDE9000AD6
:1033400088B22B4620220499FFF730FF13E00120BA
:1033500002900020AB4605EBDB71491001FB0471C4
:10336000CDE9000A88B208F13001CAB22B460499AF
:10337000FFF71CFF00BF601CC4B2B442C2DB07B041
:10338000BDE8F08F2DE9FC5F04460D469046994656
:10339000DDE90D7A0C9E04F0FF0B08EB04001FFA28
:1033A00080F809EB05001FFA80F917E0444502DBBD
:1033B0005C46A81985B24D4500DB15E00020CDE93B
:1033C000000A3A78334629462046FFF7EFFE30469A
:1033D00006EBD07104EB61018CB27F1C38787E283B
:1033E00002DC38782028E1DA00BFBDE8FC9F2DE937
:1033F000FF4F85B0064693461F46DDE91389129CB0
:1034000000200490002550E0781B401EC1B20A2025
:10341000FFF7A5FABBFBF0F00A21B0FBF1F201FBCC
:10342000120A049860BB781EA84229DDBAF1000F89
:1034300024D108F0800080B108F0010004EBD471C1
:10344000491001FB0561CDE90009039488B22346C8
:1034500030220699FFF7AAFE0FE008F0010004EB06
:10346000D471491001FB0561CDE90009039488B2CC
:10347000234620220699FFF799FE14E001200490CC
:1034800008F0010004EBD471491001FB0561CDE99E
:103490000009039488B20AF13001CAB223460699A2
:1034A000FFF784FE00BF681CC5B2BD42ACDB09B0AB
:1034B000BDE8F08F01B5BDF800000090BDF8000038
:1034C0004FF0D841488008BD01B5BDF8000000901C
:1034D000BDF800004FF0D841088008BD02480089BF
:1034E0004FF0D84108807047800500204FF0D84247
:1034F000108051807047000010B50D4B1B782BB128
:103500000C4B1B8804881B1B5B1E03800A4B1B781B
:103510002BB1084B5B880C881B1B5B1E0B80074B79
:103520001B781BB102880B8803800A8010BD000045
:1035300032000020800500203100002030000020F3
:1035400000B585B000BF00BF2048806940F0200072
:103550001E4988610846806900F02000009000BF85
:1035600000BF00BF00BF00BF0846806940F02000D8
:1035700088610846806900F02000009000BF00BF0D
:1035800000BF4FF4005001900120029003900320EF
:10359000049001A90E48FDF78FFA4FF48040019086
:1035A00001A90B48FDF788FA00BF00224FF4005133
:1035B0000748FDF72BFC00BF00BF00224FF48041FD
:1035C0000348FDF723FC00BF05B000BD001002401A
:1035D0000014014010B5044600BF2CB10122910334
:1035E0000548FDF713FC05E000224FF48041024836
:1035F000FDF70CFC00BF10BD00140140FDF71EFCE0
:103600004FF4E01000F0F2F94820FEF761FF4FF4AC
:10361000E13000F025FAFFF793FF0120FEF7B0FE3E
:1036200040F6E4410120FEF705FF09E000BF4FF43A
:1036300000510448FDF7E0FB00BF6420FEF75CFF8B
:10364000F4E70000001401400146086870470000DC
:103650002DE9FF4F04460D4669B2A1F102084FFA69
:1036600088F8B8F1000107DC01F10C084FFA88F185
:10367000A4F101081FFA88F44FF0640994FBF9FAE9
:103680004FEAE47904EB99794FEAA90BA4F1010917
:1036900040F26D1E09FB0EB9A9EB0A094FF4C87A76
:1036A00094FBFAFA09EB0A0340F26F1801FB08F8E1
:1036B0004FF00C0998FBF9F808F11D06571E03EBB3
:1036C0000608B844DFF83090A8EB090C0CEB4C0965
:1036D000DDF80C8008EBC908C8EB0819DDF8348068
:1036E00008EB8908C8EB0819DDF8388008EB890079
:1036F00004B0BDE8F08F00003AF90A00FEB50026DC
:10370000002400253DA2D2E900109268CDE9010213
:1037100000913D4806683604001D006806443B4899
:10372000B6FBF0F43A480088A0423AD038490C8001
:1037300040F2B2750EE0284600F096F830B1B4F5CC
:10374000B77F02D3A4F5B77402E006E0A4F26D14CB
:10375000681C85B2B4F5B67FEDD800BF2D488580D2
:10376000002516E02B49888800F07EF830B1012D45
:1037700004D11D2C01D31D3C09E00CE01DF805000F
:10378000A04203D81DF80500241A00E003E0681CDD
:1037900085B21C2CE6D200BF681C1E498871601CD3
:1037A000C8711A48B6FBF0F100FB11644FF4616078
:1037B000B4FBF0F0174908704FF46160B4FBF0F10E
:1037C00000FB11403C21B0FBF1F0124948704FF46E
:1037D0006160B4FBF0F100FB11403C21B0FBF1F261
:1037E00001FB12000B4988700B46DA7999799888A9
:1037F00000F012F807490872FEBD00001F1C1F1ED2
:103800001F1E1F1F1E1F1E1F182800408051010071
:1038100034000020A405002070B5034600200329D1
:1038200004DA01F10C04E1B25C1EA3B24C1C04EBFF
:103830004404052594FBF5F5541C022606FB0144BF
:103840002C441C4404EBA304642593FBF5F5641B92
:103850004FF4C87593FBF5F52C44072594FBF5F65A
:1038600005FB1644E0B270BD0146CA1701EB927227
:103870009210A1EB82022AB9642291FBF2F302FBBF
:10388000131232B94FF4C87291FBF2F302FB131218
:103890000AB9012070470020FCE700002DE9FC4731
:1038A00005460E4617469846DDE90A9A0024434627
:1038B0003A4631462846CDE9009AFFF7C9FE04464C
:1038C00000BF1D48C06940F080501B49C8610846D0
:1038D000C06900F08050019000BF00BF00BF0846E3
:1038E000C06940F00060C8610846C06900F000602F
:1038F000019000BF00BFFDF73FFB1048006840F09B
:1039000010000E490860A0B20C4920310860200C5C
:10391000091F08600948006820F010000749086086
:1039200000BF074800684068C0F340100028F8D086
:103930000020BDE8FC870000001002400428004081
:10394000900500202DE9FC4705460E46174698468F
:10395000DDE90A9A002443463A4631462846CDE935
:10396000009AFFF775FE044600BF1D48C06940F08D
:1039700080501B49C8610846C06900F08050019022
:1039800000BF00BF00BF0846C06940F00060C861CA
:103990000846C06900F00060019000BF00BFFDF75D
:1039A000EBFA1048006840F010000E490860A0B221
:1039B0000C4918310860200C091F0860094800688C
:1039C00020F010000749086000BF07480068406801
:1039D000C0F340100028F8D00020BDE8FC870000AC
:1039E00000100240042800409005002030B58FB040
:1039F00005460124282105A8FCF7C2FD14216846CC
:103A0000FCF7BEFD01200590000406900020079001
:103A100002200C90C1030D910E9505A8FDF72CFC1A
:103A200004460CB100BFFEE70F2000900220019079
:103A3000002002904FF48060039000200490022147
:103A40006846FDF7E3FA04460CB100BFFEE70FB08D
:103A500030BD70B505460C462046A84770BD000035
:103A600010B5044609480A49086008464460002128
:103A70008160C160016181610C214161FEF7D2F872
:103A8000012204490248FEF761F910BD00380140E7
:103A9000C00200200A00002030B595B0054613ABE7
:103AA00012AA09A9284600F03FFA044614B120469C
:103AB00015B030BD0020149026E0224909689DF819
:103AC000502001EBC20113AB11AA486801A900F014
:103AD0002BFA04460CB12046EAE709A901A800F038
:103AE000AFFC60B99DF844009DF84810884201DDA4
:103AF0000220DDE79DF85000124988750AE09DF824
:103B00005000401CC0B214900E48007D9DF850102B
:103B10008842D2DC00BF0B48007D9DF850108842DF
:103B200001D10420C4E714A9284600F0DDFA0446B8
:103B30000CB12046BCE79DF85000024948750020B2
:103B4000B6E70000040100202DE9F0419AB09C483E
:103B5000847D007DA04202DC1AB0BDE8F081984966
:103B6000096801EBC40106AB07AA486808A900F080
:103B7000DBF908A993A0FCF77BFB002644E0904802
:103B8000008B0121B1400840D8B122218FA0FCF761
:103B90006FFB304600F042FB894924314718394613
:103BA0008BA0FCF765FB222188A0FCF761FB304667
:103BB00000F034FB82492431084410A941F8260062
:103BC00018E0304600F02AFB7D492431085810A93E
:103BD00041F826007A48C07D30B910A850F8261068
:103BE0007CA0FCF745FB05E010A850F826107AA051
:103BF000FCF73EFB9DF81C00401EB04202D078A0AE
:103C0000FCF736FB701CC6B29DF81C008642B6DB82
:103C100074A0FCF72DFB01F007F86948407D0B28E4
:103C20000DD2DFE800F0060D151E27323F4E5F7201
:103C300087006349096851F834008047054690E0E1
:103C40005F4A126852F8341010988847054688E099
:103C50005B4B1B6853F83420DDE9100190470546A3
:103C60007FE0574F3F6857F8343010A807C898478F
:103C7000054676E0DFF848C1DCF800C05CF8347037
:103C800010A80FC8B84705466BE01498DFF830C19C
:103C90000090DCF800C05CF8347010A80FC8B8477A
:103CA00005465EE0DDE91401DFF814C1CDE900014D
:103CB000DCF800C05CF8347010A80FC8B84705469F
:103CC0004FE0DDE914121698DFF8F4C0CDE90012D8
:103CD0000290DCF800C05CF8347010A80FC8B84738
:103CE00005463EE0DDE91423DDE91610DFF8D0C01B
:103CF000CDE90023CDE90210DCF800C05CF8347097
:103D000010A80FC8B84705462BE0DDE91523DDE90B
:103D10001710CDE90123CDE903101498DFF8A0C0F6
:103D20000090DCF800C05CF8347010A80FC8B847E9
:103D3000054616E0DDE91623DDE91810CDE902237A
:103D4000CDE90410DDE91401DFF874C0CDE900010C
:103D5000DCF800C05CF8347010A80FC8B8470546FE
:103D600000BF00BF00F00EFF9DF8180001280CD125
:103D70001348C07D20B929461BA0FCF779FA07E05B
:103D800029461BA0FCF774FA02E018A0FCF770FAB1
:103D90000B4890F8EC0088B10948D0F8F0000A21EF
:103DA000B0FBF1F201FB12070548D0F8F000B0FBC0
:103DB000F1F83A46414611A0FCF75AFA00BFCBE6AB
:103DC000040100200D0A257328000000256300006F
:103DD00025730000256C6400305825580000000051
:103DE0002C000000290000003D256C753B0D0A00E9
:103DF0003D305825583B0D0A0000000046756E63A3
:103E000074696F6E2052756E2054696D653A256431
:103E10002E2531646D730D0A00000000F0B50346D5
:103E2000154600200022002600245BE01F782C2F7E
:103E300001D104B901221F78292F01D01F780FB9B1
:103E400004B950E0002E3AD11F78302F02DB1F78E2
:103E5000392F17DD1F782D2F14D01F782B2F11D05D
:103E60001F78612F02DB1F78662F0BDD1F78412F33
:103E700002DB1F78462F05DD1F78582F02D01F78F0
:103E8000782F0CD102B12EE01F78612F03DB1F7851
:103E9000203F0F7001E01F780F70491C1FE01F7852
:103EA000222F04D102B11EE00126012417E01F7861
:103EB000202F14D01F782C2F11D0FF2613E01F784D
:103EC000222F00D1002402B10DE044B11F785C2FF5
:103ED00002D15B1C471CF8B21F780F70491C471CAD
:103EE000F8B25B1CA2E700BF00270F702E70F0BD78
:103EF00010B50446002010700BE020780870641C98
:103F0000491C1078401C10701078984201DB012089
:103F100010BD2078202802D020780028EDD1002084
:103F2000087000BFF4E700002DE9FF4F85B0804620
:103F300089460027002004900390012002904FF052
:103F4000000B002544461DE02078202816D005F0FF
:103F50007F00052812DA0DB945F0800505F07F00D5
:103F6000042803D120782A2800D00EE0207805F01C
:103F70007F010DF80100681CC5B202E0852D00D15B
:103F800003E0641C20780028DED100BF8DB1002042
:103F900005F07F010DF8010051A1684600F050FACC
:103FA00018B900210898017002E0012108980170F9
:103FB00000254FF0000A444614E0641C0AF1010099
:103FC00000F0FF0A2078202802D020782A2809D182
:103FD000204600F0A7F90646282E03D02A2E01D04D
:103FE000CDF810A02078282802D020780028E4D12D
:103FF0004446049810B10498401C04444FF0000A51
:10400000002654E0207810B94FF0010A50E02078E3
:10401000282803D116B9781CC7B213E020782928C4
:1040200008D13EB917B1781EC7B201E04FF0010ABE
:1040300047B93DE02078222804D10EB9012000E0E4
:104040000020064647B9207820282FD0207889F80C
:10405000000009F1010929E020782C2804D1012071
:104060000290681CC5B214E02078202811D0207876
:1040700028280ED04DB9BBF1050F06DA20780DF8CF
:104080000B000BF1010000F0FF0B0298401CC0B2C6
:104090000290012F0AD10298022807D10298401CF1
:1040A000C0B202900398401CC0B20390641CA9E700
:1040B00000BF0398012809D100200DF80B0008A1CA
:1040C000684600F0BDF908B90020039007990398ED
:1040D0000870002089F80000504609B0BDE8F08F54
:1040E000766F6964000000002DE9F043B5B0054625
:1040F0000F460024002604E000213D488155701C35
:10410000C6B20A2EF8DB06E06D1C287818B901202B
:1041100035B0BDE8F08328782828F5D16D1C61E022
:1041200034AA69462846FFF779FE064635449DF8CD
:10413000D00020B1012827D0FF284CD149E09DF8BC
:10414000000000B333A9684600F0F7F806460EB148
:104150000220DDE7204600F061F825490A31339A54
:104160000A50A1F12400008B0121A140884320497D
:104170001A39088304211E480155601CC4B20A2C58
:1041800001DD0320C4E726E0684600F075F9401C15
:1041900000F0FF08204600F041F815490A3100EB15
:1041A00001094946684600F05CF911481A38018B4C
:1041B0000120A040014388B20D491A3908830C48F8
:1041C00000F80480601CC4B20A2C01DD03209FE7C4
:1041D00001E002209CE700BF2878292801D0287838
:1041E00000B900E09CE700BF3C70002090E70000B1
:1041F0001E0100200020074A128802F400423AB152
:10420000044A11780022044B5A541846014B1A8074
:104210007047000008000020F8010020024600203E
:10422000002105E0044B5B5C0344D8B24B1CD9B2BF
:104230009142F7DB704700001E01002010B50446D4
:1042400004EBC40000EB04100122C2EB800081B239
:104250004FF47A7000F0B8FC01200149C87510BD18
:104260000401002010B50246012000E050430B1E5F
:10427000A1F10104E1B2F9D110BD000070B5002632
:10428000FFF7B8FF064606B970BD1748816830468B
:10429000884704461CB91449C868804721E0304665
:1042A00000F0F6F80546012D00D02C46CCB1012CCB
:1042B00006D0022C08D0032C0AD0042C10D10BE01D
:1042C0000AA0FBF7D5FF0BE00BA0FBF7D1FF07E03F
:1042D0000CA0FBF7CDFF03E00DA0FBF7C9FF00BF6B
:1042E00000BF00BFD0E7000004010020BAAFCAFD44
:1042F000B4EDCEF3210D0A00B2CECAFDB4EDCEF37B
:10430000210D0A00B2CECAFDCCABB6E0210D0A00E9
:10431000CEB4D5D2B5BDC6A5C5E4B5C4BAAFCAFD45
:10432000210D0A000146491C00E0491C087820289C
:1043300001D10029F9D1087870472DE9F04F0546E1
:104340000F4600264FF00A09B3462C46002038607D
:1043500034E02078392802DC2078302811DA2878F7
:104360002D2802D028782B2800D156B12078462855
:1043700002DC2078412804DA2078582817D1012E51
:1043800015D12078412801DB4FF0100928782D281D
:1043900003D14FF0020B6D1C0FE028782B2803D1BE
:1043A0004FF0010B6D1C08E0701CC6B205E02078D0
:1043B00000B904E00120BDE8F08F641CC9E700BF2C
:1043C0002C46B9F1100F0FD1032E01DA0220F2E7CB
:1043D0002078302806D16078582803D1A41CB01E5C
:1043E000C6B204E00320E6E70EB90420E3E71BE0D1
:1043F0000EB1701EC6B22078392806DC207830282D
:1044000003DB2078A0F1300A02E02078A0F1370A1F
:1044100031464846FFF726FF39680AFB001038602E
:10442000641C207800B900E0E2E700BFBBF1020F96
:1044300004D13868C0F10008C7F800800020BAE74E
:1044400002460AE010780B78984201D001207047AC
:10445000107800B902E0521C491CF3E700BF0020AD
:10446000F5E706E002780A70027802B902E0401C23
:10447000491CF7E700BF70470146002005E00A78B5
:1044800002B903E0421CD0B2491CF8E700BF7047F4
:1044900010B58CB004461E230BAA03A92046FFF7D3
:1044A00027FD0090009810B101200CB010BD9DF8C0
:1044B0002C00044400200B900EE040489DF82C2076
:1044C00050F8221003A8FFF7BBFF00B908E09DF8E1
:1044D0002C00401CC0B20B909DF82C000728ECD398
:1044E00000BF9DF82C00072863D2DFE800F0040528
:1044F0003C5E6564630000BF31A0FBF7B9FE31A0EC
:10450000FBF7B6FE3FA0FBF7B3FE4EA0FBF7B0FEF5
:104510005CA0FBF7ADFE6BA0FBF7AAFE79A0FBF752
:10452000A7FE87A0FBF7A4FE8CA0FBF7A1FE94A03A
:10453000FBF79EFE98A0FBF79BFE9DA0FBF798FE65
:10454000A2A0FBF795FEA8A0FBF792FEB4A0FBF794
:104550008FFEC1A0FBF78CFECCA0FBF789FED8A094
:10456000FBF786FEA2E216A0FBF782FEE4A0FBF7B3
:104570007FFE00200B900EE0F14800689DF82C2093
:1045800000EBC2004168EFA0FBF772FE9DF82C0023
:10459000401CC0B20B90EA48007D9DF82C10884268
:1045A000EADC07A0FBF764FE80E205A0FBF760FEF3
:1045B000CCE179E24DE221E2F4E100003800002094
:1045C0000D0A00002D2D2D2D2D2D2D2D2D2D2D2DB8
:1045D0002D2D2D2D2D2D2D2D2D2D2D2D55534D4189
:1045E00052542056332E352D2D2D2D2D2D2D2D2D84
:1045F0002D2D2D2D2D2D2D2D2D2D2D2D2D2D2D20F8
:104600000D0A00002020202055534D415254CAC7A6
:10461000D3C9414C49454E54454BBFAAB7A2B5C476
:10462000D2BBB8F6C1E9C7C9B5C4B4AEBFDAB5F7F5
:10463000CAD4BBA5BDBBD7E9BCFE2CCDA8B9FD2013
:104640000D0A0000CBFC2CC4E3BFC9D2D4CDA8B95D
:10465000FDB4AEBFDAD6FACAD6B5F7D3C3B3CCD061
:10466000F2C0EFC3E6B5C4C8CEBACEBAAFCAFD2C0D
:10467000B2A2D6B4D0D02ED2F2B4CB2CC4E3BFC9F0
:104680000D0A0000D2D4CBE6D2E2B8FCB8C4BAAF6F
:10469000CAFDB5C4CAE4C8EBB2CECAFD28D6A7B3DA
:1046A000D6CAFDD7D62831302F3136BDF8D6C62C24
:1046B000D6A7B3D6B8BACAFD29A1A2D7D6B7FBB43C
:1046C000AE0D0A00A1A2BAAFCAFDC8EBBFDAB5D8D9
:1046D000D6B7B5C8D7F7CEAAB2CECAFD292CB5A594
:1046E000B8F6BAAFCAFDD7EEB6E0D6A7B3D631302A
:1046F000B8F6CAE4C8EBB2CECAFD2CB2A2D6A7B3B4
:10470000D60D0A00BAAFCAFDB7B5BBD8D6B5CFD45F
:10471000CABE2ED6A7B3D6B2CECAFDCFD4CABEBDAE
:10472000F8D6C6C9E8D6C3B9A6C4DC2CD6A7B3D67A
:10473000BDF8D6C6D7AABBBBB9A6C4DC2E0D0A00ED
:10474000BCBCCAF5D6A7B3D63A7777772E6F70651B
:104750006E6564762E636F6D0D0A000055534D41F2
:104760005254D3D037B8F6CFB5CDB3C3FCC1EE2881
:10477000B1D8D0EBD0A1D0B4293A0D0A0000000086
:104780003F3A202020202020BBF1C8A1B0EFD6FA6C
:10479000D0C5CFA20D0A000068656C703A202020B9
:1047A000BBF1C8A1B0EFD6FAD0C5CFA20D0A000068
:1047B0006C6973743A202020BFC9D3C3B5C4BAAFA3
:1047C000CAFDC1D0B1ED0D0A0A00000069643A20AB
:1047D00020202020BFC9D3C3BAAFCAFDB5C4494405
:1047E000C1D0B1ED0D0A0A006865783A202020207A
:1047F000B2CECAFD3136BDF8D6C6CFD4CABE2CBAA9
:10480000F3B8FABFD5B8F12BCAFDD7D6BCB4D6B42D
:10481000D0D0BDF8D6C6D7AABBBB0D0A0A0000008F
:104820006465633A20202020B2CECAFD3130BDF845
:10483000D6C6CFD4CABE2CBAF3B8FABFD5B8F12BBE
:10484000CAFDD7D6BCB4D6B4D0D0BDF8D6C6D7AA88
:10485000BBBB0D0A0A00000072756E74696D653A83
:10486000312CBFAAC6F4BAAFCAFDD4CBD0D0BCC6D7
:10487000CAB13B302CB9D8B1D5BAAFCAFDD4CBD070
:10488000D0BCC6CAB13B0D0A0A000000C7EBB0B4E9
:10489000D5D5B3CCD0F2B1E0D0B4B8F1CABDCAE43A
:1048A000C8EBBAAFCAFDC3FBBCB0B2CECAFDB2A260
:1048B000D2D4BBD8B3B5BCFCBDE1CAF82E0D0A00FA
:1048C0002D2D2D2D2D2D2D2D2D2D2D2D2D2D2D2D18
:1048D0002D2D2D2D2D2D2D2D2D2DD5FDB5E3D4AD2B
:1048E000D7D32D2D2D2D2D2D2D2D2D2D2D2D2D2DA8
:1048F0002D2D2D2D2D2D2D2D2D2D2D200D0A000092
:104900002D2D2D2D2D2D2D2D2D2D2D2D2D2D2D2DD7
:104910002D2D2D2D2D2D2D2D2DBAAFCAFDC7E5B571
:10492000A52D2D2D2D2D2D2D2D2D2D2D2D2D2D2D3F
:104930002D2D2D2D2D2D2D2D2D2D2D2D200D0A0024
:104940000401002025730D0A0000000059A0FBF7A8
:104950008FFC00200B901AE0664909689DF82C2016
:1049600001EBC20101AB02AA486803A9FFF7DCFA18
:10497000604800689DF82C1050F8312003A95EA013
:10498000FBF776FC9DF82C00401CC0B20B905948F8
:10499000007D9DF82C108842DEDCAFF2DC30FBF7A6
:1049A00067FC83E0AFF2E830FBF762FC0BAA03A9D7
:1049B0002046FFF733FA9DF82C00C8B9694603A8D2
:1049C000FFF7BBFC0B909DF82C0020B94FA000997D
:1049D000FBF74EFC0EE09DF82C00042801D00220CD
:1049E00063E54DA0FBF744FC01204249C87501E096
:1049F00002205AE547A0FBF73BFC57E045A0FBF738
:104A000037FC0BAA03A92046FFF708FA9DF82C00F3
:104A1000C8B9694603A8FFF790FC0B909DF82C00DD
:104A200020B942A00099FBF723FC0EE09DF82C0072
:104A3000042801D0022038E53FA0FBF719FC002034
:104A40002C49C87501E002202FE532A0FBF710FCCD
:104A50002CE030A0FBF70CFC0BAA03A92046FFF7C3
:104A6000DDF99DF82C00C8B9694603A8FFF765FC7D
:104A70000B909DF82C0078B91E49009881F8EC0045
:104A8000084690F8EC0018B130A0FBF7F1FB07E006
:104A900035A0FBF7EDFB03E0022006E5022004E56C
:104AA0001CA0FBF7E5FB01E00120FEE400BF0020B5
:104AB000FBE400002D2D2D2D2D2D2D2D2D2D2D2DFB
:104AC0002D2D2D2D2D2D2D2D2D2D2D2D2DBAAFCA6A
:104AD000FD204944202D2D2D2D2D2D2D2D2D2D2D1D
:104AE0002D2D2D2D2D2D2D2D2D2D2D2D2D2D2D2DF6
:104AF000200D0A00040100202573206964206973D9
:104B00003A0D0A3058253038580D0A004845583AB1
:104B1000305825580D0A00003136BDF8D6C6B2CE41
:104B2000CAFDCFD4CABE210D0A0000004445433A55
:104B3000256C750D0A0000003130BDF8D6C6B2CE26
:104B4000CAFDCFD4CABE210D0A00000052756E20E6
:104B500054696D652043616C63756C6174696F6E37
:104B6000204F4E0D0A00000052756E2054696D658D
:104B70002043616C63756C6174696F6E204F4646AB
:104B80000D0A00000E480068006900F0010040B105
:104B90000C48D0F8F0004FF6FF7108440949C1F8FD
:104BA000F0000848D0F8F00005490968496A08444F
:104BB0000449C1F8F0000846D0F8F0007047000042
:104BC000C40500200401002038B504460D4600BF8E
:104BD00000BF1248C06940F004001049C86108468F
:104BE000C06900F00400009000BF00BF00BF0C4887
:104BF0000C4908600846456000218160C46001617D
:104C0000FCF79CFD0748FCF7CDFD032211461E2052
:104C1000FCF75FF91E20FCF74CF938BD001002408C
:104C200000080040C40500206FF001000949096830
:104C3000086100BF000C07490968C86201460548C1
:104C4000C16000BF00200349096848620249C1F8F9
:104C5000F0007047C4050020040100200160704787
:104C6000491058BFC1F140415B1058BFC3F14043E8
:104C70008B42EFF3008070472DE9C04130B4DFF87C
:104C8000A0C23CEA111418BF3CEA131400F0EC80F7
:104C900081EA03051CEA111444EAD57418BF1CEA22
:104CA000131500F0C780A4EB05044FF0004545EA5A
:104CB000C12145EAC32341EA505143EA525304F16A
:104CC0007F74994204F500344FEAC0204FEAC222B3
:104CD00008BF904200F09C804FEA13650FF2401627
:104CE000765D4FEA134506FB05F7C7F1807706FBB3
:104CF00007F74FEAD737A7FB03687642C8F5803835
:104D0000A7FB06CE38BFA8F1010807FB08E64FF065
:104D1000000EA6FB028CE6FB03CEDCF1000CCEF10C
:104D2000004E38BFAEF1010EA6FB0C584FF0000745
:104D30004FF00005E6FB0E87A1FB08C6A0FB07CEDF
:104D400016EB0E0645F10005E1FB076515F1E04E97
:104D50007EBFA4F580345FEA46066D4116F18007F8
:104D600045F100054FEA17274FEA066647EA05674F
:104D7000A6F1DE46B6F1805F4FEA15251FD9384609
:104D800024F0010C05EBC471BCF1FE6F01EB0C11BA
:104D900002D8F0BCBDE8008124425CBF01F5801E52
:104DA0009EEAC47F02D4F0BCBDE80081244238D41E
:104DB000F0BCA1F1C041BDE8004100F029BA4FEAC2
:104DC000D22242EA43524FEAD323A7FB02864FEA9C
:104DD000D02040EA415007FB03661EEA0E0F4FEA5F
:104DE000D12105FB026658BFA6EB0056B6EB005674
:104DF0004FEA520E4EEAC37E18EB0E0E56EB530EE0
:104E0000BDD518EB02085E417F1C55F10005B6E7E1
:104E10004FF480154FF000074FF000064FF00008E8
:104E2000ADE7F0BC4FF0000001F1C04101F00041DE
:104E3000BDE8008111EA0C1F0CEA131500D00CE04C
:104E400013EA0C1F00F025804FF00000F0BC81EA4F
:104E5000030101F00041BDE80081F0BCBDE8004164
:104E600081EA030100F0D4B9F0BCBDE8004170B59F
:104E700000F080F9097EFC3E00F007B881EA0301EA
:104E80004FF0000001F00041704781EA030100F09B
:104E9000BFB9F0BCBDE800414FF0000021497047A8
:104EA000FFFDFBF9F7F5F4F2F0EEEDEBE9E8E6E4EF
:104EB000E3E1E0DEDDDBDAD8D7D5D4D3D1D0CFCD76
:104EC000CCCBCAC8C7C6C5C4C2C1C0BFBEBDBCBBAF
:104ED000BAB9B8B7B6B5B4B3B2B1B0AFAEADACABAA
:104EE000AAA9A8A8A7A6A5A4A3A3A2A1A09F9F9E84
:104EF0009D9C9C9B9A999998979796959594939336
:104F0000929191908F8F8E8E8D8C8C8B8B8A8989CC
:104F1000888887878685858484838382828181804F
:104F20000000FF070000F87F4FEA1153A3F58063EC
:104F3000D3F11E03A8BFD3F1200C08DB4FF00042D1
:104F400042EAC12252EA505232FA03F07047094253
:104F50000BD4102BC4BF0020704703F5787CBCF144
:104F6000FF3F05D04FF0FF3070474FF00000704713
:104F700070B500F0FFF800BF499224800020704710
:104F8000F0E7B0FA80F310FA03F10AD0C3F11D0381
:104F900003F580634FEA41504FEA035202EBD121FF
:104FA00070474FF00000704751EA030C17D41CF50E
:104FB000801F58BFBCF5801F00F10680994218BFC2
:104FC000704708BF9042704707D711F5801F58BF40
:104FD00013F5801F19D499427047894270471CF518
:104FE000801F08D5BCF5801FF7D58B4218BF7047CE
:104FF00008BF824270474FF4001C1CEB410F38BFC2
:105000001CEB430F01D28B42704770B500F0B2F831
:10501000922449004FF000514FF08053FFF720BE1B
:10502000DFF848C170B51CEA111E1EBF1CEA13153B
:105030009EEA0C0F95EA0C0F00F06F8081EA0304E2
:1050400023EA4C134EEAD47E21EA4C1141F480113C
:1050500043F48013AE44A1FB024CA0FB0365AEF108
:105060007F7E361955EB0C05A1FB034C4CF1000378
:10507000A0FB021C16EB0C06654153F1000309422C
:1050800018BF46F0010613F4007F0BD14FEA03313D
:105090004FEA0530340341EA155140EA16506FF0EB
:1050A00003020AE04FEAC3214FEAC520F40241EAB5
:1050B000555140EA56506FF0020202EB2E4201EBCE
:1050C000025585EACE710AD05FEA440C18BF24F07D
:1050D000004450F1000041F1000120EAD47040F298
:1050E000FE7C624500D270BDA84214BF4FF08044E0
:1050F0004FF04044002E08BF0024BEF1806FA8BFCF
:10510000A1F1C041BDE8704080F282804FF0000004
:1051100001F1C04101F0004170479EEA0C0F0CEA1A
:10512000131518BF95EA0C0F06D04FF0000081EA66
:10513000030E0EF0004170BD00F01CF88900013E26
:1051400000F007B800F009B84FEA430C5FEA5C5C76
:1051500008D081EA030100F05BB84FEA410C5FEA36
:105160005C5CF6D14FF00000014970470000FF077A
:105170000000F87F0EF1020E2EF0030E5EF8046BB5
:10518000364205D4012A43EB030515F5001F12D85A
:10519000012841EB010C1CF5001F0CD80ED14FEA81
:1051A000D17C15F5001F0CEB4C0C0CF1020C08BF68
:1051B0004CEBD37C04E04FF0080C01E04FEAD37CC9
:1051C0000CEB4C0526FA05F606F00706B6F1040CC2
:1051D00006D20EEB860CBDE870404CF0010C604727
:1051E000DFE80CF0090B02024FF000414FF0000025
:1051F000A1F5002170BD19461046012851EB0104AC
:1052000018BFD4F5001484BF002001F0004170BD28
:105210000808A0F500114FEA3101704753EA010C6C
:1052200017D41CF5801F58BFBCF5801F00F1068005
:105230008B4218BF704708BF8242704707D713F5EB
:10524000801F58BF11F5801F19D48B4270479B42B5
:1052500070471CF5801F08D5BCF5801FF7D5994213
:1052600018BF704708BF904270474FF4001C1CEBFA
:10527000430F38BF1CEB410F01D2994270470FB466
:105280000CBC03BCFFF7C1BE000000000000000022
:1052900001020304060708090000000001020304DC
:1052A00000000000000000000000000000000000FE
:1052B0003F400000000000000000300040003000CF
:1052C0004000000009000BC03D000BC03D0009007C
:1052D00018C024407FE0224031800000180024C024
:1052E0001B000D803240018003801C4027401C8041
:1052F00007400040100060000000000000000000B7
:105300000000000000001F802040402000004020DE
:1053100020401F8000000000090006001F800600DA
:1053200009000000040004003F80040004000000A5
:1053300000100060000000000000000004000400F5
:105340000400040004000000000000400000000011
:1053500000000000002001C00600380040000000EE
:105360001F802040204020401F800000000010408F
:105370003FC000400000000018C0214022402440EF
:105380001840000010802040244024401B80000072
:1053900002000D0011003FC0014000003C8024408D
:1053A00024402440238000001F80244024403440B7
:1053B000038000003000200027C0380020000000DB
:1053C0001B802440244024401B8000001C0022C07D
:1053D000224022401F800000000000000840000022
:1053E0000000000000000000046000000000000059
:1053F000000004000A00110020804040090009005C
:105400000900090009000000000040402080110050
:105410000A000400180020002340240018000000A7
:105420001F802040274029401F400000004007C047
:1054300039000F0001C0004020403FC024402440FC
:105440001B8000001F802040204020403080000052
:1054500020403FC0204020401F80000020403FC02F
:1054600024402E4030C0000020403FC024402E0089
:10547000300000000F0010802040224033800200E6
:1054800020403FC0040004003FC020402040204096
:105490003FC02040204000000060202020203FC06E
:1054A0002000200020403FC024400B0030C020409E
:1054B00020403FC020400040004000C03FC03C00B2
:1054C00003C03C003FC0000020403FC00C40230010
:1054D0003FC020001F802040204020401F8000004F
:1054E00020403FC024402400180000001F802140BD
:1054F000214020E01FA0000020403FC024402600A3
:1055000019C0004018C024402440224031800000CF
:10551000300020403FC020403000000020003F808D
:10552000004000403F80200020003E0001C00700F6
:1055300038002000380007C03C0007C038000000D9
:10554000204039C0060039C020400000200038400B
:1055500007C0384020000000304021C026403840BD
:1055600020C00000000000007FE04020402000003C
:10557000000070000C00038000400000000040208C
:1055800040207FE0000000000000200040002000DC
:1055900000000000001000100010001000100010AB
:1055A0000000000040000000000000000000028039
:1055B0000540054003C0004020003FC004400440B7
:1055C0000380000000000380044004400640000007
:1055D00000000380044024403FC0004000000380DE
:1055E0000540054003400000000004401FC0244067
:1055F00024402000000002E0055005500650042021
:1056000020403FC00440040003C0004000000440AC
:1056100027C000400000000000100010041027E028
:105620000000000020403FC00140070004C00440CB
:10563000204020403FC000400040000007C0040060
:1056400007C0040003C00000044007C00440040079
:1056500003C00040000003800440044003800000B9
:10566000041007F004500440038000000000038091
:105670000440045007F00010044007C0024004003A
:1056800004000000000006400540054004C0000082
:10569000000004001F800440004000000400078058
:1056A0000040044007C000400400070004C001801F
:1056B00006000400060001C0070001C0060000004B
:1056C000044006C0010006C004400000041007109A
:1056D00004E00180060004000000044005C006400C
:1056E000044000000000000004007BE040200000B7
:1056F000000000000000FFF000000000000040205B
:105700007BE004000000000040008000400020001A
:105710002000400000000000000000000000000029
:10572000000000000000000000001FCC000C000082
:105730000000000000000800300060000800300099
:1057400060000000022003FC1E20022003FC1E203B
:105750000220000000000E1811043FFF10840C7896
:10576000000000000F0010840F3800C00778188474
:105770000078000000780F8410C411240E9800E413
:1057800000840008080068007000000000000000AD
:105790000000000000000000000007E018182004CE
:1057A00040020000000040022004181807E000003A
:1057B000000000000240024001800FF00180024022
:1057C000024000000080008000800FF80080008010
:1057D000008000000001000D000E0000000000002D
:1057E0000000000000000080008000800080008039
:1057F000008000800000000C000C00000000000091
:105800000000000000000006001800600180060093
:1058100018002000000007F0080810041004080811
:1058200007F000000000080408041FFC0004000446
:105830000000000000000E0C10141024104411840D
:105840000E0C000000000C18100411041104128842
:105850000C700000000000E00320042408241FFC5A
:105860000024000000001F98108411041104108807
:1058700010700000000007F0088811041104188857
:105880000070000000001C00100010FC13001C0041
:105890001000000000000E381144108410841144E0
:1058A0000E38000000000700088C104410440888DF
:1058B00007F00000000000000000030C030C0000D3
:1058C00000000000000000000001010600000000D0
:1058D00000000000000000800140022004100808C1
:1058E00010040000022002200220022002200220D8
:1058F00002200000000010040808041002200140EB
:105900000080000000000E001200100C106C1080CF
:105910000F00000003E00C1813E4142417C4082837
:1059200007D000000004003C03C41C40074000E412
:10593000001C000410041FFC1104110411040E8843
:105940000070000003E00C1810041004100410088C
:105950001C10000010041FFC1004100410040808A0
:1059600007F0000010041FFC1104110417C41004F8
:105970000818000010041FFC1104110017C01000CB
:105980000800000003E00C181004100410441C78F8
:105990000040000010041FFC108400800080108470
:1059A0001FFC10040000100410041FFC100410045D
:1059B0000000000000030001100110011FFE100094
:1059C0001000000010041FFC110403801464181C54
:1059D0001004000010041FFC100400040004000464
:1059E000000C000010041FFC1F0000FC1F001FFC27
:1059F0001004000010041FFC0C04030000E0101849
:105A00001FFC100007F00808100410041004080818
:105A100007F0000010041FFC10841080108010801C
:105A20000F00000007F0081810241024101C080AAA
:105A300007F2000010041FFC1104110011C0113006
:105A40000E0C000400000E1C11041084108410447D
:105A50001C3800001800100010041FFC1004100077
:105A60001800000010001FF81004000400041004C7
:105A70001FF8100010001E0011E0001C00701380C1
:105A80001C0010001FC0103C00E01F0000E0103C94
:105A90001FC000001004180C163401C001C01634D9
:105AA000180C100410001C00130400FC13041C004C
:105AB000100000000804101C1064108413041C045F
:105AC000101800000000000000007FFE40024002AD
:105AD00040020000000030000C0003800060001C49
